{"contracts/Flag.sol":{"Flag":{"abi":[{"inputs":[],"stateMutability":"nonpayable","type":"constructor"},{"anonymous":false,"inputs":[{"indexed":true,"internalType":"address","name":"to","type":"address"},{"indexed":false,"internalType":"bool","name":"isRedFlag","type":"bool"},{"indexed":true,"internalType":"bytes32","name":"flagId","type":"bytes32"},{"indexed":false,"internalType":"string","name":"category","type":"string"}],"name":"AnonymousFlagSubmitted","type":"event"},{"anonymous":false,"inputs":[{"indexed":true,"internalType":"address","name":"user","type":"address"},{"indexed":false,"internalType":"string","name":"category","type":"string"},{"indexed":false,"internalType":"uint256","name":"score","type":"uint256"}],"name":"CategoryScoreUpdated","type":"event"},{"anonymous":false,"inputs":[{"indexed":true,"internalType":"address","name":"from","type":"address"},{"indexed":true,"internalType":"address","name":"to","type":"address"},{"indexed":false,"internalType":"bool","name":"isRedFlag","type":"bool"},{"indexed":true,"internalType":"bytes32","name":"flagId","type":"bytes32"}],"name":"EncryptedFlagSubmitted","type":"event"},{"anonymous":false,"inputs":[{"indexed":true,"internalType":"address","name":"user","type":"address"},{"indexed":true,"internalType":"bytes32","name":"flagId","type":"bytes32"},{"indexed":true,"internalType":"address","name":"approver","type":"address"}],"name":"FlagApproved","type":"event"},{"anonymous":false,"inputs":[{"indexed":true,"internalType":"address","name":"from","type":"address"},{"indexed":true,"internalType":"address","name":"to","type":"address"},{"indexed":false,"internalType":"bool","name":"isRedFlag","type":"bool"},{"indexed":true,"internalType":"bytes32","name":"flagId","type":"bytes32"},{"indexed":false,"internalType":"string","name":"category","type":"string"}],"name":"FlagSubmitted","type":"event"},{"anonymous":false,"inputs":[{"indexed":true,"internalType":"address","name":"user1","type":"address"},{"indexed":true,"internalType":"address","name":"user2","type":"address"}],"name":"MatchCreated","type":"event"},{"anonymous":false,"inputs":[{"indexed":true,"internalType":"address","name":"user","type":"address"},{"indexed":false,"internalType":"uint256","name":"overallScore","type":"uint256"},{"indexed":false,"internalType":"string","name":"ratingTier","type":"string"}],"name":"RatingUpdated","type":"event"},{"anonymous":false,"inputs":[{"indexed":true,"internalType":"address","name":"user","type":"address"},{"indexed":false,"internalType":"bool","name":"isRecommended","type":"bool"}],"name":"RecommendationStatusChanged","type":"event"},{"anonymous":false,"inputs":[{"indexed":true,"internalType":"address","name":"user","type":"address"},{"indexed":false,"internalType":"uint256","name":"newReputation","type":"uint256"}],"name":"ReputationUpdated","type":"event"},{"anonymous":false,"inputs":[{"indexed":true,"internalType":"address","name":"user","type":"address"}],"name":"UserVerified","type":"event"},{"inputs":[{"internalType":"string","name":"_category","type":"string"}],"name":"addFlagCategory","outputs":[],"stateMutability":"nonpayable","type":"function"},{"inputs":[{"internalType":"bytes32","name":"_flagId","type":"bytes32"}],"name":"approveFlag","outputs":[],"stateMutability":"nonpayable","type":"function"},{"inputs":[{"internalType":"bytes32[]","name":"_flagIds","type":"bytes32[]"}],"name":"batchApproveFlags","outputs":[],"stateMutability":"nonpayable","type":"function"},{"inputs":[{"internalType":"address","name":"_user1","type":"address"},{"internalType":"address","name":"_user2","type":"address"}],"name":"createMatch","outputs":[],"stateMutability":"nonpayable","type":"function"},{"inputs":[{"internalType":"string","name":"_review","type":"string"},{"internalType":"bytes32","name":"_key","type":"bytes32"}],"name":"encryptFlagReview","outputs":[{"internalType":"bytes","name":"","type":"bytes"}],"stateMutability":"pure","type":"function"},{"inputs":[{"internalType":"bytes32","name":"","type":"bytes32"}],"name":"flagById","outputs":[{"internalType":"address","name":"from","type":"address"},{"internalType":"address","name":"to","type":"address"},{"internalType":"bool","name":"isRedFlag","type":"bool"},{"internalType":"string","name":"review","type":"string"},{"internalType":"bytes","name":"encryptedReview","type":"bytes"},{"internalType":"uint256","name":"timestamp","type":"uint256"},{"internalType":"bool","name":"isVisible","type":"bool"},{"internalType":"bytes32","name":"flagId","type":"bytes32"},{"internalType":"bool","name":"isEncrypted","type":"bool"},{"internalType":"uint8","name":"severity","type":"uint8"},{"internalType":"string","name":"category","type":"string"}],"stateMutability":"view","type":"function"},{"inputs":[{"internalType":"uint256","name":"","type":"uint256"}],"name":"flagCategories","outputs":[{"internalType":"string","name":"","type":"string"}],"stateMutability":"view","type":"function"},{"inputs":[],"name":"generateEncryptionSeed","outputs":[{"internalType":"bytes32","name":"","type":"bytes32"}],"stateMutability":"view","type":"function"},{"inputs":[{"internalType":"address","name":"_user","type":"address"},{"internalType":"string","name":"_category","type":"string"}],"name":"getCategoryStats","outputs":[{"components":[{"internalType":"uint256","name":"totalCount","type":"uint256"},{"internalType":"uint256","name":"redCount","type":"uint256"},{"internalType":"uint256","name":"greenCount","type":"uint256"},{"internalType":"uint256","name":"averageSeverity","type":"uint256"},{"internalType":"uint256","name":"categoryScore","type":"uint256"}],"internalType":"struct Flag.CategoryStats","name":"","type":"tuple"}],"stateMutability":"view","type":"function"},{"inputs":[],"name":"getContractStats","outputs":[{"internalType":"uint256","name":"","type":"uint256"},{"internalType":"uint256","name":"","type":"uint256"},{"internalType":"uint256","name":"","type":"uint256"}],"stateMutability":"view","type":"function"},{"inputs":[{"internalType":"bytes32","name":"_flagId","type":"bytes32"},{"internalType":"address","name":"_requester","type":"address"}],"name":"getFlagById","outputs":[{"components":[{"internalType":"address","name":"from","type":"address"},{"internalType":"address","name":"to","type":"address"},{"internalType":"bool","name":"isRedFlag","type":"bool"},{"internalType":"string","name":"review","type":"string"},{"internalType":"bytes","name":"encryptedReview","type":"bytes"},{"internalType":"uint256","name":"timestamp","type":"uint256"},{"internalType":"bool","name":"isVisible","type":"bool"},{"internalType":"bytes32","name":"flagId","type":"bytes32"},{"internalType":"bool","name":"isEncrypted","type":"bool"},{"internalType":"uint8","name":"severity","type":"uint8"},{"internalType":"string","name":"category","type":"string"}],"internalType":"struct Flag.FlagData","name":"","type":"tuple"}],"stateMutability":"view","type":"function"},{"inputs":[],"name":"getFlagCategories","outputs":[{"internalType":"string[]","name":"","type":"string[]"}],"stateMutability":"view","type":"function"},{"inputs":[{"internalType":"address","name":"_user","type":"address"}],"name":"getFlagStatistics","outputs":[{"components":[{"internalType":"uint256","name":"totalFlags","type":"uint256"},{"internalType":"uint256","name":"redFlags","type":"uint256"},{"internalType":"uint256","name":"greenFlags","type":"uint256"},{"internalType":"uint256","name":"visibleFlags","type":"uint256"},{"internalType":"uint256","name":"pendingFlags","type":"uint256"},{"internalType":"uint256","name":"averageRating","type":"uint256"}],"internalType":"struct Flag.FlagStats","name":"","type":"tuple"}],"stateMutability":"view","type":"function"},{"inputs":[{"internalType":"address","name":"_user","type":"address"}],"name":"getFlagTypeDistribution","outputs":[{"internalType":"string[]","name":"categories","type":"string[]"},{"internalType":"uint256[]","name":"redCounts","type":"uint256[]"},{"internalType":"uint256[]","name":"greenCounts","type":"uint256[]"},{"internalType":"uint256[]","name":"categoryScores","type":"uint256[]"}],"stateMutability":"view","type":"function"},{"inputs":[],"name":"getRecommendedUsers","outputs":[{"internalType":"address[]","name":"","type":"address[]"}],"stateMutability":"view","type":"function"},{"inputs":[{"internalType":"address","name":"_user","type":"address"}],"name":"getUserRating","outputs":[{"components":[{"internalType":"uint256","name":"overallScore","type":"uint256"},{"internalType":"uint256","name":"safetyScore","type":"uint256"},{"internalType":"uint256","name":"behaviorScore","type":"uint256"},{"internalType":"uint256","name":"communicationScore","type":"uint256"},{"internalType":"uint256","name":"kindnessScore","type":"uint256"},{"internalType":"uint256","name":"reliabilityScore","type":"uint256"},{"internalType":"string","name":"ratingTier","type":"string"},{"internalType":"uint256","name":"totalInteractions","type":"uint256"},{"internalType":"uint256","name":"positivePercentage","type":"uint256"},{"internalType":"bool","name":"isRecommended","type":"bool"}],"internalType":"struct Flag.UserRating","name":"","type":"tuple"}],"stateMutability":"view","type":"function"},{"inputs":[{"internalType":"string","name":"_tier","type":"string"}],"name":"getUsersByRatingTier","outputs":[{"internalType":"address[]","name":"","type":"address[]"}],"stateMutability":"view","type":"function"},{"inputs":[{"internalType":"address","name":"_user","type":"address"}],"name":"getVisibleFlags","outputs":[{"components":[{"internalType":"address","name":"from","type":"address"},{"internalType":"address","name":"to","type":"address"},{"internalType":"bool","name":"isRedFlag","type":"bool"},{"internalType":"string","name":"review","type":"string"},{"internalType":"bytes","name":"encryptedReview","type":"bytes"},{"internalType":"uint256","name":"timestamp","type":"uint256"},{"internalType":"bool","name":"isVisible","type":"bool"},{"internalType":"bytes32","name":"flagId","type":"bytes32"},{"internalType":"bool","name":"isEncrypted","type":"bool"},{"internalType":"uint8","name":"severity","type":"uint8"},{"internalType":"string","name":"category","type":"string"}],"internalType":"struct Flag.FlagData[]","name":"","type":"tuple[]"}],"stateMutability":"view","type":"function"},{"inputs":[{"internalType":"address","name":"_user","type":"address"}],"name":"getVisibleGreenFlags","outputs":[{"components":[{"internalType":"address","name":"from","type":"address"},{"internalType":"address","name":"to","type":"address"},{"internalType":"bool","name":"isRedFlag","type":"bool"},{"internalType":"string","name":"review","type":"string"},{"internalType":"bytes","name":"encryptedReview","type":"bytes"},{"internalType":"uint256","name":"timestamp","type":"uint256"},{"internalType":"bool","name":"isVisible","type":"bool"},{"internalType":"bytes32","name":"flagId","type":"bytes32"},{"internalType":"bool","name":"isEncrypted","type":"bool"},{"internalType":"uint8","name":"severity","type":"uint8"},{"internalType":"string","name":"category","type":"string"}],"internalType":"struct Flag.FlagData[]","name":"","type":"tuple[]"}],"stateMutability":"view","type":"function"},{"inputs":[{"internalType":"address","name":"_user","type":"address"}],"name":"getVisibleRedFlags","outputs":[{"components":[{"internalType":"address","name":"from","type":"address"},{"internalType":"address","name":"to","type":"address"},{"internalType":"bool","name":"isRedFlag","type":"bool"},{"internalType":"string","name":"review","type":"string"},{"internalType":"bytes","name":"encryptedReview","type":"bytes"},{"internalType":"uint256","name":"timestamp","type":"uint256"},{"internalType":"bool","name":"isVisible","type":"bool"},{"internalType":"bytes32","name":"flagId","type":"bytes32"},{"internalType":"bool","name":"isEncrypted","type":"bool"},{"internalType":"uint8","name":"severity","type":"uint8"},{"internalType":"string","name":"category","type":"string"}],"internalType":"struct Flag.FlagData[]","name":"","type":"tuple[]"}],"stateMutability":"view","type":"function"},{"inputs":[{"internalType":"address","name":"","type":"address"},{"internalType":"address","name":"","type":"address"}],"name":"hasMatched","outputs":[{"internalType":"bool","name":"","type":"bool"}],"stateMutability":"view","type":"function"},{"inputs":[{"internalType":"string","name":"_category","type":"string"}],"name":"isValidCategory","outputs":[{"internalType":"bool","name":"","type":"bool"}],"stateMutability":"view","type":"function"},{"inputs":[{"internalType":"address","name":"","type":"address"}],"name":"isVerifiedUser","outputs":[{"internalType":"bool","name":"","type":"bool"}],"stateMutability":"view","type":"function"},{"inputs":[{"internalType":"address","name":"","type":"address"}],"name":"lastRatingUpdate","outputs":[{"internalType":"uint256","name":"","type":"uint256"}],"stateMutability":"view","type":"function"},{"inputs":[],"name":"owner","outputs":[{"internalType":"address","name":"","type":"address"}],"stateMutability":"view","type":"function"},{"inputs":[{"internalType":"address","name":"_to","type":"address"},{"internalType":"bool","name":"_isRedFlag","type":"bool"},{"internalType":"string","name":"_review","type":"string"},{"internalType":"string","name":"_category","type":"string"},{"internalType":"uint8","name":"_severity","type":"uint8"}],"name":"submitAnonymousFlag","outputs":[{"internalType":"bytes32","name":"","type":"bytes32"}],"stateMutability":"nonpayable","type":"function"},{"inputs":[{"internalType":"address","name":"_to","type":"address"},{"internalType":"bool","name":"_isRedFlag","type":"bool"},{"internalType":"bytes","name":"_encryptedReview","type":"bytes"},{"internalType":"string","name":"_category","type":"string"},{"internalType":"uint8","name":"_severity","type":"uint8"}],"name":"submitEncryptedFlag","outputs":[{"internalType":"bytes32","name":"","type":"bytes32"}],"stateMutability":"nonpayable","type":"function"},{"inputs":[{"internalType":"address","name":"_to","type":"address"},{"internalType":"bool","name":"_isRedFlag","type":"bool"},{"internalType":"string","name":"_review","type":"string"},{"internalType":"string","name":"_category","type":"string"},{"internalType":"uint8","name":"_severity","type":"uint8"}],"name":"submitFlag","outputs":[{"internalType":"bytes32","name":"","type":"bytes32"}],"stateMutability":"nonpayable","type":"function"},{"inputs":[],"name":"totalFlagsApproved","outputs":[{"internalType":"uint256","name":"","type":"uint256"}],"stateMutability":"view","type":"function"},{"inputs":[],"name":"totalFlagsSubmitted","outputs":[{"internalType":"uint256","name":"","type":"uint256"}],"stateMutability":"view","type":"function"},{"inputs":[{"internalType":"address","name":"","type":"address"},{"internalType":"string","name":"","type":"string"}],"name":"userCategoryStats","outputs":[{"internalType":"uint256","name":"totalCount","type":"uint256"},{"internalType":"uint256","name":"redCount","type":"uint256"},{"internalType":"uint256","name":"greenCount","type":"uint256"},{"internalType":"uint256","name":"averageSeverity","type":"uint256"},{"internalType":"uint256","name":"categoryScore","type":"uint256"}],"stateMutability":"view","type":"function"},{"inputs":[{"internalType":"address","name":"","type":"address"},{"internalType":"uint256","name":"","type":"uint256"}],"name":"userFlags","outputs":[{"internalType":"address","name":"from","type":"address"},{"internalType":"address","name":"to","type":"address"},{"internalType":"bool","name":"isRedFlag","type":"bool"},{"internalType":"string","name":"review","type":"string"},{"internalType":"bytes","name":"encryptedReview","type":"bytes"},{"internalType":"uint256","name":"timestamp","type":"uint256"},{"internalType":"bool","name":"isVisible","type":"bool"},{"internalType":"bytes32","name":"flagId","type":"bytes32"},{"internalType":"bool","name":"isEncrypted","type":"bool"},{"internalType":"uint8","name":"severity","type":"uint8"},{"internalType":"string","name":"category","type":"string"}],"stateMutability":"view","type":"function"},{"inputs":[{"internalType":"address","name":"","type":"address"}],"name":"userRatings","outputs":[{"internalType":"uint256","name":"overallScore","type":"uint256"},{"internalType":"uint256","name":"safetyScore","type":"uint256"},{"internalType":"uint256","name":"behaviorScore","type":"uint256"},{"internalType":"uint256","name":"communicationScore","type":"uint256"},{"internalType":"uint256","name":"kindnessScore","type":"uint256"},{"internalType":"uint256","name":"reliabilityScore","type":"uint256"},{"internalType":"string","name":"ratingTier","type":"string"},{"internalType":"uint256","name":"totalInteractions","type":"uint256"},{"internalType":"uint256","name":"positivePercentage","type":"uint256"},{"internalType":"bool","name":"isRecommended","type":"bool"}],"stateMutability":"view","type":"function"},{"inputs":[{"internalType":"address","name":"","type":"address"}],"name":"userReputation","outputs":[{"internalType":"uint256","name":"","type":"uint256"}],"stateMutability":"view","type":"function"},{"inputs":[{"internalType":"address","name":"_user","type":"address"}],"name":"verifyUser","outputs":[],"stateMutability":"nonpayable","type":"function"}],"evm":{"bytecode":{"linkReferences":{},"object":"60086101a0818152673132b430bb34b7b960c11b6101c052608090815260066101e08181526573616665747960d01b6102005260a052600d6102209081526c31b7b6b6bab734b1b0ba34b7b760991b6102405260c052610260928352676b696e646e65737360c01b6102805260e092909252600b6102a08181526a72656c696162696c69747960a81b6102c05261010052600a6102e090815269617070656172616e636560b01b6103005261012052600961032081815268696e7465726573747360b81b61034052610140526103609384526576616c75657360d01b61038052610160939093526103e060405260076103a09081526619d95b995c985b60ca1b6103c05261018052620001159290919062000166565b503480156200012357600080fd5b50600880546001600160a01b031916339081179091556000908152600360209081526040808320805460ff191660011790556004909152902060649055620003ae565b828054828255906000526020600020908101928215620001b1579160200282015b82811115620001b15782518290620001a09082620002e2565b509160200191906001019062000187565b50620001bf929150620001c3565b5090565b80821115620001bf576000620001da8282620001e4565b50600101620001c3565b508054620001f29062000253565b6000825580601f1062000203575050565b601f01602090049060005260206000209081019062000223919062000226565b50565b5b80821115620001bf576000815560010162000227565b634e487b7160e01b600052604160045260246000fd5b600181811c908216806200026857607f821691505b6020821081036200028957634e487b7160e01b600052602260045260246000fd5b50919050565b601f821115620002dd57600081815260208120601f850160051c81016020861015620002b85750805b601f850160051c820191505b81811015620002d957828155600101620002c4565b5050505b505050565b81516001600160401b03811115620002fe57620002fe6200023d565b62000316816200030f845462000253565b846200028f565b602080601f8311600181146200034e5760008415620003355750858301515b600019600386901b1c1916600185901b178555620002d9565b600085815260208120601f198616915b828110156200037f578886015182559484019460019091019084016200035e565b50858210156200039e5787850151600019600388901b60f8161c191681555b5050505050600190811b01905550565b614f7780620003be6000396000f3fe608060405234801561001057600080fd5b50600436106102105760003560e01c8063653ecec011610125578063c5cc3baf116100ad578063e503bb051161007c578063e503bb0514610628578063e5b0185114610648578063e750643514610668578063e8440dd51461067b578063fbad3e7b1461068e57600080fd5b8063c5cc3baf146105be578063dfd109fe146105d1578063dfe6b5d6146105e4578063e262b23c1461060857600080fd5b8063af819dad116100f4578063af819dad146104f8578063b0d7f9171461050b578063ba163bf71461056a578063c1645f421461057d578063c334fc25146105ab57600080fd5b8063653ecec01461047c5780638da5cb5b14610491578063900f58fc146104bc578063a8060a60146104e557600080fd5b80632b787417116101a8578063460168c311610177578063460168c3146103e357806346601f2f146104035780634d8131201461040c5780635b07cc041461041f5780635b9054f91461042757600080fd5b80632b787417146103825780633665658b146103955780633da1c0c31461039d5780633e944bae146103d057600080fd5b8063184ca2d8116101e4578063184ca2d8146102a95780631e20530a146102cc5780631f419d70146102e157806327ddec041461030157600080fd5b8062c7701e1461021557806312521f0214610248578063146b6888146102725780631542324d146102a0575b600080fd5b6102356102233660046140bb565b60076020526000908152604090205481565b6040519081526020015b60405180910390f35b61025b6102563660046140d6565b6106a1565b60405161023f9b9a9998979695949392919061413f565b610293610280366004614299565b5060408051600081526020810190915290565b60405161023f91906142cd565b610235600a5481565b6102bc6102b73660046140bb565b6108b0565b60405161023f94939291906143aa565b6102df6102da366004614402565b610bbb565b005b6102f46102ef3660046140bb565b610d5f565b60405161023f9190614518565b61035a61030f36600461457a565b60056020908152600092835260409092208151808301840180519281529084019290930191909120915280546001820154600283015460038401546004909401549293919290919085565b604080519586526020860194909452928401919091526060830152608082015260a00161023f565b61025b6103903660046145c7565b610ea8565b610235610f09565b6103c06103ab3660046140bb565b60036020526000908152604090205460ff1681565b604051901515815260200161023f565b6102f46103de3660046140bb565b610f6c565b6103f66103f13660046140bb565b61137a565b60405161023f91906145f1565b61023560095481565b6102df61041a3660046140bb565b6114fb565b61029361157f565b61043a61043536600461457a565b61159c565b60405161023f9190600060a082019050825182526020830151602083015260408301516040830152606083015160608301526080830151608083015292915050565b610484611649565b60405161023f919061467a565b6008546104a4906001600160a01b031681565b6040516001600160a01b03909116815260200161023f565b6104cf6104ca3660046140bb565b611722565b60405161023f9a9998979695949392919061468d565b6103c06104f3366004614299565b611803565b61023561050636600461470d565b611874565b61051e6105193660046140bb565b611e23565b60405161023f9190600060c082019050825182526020830151602083015260408301516040830152606083015160608301526080830151608083015260a083015160a083015292915050565b6102356105783660046147b9565b6121ed565b6103c061058b366004614402565b600260209081526000928352604080842090915290825290205460ff1681565b6102df6105b93660046140d6565b6127e4565b6102356105cc3660046147b9565b6129b6565b6102df6105df366004614299565b612f38565b600954600a54600b546040805193845260208401929092529082015260600161023f565b61061b610616366004614810565b613049565b60405161023f9190614833565b6102356106363660046140bb565b60046020526000908152604090205481565b61065b610656366004614846565b61335c565b60405161023f919061488a565b61065b6106763660046140d6565b6133a5565b6102df61068936600461489d565b613451565b6102f461069c3660046140bb565b613491565b60016020819052600091825260409091208054918101546002820180546001600160a01b0394851694831693600160a01b90930460ff169291906106e490614942565b80601f016020809104026020016040519081016040528092919081815260200182805461071090614942565b801561075d5780601f106107325761010080835404028352916020019161075d565b820191906000526020600020905b81548152906001019060200180831161074057829003601f168201915b50505050509080600301805461077290614942565b80601f016020809104026020016040519081016040528092919081815260200182805461079e90614942565b80156107eb5780601f106107c0576101008083540402835291602001916107eb565b820191906000526020600020905b8154815290600101906020018083116107ce57829003601f168201915b5050505060048301546005840154600685015460078601546008870180549697949660ff94851696509294848316946101009093049092169261082d90614942565b80601f016020809104026020016040519081016040528092919081815260200182805461085990614942565b80156108a65780601f1061087b576101008083540402835291602001916108a6565b820191906000526020600020905b81548152906001019060200180831161088957829003601f168201915b505050505090508b565b606080606080600b805490506001600160401b038111156108d3576108d36141dc565b60405190808252806020026020018201604052801561090657816020015b60608152602001906001900390816108f15790505b50600b549094506001600160401b03811115610924576109246141dc565b60405190808252806020026020018201604052801561094d578160200160208202803683370190505b50600b549093506001600160401b0381111561096b5761096b6141dc565b604051908082528060200260200182016040528015610994578160200160208202803683370190505b50600b549092506001600160401b038111156109b2576109b26141dc565b6040519080825280602002602001820160405280156109db578160200160208202803683370190505b50905060005b600b54811015610bb3576000600b8281548110610a0057610a0061497c565b906000526020600020018054610a1590614942565b80601f0160208091040260200160405190810160405280929190818152602001828054610a4190614942565b8015610a8e5780601f10610a6357610100808354040283529160200191610a8e565b820191906000526020600020905b815481529060010190602001808311610a7157829003601f168201915b50505050509050600060056000896001600160a01b03166001600160a01b0316815260200190815260200160002082604051610aca9190614992565b90815260200160405180910390206040518060a001604052908160008201548152602001600182015481526020016002820154815260200160038201548152602001600482015481525050905081878481518110610b2a57610b2a61497c565b60200260200101819052508060200151868481518110610b4c57610b4c61497c565b6020026020010181815250508060400151858481518110610b6f57610b6f61497c565b6020026020010181815250508060800151848481518110610b9257610b9261497c565b60200260200101818152505050508080610bab906149c4565b9150506109e1565b509193509193565b6008546001600160a01b03163314610bee5760405162461bcd60e51b8152600401610be5906149dd565b60405180910390fd5b806001600160a01b0316826001600160a01b031603610c595760405162461bcd60e51b815260206004820152602160248201527f43616e6e6f74206d6174636820757365722077697468207468656d73656c76656044820152607360f81b6064820152608401610be5565b6001600160a01b03821660009081526003602052604090205460ff168015610c9957506001600160a01b03811660009081526003602052604090205460ff165b610ce55760405162461bcd60e51b815260206004820152601b60248201527f426f7468207573657273206d75737420626520766572696669656400000000006044820152606401610be5565b6001600160a01b0382811660008181526002602081815260408084209587168085529582528084208054600160ff1991821681179092559383528185208686529092528084208054909316909117909155517f400084faa1d1feebd72b5492202d9905c0f245dfb43e76ca408fb6f113188e289190a35050565b60606000610d6c83610f6c565b90506000805b8251811015610dbe57828181518110610d8d57610d8d61497c565b60200260200101516040015115610dac5781610da8816149c4565b9250505b80610db6816149c4565b915050610d72565b506000816001600160401b03811115610dd957610dd96141dc565b604051908082528060200260200182016040528015610e1257816020015b610dff614041565b815260200190600190039081610df75790505b5090506000805b8451811015610e9d57848181518110610e3457610e3461497c565b60200260200101516040015115610e8b57848181518110610e5757610e5761497c565b6020026020010151838381518110610e7157610e7161497c565b60200260200101819052508180610e87906149c4565b9250505b80610e95816149c4565b915050610e19565b509095945050505050565b60006020528160005260406000208181548110610ec457600080fd5b60009182526020909120600990910201805460018201546002830180546001600160a01b0393841696509282169450600160a01b90910460ff1692916106e490614942565b60004233610f3f60206040518060400160405280600f81526020016e195b98dc9e5c1d1a5bdb97dcd95959608a1b8152506135cd565b604051602001610f5193929190614a1e565b60405160208183030381529060405280519060200120905090565b60606000805b6001600160a01b038416600090815260208190526040902054811015610ff8576001600160a01b0384166000908152602081905260409020805482908110610fbc57610fbc61497c565b600091825260209091206005600990920201015460ff1615610fe65781610fe2816149c4565b9250505b80610ff0816149c4565b915050610f72565b506000816001600160401b03811115611013576110136141dc565b60405190808252806020026020018201604052801561104c57816020015b611039614041565b8152602001906001900390816110315790505b5090506000805b6001600160a01b038616600090815260208190526040902054811015611370576001600160a01b038616600090815260208190526040902080548290811061109d5761109d61497c565b600091825260209091206005600990920201015460ff161561135e576001600160a01b03861660009081526020819052604090208054829081106110e3576110e361497c565b6000918252602091829020604080516101608101825260099390930290910180546001600160a01b039081168452600182015490811694840194909452600160a01b90930460ff1615159082015260028201805491929160608401919061114990614942565b80601f016020809104026020016040519081016040528092919081815260200182805461117590614942565b80156111c25780601f10611197576101008083540402835291602001916111c2565b820191906000526020600020905b8154815290600101906020018083116111a557829003601f168201915b505050505081526020016003820180546111db90614942565b80601f016020809104026020016040519081016040528092919081815260200182805461120790614942565b80156112545780601f1061122957610100808354040283529160200191611254565b820191906000526020600020905b81548152906001019060200180831161123757829003601f168201915b505050918352505060048201546020820152600582015460ff908116151560408301526006830154606083015260078301548082161515608084015261010090041660a082015260088201805460c0909201916112b090614942565b80601f01602080910402602001604051908101604052809291908181526020018280546112dc90614942565b80156113295780601f106112fe57610100808354040283529160200191611329565b820191906000526020600020905b81548152906001019060200180831161130c57829003601f168201915b5050505050815250508383815181106113445761134461497c565b6020026020010181905250818061135a906149c4565b9250505b80611368816149c4565b915050611053565b5090949350505050565b6113d26040518061014001604052806000815260200160008152602001600081526020016000815260200160008152602001600081526020016060815260200160008152602001600081526020016000151581525090565b60066000836001600160a01b03166001600160a01b031681526020019081526020016000206040518061014001604052908160008201548152602001600182015481526020016002820154815260200160038201548152602001600482015481526020016005820154815260200160068201805461144f90614942565b80601f016020809104026020016040519081016040528092919081815260200182805461147b90614942565b80156114c85780601f1061149d576101008083540402835291602001916114c8565b820191906000526020600020905b8154815290600101906020018083116114ab57829003601f168201915b5050509183525050600782015460208201526008820154604082015260099091015460ff16151560609091015292915050565b6008546001600160a01b031633146115255760405162461bcd60e51b8152600401610be5906149dd565b6001600160a01b0381166000818152600360209081526040808320805460ff19166001179055600490915280822060329055517fa6625d2d26e786e2f473111bea4b2fcdbbf1863d883a2359989ce3a103d2972a9190a250565b6040805160008082526020820190925260609190815b5092915050565b6115ce6040518060a0016040528060008152602001600081526020016000815260200160008152602001600081525090565b6001600160a01b0383166000908152600560205260409081902090516115f5908490614992565b90815260200160405180910390206040518060a00160405290816000820154815260200160018201548152602001600282015481526020016003820154815260200160048201548152505090505b92915050565b6060600b805480602002602001604051908101604052809291908181526020016000905b8282101561171957838290600052602060002001805461168c90614942565b80601f01602080910402602001604051908101604052809291908181526020018280546116b890614942565b80156117055780601f106116da57610100808354040283529160200191611705565b820191906000526020600020905b8154815290600101906020018083116116e857829003601f168201915b50505050508152602001906001019061166d565b50505050905090565b600660205280600052604060002060009150905080600001549080600101549080600201549080600301549080600401549080600501549080600601805461176990614942565b80601f016020809104026020016040519081016040528092919081815260200182805461179590614942565b80156117e25780601f106117b7576101008083540402835291602001916117e2565b820191906000526020600020905b8154815290600101906020018083116117c557829003601f168201915b50505050600783015460088401546009909401549293909290915060ff168a565b6000805b600b5481101561186b578280519060200120600b828154811061182c5761182c61497c565b906000526020600020016040516118439190614a58565b6040518091039020036118595750600192915050565b80611863816149c4565b915050611807565b50600092915050565b3360009081526003602052604081205460ff166118a35760405162461bcd60e51b8152600401610be590614ace565b856001600160a01b0381166118ca5760405162461bcd60e51b8152600401610be590614afd565b336001600160a01b038216036118f25760405162461bcd60e51b8152600401610be590614b26565b3360009081526002602090815260408083206001600160a01b038b168452909152902054879060ff166119375760405162461bcd60e51b8152600401610be590614b54565b8461194181611803565b61195d5760405162461bcd60e51b8152600401610be590614b9d565b60008751116119ae5760405162461bcd60e51b815260206004820181905260248201527f456e63727970746564207265766965772063616e6e6f7420626520656d7074796044820152606401610be5565b6101f487511115611a015760405162461bcd60e51b815260206004820152601960248201527f456e637279707465642072657669657720746f6f206c6f6e67000000000000006044820152606401610be5565b8715611a405760018560ff1610158015611a1f5750600a8560ff1611155b611a3b5760405162461bcd60e51b8152600401610be590614bcc565b611a45565b600094505b6000338a42600954611a7e60206040518060400160405280600e81526020016d656e637279707465645f666c616760901b8152506135cd565b604051602001611a92959493929190614c12565b6040516020818303038152906040528051906020012090506000604051806101600160405280336001600160a01b031681526020018c6001600160a01b031681526020018b151581526020016040518060200160405280600081525081526020018a81526020014281526020016000151581526020018381526020016001151581526020018860ff1681526020018981525090506000808c6001600160a01b03166001600160a01b0316815260200190815260200160002081908060018154018082558091505060019003906000526020600020906009020160009091909190915060008201518160000160006101000a8154816001600160a01b0302191690836001600160a01b0316021790555060208201518160010160006101000a8154816001600160a01b0302191690836001600160a01b0316021790555060408201518160010160146101000a81548160ff0219169083151502179055506060820151816002019081611c039190614cb0565b5060808201516003820190611c189082614cb0565b5060a0820151600482015560c082015160058201805460ff191691151591909117905560e082015160068201556101008083015160078301805461012086015161ffff1990911692151561ff0019169290921760ff9092169092021790556101408201516008820190611c8b9082614cb0565b505050600082815260016020818152604092839020845181546001600160a01b039182166001600160a01b0319909116178255918501519281018054948601511515600160a01b026001600160a81b031990951693909216929092179290921790915560608201518291906002820190611d059082614cb0565b5060808201516003820190611d1a9082614cb0565b5060a0820151600482015560c082015160058201805460ff191691151591909117905560e082015160068201556101008083015160078301805461012086015161ffff1990911692151561ff0019169290921760ff9092169092021790556101408201516008820190611d8d9082614cb0565b50506009805491506000611da0836149c4565b9190505550611db08b8b896136a0565b611dbc8b898c8a6137ec565b611dc58b6139bd565b818b6001600160a01b0316336001600160a01b03167fe10570f1317b44144d2c8be0c3b4e88824c432036e844836147e0edae73266928d604051611e0d911515815260200190565b60405180910390a4509998505050505050505050565b611e5c6040518060c001604052806000815260200160008152602001600081526020016000815260200160008152602001600081525090565b6001600160a01b038216600090815260208190526040812054908080808080805b8781101561219b576001600160a01b038a166000908152602081905260408120805483908110611eaf57611eaf61497c565b6000918252602091829020604080516101608101825260099390930290910180546001600160a01b039081168452600182015490811694840194909452600160a01b90930460ff16151590820152600282018054919291606084019190611f1590614942565b80601f0160208091040260200160405190810160405280929190818152602001828054611f4190614942565b8015611f8e5780601f10611f6357610100808354040283529160200191611f8e565b820191906000526020600020905b815481529060010190602001808311611f7157829003601f168201915b50505050508152602001600382018054611fa790614942565b80601f0160208091040260200160405190810160405280929190818152602001828054611fd390614942565b80156120205780601f10611ff557610100808354040283529160200191612020565b820191906000526020600020905b81548152906001019060200180831161200357829003601f168201915b505050918352505060048201546020820152600582015460ff908116151560408301526006830154606083015260078301548082161515608084015261010090041660a082015260088201805460c09092019161207c90614942565b80601f01602080910402602001604051908101604052809291908181526020018280546120a890614942565b80156120f55780601f106120ca576101008083540402835291602001916120f5565b820191906000526020600020905b8154815290600101906020018083116120d857829003601f168201915b50505050508152505090508060c001511561217a5785612114816149c4565b965050806040015115612161578761212b816149c4565b985050806101200151600b6121409190614d6f565b61214d9060ff1685614d88565b935082612159816149c4565b935050612188565b8661216b816149c4565b975061214d9050600a85614d88565b84612184816149c4565b9550505b5080612193816149c4565b915050611e7d565b5060008082116121ac5760006121b6565b6121b68284614d9b565b6040805160c081018252998a5260208a0198909852968801959095525050606085019190915260808401525060a082015292915050565b3360009081526003602052604081205460ff1661221c5760405162461bcd60e51b8152600401610be590614ace565b856001600160a01b0381166122435760405162461bcd60e51b8152600401610be590614afd565b336001600160a01b0382160361226b5760405162461bcd60e51b8152600401610be590614b26565b3360009081526002602090815260408083206001600160a01b038b168452909152902054879060ff166122b05760405162461bcd60e51b8152600401610be590614b54565b846122ba81611803565b6122d65760405162461bcd60e51b8152600401610be590614b9d565b60008751116123205760405162461bcd60e51b81526020600482015260166024820152755265766965772063616e6e6f7420626520656d70747960501b6044820152606401610be5565b60c8875111156123645760405162461bcd60e51b815260206004820152600f60248201526e52657669657720746f6f206c6f6e6760881b6044820152606401610be5565b87156123a35760018560ff16101580156123825750600a8560ff1611155b61239e5760405162461bcd60e51b8152600401610be590614bcc565b6123a8565b600094505b6000338a426009546123e160206040518060400160405280600e81526020016d616e6f6e796d6f75735f666c616760901b8152506135cd565b6040516020016123f5959493929190614c12565b60405160208183030381529060405280519060200120905060003361244460206040518060400160405280601181526020017039b2b73232b92fb2b731b93cb83a34b7b760791b8152506135cd565b604051602001612455929190614dbd565b60408051601f19818403018152828252805160209182012090830152016040516020818303038152906040529050600060405180610160016040528060006001600160a01b031681526020018d6001600160a01b031681526020018c151581526020018b81526020018381526020014281526020016000151581526020018481526020016001151581526020018960ff1681526020018a81525090506000808d6001600160a01b03166001600160a01b0316815260200190815260200160002081908060018154018082558091505060019003906000526020600020906009020160009091909190915060008201518160000160006101000a8154816001600160a01b0302191690836001600160a01b0316021790555060208201518160010160006101000a8154816001600160a01b0302191690836001600160a01b0316021790555060408201518160010160146101000a81548160ff02191690831515021790555060608201518160020190816125ce9190614cb0565b50608082015160038201906125e39082614cb0565b5060a0820151600482015560c082015160058201805460ff191691151591909117905560e082015160068201556101008083015160078301805461012086015161ffff1990911692151561ff0019169290921760ff90921690920217905561014082015160088201906126569082614cb0565b505050600083815260016020818152604092839020845181546001600160a01b039182166001600160a01b0319909116178255918501519281018054948601511515600160a01b026001600160a81b0319909516939092169290921792909217909155606082015182919060028201906126d09082614cb0565b50608082015160038201906126e59082614cb0565b5060a0820151600482015560c082015160058201805460ff191691151591909117905560e082015160068201556101008083015160078301805461012086015161ffff1990911692151561ff0019169290921760ff90921690920217905561014082015160088201906127589082614cb0565b5050600980549150600061276b836149c4565b919050555061277b8c8c8a6136a0565b6127878c8a8d8b6137ec565b6127908c6139bd565b828c6001600160a01b03167ff55f06d2591d32cc52ee5a7f9e1d7fe87b6af3eeefecb69a061ca42f7b2e24f68d8c6040516127cc929190614df0565b60405180910390a350909a9950505050505050505050565b6000818152600160208190526040909120908101546001600160a01b0316331461285e5760405162461bcd60e51b815260206004820152602560248201527f43616e206f6e6c7920617070726f766520666c6167732061626f757420796f756044820152643939b2b63360d91b6064820152608401610be5565b600581015460ff16156128ab5760405162461bcd60e51b8152602060048201526015602482015274119b1859c8185b1c9958591e48185c1c1c9bdd9959605a1b6044820152606401610be5565b60058101805460ff1916600117905560005b3360009081526020819052604090205481101561296d573360009081526020819052604090208054849190839081106128f8576128f861497c565b9060005260206000209060090201600601540361295b57336000908152602081905260409020805460019190839081106129345761293461497c565b60009182526020909120600990910201600501805460ff191691151591909117905561296d565b80612965816149c4565b9150506128bd565b50600a805490600061297e836149c4565b90915550506040513390839082907fc0a6f40764ec21e713239085fb6b0ccec165852ab7fdca137bfb22b3dbb47c9c90600090a45050565b3360009081526003602052604081205460ff166129e55760405162461bcd60e51b8152600401610be590614ace565b856001600160a01b038116612a0c5760405162461bcd60e51b8152600401610be590614afd565b336001600160a01b03821603612a345760405162461bcd60e51b8152600401610be590614b26565b3360009081526002602090815260408083206001600160a01b038b168452909152902054879060ff16612a795760405162461bcd60e51b8152600401610be590614b54565b84612a8381611803565b612a9f5760405162461bcd60e51b8152600401610be590614b9d565b6000875111612ae95760405162461bcd60e51b81526020600482015260166024820152755265766965772063616e6e6f7420626520656d70747960501b6044820152606401610be5565b60c887511115612b2d5760405162461bcd60e51b815260206004820152600f60248201526e52657669657720746f6f206c6f6e6760881b6044820152606401610be5565b8715612b6c5760018560ff1610158015612b4b5750600a8560ff1611155b612b675760405162461bcd60e51b8152600401610be590614bcc565b612b71565b600094505b6000338a42600954612bab60206040518060400160405280600f81526020016e333630b3afb3b2b732b930ba34b7b760891b8152506135cd565b604051602001612bbf959493929190614c12565b6040516020818303038152906040528051906020012090506000604051806101600160405280336001600160a01b031681526020018c6001600160a01b031681526020018b151581526020018a81526020016040518060200160405280600081525081526020014281526020016000151581526020018381526020016000151581526020018860ff1681526020018981525090506000808c6001600160a01b03166001600160a01b0316815260200190815260200160002081908060018154018082558091505060019003906000526020600020906009020160009091909190915060008201518160000160006101000a8154816001600160a01b0302191690836001600160a01b0316021790555060208201518160010160006101000a8154816001600160a01b0302191690836001600160a01b0316021790555060408201518160010160146101000a81548160ff0219169083151502179055506060820151816002019081612d309190614cb0565b5060808201516003820190612d459082614cb0565b5060a0820151600482015560c082015160058201805460ff191691151591909117905560e082015160068201556101008083015160078301805461012086015161ffff1990911692151561ff0019169290921760ff9092169092021790556101408201516008820190612db89082614cb0565b505050600082815260016020818152604092839020845181546001600160a01b039182166001600160a01b0319909116178255918501519281018054948601511515600160a01b026001600160a81b031990951693909216929092179290921790915560608201518291906002820190612e329082614cb0565b5060808201516003820190612e479082614cb0565b5060a0820151600482015560c082015160058201805460ff191691151591909117905560e082015160068201556101008083015160078301805461012086015161ffff1990911692151561ff0019169290921760ff9092169092021790556101408201516008820190612eba9082614cb0565b50506009805491506000612ecd836149c4565b9190505550612edd8b8b896136a0565b612ee98b898c8a6137ec565b612ef28b6139bd565b818b6001600160a01b0316336001600160a01b03167f6062d3c3926ecabd3cd4e6830da87595c3b3031477abfaeca18e0d24aafb86528d8c604051611e0d929190614df0565b6008546001600160a01b03163314612f625760405162461bcd60e51b8152600401610be5906149dd565b6000815111612fb35760405162461bcd60e51b815260206004820152601860248201527f43617465676f72792063616e6e6f7420626520656d70747900000000000000006044820152606401610be5565b612fbc81611803565b156130095760405162461bcd60e51b815260206004820152601760248201527f43617465676f727920616c7265616479206578697374730000000000000000006044820152606401610be5565b600b80546001810182556000919091527f0175b7a638427703f0dbe7bb9bbf987a2551717b34e79f33b5b1008d1fa01db9016130458282614cb0565b5050565b613051614041565b600083815260016020818152604080842081516101608101835281546001600160a01b0390811682529482015494851693810193909352600160a01b90930460ff161515908201526002820180549192916060840191906130b190614942565b80601f01602080910402602001604051908101604052809291908181526020018280546130dd90614942565b801561312a5780601f106130ff5761010080835404028352916020019161312a565b820191906000526020600020905b81548152906001019060200180831161310d57829003601f168201915b5050505050815260200160038201805461314390614942565b80601f016020809104026020016040519081016040528092919081815260200182805461316f90614942565b80156131bc5780601f10613191576101008083540402835291602001916131bc565b820191906000526020600020905b81548152906001019060200180831161319f57829003601f168201915b505050918352505060048201546020820152600582015460ff908116151560408301526006830154606083015260078301548082161515608084015261010090041660a082015260088201805460c09092019161321890614942565b80601f016020809104026020016040519081016040528092919081815260200182805461324490614942565b80156132915780601f1061326657610100808354040283529160200191613291565b820191906000526020600020905b81548152906001019060200180831161327457829003601f168201915b5050509190925250505060e08101519091506132e05760405162461bcd60e51b815260206004820152600e60248201526d119b1859c81b9bdd08199bdd5b9960921b6044820152606401610be5565b826001600160a01b031681602001516001600160a01b031614806133195750826001600160a01b031681600001516001600160a01b0316145b6133555760405162461bcd60e51b815260206004820152600d60248201526c1058d8d95cdcc819195b9a5959609a1b6044820152606401610be5565b9392505050565b60608282604051602001613371929190614e0b565b60408051601f1981840301815282825280516020918201209083015201604051602081830303815290604052905092915050565b600b81815481106133b557600080fd5b9060005260206000200160009150905080546133d090614942565b80601f01602080910402602001604051908101604052809291908181526020018280546133fc90614942565b80156134495780601f1061341e57610100808354040283529160200191613449565b820191906000526020600020905b81548152906001019060200180831161342c57829003601f168201915b505050505081565b60005b81518110156130455761347f8282815181106134725761347261497c565b60200260200101516127e4565b80613489816149c4565b915050613454565b6060600061349e83610f6c565b90506000805b82518110156134ef578281815181106134bf576134bf61497c565b6020026020010151604001516134dd57816134d9816149c4565b9250505b806134e7816149c4565b9150506134a4565b506000816001600160401b0381111561350a5761350a6141dc565b60405190808252806020026020018201604052801561354357816020015b613530614041565b8152602001906001900390816135285790505b5090506000805b8451811015610e9d578481815181106135655761356561497c565b6020026020010151604001516135bb578481815181106135875761358761497c565b60200260200101518383815181106135a1576135a161497c565b602002602001018190525081806135b7906149c4565b9250505b806135c5816149c4565b91505061354a565b60606000806001600160981b016001600160a01b031685856040516020016135f6929190614e2d565b60408051601f198184030181529082905261361091614992565b600060405180830381855afa9150503d806000811461364b576040519150601f19603f3d011682016040523d82523d6000602084013e613650565b606091505b5091509150816136985760405162461bcd60e51b81526020600482015260136024820152721c985b991bdb509e5d195cce8819985a5b1959606a1b6044820152606401610be5565b949350505050565b811561372e5760006136b3826002614e46565b6001600160a01b03851660009081526004602052604090205460ff91909116915081101561370e576001600160a01b03841660009081526004602052604081208054839290613703908490614e62565b909155506137289050565b6001600160a01b0384166000908152600460205260408120555b5061379a565b6001600160a01b0383166000908152600460205260408120805460059290613757908490614d88565b90915550506001600160a01b0383166000908152600460205260409020546064101561379a576001600160a01b0383166000908152600460205260409020606490555b6001600160a01b0383166000818152600460209081526040918290205491519182527ffc577563f1b9a0461e24abef1e1fcc0d33d3d881f20b5df6dda59de4aae2c821910160405180910390a2505050565b6001600160a01b0384166000908152600560205260408082209051613812908690614992565b9081526040519081900360200190208054909150816000613832836149c4565b919050555082156138b15760018101805490600061384f836149c4565b9190505550806001015460010361386e5760ff821660038201556138c9565b6001808201549060ff8416906138849083614e62565b83600301546138939190614e75565b61389d9190614d88565b6138a79190614d9b565b60038201556138c9565b6002810180549060006138c3836149c4565b91905055505b80541561396f5780546002820154600091906138e6906064614e75565b6138f09190614d9b565b9050600080836001015411613906576000613931565b82546001840154600385015461391c9190614e75565b613927906005614e75565b6139319190614d9b565b90508082111561394f576139458183614e62565b6004840155613957565b600060048401555b60648360040154111561396c57606460048401555b50505b846001600160a01b03167ff9a70084c1764c74b7dd4418c218186fc98002e2571feddbcaf24a229ae638f58583600401546040516139ae929190614e8c565b60405180910390a25050505050565b6001600160a01b0381166000908152600660209081526040808320918390528220549091819003613a5a5760328083556001830181905560028301819055600383018190556004830181905560058301556040805180820190915260088152672732bb902ab9b2b960c11b60208201526006830190613a3c9082614cb0565b50506000600782018190556008820155600901805460ff1916905550565b60008060008060005b85811015613b94576001600160a01b0388166000908152602081905260409020805482908110613a9557613a9561497c565b600091825260209091206005600990920201015460ff1615613b825784613abb816149c4565b6001600160a01b038a1660009081526020819052604090208054919750915082908110613aea57613aea61497c565b906000526020600020906009020160010160149054906101000a900460ff1615613b745782613b18816149c4565b6001600160a01b038a1660009081526020819052604090208054919550915082908110613b4757613b4761497c565b6000918252602090912060099091020160070154613b6d90610100900460ff1683614d88565b9150613b82565b83613b7e816149c4565b9450505b80613b8c816149c4565b915050613a63565b5083600003613bf257600780870186905560006008880155603287556040805180820190915290815266155b9c985d195960ca1b60208201526006870190613bdc9082614cb0565b5050506009909301805460ff1916905550505050565b6001600160a01b0387166000908152600560205260409081902090516573616665747960d01b815260060190815260408051602092819003830181206004015460018a01556001600160a01b038a16600090815260059093529120673132b430bb34b7b960c11b82529060080190815260408051602092819003830181206004015460028a01556001600160a01b038a166000908152600590935291206c31b7b6b6bab734b1b0ba34b7b760991b825290600d0190815260408051602092819003830181206004015460038a01556001600160a01b038a16600090815260059093529120676b696e646e65737360c01b8252906008019081526040805160209281900383018120600490810154908a01556001600160a01b038a166000908152600590935291206a72656c696162696c69747960a81b825290600b019081526040519081900360200190206004015460058701556007860184905583613d59846064614e75565b613d639190614d9b565b8660080181905550600060058760050154886004015489600301548a600201548b60010154613d929190614d88565b613d9c9190614d88565b613da69190614d88565b613db09190614d88565b613dba9190614d9b565b600888015490915060008415613dfc576000613dd68686614d9b565b905087613de38783614e75565b613dee906003614e75565b613df89190614d9b565b9150505b6064613e09836028614e75565b613e1485603c614e75565b613e1e9190614d88565b613e289190614d9b565b808a55811015613e515780896000016000828254613e469190614e62565b90915550613e569050565b600089555b8854605a11613ea357604080518082019091526009815268115e18d95b1b195b9d60ba1b602082015260068a0190613e8e9082614cb0565b5060098901805460ff19166001179055613f8e565b8854604b11613ed65760408051808201909152600481526311dbdbd960e21b602082015260068a0190613e8e9082614cb0565b8854603211613f1e576040805180820190915260078152664176657261676560c81b602082015260068a0190613f0c9082614cb0565b5060098901805460ff19169055613f8e565b8854601911613f51576040805180820190915260048152632837b7b960e11b602082015260068a0190613f0c9082614cb0565b60408051808201909152600981526844616e6765726f757360b81b602082015260068a0190613f809082614cb0565b5060098901805460ff191690555b6001600160a01b038a16600081815260076020526040908190204290558a5490517f7bc0f3ea2cdec2195c97a22da5171671c2a3aff71521a9774349f6c3aa1f7ff591613fdf9160068e0190614eae565b60405180910390a260098901546040516001600160a01b038c16917f3fc9ecbda08ffa096ffd11e1118a5022b57a3f746b93766ffda6874541bdcc6c9161402d9160ff161515815260200190565b60405180910390a250505050505050505050565b604080516101608101825260008082526020820181905291810182905260608082018190526080820181905260a0820183905260c0820183905260e08201839052610100820183905261012082019290925261014081019190915290565b80356001600160a01b03811681146140b657600080fd5b919050565b6000602082840312156140cd57600080fd5b6133558261409f565b6000602082840312156140e857600080fd5b5035919050565b60005b8381101561410a5781810151838201526020016140f2565b50506000910152565b6000815180845261412b8160208601602086016140ef565b601f01601f19169290920160200192915050565b6001600160a01b038c811682528b1660208201528915156040820152610160606082018190526000906141748382018c614113565b90508281036080840152614188818b614113565b90508860a084015287151560c08401528660e08401528515156101008401526141b761012084018660ff169052565b8281036101408401526141ca8185614113565b9e9d5050505050505050505050505050565b634e487b7160e01b600052604160045260246000fd5b604051601f8201601f191681016001600160401b038111828210171561421a5761421a6141dc565b604052919050565b60006001600160401b0383111561423b5761423b6141dc565b61424e601f8401601f19166020016141f2565b905082815283838301111561426257600080fd5b828260208301376000602084830101529392505050565b600082601f83011261428a57600080fd5b61335583833560208501614222565b6000602082840312156142ab57600080fd5b81356001600160401b038111156142c157600080fd5b61369884828501614279565b6020808252825182820181905260009190848201906040850190845b8181101561430e5783516001600160a01b0316835292840192918401916001016142e9565b50909695505050505050565b600081518084526020808501808196508360051b8101915082860160005b85811015614362578284038952614350848351614113565b98850198935090840190600101614338565b5091979650505050505050565b600081518084526020808501945080840160005b8381101561439f57815187529582019590820190600101614383565b509495945050505050565b6080815260006143bd608083018761431a565b82810360208401526143cf818761436f565b905082810360408401526143e3818661436f565b905082810360608401526143f7818561436f565b979650505050505050565b6000806040838503121561441557600080fd5b61441e8361409f565b915061442c6020840161409f565b90509250929050565b80516001600160a01b031682526000610160602083015161446160208601826001600160a01b03169052565b506040830151614475604086018215159052565b50606083015181606086015261448d82860182614113565b915050608083015184820360808601526144a78282614113565b91505060a083015160a085015260c08301516144c760c086018215159052565b5060e083015160e0850152610100808401516144e68287018215159052565b50506101208381015160ff1690850152610140808401518583038287015261450e8382614113565b9695505050505050565b6000602080830181845280855180835260408601915060408160051b870101925083870160005b8281101561456d57603f1988860301845261455b858351614435565b9450928501929085019060010161453f565b5092979650505050505050565b6000806040838503121561458d57600080fd5b6145968361409f565b915060208301356001600160401b038111156145b157600080fd5b6145bd85828601614279565b9150509250929050565b600080604083850312156145da57600080fd5b6145e38361409f565b946020939093013593505050565b6020815281516020820152602082015160408201526040820151606082015260608201516080820152608082015160a082015260a082015160c0820152600060c08301516101408060e085015261464c610160850183614113565b60e0860151610100868101919091528601516101208087019190915286015180151583870152909250611370565b602081526000613355602083018461431a565b60006101408c83528b60208401528a60408401528960608401528860808401528760a08401528060c08401526146c581840188614113565b60e08401969096525050610100810192909252151561012090910152979650505050505050565b803580151581146140b657600080fd5b803560ff811681146140b657600080fd5b600080600080600060a0868803121561472557600080fd5b61472e8661409f565b945061473c602087016146ec565b935060408601356001600160401b038082111561475857600080fd5b818801915088601f83011261476c57600080fd5b61477b89833560208501614222565b9450606088013591508082111561479157600080fd5b5061479e88828901614279565b9250506147ad608087016146fc565b90509295509295909350565b600080600080600060a086880312156147d157600080fd5b6147da8661409f565b94506147e8602087016146ec565b935060408601356001600160401b038082111561480457600080fd5b61477b89838a01614279565b6000806040838503121561482357600080fd5b8235915061442c6020840161409f565b6020815260006133556020830184614435565b6000806040838503121561485957600080fd5b82356001600160401b0381111561486f57600080fd5b61487b85828601614279565b95602094909401359450505050565b6020815260006133556020830184614113565b600060208083850312156148b057600080fd5b82356001600160401b03808211156148c757600080fd5b818501915085601f8301126148db57600080fd5b8135818111156148ed576148ed6141dc565b8060051b91506148fe8483016141f2565b818152918301840191848101908884111561491857600080fd5b938501935b838510156149365784358252938501939085019061491d565b98975050505050505050565b600181811c9082168061495657607f821691505b60208210810361497657634e487b7160e01b600052602260045260246000fd5b50919050565b634e487b7160e01b600052603260045260246000fd5b600082516149a48184602087016140ef565b9190910192915050565b634e487b7160e01b600052601160045260246000fd5b6000600182016149d6576149d66149ae565b5060010190565b60208082526021908201527f4f6e6c79206f776e65722063616e2063616c6c20746869732066756e6374696f6040820152603760f91b606082015260800190565b8381526001600160601b03198360601b16602082015260008251614a498160348501602087016140ef565b91909101603401949350505050565b6000808354614a6681614942565b60018281168015614a7e5760018114614a9357614ac2565b60ff1984168752821515830287019450614ac2565b8760005260208060002060005b85811015614ab95781548a820152908401908201614aa0565b50505082870194505b50929695505050505050565b602080825260159082015274155cd95c881b5d5cdd081899481d995c9a599a5959605a1b604082015260600190565b6020808252600f908201526e496e76616c6964206164647265737360881b604082015260600190565b60208082526014908201527321b0b73737ba10333630b3903cb7bab939b2b63360611b604082015260600190565b60208082526029908201527f43616e206f6e6c7920666c616720757365727320796f752068617665206d61746040820152680c6d0cac840eed2e8d60bb1b606082015260800190565b602080825260159082015274496e76616c696420666c61672063617465676f727960581b604082015260600190565b60208082526026908201527f52656420666c6167207365766572697479206d7573742062652062657477656560408201526506e20312d31360d41b606082015260800190565b60006001600160601b0319808860601b168352808760601b166014840152508460288301528360488301528251614c508160688501602087016140ef565b919091016068019695505050505050565b601f821115614cab57600081815260208120601f850160051c81016020861015614c885750805b601f850160051c820191505b81811015614ca757828155600101614c94565b5050505b505050565b81516001600160401b03811115614cc957614cc96141dc565b614cdd81614cd78454614942565b84614c61565b602080601f831160018114614d125760008415614cfa5750858301515b600019600386901b1c1916600185901b178555614ca7565b600085815260208120601f198616915b82811015614d4157888601518255948401946001909101908401614d22565b5085821015614d5f5787850151600019600388901b60f8161c191681555b5050505050600190811b01905550565b60ff8281168282160390811115611643576116436149ae565b80820180821115611643576116436149ae565b600082614db857634e487b7160e01b600052601260045260246000fd5b500490565b6001600160601b03198360601b16815260008251614de28160148501602087016140ef565b919091016014019392505050565b82151581526040602082015260006136986040830184614113565b60008351614e1d8184602088016140ef565b9190910191825250602001919050565b8281526040602082015260006136986040830184614113565b60ff8181168382160290811690818114611595576115956149ae565b81810381811115611643576116436149ae565b8082028115828204841417611643576116436149ae565b604081526000614e9f6040830185614113565b90508260208301529392505050565b8281526000602060408184015260008454614ec881614942565b8060408701526060600180841660008114614eea5760018114614f0457614f32565b60ff1985168984015283151560051b890183019550614f32565b896000528660002060005b85811015614f2a5781548b8201860152908301908801614f0f565b8a0184019650505b5093999850505050505050505056fea26469706673582212203ebe3167b19560ed8f1e7534b673ea37283417adf11f6f06d5f6f07f171c556c64736f6c63430008130033","opcodes":"PUSH1 0x8 PUSH2 0x1A0 DUP2 DUP2 MSTORE PUSH8 0x3132B430BB34B7B9 PUSH1 0xC1 SHL PUSH2 0x1C0 MSTORE PUSH1 0x80 SWAP1 DUP2 MSTORE PUSH1 0x6 PUSH2 0x1E0 DUP2 DUP2 MSTORE PUSH6 0x736166657479 PUSH1 0xD0 SHL PUSH2 0x200 MSTORE PUSH1 0xA0 MSTORE PUSH1 0xD PUSH2 0x220 SWAP1 DUP2 MSTORE PUSH13 0x31B7B6B6BAB734B1B0BA34B7B7 PUSH1 0x99 SHL PUSH2 0x240 MSTORE PUSH1 0xC0 MSTORE PUSH2 0x260 SWAP3 DUP4 MSTORE PUSH8 0x6B696E646E657373 PUSH1 0xC0 SHL PUSH2 0x280 MSTORE PUSH1 0xE0 SWAP3 SWAP1 SWAP3 MSTORE PUSH1 0xB PUSH2 0x2A0 DUP2 DUP2 MSTORE PUSH11 0x72656C696162696C697479 PUSH1 0xA8 SHL PUSH2 0x2C0 MSTORE PUSH2 0x100 MSTORE PUSH1 0xA PUSH2 0x2E0 SWAP1 DUP2 MSTORE PUSH10 0x617070656172616E6365 PUSH1 0xB0 SHL PUSH2 0x300 MSTORE PUSH2 0x120 MSTORE PUSH1 0x9 PUSH2 0x320 DUP2 DUP2 MSTORE PUSH9 0x696E74657265737473 PUSH1 0xB8 SHL PUSH2 0x340 MSTORE PUSH2 0x140 MSTORE PUSH2 0x360 SWAP4 DUP5 MSTORE PUSH6 0x76616C756573 PUSH1 0xD0 SHL PUSH2 0x380 MSTORE PUSH2 0x160 SWAP4 SWAP1 SWAP4 MSTORE PUSH2 0x3E0 PUSH1 0x40 MSTORE PUSH1 0x7 PUSH2 0x3A0 SWAP1 DUP2 MSTORE PUSH7 0x19D95B995C985B PUSH1 0xCA SHL PUSH2 0x3C0 MSTORE PUSH2 0x180 MSTORE PUSH3 0x115 SWAP3 SWAP1 SWAP2 SWAP1 PUSH3 0x166 JUMP JUMPDEST POP CALLVALUE DUP1 ISZERO PUSH3 0x123 JUMPI PUSH1 0x0 DUP1 REVERT JUMPDEST POP PUSH1 0x8 DUP1 SLOAD PUSH1 0x1 PUSH1 0x1 PUSH1 0xA0 SHL SUB NOT AND CALLER SWAP1 DUP2 OR SWAP1 SWAP2 SSTORE PUSH1 0x0 SWAP1 DUP2 MSTORE PUSH1 0x3 PUSH1 0x20 SWAP1 DUP2 MSTORE PUSH1 0x40 DUP1 DUP4 KECCAK256 DUP1 SLOAD PUSH1 0xFF NOT AND PUSH1 0x1 OR SWAP1 SSTORE PUSH1 0x4 SWAP1 SWAP2 MSTORE SWAP1 KECCAK256 PUSH1 0x64 SWAP1 SSTORE PUSH3 0x3AE JUMP JUMPDEST DUP3 DUP1 SLOAD DUP3 DUP3 SSTORE SWAP1 PUSH1 0x0 MSTORE PUSH1 0x20 PUSH1 0x0 KECCAK256 SWAP1 DUP2 ADD SWAP3 DUP3 ISZERO PUSH3 0x1B1 JUMPI SWAP2 PUSH1 0x20 MUL DUP3 ADD JUMPDEST DUP3 DUP2 GT ISZERO PUSH3 0x1B1 JUMPI DUP3 MLOAD DUP3 SWAP1 PUSH3 0x1A0 SWAP1 DUP3 PUSH3 0x2E2 JUMP JUMPDEST POP SWAP2 PUSH1 0x20 ADD SWAP2 SWAP1 PUSH1 0x1 ADD SWAP1 PUSH3 0x187 JUMP JUMPDEST POP PUSH3 0x1BF SWAP3 SWAP2 POP PUSH3 0x1C3 JUMP JUMPDEST POP SWAP1 JUMP JUMPDEST DUP1 DUP3 GT ISZERO PUSH3 0x1BF JUMPI PUSH1 0x0 PUSH3 0x1DA DUP3 DUP3 PUSH3 0x1E4 JUMP JUMPDEST POP PUSH1 0x1 ADD PUSH3 0x1C3 JUMP JUMPDEST POP DUP1 SLOAD PUSH3 0x1F2 SWAP1 PUSH3 0x253 JUMP JUMPDEST PUSH1 0x0 DUP3 SSTORE DUP1 PUSH1 0x1F LT PUSH3 0x203 JUMPI POP POP JUMP JUMPDEST PUSH1 0x1F ADD PUSH1 0x20 SWAP1 DIV SWAP1 PUSH1 0x0 MSTORE PUSH1 0x20 PUSH1 0x0 KECCAK256 SWAP1 DUP2 ADD SWAP1 PUSH3 0x223 SWAP2 SWAP1 PUSH3 0x226 JUMP JUMPDEST POP JUMP JUMPDEST JUMPDEST DUP1 DUP3 GT ISZERO PUSH3 0x1BF JUMPI PUSH1 0x0 DUP2 SSTORE PUSH1 0x1 ADD PUSH3 0x227 JUMP JUMPDEST PUSH4 0x4E487B71 PUSH1 0xE0 SHL PUSH1 0x0 MSTORE PUSH1 0x41 PUSH1 0x4 MSTORE PUSH1 0x24 PUSH1 0x0 REVERT JUMPDEST PUSH1 0x1 DUP2 DUP2 SHR SWAP1 DUP3 AND DUP1 PUSH3 0x268 JUMPI PUSH1 0x7F DUP3 AND SWAP2 POP JUMPDEST PUSH1 0x20 DUP3 LT DUP2 SUB PUSH3 0x289 JUMPI PUSH4 0x4E487B71 PUSH1 0xE0 SHL PUSH1 0x0 MSTORE PUSH1 0x22 PUSH1 0x4 MSTORE PUSH1 0x24 PUSH1 0x0 REVERT JUMPDEST POP SWAP2 SWAP1 POP JUMP JUMPDEST PUSH1 0x1F DUP3 GT ISZERO PUSH3 0x2DD JUMPI PUSH1 0x0 DUP2 DUP2 MSTORE PUSH1 0x20 DUP2 KECCAK256 PUSH1 0x1F DUP6 ADD PUSH1 0x5 SHR DUP2 ADD PUSH1 0x20 DUP7 LT ISZERO PUSH3 0x2B8 JUMPI POP DUP1 JUMPDEST PUSH1 0x1F DUP6 ADD PUSH1 0x5 SHR DUP3 ADD SWAP2 POP JUMPDEST DUP2 DUP2 LT ISZERO PUSH3 0x2D9 JUMPI DUP3 DUP2 SSTORE PUSH1 0x1 ADD PUSH3 0x2C4 JUMP JUMPDEST POP POP POP JUMPDEST POP POP POP JUMP JUMPDEST DUP2 MLOAD PUSH1 0x1 PUSH1 0x1 PUSH1 0x40 SHL SUB DUP2 GT ISZERO PUSH3 0x2FE JUMPI PUSH3 0x2FE PUSH3 0x23D JUMP JUMPDEST PUSH3 0x316 DUP2 PUSH3 0x30F DUP5 SLOAD PUSH3 0x253 JUMP JUMPDEST DUP5 PUSH3 0x28F JUMP JUMPDEST PUSH1 0x20 DUP1 PUSH1 0x1F DUP4 GT PUSH1 0x1 DUP2 EQ PUSH3 0x34E JUMPI PUSH1 0x0 DUP5 ISZERO PUSH3 0x335 JUMPI POP DUP6 DUP4 ADD MLOAD JUMPDEST PUSH1 0x0 NOT PUSH1 0x3 DUP7 SWAP1 SHL SHR NOT AND PUSH1 0x1 DUP6 SWAP1 SHL OR DUP6 SSTORE PUSH3 0x2D9 JUMP JUMPDEST PUSH1 0x0 DUP6 DUP2 MSTORE PUSH1 0x20 DUP2 KECCAK256 PUSH1 0x1F NOT DUP7 AND SWAP2 JUMPDEST DUP3 DUP2 LT ISZERO PUSH3 0x37F JUMPI DUP9 DUP7 ADD MLOAD DUP3 SSTORE SWAP5 DUP5 ADD SWAP5 PUSH1 0x1 SWAP1 SWAP2 ADD SWAP1 DUP5 ADD PUSH3 0x35E JUMP JUMPDEST POP DUP6 DUP3 LT ISZERO PUSH3 0x39E JUMPI DUP8 DUP6 ADD MLOAD PUSH1 0x0 NOT PUSH1 0x3 DUP9 SWAP1 SHL PUSH1 0xF8 AND SHR NOT AND DUP2 SSTORE JUMPDEST POP POP POP POP POP PUSH1 0x1 SWAP1 DUP2 SHL ADD SWAP1 SSTORE POP JUMP JUMPDEST PUSH2 0x4F77 DUP1 PUSH3 0x3BE PUSH1 0x0 CODECOPY PUSH1 0x0 RETURN INVALID PUSH1 0x80 PUSH1 0x40 MSTORE CALLVALUE DUP1 ISZERO PUSH2 0x10 JUMPI PUSH1 0x0 DUP1 REVERT JUMPDEST POP PUSH1 0x4 CALLDATASIZE LT PUSH2 0x210 JUMPI PUSH1 0x0 CALLDATALOAD PUSH1 0xE0 SHR DUP1 PUSH4 0x653ECEC0 GT PUSH2 0x125 JUMPI DUP1 PUSH4 0xC5CC3BAF GT PUSH2 0xAD JUMPI DUP1 PUSH4 0xE503BB05 GT PUSH2 0x7C JUMPI DUP1 PUSH4 0xE503BB05 EQ PUSH2 0x628 JUMPI DUP1 PUSH4 0xE5B01851 EQ PUSH2 0x648 JUMPI DUP1 PUSH4 0xE7506435 EQ PUSH2 0x668 JUMPI DUP1 PUSH4 0xE8440DD5 EQ PUSH2 0x67B JUMPI DUP1 PUSH4 0xFBAD3E7B EQ PUSH2 0x68E JUMPI PUSH1 0x0 DUP1 REVERT JUMPDEST DUP1 PUSH4 0xC5CC3BAF EQ PUSH2 0x5BE JUMPI DUP1 PUSH4 0xDFD109FE EQ PUSH2 0x5D1 JUMPI DUP1 PUSH4 0xDFE6B5D6 EQ PUSH2 0x5E4 JUMPI DUP1 PUSH4 0xE262B23C EQ PUSH2 0x608 JUMPI PUSH1 0x0 DUP1 REVERT JUMPDEST DUP1 PUSH4 0xAF819DAD GT PUSH2 0xF4 JUMPI DUP1 PUSH4 0xAF819DAD EQ PUSH2 0x4F8 JUMPI DUP1 PUSH4 0xB0D7F917 EQ PUSH2 0x50B JUMPI DUP1 PUSH4 0xBA163BF7 EQ PUSH2 0x56A JUMPI DUP1 PUSH4 0xC1645F42 EQ PUSH2 0x57D JUMPI DUP1 PUSH4 0xC334FC25 EQ PUSH2 0x5AB JUMPI PUSH1 0x0 DUP1 REVERT JUMPDEST DUP1 PUSH4 0x653ECEC0 EQ PUSH2 0x47C JUMPI DUP1 PUSH4 0x8DA5CB5B EQ PUSH2 0x491 JUMPI DUP1 PUSH4 0x900F58FC EQ PUSH2 0x4BC JUMPI DUP1 PUSH4 0xA8060A60 EQ PUSH2 0x4E5 JUMPI PUSH1 0x0 DUP1 REVERT JUMPDEST DUP1 PUSH4 0x2B787417 GT PUSH2 0x1A8 JUMPI DUP1 PUSH4 0x460168C3 GT PUSH2 0x177 JUMPI DUP1 PUSH4 0x460168C3 EQ PUSH2 0x3E3 JUMPI DUP1 PUSH4 0x46601F2F EQ PUSH2 0x403 JUMPI DUP1 PUSH4 0x4D813120 EQ PUSH2 0x40C JUMPI DUP1 PUSH4 0x5B07CC04 EQ PUSH2 0x41F JUMPI DUP1 PUSH4 0x5B9054F9 EQ PUSH2 0x427 JUMPI PUSH1 0x0 DUP1 REVERT JUMPDEST DUP1 PUSH4 0x2B787417 EQ PUSH2 0x382 JUMPI DUP1 PUSH4 0x3665658B EQ PUSH2 0x395 JUMPI DUP1 PUSH4 0x3DA1C0C3 EQ PUSH2 0x39D JUMPI DUP1 PUSH4 0x3E944BAE EQ PUSH2 0x3D0 JUMPI PUSH1 0x0 DUP1 REVERT JUMPDEST DUP1 PUSH4 0x184CA2D8 GT PUSH2 0x1E4 JUMPI DUP1 PUSH4 0x184CA2D8 EQ PUSH2 0x2A9 JUMPI DUP1 PUSH4 0x1E20530A EQ PUSH2 0x2CC JUMPI DUP1 PUSH4 0x1F419D70 EQ PUSH2 0x2E1 JUMPI DUP1 PUSH4 0x27DDEC04 EQ PUSH2 0x301 JUMPI PUSH1 0x0 DUP1 REVERT JUMPDEST DUP1 PUSH3 0xC7701E EQ PUSH2 0x215 JUMPI DUP1 PUSH4 0x12521F02 EQ PUSH2 0x248 JUMPI DUP1 PUSH4 0x146B6888 EQ PUSH2 0x272 JUMPI DUP1 PUSH4 0x1542324D EQ PUSH2 0x2A0 JUMPI JUMPDEST PUSH1 0x0 DUP1 REVERT JUMPDEST PUSH2 0x235 PUSH2 0x223 CALLDATASIZE PUSH1 0x4 PUSH2 0x40BB JUMP JUMPDEST PUSH1 0x7 PUSH1 0x20 MSTORE PUSH1 0x0 SWAP1 DUP2 MSTORE PUSH1 0x40 SWAP1 KECCAK256 SLOAD DUP2 JUMP JUMPDEST PUSH1 0x40 MLOAD SWAP1 DUP2 MSTORE PUSH1 0x20 ADD JUMPDEST PUSH1 0x40 MLOAD DUP1 SWAP2 SUB SWAP1 RETURN JUMPDEST PUSH2 0x25B PUSH2 0x256 CALLDATASIZE PUSH1 0x4 PUSH2 0x40D6 JUMP JUMPDEST PUSH2 0x6A1 JUMP JUMPDEST PUSH1 0x40 MLOAD PUSH2 0x23F SWAP12 SWAP11 SWAP10 SWAP9 SWAP8 SWAP7 SWAP6 SWAP5 SWAP4 SWAP3 SWAP2 SWAP1 PUSH2 0x413F JUMP JUMPDEST PUSH2 0x293 PUSH2 0x280 CALLDATASIZE PUSH1 0x4 PUSH2 0x4299 JUMP JUMPDEST POP PUSH1 0x40 DUP1 MLOAD PUSH1 0x0 DUP2 MSTORE PUSH1 0x20 DUP2 ADD SWAP1 SWAP2 MSTORE SWAP1 JUMP JUMPDEST PUSH1 0x40 MLOAD PUSH2 0x23F SWAP2 SWAP1 PUSH2 0x42CD JUMP JUMPDEST PUSH2 0x235 PUSH1 0xA SLOAD DUP2 JUMP JUMPDEST PUSH2 0x2BC PUSH2 0x2B7 CALLDATASIZE PUSH1 0x4 PUSH2 0x40BB JUMP JUMPDEST PUSH2 0x8B0 JUMP JUMPDEST PUSH1 0x40 MLOAD PUSH2 0x23F SWAP5 SWAP4 SWAP3 SWAP2 SWAP1 PUSH2 0x43AA JUMP JUMPDEST PUSH2 0x2DF PUSH2 0x2DA CALLDATASIZE PUSH1 0x4 PUSH2 0x4402 JUMP JUMPDEST PUSH2 0xBBB JUMP JUMPDEST STOP JUMPDEST PUSH2 0x2F4 PUSH2 0x2EF CALLDATASIZE PUSH1 0x4 PUSH2 0x40BB JUMP JUMPDEST PUSH2 0xD5F JUMP JUMPDEST PUSH1 0x40 MLOAD PUSH2 0x23F SWAP2 SWAP1 PUSH2 0x4518 JUMP JUMPDEST PUSH2 0x35A PUSH2 0x30F CALLDATASIZE PUSH1 0x4 PUSH2 0x457A JUMP JUMPDEST PUSH1 0x5 PUSH1 0x20 SWAP1 DUP2 MSTORE PUSH1 0x0 SWAP3 DUP4 MSTORE PUSH1 0x40 SWAP1 SWAP3 KECCAK256 DUP2 MLOAD DUP1 DUP4 ADD DUP5 ADD DUP1 MLOAD SWAP3 DUP2 MSTORE SWAP1 DUP5 ADD SWAP3 SWAP1 SWAP4 ADD SWAP2 SWAP1 SWAP2 KECCAK256 SWAP2 MSTORE DUP1 SLOAD PUSH1 0x1 DUP3 ADD SLOAD PUSH1 0x2 DUP4 ADD SLOAD PUSH1 0x3 DUP5 ADD SLOAD PUSH1 0x4 SWAP1 SWAP5 ADD SLOAD SWAP3 SWAP4 SWAP2 SWAP3 SWAP1 SWAP2 SWAP1 DUP6 JUMP JUMPDEST PUSH1 0x40 DUP1 MLOAD SWAP6 DUP7 MSTORE PUSH1 0x20 DUP7 ADD SWAP5 SWAP1 SWAP5 MSTORE SWAP3 DUP5 ADD SWAP2 SWAP1 SWAP2 MSTORE PUSH1 0x60 DUP4 ADD MSTORE PUSH1 0x80 DUP3 ADD MSTORE PUSH1 0xA0 ADD PUSH2 0x23F JUMP JUMPDEST PUSH2 0x25B PUSH2 0x390 CALLDATASIZE PUSH1 0x4 PUSH2 0x45C7 JUMP JUMPDEST PUSH2 0xEA8 JUMP JUMPDEST PUSH2 0x235 PUSH2 0xF09 JUMP JUMPDEST PUSH2 0x3C0 PUSH2 0x3AB CALLDATASIZE PUSH1 0x4 PUSH2 0x40BB JUMP JUMPDEST PUSH1 0x3 PUSH1 0x20 MSTORE PUSH1 0x0 SWAP1 DUP2 MSTORE PUSH1 0x40 SWAP1 KECCAK256 SLOAD PUSH1 0xFF AND DUP2 JUMP JUMPDEST PUSH1 0x40 MLOAD SWAP1 ISZERO ISZERO DUP2 MSTORE PUSH1 0x20 ADD PUSH2 0x23F JUMP JUMPDEST PUSH2 0x2F4 PUSH2 0x3DE CALLDATASIZE PUSH1 0x4 PUSH2 0x40BB JUMP JUMPDEST PUSH2 0xF6C JUMP JUMPDEST PUSH2 0x3F6 PUSH2 0x3F1 CALLDATASIZE PUSH1 0x4 PUSH2 0x40BB JUMP JUMPDEST PUSH2 0x137A JUMP JUMPDEST PUSH1 0x40 MLOAD PUSH2 0x23F SWAP2 SWAP1 PUSH2 0x45F1 JUMP JUMPDEST PUSH2 0x235 PUSH1 0x9 SLOAD DUP2 JUMP JUMPDEST PUSH2 0x2DF PUSH2 0x41A CALLDATASIZE PUSH1 0x4 PUSH2 0x40BB JUMP JUMPDEST PUSH2 0x14FB JUMP JUMPDEST PUSH2 0x293 PUSH2 0x157F JUMP JUMPDEST PUSH2 0x43A PUSH2 0x435 CALLDATASIZE PUSH1 0x4 PUSH2 0x457A JUMP JUMPDEST PUSH2 0x159C JUMP JUMPDEST PUSH1 0x40 MLOAD PUSH2 0x23F SWAP2 SWAP1 PUSH1 0x0 PUSH1 0xA0 DUP3 ADD SWAP1 POP DUP3 MLOAD DUP3 MSTORE PUSH1 0x20 DUP4 ADD MLOAD PUSH1 0x20 DUP4 ADD MSTORE PUSH1 0x40 DUP4 ADD MLOAD PUSH1 0x40 DUP4 ADD MSTORE PUSH1 0x60 DUP4 ADD MLOAD PUSH1 0x60 DUP4 ADD MSTORE PUSH1 0x80 DUP4 ADD MLOAD PUSH1 0x80 DUP4 ADD MSTORE SWAP3 SWAP2 POP POP JUMP JUMPDEST PUSH2 0x484 PUSH2 0x1649 JUMP JUMPDEST PUSH1 0x40 MLOAD PUSH2 0x23F SWAP2 SWAP1 PUSH2 0x467A JUMP JUMPDEST PUSH1 0x8 SLOAD PUSH2 0x4A4 SWAP1 PUSH1 0x1 PUSH1 0x1 PUSH1 0xA0 SHL SUB AND DUP2 JUMP JUMPDEST PUSH1 0x40 MLOAD PUSH1 0x1 PUSH1 0x1 PUSH1 0xA0 SHL SUB SWAP1 SWAP2 AND DUP2 MSTORE PUSH1 0x20 ADD PUSH2 0x23F JUMP JUMPDEST PUSH2 0x4CF PUSH2 0x4CA CALLDATASIZE PUSH1 0x4 PUSH2 0x40BB JUMP JUMPDEST PUSH2 0x1722 JUMP JUMPDEST PUSH1 0x40 MLOAD PUSH2 0x23F SWAP11 SWAP10 SWAP9 SWAP8 SWAP7 SWAP6 SWAP5 SWAP4 SWAP3 SWAP2 SWAP1 PUSH2 0x468D JUMP JUMPDEST PUSH2 0x3C0 PUSH2 0x4F3 CALLDATASIZE PUSH1 0x4 PUSH2 0x4299 JUMP JUMPDEST PUSH2 0x1803 JUMP JUMPDEST PUSH2 0x235 PUSH2 0x506 CALLDATASIZE PUSH1 0x4 PUSH2 0x470D JUMP JUMPDEST PUSH2 0x1874 JUMP JUMPDEST PUSH2 0x51E PUSH2 0x519 CALLDATASIZE PUSH1 0x4 PUSH2 0x40BB JUMP JUMPDEST PUSH2 0x1E23 JUMP JUMPDEST PUSH1 0x40 MLOAD PUSH2 0x23F SWAP2 SWAP1 PUSH1 0x0 PUSH1 0xC0 DUP3 ADD SWAP1 POP DUP3 MLOAD DUP3 MSTORE PUSH1 0x20 DUP4 ADD MLOAD PUSH1 0x20 DUP4 ADD MSTORE PUSH1 0x40 DUP4 ADD MLOAD PUSH1 0x40 DUP4 ADD MSTORE PUSH1 0x60 DUP4 ADD MLOAD PUSH1 0x60 DUP4 ADD MSTORE PUSH1 0x80 DUP4 ADD MLOAD PUSH1 0x80 DUP4 ADD MSTORE PUSH1 0xA0 DUP4 ADD MLOAD PUSH1 0xA0 DUP4 ADD MSTORE SWAP3 SWAP2 POP POP JUMP JUMPDEST PUSH2 0x235 PUSH2 0x578 CALLDATASIZE PUSH1 0x4 PUSH2 0x47B9 JUMP JUMPDEST PUSH2 0x21ED JUMP JUMPDEST PUSH2 0x3C0 PUSH2 0x58B CALLDATASIZE PUSH1 0x4 PUSH2 0x4402 JUMP JUMPDEST PUSH1 0x2 PUSH1 0x20 SWAP1 DUP2 MSTORE PUSH1 0x0 SWAP3 DUP4 MSTORE PUSH1 0x40 DUP1 DUP5 KECCAK256 SWAP1 SWAP2 MSTORE SWAP1 DUP3 MSTORE SWAP1 KECCAK256 SLOAD PUSH1 0xFF AND DUP2 JUMP JUMPDEST PUSH2 0x2DF PUSH2 0x5B9 CALLDATASIZE PUSH1 0x4 PUSH2 0x40D6 JUMP JUMPDEST PUSH2 0x27E4 JUMP JUMPDEST PUSH2 0x235 PUSH2 0x5CC CALLDATASIZE PUSH1 0x4 PUSH2 0x47B9 JUMP JUMPDEST PUSH2 0x29B6 JUMP JUMPDEST PUSH2 0x2DF PUSH2 0x5DF CALLDATASIZE PUSH1 0x4 PUSH2 0x4299 JUMP JUMPDEST PUSH2 0x2F38 JUMP JUMPDEST PUSH1 0x9 SLOAD PUSH1 0xA SLOAD PUSH1 0xB SLOAD PUSH1 0x40 DUP1 MLOAD SWAP4 DUP5 MSTORE PUSH1 0x20 DUP5 ADD SWAP3 SWAP1 SWAP3 MSTORE SWAP1 DUP3 ADD MSTORE PUSH1 0x60 ADD PUSH2 0x23F JUMP JUMPDEST PUSH2 0x61B PUSH2 0x616 CALLDATASIZE PUSH1 0x4 PUSH2 0x4810 JUMP JUMPDEST PUSH2 0x3049 JUMP JUMPDEST PUSH1 0x40 MLOAD PUSH2 0x23F SWAP2 SWAP1 PUSH2 0x4833 JUMP JUMPDEST PUSH2 0x235 PUSH2 0x636 CALLDATASIZE PUSH1 0x4 PUSH2 0x40BB JUMP JUMPDEST PUSH1 0x4 PUSH1 0x20 MSTORE PUSH1 0x0 SWAP1 DUP2 MSTORE PUSH1 0x40 SWAP1 KECCAK256 SLOAD DUP2 JUMP JUMPDEST PUSH2 0x65B PUSH2 0x656 CALLDATASIZE PUSH1 0x4 PUSH2 0x4846 JUMP JUMPDEST PUSH2 0x335C JUMP JUMPDEST PUSH1 0x40 MLOAD PUSH2 0x23F SWAP2 SWAP1 PUSH2 0x488A JUMP JUMPDEST PUSH2 0x65B PUSH2 0x676 CALLDATASIZE PUSH1 0x4 PUSH2 0x40D6 JUMP JUMPDEST PUSH2 0x33A5 JUMP JUMPDEST PUSH2 0x2DF PUSH2 0x689 CALLDATASIZE PUSH1 0x4 PUSH2 0x489D JUMP JUMPDEST PUSH2 0x3451 JUMP JUMPDEST PUSH2 0x2F4 PUSH2 0x69C CALLDATASIZE PUSH1 0x4 PUSH2 0x40BB JUMP JUMPDEST PUSH2 0x3491 JUMP JUMPDEST PUSH1 0x1 PUSH1 0x20 DUP2 SWAP1 MSTORE PUSH1 0x0 SWAP2 DUP3 MSTORE PUSH1 0x40 SWAP1 SWAP2 KECCAK256 DUP1 SLOAD SWAP2 DUP2 ADD SLOAD PUSH1 0x2 DUP3 ADD DUP1 SLOAD PUSH1 0x1 PUSH1 0x1 PUSH1 0xA0 SHL SUB SWAP5 DUP6 AND SWAP5 DUP4 AND SWAP4 PUSH1 0x1 PUSH1 0xA0 SHL SWAP1 SWAP4 DIV PUSH1 0xFF AND SWAP3 SWAP2 SWAP1 PUSH2 0x6E4 SWAP1 PUSH2 0x4942 JUMP JUMPDEST DUP1 PUSH1 0x1F ADD PUSH1 0x20 DUP1 SWAP2 DIV MUL PUSH1 0x20 ADD PUSH1 0x40 MLOAD SWAP1 DUP2 ADD PUSH1 0x40 MSTORE DUP1 SWAP3 SWAP2 SWAP1 DUP2 DUP2 MSTORE PUSH1 0x20 ADD DUP3 DUP1 SLOAD PUSH2 0x710 SWAP1 PUSH2 0x4942 JUMP JUMPDEST DUP1 ISZERO PUSH2 0x75D JUMPI DUP1 PUSH1 0x1F LT PUSH2 0x732 JUMPI PUSH2 0x100 DUP1 DUP4 SLOAD DIV MUL DUP4 MSTORE SWAP2 PUSH1 0x20 ADD SWAP2 PUSH2 0x75D JUMP JUMPDEST DUP3 ADD SWAP2 SWAP1 PUSH1 0x0 MSTORE PUSH1 0x20 PUSH1 0x0 KECCAK256 SWAP1 JUMPDEST DUP2 SLOAD DUP2 MSTORE SWAP1 PUSH1 0x1 ADD SWAP1 PUSH1 0x20 ADD DUP1 DUP4 GT PUSH2 0x740 JUMPI DUP3 SWAP1 SUB PUSH1 0x1F AND DUP3 ADD SWAP2 JUMPDEST POP POP POP POP POP SWAP1 DUP1 PUSH1 0x3 ADD DUP1 SLOAD PUSH2 0x772 SWAP1 PUSH2 0x4942 JUMP JUMPDEST DUP1 PUSH1 0x1F ADD PUSH1 0x20 DUP1 SWAP2 DIV MUL PUSH1 0x20 ADD PUSH1 0x40 MLOAD SWAP1 DUP2 ADD PUSH1 0x40 MSTORE DUP1 SWAP3 SWAP2 SWAP1 DUP2 DUP2 MSTORE PUSH1 0x20 ADD DUP3 DUP1 SLOAD PUSH2 0x79E SWAP1 PUSH2 0x4942 JUMP JUMPDEST DUP1 ISZERO PUSH2 0x7EB JUMPI DUP1 PUSH1 0x1F LT PUSH2 0x7C0 JUMPI PUSH2 0x100 DUP1 DUP4 SLOAD DIV MUL DUP4 MSTORE SWAP2 PUSH1 0x20 ADD SWAP2 PUSH2 0x7EB JUMP JUMPDEST DUP3 ADD SWAP2 SWAP1 PUSH1 0x0 MSTORE PUSH1 0x20 PUSH1 0x0 KECCAK256 SWAP1 JUMPDEST DUP2 SLOAD DUP2 MSTORE SWAP1 PUSH1 0x1 ADD SWAP1 PUSH1 0x20 ADD DUP1 DUP4 GT PUSH2 0x7CE JUMPI DUP3 SWAP1 SUB PUSH1 0x1F AND DUP3 ADD SWAP2 JUMPDEST POP POP POP POP PUSH1 0x4 DUP4 ADD SLOAD PUSH1 0x5 DUP5 ADD SLOAD PUSH1 0x6 DUP6 ADD SLOAD PUSH1 0x7 DUP7 ADD SLOAD PUSH1 0x8 DUP8 ADD DUP1 SLOAD SWAP7 SWAP8 SWAP5 SWAP7 PUSH1 0xFF SWAP5 DUP6 AND SWAP7 POP SWAP3 SWAP5 DUP5 DUP4 AND SWAP5 PUSH2 0x100 SWAP1 SWAP4 DIV SWAP1 SWAP3 AND SWAP3 PUSH2 0x82D SWAP1 PUSH2 0x4942 JUMP JUMPDEST DUP1 PUSH1 0x1F ADD PUSH1 0x20 DUP1 SWAP2 DIV MUL PUSH1 0x20 ADD PUSH1 0x40 MLOAD SWAP1 DUP2 ADD PUSH1 0x40 MSTORE DUP1 SWAP3 SWAP2 SWAP1 DUP2 DUP2 MSTORE PUSH1 0x20 ADD DUP3 DUP1 SLOAD PUSH2 0x859 SWAP1 PUSH2 0x4942 JUMP JUMPDEST DUP1 ISZERO PUSH2 0x8A6 JUMPI DUP1 PUSH1 0x1F LT PUSH2 0x87B JUMPI PUSH2 0x100 DUP1 DUP4 SLOAD DIV MUL DUP4 MSTORE SWAP2 PUSH1 0x20 ADD SWAP2 PUSH2 0x8A6 JUMP JUMPDEST DUP3 ADD SWAP2 SWAP1 PUSH1 0x0 MSTORE PUSH1 0x20 PUSH1 0x0 KECCAK256 SWAP1 JUMPDEST DUP2 SLOAD DUP2 MSTORE SWAP1 PUSH1 0x1 ADD SWAP1 PUSH1 0x20 ADD DUP1 DUP4 GT PUSH2 0x889 JUMPI DUP3 SWAP1 SUB PUSH1 0x1F AND DUP3 ADD SWAP2 JUMPDEST POP POP POP POP POP SWAP1 POP DUP12 JUMP JUMPDEST PUSH1 0x60 DUP1 PUSH1 0x60 DUP1 PUSH1 0xB DUP1 SLOAD SWAP1 POP PUSH1 0x1 PUSH1 0x1 PUSH1 0x40 SHL SUB DUP2 GT ISZERO PUSH2 0x8D3 JUMPI PUSH2 0x8D3 PUSH2 0x41DC JUMP JUMPDEST PUSH1 0x40 MLOAD SWAP1 DUP1 DUP3 MSTORE DUP1 PUSH1 0x20 MUL PUSH1 0x20 ADD DUP3 ADD PUSH1 0x40 MSTORE DUP1 ISZERO PUSH2 0x906 JUMPI DUP2 PUSH1 0x20 ADD JUMPDEST PUSH1 0x60 DUP2 MSTORE PUSH1 0x20 ADD SWAP1 PUSH1 0x1 SWAP1 SUB SWAP1 DUP2 PUSH2 0x8F1 JUMPI SWAP1 POP JUMPDEST POP PUSH1 0xB SLOAD SWAP1 SWAP5 POP PUSH1 0x1 PUSH1 0x1 PUSH1 0x40 SHL SUB DUP2 GT ISZERO PUSH2 0x924 JUMPI PUSH2 0x924 PUSH2 0x41DC JUMP JUMPDEST PUSH1 0x40 MLOAD SWAP1 DUP1 DUP3 MSTORE DUP1 PUSH1 0x20 MUL PUSH1 0x20 ADD DUP3 ADD PUSH1 0x40 MSTORE DUP1 ISZERO PUSH2 0x94D JUMPI DUP2 PUSH1 0x20 ADD PUSH1 0x20 DUP3 MUL DUP1 CALLDATASIZE DUP4 CALLDATACOPY ADD SWAP1 POP JUMPDEST POP PUSH1 0xB SLOAD SWAP1 SWAP4 POP PUSH1 0x1 PUSH1 0x1 PUSH1 0x40 SHL SUB DUP2 GT ISZERO PUSH2 0x96B JUMPI PUSH2 0x96B PUSH2 0x41DC JUMP JUMPDEST PUSH1 0x40 MLOAD SWAP1 DUP1 DUP3 MSTORE DUP1 PUSH1 0x20 MUL PUSH1 0x20 ADD DUP3 ADD PUSH1 0x40 MSTORE DUP1 ISZERO PUSH2 0x994 JUMPI DUP2 PUSH1 0x20 ADD PUSH1 0x20 DUP3 MUL DUP1 CALLDATASIZE DUP4 CALLDATACOPY ADD SWAP1 POP JUMPDEST POP PUSH1 0xB SLOAD SWAP1 SWAP3 POP PUSH1 0x1 PUSH1 0x1 PUSH1 0x40 SHL SUB DUP2 GT ISZERO PUSH2 0x9B2 JUMPI PUSH2 0x9B2 PUSH2 0x41DC JUMP JUMPDEST PUSH1 0x40 MLOAD SWAP1 DUP1 DUP3 MSTORE DUP1 PUSH1 0x20 MUL PUSH1 0x20 ADD DUP3 ADD PUSH1 0x40 MSTORE DUP1 ISZERO PUSH2 0x9DB JUMPI DUP2 PUSH1 0x20 ADD PUSH1 0x20 DUP3 MUL DUP1 CALLDATASIZE DUP4 CALLDATACOPY ADD SWAP1 POP JUMPDEST POP SWAP1 POP PUSH1 0x0 JUMPDEST PUSH1 0xB SLOAD DUP2 LT ISZERO PUSH2 0xBB3 JUMPI PUSH1 0x0 PUSH1 0xB DUP3 DUP2 SLOAD DUP2 LT PUSH2 0xA00 JUMPI PUSH2 0xA00 PUSH2 0x497C JUMP JUMPDEST SWAP1 PUSH1 0x0 MSTORE PUSH1 0x20 PUSH1 0x0 KECCAK256 ADD DUP1 SLOAD PUSH2 0xA15 SWAP1 PUSH2 0x4942 JUMP JUMPDEST DUP1 PUSH1 0x1F ADD PUSH1 0x20 DUP1 SWAP2 DIV MUL PUSH1 0x20 ADD PUSH1 0x40 MLOAD SWAP1 DUP2 ADD PUSH1 0x40 MSTORE DUP1 SWAP3 SWAP2 SWAP1 DUP2 DUP2 MSTORE PUSH1 0x20 ADD DUP3 DUP1 SLOAD PUSH2 0xA41 SWAP1 PUSH2 0x4942 JUMP JUMPDEST DUP1 ISZERO PUSH2 0xA8E JUMPI DUP1 PUSH1 0x1F LT PUSH2 0xA63 JUMPI PUSH2 0x100 DUP1 DUP4 SLOAD DIV MUL DUP4 MSTORE SWAP2 PUSH1 0x20 ADD SWAP2 PUSH2 0xA8E JUMP JUMPDEST DUP3 ADD SWAP2 SWAP1 PUSH1 0x0 MSTORE PUSH1 0x20 PUSH1 0x0 KECCAK256 SWAP1 JUMPDEST DUP2 SLOAD DUP2 MSTORE SWAP1 PUSH1 0x1 ADD SWAP1 PUSH1 0x20 ADD DUP1 DUP4 GT PUSH2 0xA71 JUMPI DUP3 SWAP1 SUB PUSH1 0x1F AND DUP3 ADD SWAP2 JUMPDEST POP POP POP POP POP SWAP1 POP PUSH1 0x0 PUSH1 0x5 PUSH1 0x0 DUP10 PUSH1 0x1 PUSH1 0x1 PUSH1 0xA0 SHL SUB AND PUSH1 0x1 PUSH1 0x1 PUSH1 0xA0 SHL SUB AND DUP2 MSTORE PUSH1 0x20 ADD SWAP1 DUP2 MSTORE PUSH1 0x20 ADD PUSH1 0x0 KECCAK256 DUP3 PUSH1 0x40 MLOAD PUSH2 0xACA SWAP2 SWAP1 PUSH2 0x4992 JUMP JUMPDEST SWAP1 DUP2 MSTORE PUSH1 0x20 ADD PUSH1 0x40 MLOAD DUP1 SWAP2 SUB SWAP1 KECCAK256 PUSH1 0x40 MLOAD DUP1 PUSH1 0xA0 ADD PUSH1 0x40 MSTORE SWAP1 DUP2 PUSH1 0x0 DUP3 ADD SLOAD DUP2 MSTORE PUSH1 0x20 ADD PUSH1 0x1 DUP3 ADD SLOAD DUP2 MSTORE PUSH1 0x20 ADD PUSH1 0x2 DUP3 ADD SLOAD DUP2 MSTORE PUSH1 0x20 ADD PUSH1 0x3 DUP3 ADD SLOAD DUP2 MSTORE PUSH1 0x20 ADD PUSH1 0x4 DUP3 ADD SLOAD DUP2 MSTORE POP POP SWAP1 POP DUP2 DUP8 DUP5 DUP2 MLOAD DUP2 LT PUSH2 0xB2A JUMPI PUSH2 0xB2A PUSH2 0x497C JUMP JUMPDEST PUSH1 0x20 MUL PUSH1 0x20 ADD ADD DUP2 SWAP1 MSTORE POP DUP1 PUSH1 0x20 ADD MLOAD DUP7 DUP5 DUP2 MLOAD DUP2 LT PUSH2 0xB4C JUMPI PUSH2 0xB4C PUSH2 0x497C JUMP JUMPDEST PUSH1 0x20 MUL PUSH1 0x20 ADD ADD DUP2 DUP2 MSTORE POP POP DUP1 PUSH1 0x40 ADD MLOAD DUP6 DUP5 DUP2 MLOAD DUP2 LT PUSH2 0xB6F JUMPI PUSH2 0xB6F PUSH2 0x497C JUMP JUMPDEST PUSH1 0x20 MUL PUSH1 0x20 ADD ADD DUP2 DUP2 MSTORE POP POP DUP1 PUSH1 0x80 ADD MLOAD DUP5 DUP5 DUP2 MLOAD DUP2 LT PUSH2 0xB92 JUMPI PUSH2 0xB92 PUSH2 0x497C JUMP JUMPDEST PUSH1 0x20 MUL PUSH1 0x20 ADD ADD DUP2 DUP2 MSTORE POP POP POP POP DUP1 DUP1 PUSH2 0xBAB SWAP1 PUSH2 0x49C4 JUMP JUMPDEST SWAP2 POP POP PUSH2 0x9E1 JUMP JUMPDEST POP SWAP2 SWAP4 POP SWAP2 SWAP4 JUMP JUMPDEST PUSH1 0x8 SLOAD PUSH1 0x1 PUSH1 0x1 PUSH1 0xA0 SHL SUB AND CALLER EQ PUSH2 0xBEE JUMPI PUSH1 0x40 MLOAD PUSH3 0x461BCD PUSH1 0xE5 SHL DUP2 MSTORE PUSH1 0x4 ADD PUSH2 0xBE5 SWAP1 PUSH2 0x49DD JUMP JUMPDEST PUSH1 0x40 MLOAD DUP1 SWAP2 SUB SWAP1 REVERT JUMPDEST DUP1 PUSH1 0x1 PUSH1 0x1 PUSH1 0xA0 SHL SUB AND DUP3 PUSH1 0x1 PUSH1 0x1 PUSH1 0xA0 SHL SUB AND SUB PUSH2 0xC59 JUMPI PUSH1 0x40 MLOAD PUSH3 0x461BCD PUSH1 0xE5 SHL DUP2 MSTORE PUSH1 0x20 PUSH1 0x4 DUP3 ADD MSTORE PUSH1 0x21 PUSH1 0x24 DUP3 ADD MSTORE PUSH32 0x43616E6E6F74206D6174636820757365722077697468207468656D73656C7665 PUSH1 0x44 DUP3 ADD MSTORE PUSH1 0x73 PUSH1 0xF8 SHL PUSH1 0x64 DUP3 ADD MSTORE PUSH1 0x84 ADD PUSH2 0xBE5 JUMP JUMPDEST PUSH1 0x1 PUSH1 0x1 PUSH1 0xA0 SHL SUB DUP3 AND PUSH1 0x0 SWAP1 DUP2 MSTORE PUSH1 0x3 PUSH1 0x20 MSTORE PUSH1 0x40 SWAP1 KECCAK256 SLOAD PUSH1 0xFF AND DUP1 ISZERO PUSH2 0xC99 JUMPI POP PUSH1 0x1 PUSH1 0x1 PUSH1 0xA0 SHL SUB DUP2 AND PUSH1 0x0 SWAP1 DUP2 MSTORE PUSH1 0x3 PUSH1 0x20 MSTORE PUSH1 0x40 SWAP1 KECCAK256 SLOAD PUSH1 0xFF AND JUMPDEST PUSH2 0xCE5 JUMPI PUSH1 0x40 MLOAD PUSH3 0x461BCD PUSH1 0xE5 SHL DUP2 MSTORE PUSH1 0x20 PUSH1 0x4 DUP3 ADD MSTORE PUSH1 0x1B PUSH1 0x24 DUP3 ADD MSTORE PUSH32 0x426F7468207573657273206D7573742062652076657269666965640000000000 PUSH1 0x44 DUP3 ADD MSTORE PUSH1 0x64 ADD PUSH2 0xBE5 JUMP JUMPDEST PUSH1 0x1 PUSH1 0x1 PUSH1 0xA0 SHL SUB DUP3 DUP2 AND PUSH1 0x0 DUP2 DUP2 MSTORE PUSH1 0x2 PUSH1 0x20 DUP2 DUP2 MSTORE PUSH1 0x40 DUP1 DUP5 KECCAK256 SWAP6 DUP8 AND DUP1 DUP6 MSTORE SWAP6 DUP3 MSTORE DUP1 DUP5 KECCAK256 DUP1 SLOAD PUSH1 0x1 PUSH1 0xFF NOT SWAP2 DUP3 AND DUP2 OR SWAP1 SWAP3 SSTORE SWAP4 DUP4 MSTORE DUP2 DUP6 KECCAK256 DUP7 DUP7 MSTORE SWAP1 SWAP3 MSTORE DUP1 DUP5 KECCAK256 DUP1 SLOAD SWAP1 SWAP4 AND SWAP1 SWAP2 OR SWAP1 SWAP2 SSTORE MLOAD PUSH32 0x400084FAA1D1FEEBD72B5492202D9905C0F245DFB43E76CA408FB6F113188E28 SWAP2 SWAP1 LOG3 POP POP JUMP JUMPDEST PUSH1 0x60 PUSH1 0x0 PUSH2 0xD6C DUP4 PUSH2 0xF6C JUMP JUMPDEST SWAP1 POP PUSH1 0x0 DUP1 JUMPDEST DUP3 MLOAD DUP2 LT ISZERO PUSH2 0xDBE JUMPI DUP3 DUP2 DUP2 MLOAD DUP2 LT PUSH2 0xD8D JUMPI PUSH2 0xD8D PUSH2 0x497C JUMP JUMPDEST PUSH1 0x20 MUL PUSH1 0x20 ADD ADD MLOAD PUSH1 0x40 ADD MLOAD ISZERO PUSH2 0xDAC JUMPI DUP2 PUSH2 0xDA8 DUP2 PUSH2 0x49C4 JUMP JUMPDEST SWAP3 POP POP JUMPDEST DUP1 PUSH2 0xDB6 DUP2 PUSH2 0x49C4 JUMP JUMPDEST SWAP2 POP POP PUSH2 0xD72 JUMP JUMPDEST POP PUSH1 0x0 DUP2 PUSH1 0x1 PUSH1 0x1 PUSH1 0x40 SHL SUB DUP2 GT ISZERO PUSH2 0xDD9 JUMPI PUSH2 0xDD9 PUSH2 0x41DC JUMP JUMPDEST PUSH1 0x40 MLOAD SWAP1 DUP1 DUP3 MSTORE DUP1 PUSH1 0x20 MUL PUSH1 0x20 ADD DUP3 ADD PUSH1 0x40 MSTORE DUP1 ISZERO PUSH2 0xE12 JUMPI DUP2 PUSH1 0x20 ADD JUMPDEST PUSH2 0xDFF PUSH2 0x4041 JUMP JUMPDEST DUP2 MSTORE PUSH1 0x20 ADD SWAP1 PUSH1 0x1 SWAP1 SUB SWAP1 DUP2 PUSH2 0xDF7 JUMPI SWAP1 POP JUMPDEST POP SWAP1 POP PUSH1 0x0 DUP1 JUMPDEST DUP5 MLOAD DUP2 LT ISZERO PUSH2 0xE9D JUMPI DUP5 DUP2 DUP2 MLOAD DUP2 LT PUSH2 0xE34 JUMPI PUSH2 0xE34 PUSH2 0x497C JUMP JUMPDEST PUSH1 0x20 MUL PUSH1 0x20 ADD ADD MLOAD PUSH1 0x40 ADD MLOAD ISZERO PUSH2 0xE8B JUMPI DUP5 DUP2 DUP2 MLOAD DUP2 LT PUSH2 0xE57 JUMPI PUSH2 0xE57 PUSH2 0x497C JUMP JUMPDEST PUSH1 0x20 MUL PUSH1 0x20 ADD ADD MLOAD DUP4 DUP4 DUP2 MLOAD DUP2 LT PUSH2 0xE71 JUMPI PUSH2 0xE71 PUSH2 0x497C JUMP JUMPDEST PUSH1 0x20 MUL PUSH1 0x20 ADD ADD DUP2 SWAP1 MSTORE POP DUP2 DUP1 PUSH2 0xE87 SWAP1 PUSH2 0x49C4 JUMP JUMPDEST SWAP3 POP POP JUMPDEST DUP1 PUSH2 0xE95 DUP2 PUSH2 0x49C4 JUMP JUMPDEST SWAP2 POP POP PUSH2 0xE19 JUMP JUMPDEST POP SWAP1 SWAP6 SWAP5 POP POP POP POP POP JUMP JUMPDEST PUSH1 0x0 PUSH1 0x20 MSTORE DUP2 PUSH1 0x0 MSTORE PUSH1 0x40 PUSH1 0x0 KECCAK256 DUP2 DUP2 SLOAD DUP2 LT PUSH2 0xEC4 JUMPI PUSH1 0x0 DUP1 REVERT JUMPDEST PUSH1 0x0 SWAP2 DUP3 MSTORE PUSH1 0x20 SWAP1 SWAP2 KECCAK256 PUSH1 0x9 SWAP1 SWAP2 MUL ADD DUP1 SLOAD PUSH1 0x1 DUP3 ADD SLOAD PUSH1 0x2 DUP4 ADD DUP1 SLOAD PUSH1 0x1 PUSH1 0x1 PUSH1 0xA0 SHL SUB SWAP4 DUP5 AND SWAP7 POP SWAP3 DUP3 AND SWAP5 POP PUSH1 0x1 PUSH1 0xA0 SHL SWAP1 SWAP2 DIV PUSH1 0xFF AND SWAP3 SWAP2 PUSH2 0x6E4 SWAP1 PUSH2 0x4942 JUMP JUMPDEST PUSH1 0x0 TIMESTAMP CALLER PUSH2 0xF3F PUSH1 0x20 PUSH1 0x40 MLOAD DUP1 PUSH1 0x40 ADD PUSH1 0x40 MSTORE DUP1 PUSH1 0xF DUP2 MSTORE PUSH1 0x20 ADD PUSH15 0x195B98DC9E5C1D1A5BDB97DCD95959 PUSH1 0x8A SHL DUP2 MSTORE POP PUSH2 0x35CD JUMP JUMPDEST PUSH1 0x40 MLOAD PUSH1 0x20 ADD PUSH2 0xF51 SWAP4 SWAP3 SWAP2 SWAP1 PUSH2 0x4A1E JUMP JUMPDEST PUSH1 0x40 MLOAD PUSH1 0x20 DUP2 DUP4 SUB SUB DUP2 MSTORE SWAP1 PUSH1 0x40 MSTORE DUP1 MLOAD SWAP1 PUSH1 0x20 ADD KECCAK256 SWAP1 POP SWAP1 JUMP JUMPDEST PUSH1 0x60 PUSH1 0x0 DUP1 JUMPDEST PUSH1 0x1 PUSH1 0x1 PUSH1 0xA0 SHL SUB DUP5 AND PUSH1 0x0 SWAP1 DUP2 MSTORE PUSH1 0x20 DUP2 SWAP1 MSTORE PUSH1 0x40 SWAP1 KECCAK256 SLOAD DUP2 LT ISZERO PUSH2 0xFF8 JUMPI PUSH1 0x1 PUSH1 0x1 PUSH1 0xA0 SHL SUB DUP5 AND PUSH1 0x0 SWAP1 DUP2 MSTORE PUSH1 0x20 DUP2 SWAP1 MSTORE PUSH1 0x40 SWAP1 KECCAK256 DUP1 SLOAD DUP3 SWAP1 DUP2 LT PUSH2 0xFBC JUMPI PUSH2 0xFBC PUSH2 0x497C JUMP JUMPDEST PUSH1 0x0 SWAP2 DUP3 MSTORE PUSH1 0x20 SWAP1 SWAP2 KECCAK256 PUSH1 0x5 PUSH1 0x9 SWAP1 SWAP3 MUL ADD ADD SLOAD PUSH1 0xFF AND ISZERO PUSH2 0xFE6 JUMPI DUP2 PUSH2 0xFE2 DUP2 PUSH2 0x49C4 JUMP JUMPDEST SWAP3 POP POP JUMPDEST DUP1 PUSH2 0xFF0 DUP2 PUSH2 0x49C4 JUMP JUMPDEST SWAP2 POP POP PUSH2 0xF72 JUMP JUMPDEST POP PUSH1 0x0 DUP2 PUSH1 0x1 PUSH1 0x1 PUSH1 0x40 SHL SUB DUP2 GT ISZERO PUSH2 0x1013 JUMPI PUSH2 0x1013 PUSH2 0x41DC JUMP JUMPDEST PUSH1 0x40 MLOAD SWAP1 DUP1 DUP3 MSTORE DUP1 PUSH1 0x20 MUL PUSH1 0x20 ADD DUP3 ADD PUSH1 0x40 MSTORE DUP1 ISZERO PUSH2 0x104C JUMPI DUP2 PUSH1 0x20 ADD JUMPDEST PUSH2 0x1039 PUSH2 0x4041 JUMP JUMPDEST DUP2 MSTORE PUSH1 0x20 ADD SWAP1 PUSH1 0x1 SWAP1 SUB SWAP1 DUP2 PUSH2 0x1031 JUMPI SWAP1 POP JUMPDEST POP SWAP1 POP PUSH1 0x0 DUP1 JUMPDEST PUSH1 0x1 PUSH1 0x1 PUSH1 0xA0 SHL SUB DUP7 AND PUSH1 0x0 SWAP1 DUP2 MSTORE PUSH1 0x20 DUP2 SWAP1 MSTORE PUSH1 0x40 SWAP1 KECCAK256 SLOAD DUP2 LT ISZERO PUSH2 0x1370 JUMPI PUSH1 0x1 PUSH1 0x1 PUSH1 0xA0 SHL SUB DUP7 AND PUSH1 0x0 SWAP1 DUP2 MSTORE PUSH1 0x20 DUP2 SWAP1 MSTORE PUSH1 0x40 SWAP1 KECCAK256 DUP1 SLOAD DUP3 SWAP1 DUP2 LT PUSH2 0x109D JUMPI PUSH2 0x109D PUSH2 0x497C JUMP JUMPDEST PUSH1 0x0 SWAP2 DUP3 MSTORE PUSH1 0x20 SWAP1 SWAP2 KECCAK256 PUSH1 0x5 PUSH1 0x9 SWAP1 SWAP3 MUL ADD ADD SLOAD PUSH1 0xFF AND ISZERO PUSH2 0x135E JUMPI PUSH1 0x1 PUSH1 0x1 PUSH1 0xA0 SHL SUB DUP7 AND PUSH1 0x0 SWAP1 DUP2 MSTORE PUSH1 0x20 DUP2 SWAP1 MSTORE PUSH1 0x40 SWAP1 KECCAK256 DUP1 SLOAD DUP3 SWAP1 DUP2 LT PUSH2 0x10E3 JUMPI PUSH2 0x10E3 PUSH2 0x497C JUMP JUMPDEST PUSH1 0x0 SWAP2 DUP3 MSTORE PUSH1 0x20 SWAP2 DUP3 SWAP1 KECCAK256 PUSH1 0x40 DUP1 MLOAD PUSH2 0x160 DUP2 ADD DUP3 MSTORE PUSH1 0x9 SWAP4 SWAP1 SWAP4 MUL SWAP1 SWAP2 ADD DUP1 SLOAD PUSH1 0x1 PUSH1 0x1 PUSH1 0xA0 SHL SUB SWAP1 DUP2 AND DUP5 MSTORE PUSH1 0x1 DUP3 ADD SLOAD SWAP1 DUP2 AND SWAP5 DUP5 ADD SWAP5 SWAP1 SWAP5 MSTORE PUSH1 0x1 PUSH1 0xA0 SHL SWAP1 SWAP4 DIV PUSH1 0xFF AND ISZERO ISZERO SWAP1 DUP3 ADD MSTORE PUSH1 0x2 DUP3 ADD DUP1 SLOAD SWAP2 SWAP3 SWAP2 PUSH1 0x60 DUP5 ADD SWAP2 SWAP1 PUSH2 0x1149 SWAP1 PUSH2 0x4942 JUMP JUMPDEST DUP1 PUSH1 0x1F ADD PUSH1 0x20 DUP1 SWAP2 DIV MUL PUSH1 0x20 ADD PUSH1 0x40 MLOAD SWAP1 DUP2 ADD PUSH1 0x40 MSTORE DUP1 SWAP3 SWAP2 SWAP1 DUP2 DUP2 MSTORE PUSH1 0x20 ADD DUP3 DUP1 SLOAD PUSH2 0x1175 SWAP1 PUSH2 0x4942 JUMP JUMPDEST DUP1 ISZERO PUSH2 0x11C2 JUMPI DUP1 PUSH1 0x1F LT PUSH2 0x1197 JUMPI PUSH2 0x100 DUP1 DUP4 SLOAD DIV MUL DUP4 MSTORE SWAP2 PUSH1 0x20 ADD SWAP2 PUSH2 0x11C2 JUMP JUMPDEST DUP3 ADD SWAP2 SWAP1 PUSH1 0x0 MSTORE PUSH1 0x20 PUSH1 0x0 KECCAK256 SWAP1 JUMPDEST DUP2 SLOAD DUP2 MSTORE SWAP1 PUSH1 0x1 ADD SWAP1 PUSH1 0x20 ADD DUP1 DUP4 GT PUSH2 0x11A5 JUMPI DUP3 SWAP1 SUB PUSH1 0x1F AND DUP3 ADD SWAP2 JUMPDEST POP POP POP POP POP DUP2 MSTORE PUSH1 0x20 ADD PUSH1 0x3 DUP3 ADD DUP1 SLOAD PUSH2 0x11DB SWAP1 PUSH2 0x4942 JUMP JUMPDEST DUP1 PUSH1 0x1F ADD PUSH1 0x20 DUP1 SWAP2 DIV MUL PUSH1 0x20 ADD PUSH1 0x40 MLOAD SWAP1 DUP2 ADD PUSH1 0x40 MSTORE DUP1 SWAP3 SWAP2 SWAP1 DUP2 DUP2 MSTORE PUSH1 0x20 ADD DUP3 DUP1 SLOAD PUSH2 0x1207 SWAP1 PUSH2 0x4942 JUMP JUMPDEST DUP1 ISZERO PUSH2 0x1254 JUMPI DUP1 PUSH1 0x1F LT PUSH2 0x1229 JUMPI PUSH2 0x100 DUP1 DUP4 SLOAD DIV MUL DUP4 MSTORE SWAP2 PUSH1 0x20 ADD SWAP2 PUSH2 0x1254 JUMP JUMPDEST DUP3 ADD SWAP2 SWAP1 PUSH1 0x0 MSTORE PUSH1 0x20 PUSH1 0x0 KECCAK256 SWAP1 JUMPDEST DUP2 SLOAD DUP2 MSTORE SWAP1 PUSH1 0x1 ADD SWAP1 PUSH1 0x20 ADD DUP1 DUP4 GT PUSH2 0x1237 JUMPI DUP3 SWAP1 SUB PUSH1 0x1F AND DUP3 ADD SWAP2 JUMPDEST POP POP POP SWAP2 DUP4 MSTORE POP POP PUSH1 0x4 DUP3 ADD SLOAD PUSH1 0x20 DUP3 ADD MSTORE PUSH1 0x5 DUP3 ADD SLOAD PUSH1 0xFF SWAP1 DUP2 AND ISZERO ISZERO PUSH1 0x40 DUP4 ADD MSTORE PUSH1 0x6 DUP4 ADD SLOAD PUSH1 0x60 DUP4 ADD MSTORE PUSH1 0x7 DUP4 ADD SLOAD DUP1 DUP3 AND ISZERO ISZERO PUSH1 0x80 DUP5 ADD MSTORE PUSH2 0x100 SWAP1 DIV AND PUSH1 0xA0 DUP3 ADD MSTORE PUSH1 0x8 DUP3 ADD DUP1 SLOAD PUSH1 0xC0 SWAP1 SWAP3 ADD SWAP2 PUSH2 0x12B0 SWAP1 PUSH2 0x4942 JUMP JUMPDEST DUP1 PUSH1 0x1F ADD PUSH1 0x20 DUP1 SWAP2 DIV MUL PUSH1 0x20 ADD PUSH1 0x40 MLOAD SWAP1 DUP2 ADD PUSH1 0x40 MSTORE DUP1 SWAP3 SWAP2 SWAP1 DUP2 DUP2 MSTORE PUSH1 0x20 ADD DUP3 DUP1 SLOAD PUSH2 0x12DC SWAP1 PUSH2 0x4942 JUMP JUMPDEST DUP1 ISZERO PUSH2 0x1329 JUMPI DUP1 PUSH1 0x1F LT PUSH2 0x12FE JUMPI PUSH2 0x100 DUP1 DUP4 SLOAD DIV MUL DUP4 MSTORE SWAP2 PUSH1 0x20 ADD SWAP2 PUSH2 0x1329 JUMP JUMPDEST DUP3 ADD SWAP2 SWAP1 PUSH1 0x0 MSTORE PUSH1 0x20 PUSH1 0x0 KECCAK256 SWAP1 JUMPDEST DUP2 SLOAD DUP2 MSTORE SWAP1 PUSH1 0x1 ADD SWAP1 PUSH1 0x20 ADD DUP1 DUP4 GT PUSH2 0x130C JUMPI DUP3 SWAP1 SUB PUSH1 0x1F AND DUP3 ADD SWAP2 JUMPDEST POP POP POP POP POP DUP2 MSTORE POP POP DUP4 DUP4 DUP2 MLOAD DUP2 LT PUSH2 0x1344 JUMPI PUSH2 0x1344 PUSH2 0x497C JUMP JUMPDEST PUSH1 0x20 MUL PUSH1 0x20 ADD ADD DUP2 SWAP1 MSTORE POP DUP2 DUP1 PUSH2 0x135A SWAP1 PUSH2 0x49C4 JUMP JUMPDEST SWAP3 POP POP JUMPDEST DUP1 PUSH2 0x1368 DUP2 PUSH2 0x49C4 JUMP JUMPDEST SWAP2 POP POP PUSH2 0x1053 JUMP JUMPDEST POP SWAP1 SWAP5 SWAP4 POP POP POP POP JUMP JUMPDEST PUSH2 0x13D2 PUSH1 0x40 MLOAD DUP1 PUSH2 0x140 ADD PUSH1 0x40 MSTORE DUP1 PUSH1 0x0 DUP2 MSTORE PUSH1 0x20 ADD PUSH1 0x0 DUP2 MSTORE PUSH1 0x20 ADD PUSH1 0x0 DUP2 MSTORE PUSH1 0x20 ADD PUSH1 0x0 DUP2 MSTORE PUSH1 0x20 ADD PUSH1 0x0 DUP2 MSTORE PUSH1 0x20 ADD PUSH1 0x0 DUP2 MSTORE PUSH1 0x20 ADD PUSH1 0x60 DUP2 MSTORE PUSH1 0x20 ADD PUSH1 0x0 DUP2 MSTORE PUSH1 0x20 ADD PUSH1 0x0 DUP2 MSTORE PUSH1 0x20 ADD PUSH1 0x0 ISZERO ISZERO DUP2 MSTORE POP SWAP1 JUMP JUMPDEST PUSH1 0x6 PUSH1 0x0 DUP4 PUSH1 0x1 PUSH1 0x1 PUSH1 0xA0 SHL SUB AND PUSH1 0x1 PUSH1 0x1 PUSH1 0xA0 SHL SUB AND DUP2 MSTORE PUSH1 0x20 ADD SWAP1 DUP2 MSTORE PUSH1 0x20 ADD PUSH1 0x0 KECCAK256 PUSH1 0x40 MLOAD DUP1 PUSH2 0x140 ADD PUSH1 0x40 MSTORE SWAP1 DUP2 PUSH1 0x0 DUP3 ADD SLOAD DUP2 MSTORE PUSH1 0x20 ADD PUSH1 0x1 DUP3 ADD SLOAD DUP2 MSTORE PUSH1 0x20 ADD PUSH1 0x2 DUP3 ADD SLOAD DUP2 MSTORE PUSH1 0x20 ADD PUSH1 0x3 DUP3 ADD SLOAD DUP2 MSTORE PUSH1 0x20 ADD PUSH1 0x4 DUP3 ADD SLOAD DUP2 MSTORE PUSH1 0x20 ADD PUSH1 0x5 DUP3 ADD SLOAD DUP2 MSTORE PUSH1 0x20 ADD PUSH1 0x6 DUP3 ADD DUP1 SLOAD PUSH2 0x144F SWAP1 PUSH2 0x4942 JUMP JUMPDEST DUP1 PUSH1 0x1F ADD PUSH1 0x20 DUP1 SWAP2 DIV MUL PUSH1 0x20 ADD PUSH1 0x40 MLOAD SWAP1 DUP2 ADD PUSH1 0x40 MSTORE DUP1 SWAP3 SWAP2 SWAP1 DUP2 DUP2 MSTORE PUSH1 0x20 ADD DUP3 DUP1 SLOAD PUSH2 0x147B SWAP1 PUSH2 0x4942 JUMP JUMPDEST DUP1 ISZERO PUSH2 0x14C8 JUMPI DUP1 PUSH1 0x1F LT PUSH2 0x149D JUMPI PUSH2 0x100 DUP1 DUP4 SLOAD DIV MUL DUP4 MSTORE SWAP2 PUSH1 0x20 ADD SWAP2 PUSH2 0x14C8 JUMP JUMPDEST DUP3 ADD SWAP2 SWAP1 PUSH1 0x0 MSTORE PUSH1 0x20 PUSH1 0x0 KECCAK256 SWAP1 JUMPDEST DUP2 SLOAD DUP2 MSTORE SWAP1 PUSH1 0x1 ADD SWAP1 PUSH1 0x20 ADD DUP1 DUP4 GT PUSH2 0x14AB JUMPI DUP3 SWAP1 SUB PUSH1 0x1F AND DUP3 ADD SWAP2 JUMPDEST POP POP POP SWAP2 DUP4 MSTORE POP POP PUSH1 0x7 DUP3 ADD SLOAD PUSH1 0x20 DUP3 ADD MSTORE PUSH1 0x8 DUP3 ADD SLOAD PUSH1 0x40 DUP3 ADD MSTORE PUSH1 0x9 SWAP1 SWAP2 ADD SLOAD PUSH1 0xFF AND ISZERO ISZERO PUSH1 0x60 SWAP1 SWAP2 ADD MSTORE SWAP3 SWAP2 POP POP JUMP JUMPDEST PUSH1 0x8 SLOAD PUSH1 0x1 PUSH1 0x1 PUSH1 0xA0 SHL SUB AND CALLER EQ PUSH2 0x1525 JUMPI PUSH1 0x40 MLOAD PUSH3 0x461BCD PUSH1 0xE5 SHL DUP2 MSTORE PUSH1 0x4 ADD PUSH2 0xBE5 SWAP1 PUSH2 0x49DD JUMP JUMPDEST PUSH1 0x1 PUSH1 0x1 PUSH1 0xA0 SHL SUB DUP2 AND PUSH1 0x0 DUP2 DUP2 MSTORE PUSH1 0x3 PUSH1 0x20 SWAP1 DUP2 MSTORE PUSH1 0x40 DUP1 DUP4 KECCAK256 DUP1 SLOAD PUSH1 0xFF NOT AND PUSH1 0x1 OR SWAP1 SSTORE PUSH1 0x4 SWAP1 SWAP2 MSTORE DUP1 DUP3 KECCAK256 PUSH1 0x32 SWAP1 SSTORE MLOAD PUSH32 0xA6625D2D26E786E2F473111BEA4B2FCDBBF1863D883A2359989CE3A103D2972A SWAP2 SWAP1 LOG2 POP JUMP JUMPDEST PUSH1 0x40 DUP1 MLOAD PUSH1 0x0 DUP1 DUP3 MSTORE PUSH1 0x20 DUP3 ADD SWAP1 SWAP3 MSTORE PUSH1 0x60 SWAP2 SWAP1 DUP2 JUMPDEST POP SWAP3 SWAP2 POP POP JUMP JUMPDEST PUSH2 0x15CE PUSH1 0x40 MLOAD DUP1 PUSH1 0xA0 ADD PUSH1 0x40 MSTORE DUP1 PUSH1 0x0 DUP2 MSTORE PUSH1 0x20 ADD PUSH1 0x0 DUP2 MSTORE PUSH1 0x20 ADD PUSH1 0x0 DUP2 MSTORE PUSH1 0x20 ADD PUSH1 0x0 DUP2 MSTORE PUSH1 0x20 ADD PUSH1 0x0 DUP2 MSTORE POP SWAP1 JUMP JUMPDEST PUSH1 0x1 PUSH1 0x1 PUSH1 0xA0 SHL SUB DUP4 AND PUSH1 0x0 SWAP1 DUP2 MSTORE PUSH1 0x5 PUSH1 0x20 MSTORE PUSH1 0x40 SWAP1 DUP2 SWAP1 KECCAK256 SWAP1 MLOAD PUSH2 0x15F5 SWAP1 DUP5 SWAP1 PUSH2 0x4992 JUMP JUMPDEST SWAP1 DUP2 MSTORE PUSH1 0x20 ADD PUSH1 0x40 MLOAD DUP1 SWAP2 SUB SWAP1 KECCAK256 PUSH1 0x40 MLOAD DUP1 PUSH1 0xA0 ADD PUSH1 0x40 MSTORE SWAP1 DUP2 PUSH1 0x0 DUP3 ADD SLOAD DUP2 MSTORE PUSH1 0x20 ADD PUSH1 0x1 DUP3 ADD SLOAD DUP2 MSTORE PUSH1 0x20 ADD PUSH1 0x2 DUP3 ADD SLOAD DUP2 MSTORE PUSH1 0x20 ADD PUSH1 0x3 DUP3 ADD SLOAD DUP2 MSTORE PUSH1 0x20 ADD PUSH1 0x4 DUP3 ADD SLOAD DUP2 MSTORE POP POP SWAP1 POP JUMPDEST SWAP3 SWAP2 POP POP JUMP JUMPDEST PUSH1 0x60 PUSH1 0xB DUP1 SLOAD DUP1 PUSH1 0x20 MUL PUSH1 0x20 ADD PUSH1 0x40 MLOAD SWAP1 DUP2 ADD PUSH1 0x40 MSTORE DUP1 SWAP3 SWAP2 SWAP1 DUP2 DUP2 MSTORE PUSH1 0x20 ADD PUSH1 0x0 SWAP1 JUMPDEST DUP3 DUP3 LT ISZERO PUSH2 0x1719 JUMPI DUP4 DUP3 SWAP1 PUSH1 0x0 MSTORE PUSH1 0x20 PUSH1 0x0 KECCAK256 ADD DUP1 SLOAD PUSH2 0x168C SWAP1 PUSH2 0x4942 JUMP JUMPDEST DUP1 PUSH1 0x1F ADD PUSH1 0x20 DUP1 SWAP2 DIV MUL PUSH1 0x20 ADD PUSH1 0x40 MLOAD SWAP1 DUP2 ADD PUSH1 0x40 MSTORE DUP1 SWAP3 SWAP2 SWAP1 DUP2 DUP2 MSTORE PUSH1 0x20 ADD DUP3 DUP1 SLOAD PUSH2 0x16B8 SWAP1 PUSH2 0x4942 JUMP JUMPDEST DUP1 ISZERO PUSH2 0x1705 JUMPI DUP1 PUSH1 0x1F LT PUSH2 0x16DA JUMPI PUSH2 0x100 DUP1 DUP4 SLOAD DIV MUL DUP4 MSTORE SWAP2 PUSH1 0x20 ADD SWAP2 PUSH2 0x1705 JUMP JUMPDEST DUP3 ADD SWAP2 SWAP1 PUSH1 0x0 MSTORE PUSH1 0x20 PUSH1 0x0 KECCAK256 SWAP1 JUMPDEST DUP2 SLOAD DUP2 MSTORE SWAP1 PUSH1 0x1 ADD SWAP1 PUSH1 0x20 ADD DUP1 DUP4 GT PUSH2 0x16E8 JUMPI DUP3 SWAP1 SUB PUSH1 0x1F AND DUP3 ADD SWAP2 JUMPDEST POP POP POP POP POP DUP2 MSTORE PUSH1 0x20 ADD SWAP1 PUSH1 0x1 ADD SWAP1 PUSH2 0x166D JUMP JUMPDEST POP POP POP POP SWAP1 POP SWAP1 JUMP JUMPDEST PUSH1 0x6 PUSH1 0x20 MSTORE DUP1 PUSH1 0x0 MSTORE PUSH1 0x40 PUSH1 0x0 KECCAK256 PUSH1 0x0 SWAP2 POP SWAP1 POP DUP1 PUSH1 0x0 ADD SLOAD SWAP1 DUP1 PUSH1 0x1 ADD SLOAD SWAP1 DUP1 PUSH1 0x2 ADD SLOAD SWAP1 DUP1 PUSH1 0x3 ADD SLOAD SWAP1 DUP1 PUSH1 0x4 ADD SLOAD SWAP1 DUP1 PUSH1 0x5 ADD SLOAD SWAP1 DUP1 PUSH1 0x6 ADD DUP1 SLOAD PUSH2 0x1769 SWAP1 PUSH2 0x4942 JUMP JUMPDEST DUP1 PUSH1 0x1F ADD PUSH1 0x20 DUP1 SWAP2 DIV MUL PUSH1 0x20 ADD PUSH1 0x40 MLOAD SWAP1 DUP2 ADD PUSH1 0x40 MSTORE DUP1 SWAP3 SWAP2 SWAP1 DUP2 DUP2 MSTORE PUSH1 0x20 ADD DUP3 DUP1 SLOAD PUSH2 0x1795 SWAP1 PUSH2 0x4942 JUMP JUMPDEST DUP1 ISZERO PUSH2 0x17E2 JUMPI DUP1 PUSH1 0x1F LT PUSH2 0x17B7 JUMPI PUSH2 0x100 DUP1 DUP4 SLOAD DIV MUL DUP4 MSTORE SWAP2 PUSH1 0x20 ADD SWAP2 PUSH2 0x17E2 JUMP JUMPDEST DUP3 ADD SWAP2 SWAP1 PUSH1 0x0 MSTORE PUSH1 0x20 PUSH1 0x0 KECCAK256 SWAP1 JUMPDEST DUP2 SLOAD DUP2 MSTORE SWAP1 PUSH1 0x1 ADD SWAP1 PUSH1 0x20 ADD DUP1 DUP4 GT PUSH2 0x17C5 JUMPI DUP3 SWAP1 SUB PUSH1 0x1F AND DUP3 ADD SWAP2 JUMPDEST POP POP POP POP PUSH1 0x7 DUP4 ADD SLOAD PUSH1 0x8 DUP5 ADD SLOAD PUSH1 0x9 SWAP1 SWAP5 ADD SLOAD SWAP3 SWAP4 SWAP1 SWAP3 SWAP1 SWAP2 POP PUSH1 0xFF AND DUP11 JUMP JUMPDEST PUSH1 0x0 DUP1 JUMPDEST PUSH1 0xB SLOAD DUP2 LT ISZERO PUSH2 0x186B JUMPI DUP3 DUP1 MLOAD SWAP1 PUSH1 0x20 ADD KECCAK256 PUSH1 0xB DUP3 DUP2 SLOAD DUP2 LT PUSH2 0x182C JUMPI PUSH2 0x182C PUSH2 0x497C JUMP JUMPDEST SWAP1 PUSH1 0x0 MSTORE PUSH1 0x20 PUSH1 0x0 KECCAK256 ADD PUSH1 0x40 MLOAD PUSH2 0x1843 SWAP2 SWAP1 PUSH2 0x4A58 JUMP JUMPDEST PUSH1 0x40 MLOAD DUP1 SWAP2 SUB SWAP1 KECCAK256 SUB PUSH2 0x1859 JUMPI POP PUSH1 0x1 SWAP3 SWAP2 POP POP JUMP JUMPDEST DUP1 PUSH2 0x1863 DUP2 PUSH2 0x49C4 JUMP JUMPDEST SWAP2 POP POP PUSH2 0x1807 JUMP JUMPDEST POP PUSH1 0x0 SWAP3 SWAP2 POP POP JUMP JUMPDEST CALLER PUSH1 0x0 SWAP1 DUP2 MSTORE PUSH1 0x3 PUSH1 0x20 MSTORE PUSH1 0x40 DUP2 KECCAK256 SLOAD PUSH1 0xFF AND PUSH2 0x18A3 JUMPI PUSH1 0x40 MLOAD PUSH3 0x461BCD PUSH1 0xE5 SHL DUP2 MSTORE PUSH1 0x4 ADD PUSH2 0xBE5 SWAP1 PUSH2 0x4ACE JUMP JUMPDEST DUP6 PUSH1 0x1 PUSH1 0x1 PUSH1 0xA0 SHL SUB DUP2 AND PUSH2 0x18CA JUMPI PUSH1 0x40 MLOAD PUSH3 0x461BCD PUSH1 0xE5 SHL DUP2 MSTORE PUSH1 0x4 ADD PUSH2 0xBE5 SWAP1 PUSH2 0x4AFD JUMP JUMPDEST CALLER PUSH1 0x1 PUSH1 0x1 PUSH1 0xA0 SHL SUB DUP3 AND SUB PUSH2 0x18F2 JUMPI PUSH1 0x40 MLOAD PUSH3 0x461BCD PUSH1 0xE5 SHL DUP2 MSTORE PUSH1 0x4 ADD PUSH2 0xBE5 SWAP1 PUSH2 0x4B26 JUMP JUMPDEST CALLER PUSH1 0x0 SWAP1 DUP2 MSTORE PUSH1 0x2 PUSH1 0x20 SWAP1 DUP2 MSTORE PUSH1 0x40 DUP1 DUP4 KECCAK256 PUSH1 0x1 PUSH1 0x1 PUSH1 0xA0 SHL SUB DUP12 AND DUP5 MSTORE SWAP1 SWAP2 MSTORE SWAP1 KECCAK256 SLOAD DUP8 SWAP1 PUSH1 0xFF AND PUSH2 0x1937 JUMPI PUSH1 0x40 MLOAD PUSH3 0x461BCD PUSH1 0xE5 SHL DUP2 MSTORE PUSH1 0x4 ADD PUSH2 0xBE5 SWAP1 PUSH2 0x4B54 JUMP JUMPDEST DUP5 PUSH2 0x1941 DUP2 PUSH2 0x1803 JUMP JUMPDEST PUSH2 0x195D JUMPI PUSH1 0x40 MLOAD PUSH3 0x461BCD PUSH1 0xE5 SHL DUP2 MSTORE PUSH1 0x4 ADD PUSH2 0xBE5 SWAP1 PUSH2 0x4B9D JUMP JUMPDEST PUSH1 0x0 DUP8 MLOAD GT PUSH2 0x19AE JUMPI PUSH1 0x40 MLOAD PUSH3 0x461BCD PUSH1 0xE5 SHL DUP2 MSTORE PUSH1 0x20 PUSH1 0x4 DUP3 ADD DUP2 SWAP1 MSTORE PUSH1 0x24 DUP3 ADD MSTORE PUSH32 0x456E63727970746564207265766965772063616E6E6F7420626520656D707479 PUSH1 0x44 DUP3 ADD MSTORE PUSH1 0x64 ADD PUSH2 0xBE5 JUMP JUMPDEST PUSH2 0x1F4 DUP8 MLOAD GT ISZERO PUSH2 0x1A01 JUMPI PUSH1 0x40 MLOAD PUSH3 0x461BCD PUSH1 0xE5 SHL DUP2 MSTORE PUSH1 0x20 PUSH1 0x4 DUP3 ADD MSTORE PUSH1 0x19 PUSH1 0x24 DUP3 ADD MSTORE PUSH32 0x456E637279707465642072657669657720746F6F206C6F6E6700000000000000 PUSH1 0x44 DUP3 ADD MSTORE PUSH1 0x64 ADD PUSH2 0xBE5 JUMP JUMPDEST DUP8 ISZERO PUSH2 0x1A40 JUMPI PUSH1 0x1 DUP6 PUSH1 0xFF AND LT ISZERO DUP1 ISZERO PUSH2 0x1A1F JUMPI POP PUSH1 0xA DUP6 PUSH1 0xFF AND GT ISZERO JUMPDEST PUSH2 0x1A3B JUMPI PUSH1 0x40 MLOAD PUSH3 0x461BCD PUSH1 0xE5 SHL DUP2 MSTORE PUSH1 0x4 ADD PUSH2 0xBE5 SWAP1 PUSH2 0x4BCC JUMP JUMPDEST PUSH2 0x1A45 JUMP JUMPDEST PUSH1 0x0 SWAP5 POP JUMPDEST PUSH1 0x0 CALLER DUP11 TIMESTAMP PUSH1 0x9 SLOAD PUSH2 0x1A7E PUSH1 0x20 PUSH1 0x40 MLOAD DUP1 PUSH1 0x40 ADD PUSH1 0x40 MSTORE DUP1 PUSH1 0xE DUP2 MSTORE PUSH1 0x20 ADD PUSH14 0x656E637279707465645F666C6167 PUSH1 0x90 SHL DUP2 MSTORE POP PUSH2 0x35CD JUMP JUMPDEST PUSH1 0x40 MLOAD PUSH1 0x20 ADD PUSH2 0x1A92 SWAP6 SWAP5 SWAP4 SWAP3 SWAP2 SWAP1 PUSH2 0x4C12 JUMP JUMPDEST PUSH1 0x40 MLOAD PUSH1 0x20 DUP2 DUP4 SUB SUB DUP2 MSTORE SWAP1 PUSH1 0x40 MSTORE DUP1 MLOAD SWAP1 PUSH1 0x20 ADD KECCAK256 SWAP1 POP PUSH1 0x0 PUSH1 0x40 MLOAD DUP1 PUSH2 0x160 ADD PUSH1 0x40 MSTORE DUP1 CALLER PUSH1 0x1 PUSH1 0x1 PUSH1 0xA0 SHL SUB AND DUP2 MSTORE PUSH1 0x20 ADD DUP13 PUSH1 0x1 PUSH1 0x1 PUSH1 0xA0 SHL SUB AND DUP2 MSTORE PUSH1 0x20 ADD DUP12 ISZERO ISZERO DUP2 MSTORE PUSH1 0x20 ADD PUSH1 0x40 MLOAD DUP1 PUSH1 0x20 ADD PUSH1 0x40 MSTORE DUP1 PUSH1 0x0 DUP2 MSTORE POP DUP2 MSTORE PUSH1 0x20 ADD DUP11 DUP2 MSTORE PUSH1 0x20 ADD TIMESTAMP DUP2 MSTORE PUSH1 0x20 ADD PUSH1 0x0 ISZERO ISZERO DUP2 MSTORE PUSH1 0x20 ADD DUP4 DUP2 MSTORE PUSH1 0x20 ADD PUSH1 0x1 ISZERO ISZERO DUP2 MSTORE PUSH1 0x20 ADD DUP9 PUSH1 0xFF AND DUP2 MSTORE PUSH1 0x20 ADD DUP10 DUP2 MSTORE POP SWAP1 POP PUSH1 0x0 DUP1 DUP13 PUSH1 0x1 PUSH1 0x1 PUSH1 0xA0 SHL SUB AND PUSH1 0x1 PUSH1 0x1 PUSH1 0xA0 SHL SUB AND DUP2 MSTORE PUSH1 0x20 ADD SWAP1 DUP2 MSTORE PUSH1 0x20 ADD PUSH1 0x0 KECCAK256 DUP2 SWAP1 DUP1 PUSH1 0x1 DUP2 SLOAD ADD DUP1 DUP3 SSTORE DUP1 SWAP2 POP POP PUSH1 0x1 SWAP1 SUB SWAP1 PUSH1 0x0 MSTORE PUSH1 0x20 PUSH1 0x0 KECCAK256 SWAP1 PUSH1 0x9 MUL ADD PUSH1 0x0 SWAP1 SWAP2 SWAP1 SWAP2 SWAP1 SWAP2 POP PUSH1 0x0 DUP3 ADD MLOAD DUP2 PUSH1 0x0 ADD PUSH1 0x0 PUSH2 0x100 EXP DUP2 SLOAD DUP2 PUSH1 0x1 PUSH1 0x1 PUSH1 0xA0 SHL SUB MUL NOT AND SWAP1 DUP4 PUSH1 0x1 PUSH1 0x1 PUSH1 0xA0 SHL SUB AND MUL OR SWAP1 SSTORE POP PUSH1 0x20 DUP3 ADD MLOAD DUP2 PUSH1 0x1 ADD PUSH1 0x0 PUSH2 0x100 EXP DUP2 SLOAD DUP2 PUSH1 0x1 PUSH1 0x1 PUSH1 0xA0 SHL SUB MUL NOT AND SWAP1 DUP4 PUSH1 0x1 PUSH1 0x1 PUSH1 0xA0 SHL SUB AND MUL OR SWAP1 SSTORE POP PUSH1 0x40 DUP3 ADD MLOAD DUP2 PUSH1 0x1 ADD PUSH1 0x14 PUSH2 0x100 EXP DUP2 SLOAD DUP2 PUSH1 0xFF MUL NOT AND SWAP1 DUP4 ISZERO ISZERO MUL OR SWAP1 SSTORE POP PUSH1 0x60 DUP3 ADD MLOAD DUP2 PUSH1 0x2 ADD SWAP1 DUP2 PUSH2 0x1C03 SWAP2 SWAP1 PUSH2 0x4CB0 JUMP JUMPDEST POP PUSH1 0x80 DUP3 ADD MLOAD PUSH1 0x3 DUP3 ADD SWAP1 PUSH2 0x1C18 SWAP1 DUP3 PUSH2 0x4CB0 JUMP JUMPDEST POP PUSH1 0xA0 DUP3 ADD MLOAD PUSH1 0x4 DUP3 ADD SSTORE PUSH1 0xC0 DUP3 ADD MLOAD PUSH1 0x5 DUP3 ADD DUP1 SLOAD PUSH1 0xFF NOT AND SWAP2 ISZERO ISZERO SWAP2 SWAP1 SWAP2 OR SWAP1 SSTORE PUSH1 0xE0 DUP3 ADD MLOAD PUSH1 0x6 DUP3 ADD SSTORE PUSH2 0x100 DUP1 DUP4 ADD MLOAD PUSH1 0x7 DUP4 ADD DUP1 SLOAD PUSH2 0x120 DUP7 ADD MLOAD PUSH2 0xFFFF NOT SWAP1 SWAP2 AND SWAP3 ISZERO ISZERO PUSH2 0xFF00 NOT AND SWAP3 SWAP1 SWAP3 OR PUSH1 0xFF SWAP1 SWAP3 AND SWAP1 SWAP3 MUL OR SWAP1 SSTORE PUSH2 0x140 DUP3 ADD MLOAD PUSH1 0x8 DUP3 ADD SWAP1 PUSH2 0x1C8B SWAP1 DUP3 PUSH2 0x4CB0 JUMP JUMPDEST POP POP POP PUSH1 0x0 DUP3 DUP2 MSTORE PUSH1 0x1 PUSH1 0x20 DUP2 DUP2 MSTORE PUSH1 0x40 SWAP3 DUP4 SWAP1 KECCAK256 DUP5 MLOAD DUP2 SLOAD PUSH1 0x1 PUSH1 0x1 PUSH1 0xA0 SHL SUB SWAP2 DUP3 AND PUSH1 0x1 PUSH1 0x1 PUSH1 0xA0 SHL SUB NOT SWAP1 SWAP2 AND OR DUP3 SSTORE SWAP2 DUP6 ADD MLOAD SWAP3 DUP2 ADD DUP1 SLOAD SWAP5 DUP7 ADD MLOAD ISZERO ISZERO PUSH1 0x1 PUSH1 0xA0 SHL MUL PUSH1 0x1 PUSH1 0x1 PUSH1 0xA8 SHL SUB NOT SWAP1 SWAP6 AND SWAP4 SWAP1 SWAP3 AND SWAP3 SWAP1 SWAP3 OR SWAP3 SWAP1 SWAP3 OR SWAP1 SWAP2 SSTORE PUSH1 0x60 DUP3 ADD MLOAD DUP3 SWAP2 SWAP1 PUSH1 0x2 DUP3 ADD SWAP1 PUSH2 0x1D05 SWAP1 DUP3 PUSH2 0x4CB0 JUMP JUMPDEST POP PUSH1 0x80 DUP3 ADD MLOAD PUSH1 0x3 DUP3 ADD SWAP1 PUSH2 0x1D1A SWAP1 DUP3 PUSH2 0x4CB0 JUMP JUMPDEST POP PUSH1 0xA0 DUP3 ADD MLOAD PUSH1 0x4 DUP3 ADD SSTORE PUSH1 0xC0 DUP3 ADD MLOAD PUSH1 0x5 DUP3 ADD DUP1 SLOAD PUSH1 0xFF NOT AND SWAP2 ISZERO ISZERO SWAP2 SWAP1 SWAP2 OR SWAP1 SSTORE PUSH1 0xE0 DUP3 ADD MLOAD PUSH1 0x6 DUP3 ADD SSTORE PUSH2 0x100 DUP1 DUP4 ADD MLOAD PUSH1 0x7 DUP4 ADD DUP1 SLOAD PUSH2 0x120 DUP7 ADD MLOAD PUSH2 0xFFFF NOT SWAP1 SWAP2 AND SWAP3 ISZERO ISZERO PUSH2 0xFF00 NOT AND SWAP3 SWAP1 SWAP3 OR PUSH1 0xFF SWAP1 SWAP3 AND SWAP1 SWAP3 MUL OR SWAP1 SSTORE PUSH2 0x140 DUP3 ADD MLOAD PUSH1 0x8 DUP3 ADD SWAP1 PUSH2 0x1D8D SWAP1 DUP3 PUSH2 0x4CB0 JUMP JUMPDEST POP POP PUSH1 0x9 DUP1 SLOAD SWAP2 POP PUSH1 0x0 PUSH2 0x1DA0 DUP4 PUSH2 0x49C4 JUMP JUMPDEST SWAP2 SWAP1 POP SSTORE POP PUSH2 0x1DB0 DUP12 DUP12 DUP10 PUSH2 0x36A0 JUMP JUMPDEST PUSH2 0x1DBC DUP12 DUP10 DUP13 DUP11 PUSH2 0x37EC JUMP JUMPDEST PUSH2 0x1DC5 DUP12 PUSH2 0x39BD JUMP JUMPDEST DUP2 DUP12 PUSH1 0x1 PUSH1 0x1 PUSH1 0xA0 SHL SUB AND CALLER PUSH1 0x1 PUSH1 0x1 PUSH1 0xA0 SHL SUB AND PUSH32 0xE10570F1317B44144D2C8BE0C3B4E88824C432036E844836147E0EDAE7326692 DUP14 PUSH1 0x40 MLOAD PUSH2 0x1E0D SWAP2 ISZERO ISZERO DUP2 MSTORE PUSH1 0x20 ADD SWAP1 JUMP JUMPDEST PUSH1 0x40 MLOAD DUP1 SWAP2 SUB SWAP1 LOG4 POP SWAP10 SWAP9 POP POP POP POP POP POP POP POP POP JUMP JUMPDEST PUSH2 0x1E5C PUSH1 0x40 MLOAD DUP1 PUSH1 0xC0 ADD PUSH1 0x40 MSTORE DUP1 PUSH1 0x0 DUP2 MSTORE PUSH1 0x20 ADD PUSH1 0x0 DUP2 MSTORE PUSH1 0x20 ADD PUSH1 0x0 DUP2 MSTORE PUSH1 0x20 ADD PUSH1 0x0 DUP2 MSTORE PUSH1 0x20 ADD PUSH1 0x0 DUP2 MSTORE PUSH1 0x20 ADD PUSH1 0x0 DUP2 MSTORE POP SWAP1 JUMP JUMPDEST PUSH1 0x1 PUSH1 0x1 PUSH1 0xA0 SHL SUB DUP3 AND PUSH1 0x0 SWAP1 DUP2 MSTORE PUSH1 0x20 DUP2 SWAP1 MSTORE PUSH1 0x40 DUP2 KECCAK256 SLOAD SWAP1 DUP1 DUP1 DUP1 DUP1 DUP1 DUP1 JUMPDEST DUP8 DUP2 LT ISZERO PUSH2 0x219B JUMPI PUSH1 0x1 PUSH1 0x1 PUSH1 0xA0 SHL SUB DUP11 AND PUSH1 0x0 SWAP1 DUP2 MSTORE PUSH1 0x20 DUP2 SWAP1 MSTORE PUSH1 0x40 DUP2 KECCAK256 DUP1 SLOAD DUP4 SWAP1 DUP2 LT PUSH2 0x1EAF JUMPI PUSH2 0x1EAF PUSH2 0x497C JUMP JUMPDEST PUSH1 0x0 SWAP2 DUP3 MSTORE PUSH1 0x20 SWAP2 DUP3 SWAP1 KECCAK256 PUSH1 0x40 DUP1 MLOAD PUSH2 0x160 DUP2 ADD DUP3 MSTORE PUSH1 0x9 SWAP4 SWAP1 SWAP4 MUL SWAP1 SWAP2 ADD DUP1 SLOAD PUSH1 0x1 PUSH1 0x1 PUSH1 0xA0 SHL SUB SWAP1 DUP2 AND DUP5 MSTORE PUSH1 0x1 DUP3 ADD SLOAD SWAP1 DUP2 AND SWAP5 DUP5 ADD SWAP5 SWAP1 SWAP5 MSTORE PUSH1 0x1 PUSH1 0xA0 SHL SWAP1 SWAP4 DIV PUSH1 0xFF AND ISZERO ISZERO SWAP1 DUP3 ADD MSTORE PUSH1 0x2 DUP3 ADD DUP1 SLOAD SWAP2 SWAP3 SWAP2 PUSH1 0x60 DUP5 ADD SWAP2 SWAP1 PUSH2 0x1F15 SWAP1 PUSH2 0x4942 JUMP JUMPDEST DUP1 PUSH1 0x1F ADD PUSH1 0x20 DUP1 SWAP2 DIV MUL PUSH1 0x20 ADD PUSH1 0x40 MLOAD SWAP1 DUP2 ADD PUSH1 0x40 MSTORE DUP1 SWAP3 SWAP2 SWAP1 DUP2 DUP2 MSTORE PUSH1 0x20 ADD DUP3 DUP1 SLOAD PUSH2 0x1F41 SWAP1 PUSH2 0x4942 JUMP JUMPDEST DUP1 ISZERO PUSH2 0x1F8E JUMPI DUP1 PUSH1 0x1F LT PUSH2 0x1F63 JUMPI PUSH2 0x100 DUP1 DUP4 SLOAD DIV MUL DUP4 MSTORE SWAP2 PUSH1 0x20 ADD SWAP2 PUSH2 0x1F8E JUMP JUMPDEST DUP3 ADD SWAP2 SWAP1 PUSH1 0x0 MSTORE PUSH1 0x20 PUSH1 0x0 KECCAK256 SWAP1 JUMPDEST DUP2 SLOAD DUP2 MSTORE SWAP1 PUSH1 0x1 ADD SWAP1 PUSH1 0x20 ADD DUP1 DUP4 GT PUSH2 0x1F71 JUMPI DUP3 SWAP1 SUB PUSH1 0x1F AND DUP3 ADD SWAP2 JUMPDEST POP POP POP POP POP DUP2 MSTORE PUSH1 0x20 ADD PUSH1 0x3 DUP3 ADD DUP1 SLOAD PUSH2 0x1FA7 SWAP1 PUSH2 0x4942 JUMP JUMPDEST DUP1 PUSH1 0x1F ADD PUSH1 0x20 DUP1 SWAP2 DIV MUL PUSH1 0x20 ADD PUSH1 0x40 MLOAD SWAP1 DUP2 ADD PUSH1 0x40 MSTORE DUP1 SWAP3 SWAP2 SWAP1 DUP2 DUP2 MSTORE PUSH1 0x20 ADD DUP3 DUP1 SLOAD PUSH2 0x1FD3 SWAP1 PUSH2 0x4942 JUMP JUMPDEST DUP1 ISZERO PUSH2 0x2020 JUMPI DUP1 PUSH1 0x1F LT PUSH2 0x1FF5 JUMPI PUSH2 0x100 DUP1 DUP4 SLOAD DIV MUL DUP4 MSTORE SWAP2 PUSH1 0x20 ADD SWAP2 PUSH2 0x2020 JUMP JUMPDEST DUP3 ADD SWAP2 SWAP1 PUSH1 0x0 MSTORE PUSH1 0x20 PUSH1 0x0 KECCAK256 SWAP1 JUMPDEST DUP2 SLOAD DUP2 MSTORE SWAP1 PUSH1 0x1 ADD SWAP1 PUSH1 0x20 ADD DUP1 DUP4 GT PUSH2 0x2003 JUMPI DUP3 SWAP1 SUB PUSH1 0x1F AND DUP3 ADD SWAP2 JUMPDEST POP POP POP SWAP2 DUP4 MSTORE POP POP PUSH1 0x4 DUP3 ADD SLOAD PUSH1 0x20 DUP3 ADD MSTORE PUSH1 0x5 DUP3 ADD SLOAD PUSH1 0xFF SWAP1 DUP2 AND ISZERO ISZERO PUSH1 0x40 DUP4 ADD MSTORE PUSH1 0x6 DUP4 ADD SLOAD PUSH1 0x60 DUP4 ADD MSTORE PUSH1 0x7 DUP4 ADD SLOAD DUP1 DUP3 AND ISZERO ISZERO PUSH1 0x80 DUP5 ADD MSTORE PUSH2 0x100 SWAP1 DIV AND PUSH1 0xA0 DUP3 ADD MSTORE PUSH1 0x8 DUP3 ADD DUP1 SLOAD PUSH1 0xC0 SWAP1 SWAP3 ADD SWAP2 PUSH2 0x207C SWAP1 PUSH2 0x4942 JUMP JUMPDEST DUP1 PUSH1 0x1F ADD PUSH1 0x20 DUP1 SWAP2 DIV MUL PUSH1 0x20 ADD PUSH1 0x40 MLOAD SWAP1 DUP2 ADD PUSH1 0x40 MSTORE DUP1 SWAP3 SWAP2 SWAP1 DUP2 DUP2 MSTORE PUSH1 0x20 ADD DUP3 DUP1 SLOAD PUSH2 0x20A8 SWAP1 PUSH2 0x4942 JUMP JUMPDEST DUP1 ISZERO PUSH2 0x20F5 JUMPI DUP1 PUSH1 0x1F LT PUSH2 0x20CA JUMPI PUSH2 0x100 DUP1 DUP4 SLOAD DIV MUL DUP4 MSTORE SWAP2 PUSH1 0x20 ADD SWAP2 PUSH2 0x20F5 JUMP JUMPDEST DUP3 ADD SWAP2 SWAP1 PUSH1 0x0 MSTORE PUSH1 0x20 PUSH1 0x0 KECCAK256 SWAP1 JUMPDEST DUP2 SLOAD DUP2 MSTORE SWAP1 PUSH1 0x1 ADD SWAP1 PUSH1 0x20 ADD DUP1 DUP4 GT PUSH2 0x20D8 JUMPI DUP3 SWAP1 SUB PUSH1 0x1F AND DUP3 ADD SWAP2 JUMPDEST POP POP POP POP POP DUP2 MSTORE POP POP SWAP1 POP DUP1 PUSH1 0xC0 ADD MLOAD ISZERO PUSH2 0x217A JUMPI DUP6 PUSH2 0x2114 DUP2 PUSH2 0x49C4 JUMP JUMPDEST SWAP7 POP POP DUP1 PUSH1 0x40 ADD MLOAD ISZERO PUSH2 0x2161 JUMPI DUP8 PUSH2 0x212B DUP2 PUSH2 0x49C4 JUMP JUMPDEST SWAP9 POP POP DUP1 PUSH2 0x120 ADD MLOAD PUSH1 0xB PUSH2 0x2140 SWAP2 SWAP1 PUSH2 0x4D6F JUMP JUMPDEST PUSH2 0x214D SWAP1 PUSH1 0xFF AND DUP6 PUSH2 0x4D88 JUMP JUMPDEST SWAP4 POP DUP3 PUSH2 0x2159 DUP2 PUSH2 0x49C4 JUMP JUMPDEST SWAP4 POP POP PUSH2 0x2188 JUMP JUMPDEST DUP7 PUSH2 0x216B DUP2 PUSH2 0x49C4 JUMP JUMPDEST SWAP8 POP PUSH2 0x214D SWAP1 POP PUSH1 0xA DUP6 PUSH2 0x4D88 JUMP JUMPDEST DUP5 PUSH2 0x2184 DUP2 PUSH2 0x49C4 JUMP JUMPDEST SWAP6 POP POP JUMPDEST POP DUP1 PUSH2 0x2193 DUP2 PUSH2 0x49C4 JUMP JUMPDEST SWAP2 POP POP PUSH2 0x1E7D JUMP JUMPDEST POP PUSH1 0x0 DUP1 DUP3 GT PUSH2 0x21AC JUMPI PUSH1 0x0 PUSH2 0x21B6 JUMP JUMPDEST PUSH2 0x21B6 DUP3 DUP5 PUSH2 0x4D9B JUMP JUMPDEST PUSH1 0x40 DUP1 MLOAD PUSH1 0xC0 DUP2 ADD DUP3 MSTORE SWAP10 DUP11 MSTORE PUSH1 0x20 DUP11 ADD SWAP9 SWAP1 SWAP9 MSTORE SWAP7 DUP9 ADD SWAP6 SWAP1 SWAP6 MSTORE POP POP PUSH1 0x60 DUP6 ADD SWAP2 SWAP1 SWAP2 MSTORE PUSH1 0x80 DUP5 ADD MSTORE POP PUSH1 0xA0 DUP3 ADD MSTORE SWAP3 SWAP2 POP POP JUMP JUMPDEST CALLER PUSH1 0x0 SWAP1 DUP2 MSTORE PUSH1 0x3 PUSH1 0x20 MSTORE PUSH1 0x40 DUP2 KECCAK256 SLOAD PUSH1 0xFF AND PUSH2 0x221C JUMPI PUSH1 0x40 MLOAD PUSH3 0x461BCD PUSH1 0xE5 SHL DUP2 MSTORE PUSH1 0x4 ADD PUSH2 0xBE5 SWAP1 PUSH2 0x4ACE JUMP JUMPDEST DUP6 PUSH1 0x1 PUSH1 0x1 PUSH1 0xA0 SHL SUB DUP2 AND PUSH2 0x2243 JUMPI PUSH1 0x40 MLOAD PUSH3 0x461BCD PUSH1 0xE5 SHL DUP2 MSTORE PUSH1 0x4 ADD PUSH2 0xBE5 SWAP1 PUSH2 0x4AFD JUMP JUMPDEST CALLER PUSH1 0x1 PUSH1 0x1 PUSH1 0xA0 SHL SUB DUP3 AND SUB PUSH2 0x226B JUMPI PUSH1 0x40 MLOAD PUSH3 0x461BCD PUSH1 0xE5 SHL DUP2 MSTORE PUSH1 0x4 ADD PUSH2 0xBE5 SWAP1 PUSH2 0x4B26 JUMP JUMPDEST CALLER PUSH1 0x0 SWAP1 DUP2 MSTORE PUSH1 0x2 PUSH1 0x20 SWAP1 DUP2 MSTORE PUSH1 0x40 DUP1 DUP4 KECCAK256 PUSH1 0x1 PUSH1 0x1 PUSH1 0xA0 SHL SUB DUP12 AND DUP5 MSTORE SWAP1 SWAP2 MSTORE SWAP1 KECCAK256 SLOAD DUP8 SWAP1 PUSH1 0xFF AND PUSH2 0x22B0 JUMPI PUSH1 0x40 MLOAD PUSH3 0x461BCD PUSH1 0xE5 SHL DUP2 MSTORE PUSH1 0x4 ADD PUSH2 0xBE5 SWAP1 PUSH2 0x4B54 JUMP JUMPDEST DUP5 PUSH2 0x22BA DUP2 PUSH2 0x1803 JUMP JUMPDEST PUSH2 0x22D6 JUMPI PUSH1 0x40 MLOAD PUSH3 0x461BCD PUSH1 0xE5 SHL DUP2 MSTORE PUSH1 0x4 ADD PUSH2 0xBE5 SWAP1 PUSH2 0x4B9D JUMP JUMPDEST PUSH1 0x0 DUP8 MLOAD GT PUSH2 0x2320 JUMPI PUSH1 0x40 MLOAD PUSH3 0x461BCD PUSH1 0xE5 SHL DUP2 MSTORE PUSH1 0x20 PUSH1 0x4 DUP3 ADD MSTORE PUSH1 0x16 PUSH1 0x24 DUP3 ADD MSTORE PUSH22 0x5265766965772063616E6E6F7420626520656D707479 PUSH1 0x50 SHL PUSH1 0x44 DUP3 ADD MSTORE PUSH1 0x64 ADD PUSH2 0xBE5 JUMP JUMPDEST PUSH1 0xC8 DUP8 MLOAD GT ISZERO PUSH2 0x2364 JUMPI PUSH1 0x40 MLOAD PUSH3 0x461BCD PUSH1 0xE5 SHL DUP2 MSTORE PUSH1 0x20 PUSH1 0x4 DUP3 ADD MSTORE PUSH1 0xF PUSH1 0x24 DUP3 ADD MSTORE PUSH15 0x52657669657720746F6F206C6F6E67 PUSH1 0x88 SHL PUSH1 0x44 DUP3 ADD MSTORE PUSH1 0x64 ADD PUSH2 0xBE5 JUMP JUMPDEST DUP8 ISZERO PUSH2 0x23A3 JUMPI PUSH1 0x1 DUP6 PUSH1 0xFF AND LT ISZERO DUP1 ISZERO PUSH2 0x2382 JUMPI POP PUSH1 0xA DUP6 PUSH1 0xFF AND GT ISZERO JUMPDEST PUSH2 0x239E JUMPI PUSH1 0x40 MLOAD PUSH3 0x461BCD PUSH1 0xE5 SHL DUP2 MSTORE PUSH1 0x4 ADD PUSH2 0xBE5 SWAP1 PUSH2 0x4BCC JUMP JUMPDEST PUSH2 0x23A8 JUMP JUMPDEST PUSH1 0x0 SWAP5 POP JUMPDEST PUSH1 0x0 CALLER DUP11 TIMESTAMP PUSH1 0x9 SLOAD PUSH2 0x23E1 PUSH1 0x20 PUSH1 0x40 MLOAD DUP1 PUSH1 0x40 ADD PUSH1 0x40 MSTORE DUP1 PUSH1 0xE DUP2 MSTORE PUSH1 0x20 ADD PUSH14 0x616E6F6E796D6F75735F666C6167 PUSH1 0x90 SHL DUP2 MSTORE POP PUSH2 0x35CD JUMP JUMPDEST PUSH1 0x40 MLOAD PUSH1 0x20 ADD PUSH2 0x23F5 SWAP6 SWAP5 SWAP4 SWAP3 SWAP2 SWAP1 PUSH2 0x4C12 JUMP JUMPDEST PUSH1 0x40 MLOAD PUSH1 0x20 DUP2 DUP4 SUB SUB DUP2 MSTORE SWAP1 PUSH1 0x40 MSTORE DUP1 MLOAD SWAP1 PUSH1 0x20 ADD KECCAK256 SWAP1 POP PUSH1 0x0 CALLER PUSH2 0x2444 PUSH1 0x20 PUSH1 0x40 MLOAD DUP1 PUSH1 0x40 ADD PUSH1 0x40 MSTORE DUP1 PUSH1 0x11 DUP2 MSTORE PUSH1 0x20 ADD PUSH17 0x39B2B73232B92FB2B731B93CB83A34B7B7 PUSH1 0x79 SHL DUP2 MSTORE POP PUSH2 0x35CD JUMP JUMPDEST PUSH1 0x40 MLOAD PUSH1 0x20 ADD PUSH2 0x2455 SWAP3 SWAP2 SWAP1 PUSH2 0x4DBD JUMP JUMPDEST PUSH1 0x40 DUP1 MLOAD PUSH1 0x1F NOT DUP2 DUP5 SUB ADD DUP2 MSTORE DUP3 DUP3 MSTORE DUP1 MLOAD PUSH1 0x20 SWAP2 DUP3 ADD KECCAK256 SWAP1 DUP4 ADD MSTORE ADD PUSH1 0x40 MLOAD PUSH1 0x20 DUP2 DUP4 SUB SUB DUP2 MSTORE SWAP1 PUSH1 0x40 MSTORE SWAP1 POP PUSH1 0x0 PUSH1 0x40 MLOAD DUP1 PUSH2 0x160 ADD PUSH1 0x40 MSTORE DUP1 PUSH1 0x0 PUSH1 0x1 PUSH1 0x1 PUSH1 0xA0 SHL SUB AND DUP2 MSTORE PUSH1 0x20 ADD DUP14 PUSH1 0x1 PUSH1 0x1 PUSH1 0xA0 SHL SUB AND DUP2 MSTORE PUSH1 0x20 ADD DUP13 ISZERO ISZERO DUP2 MSTORE PUSH1 0x20 ADD DUP12 DUP2 MSTORE PUSH1 0x20 ADD DUP4 DUP2 MSTORE PUSH1 0x20 ADD TIMESTAMP DUP2 MSTORE PUSH1 0x20 ADD PUSH1 0x0 ISZERO ISZERO DUP2 MSTORE PUSH1 0x20 ADD DUP5 DUP2 MSTORE PUSH1 0x20 ADD PUSH1 0x1 ISZERO ISZERO DUP2 MSTORE PUSH1 0x20 ADD DUP10 PUSH1 0xFF AND DUP2 MSTORE PUSH1 0x20 ADD DUP11 DUP2 MSTORE POP SWAP1 POP PUSH1 0x0 DUP1 DUP14 PUSH1 0x1 PUSH1 0x1 PUSH1 0xA0 SHL SUB AND PUSH1 0x1 PUSH1 0x1 PUSH1 0xA0 SHL SUB AND DUP2 MSTORE PUSH1 0x20 ADD SWAP1 DUP2 MSTORE PUSH1 0x20 ADD PUSH1 0x0 KECCAK256 DUP2 SWAP1 DUP1 PUSH1 0x1 DUP2 SLOAD ADD DUP1 DUP3 SSTORE DUP1 SWAP2 POP POP PUSH1 0x1 SWAP1 SUB SWAP1 PUSH1 0x0 MSTORE PUSH1 0x20 PUSH1 0x0 KECCAK256 SWAP1 PUSH1 0x9 MUL ADD PUSH1 0x0 SWAP1 SWAP2 SWAP1 SWAP2 SWAP1 SWAP2 POP PUSH1 0x0 DUP3 ADD MLOAD DUP2 PUSH1 0x0 ADD PUSH1 0x0 PUSH2 0x100 EXP DUP2 SLOAD DUP2 PUSH1 0x1 PUSH1 0x1 PUSH1 0xA0 SHL SUB MUL NOT AND SWAP1 DUP4 PUSH1 0x1 PUSH1 0x1 PUSH1 0xA0 SHL SUB AND MUL OR SWAP1 SSTORE POP PUSH1 0x20 DUP3 ADD MLOAD DUP2 PUSH1 0x1 ADD PUSH1 0x0 PUSH2 0x100 EXP DUP2 SLOAD DUP2 PUSH1 0x1 PUSH1 0x1 PUSH1 0xA0 SHL SUB MUL NOT AND SWAP1 DUP4 PUSH1 0x1 PUSH1 0x1 PUSH1 0xA0 SHL SUB AND MUL OR SWAP1 SSTORE POP PUSH1 0x40 DUP3 ADD MLOAD DUP2 PUSH1 0x1 ADD PUSH1 0x14 PUSH2 0x100 EXP DUP2 SLOAD DUP2 PUSH1 0xFF MUL NOT AND SWAP1 DUP4 ISZERO ISZERO MUL OR SWAP1 SSTORE POP PUSH1 0x60 DUP3 ADD MLOAD DUP2 PUSH1 0x2 ADD SWAP1 DUP2 PUSH2 0x25CE SWAP2 SWAP1 PUSH2 0x4CB0 JUMP JUMPDEST POP PUSH1 0x80 DUP3 ADD MLOAD PUSH1 0x3 DUP3 ADD SWAP1 PUSH2 0x25E3 SWAP1 DUP3 PUSH2 0x4CB0 JUMP JUMPDEST POP PUSH1 0xA0 DUP3 ADD MLOAD PUSH1 0x4 DUP3 ADD SSTORE PUSH1 0xC0 DUP3 ADD MLOAD PUSH1 0x5 DUP3 ADD DUP1 SLOAD PUSH1 0xFF NOT AND SWAP2 ISZERO ISZERO SWAP2 SWAP1 SWAP2 OR SWAP1 SSTORE PUSH1 0xE0 DUP3 ADD MLOAD PUSH1 0x6 DUP3 ADD SSTORE PUSH2 0x100 DUP1 DUP4 ADD MLOAD PUSH1 0x7 DUP4 ADD DUP1 SLOAD PUSH2 0x120 DUP7 ADD MLOAD PUSH2 0xFFFF NOT SWAP1 SWAP2 AND SWAP3 ISZERO ISZERO PUSH2 0xFF00 NOT AND SWAP3 SWAP1 SWAP3 OR PUSH1 0xFF SWAP1 SWAP3 AND SWAP1 SWAP3 MUL OR SWAP1 SSTORE PUSH2 0x140 DUP3 ADD MLOAD PUSH1 0x8 DUP3 ADD SWAP1 PUSH2 0x2656 SWAP1 DUP3 PUSH2 0x4CB0 JUMP JUMPDEST POP POP POP PUSH1 0x0 DUP4 DUP2 MSTORE PUSH1 0x1 PUSH1 0x20 DUP2 DUP2 MSTORE PUSH1 0x40 SWAP3 DUP4 SWAP1 KECCAK256 DUP5 MLOAD DUP2 SLOAD PUSH1 0x1 PUSH1 0x1 PUSH1 0xA0 SHL SUB SWAP2 DUP3 AND PUSH1 0x1 PUSH1 0x1 PUSH1 0xA0 SHL SUB NOT SWAP1 SWAP2 AND OR DUP3 SSTORE SWAP2 DUP6 ADD MLOAD SWAP3 DUP2 ADD DUP1 SLOAD SWAP5 DUP7 ADD MLOAD ISZERO ISZERO PUSH1 0x1 PUSH1 0xA0 SHL MUL PUSH1 0x1 PUSH1 0x1 PUSH1 0xA8 SHL SUB NOT SWAP1 SWAP6 AND SWAP4 SWAP1 SWAP3 AND SWAP3 SWAP1 SWAP3 OR SWAP3 SWAP1 SWAP3 OR SWAP1 SWAP2 SSTORE PUSH1 0x60 DUP3 ADD MLOAD DUP3 SWAP2 SWAP1 PUSH1 0x2 DUP3 ADD SWAP1 PUSH2 0x26D0 SWAP1 DUP3 PUSH2 0x4CB0 JUMP JUMPDEST POP PUSH1 0x80 DUP3 ADD MLOAD PUSH1 0x3 DUP3 ADD SWAP1 PUSH2 0x26E5 SWAP1 DUP3 PUSH2 0x4CB0 JUMP JUMPDEST POP PUSH1 0xA0 DUP3 ADD MLOAD PUSH1 0x4 DUP3 ADD SSTORE PUSH1 0xC0 DUP3 ADD MLOAD PUSH1 0x5 DUP3 ADD DUP1 SLOAD PUSH1 0xFF NOT AND SWAP2 ISZERO ISZERO SWAP2 SWAP1 SWAP2 OR SWAP1 SSTORE PUSH1 0xE0 DUP3 ADD MLOAD PUSH1 0x6 DUP3 ADD SSTORE PUSH2 0x100 DUP1 DUP4 ADD MLOAD PUSH1 0x7 DUP4 ADD DUP1 SLOAD PUSH2 0x120 DUP7 ADD MLOAD PUSH2 0xFFFF NOT SWAP1 SWAP2 AND SWAP3 ISZERO ISZERO PUSH2 0xFF00 NOT AND SWAP3 SWAP1 SWAP3 OR PUSH1 0xFF SWAP1 SWAP3 AND SWAP1 SWAP3 MUL OR SWAP1 SSTORE PUSH2 0x140 DUP3 ADD MLOAD PUSH1 0x8 DUP3 ADD SWAP1 PUSH2 0x2758 SWAP1 DUP3 PUSH2 0x4CB0 JUMP JUMPDEST POP POP PUSH1 0x9 DUP1 SLOAD SWAP2 POP PUSH1 0x0 PUSH2 0x276B DUP4 PUSH2 0x49C4 JUMP JUMPDEST SWAP2 SWAP1 POP SSTORE POP PUSH2 0x277B DUP13 DUP13 DUP11 PUSH2 0x36A0 JUMP JUMPDEST PUSH2 0x2787 DUP13 DUP11 DUP14 DUP12 PUSH2 0x37EC JUMP JUMPDEST PUSH2 0x2790 DUP13 PUSH2 0x39BD JUMP JUMPDEST DUP3 DUP13 PUSH1 0x1 PUSH1 0x1 PUSH1 0xA0 SHL SUB AND PUSH32 0xF55F06D2591D32CC52EE5A7F9E1D7FE87B6AF3EEEFECB69A061CA42F7B2E24F6 DUP14 DUP13 PUSH1 0x40 MLOAD PUSH2 0x27CC SWAP3 SWAP2 SWAP1 PUSH2 0x4DF0 JUMP JUMPDEST PUSH1 0x40 MLOAD DUP1 SWAP2 SUB SWAP1 LOG3 POP SWAP1 SWAP11 SWAP10 POP POP POP POP POP POP POP POP POP POP JUMP JUMPDEST PUSH1 0x0 DUP2 DUP2 MSTORE PUSH1 0x1 PUSH1 0x20 DUP2 SWAP1 MSTORE PUSH1 0x40 SWAP1 SWAP2 KECCAK256 SWAP1 DUP2 ADD SLOAD PUSH1 0x1 PUSH1 0x1 PUSH1 0xA0 SHL SUB AND CALLER EQ PUSH2 0x285E JUMPI PUSH1 0x40 MLOAD PUSH3 0x461BCD PUSH1 0xE5 SHL DUP2 MSTORE PUSH1 0x20 PUSH1 0x4 DUP3 ADD MSTORE PUSH1 0x25 PUSH1 0x24 DUP3 ADD MSTORE PUSH32 0x43616E206F6E6C7920617070726F766520666C6167732061626F757420796F75 PUSH1 0x44 DUP3 ADD MSTORE PUSH5 0x3939B2B633 PUSH1 0xD9 SHL PUSH1 0x64 DUP3 ADD MSTORE PUSH1 0x84 ADD PUSH2 0xBE5 JUMP JUMPDEST PUSH1 0x5 DUP2 ADD SLOAD PUSH1 0xFF AND ISZERO PUSH2 0x28AB JUMPI PUSH1 0x40 MLOAD PUSH3 0x461BCD PUSH1 0xE5 SHL DUP2 MSTORE PUSH1 0x20 PUSH1 0x4 DUP3 ADD MSTORE PUSH1 0x15 PUSH1 0x24 DUP3 ADD MSTORE PUSH21 0x119B1859C8185B1C9958591E48185C1C1C9BDD9959 PUSH1 0x5A SHL PUSH1 0x44 DUP3 ADD MSTORE PUSH1 0x64 ADD PUSH2 0xBE5 JUMP JUMPDEST PUSH1 0x5 DUP2 ADD DUP1 SLOAD PUSH1 0xFF NOT AND PUSH1 0x1 OR SWAP1 SSTORE PUSH1 0x0 JUMPDEST CALLER PUSH1 0x0 SWAP1 DUP2 MSTORE PUSH1 0x20 DUP2 SWAP1 MSTORE PUSH1 0x40 SWAP1 KECCAK256 SLOAD DUP2 LT ISZERO PUSH2 0x296D JUMPI CALLER PUSH1 0x0 SWAP1 DUP2 MSTORE PUSH1 0x20 DUP2 SWAP1 MSTORE PUSH1 0x40 SWAP1 KECCAK256 DUP1 SLOAD DUP5 SWAP2 SWAP1 DUP4 SWAP1 DUP2 LT PUSH2 0x28F8 JUMPI PUSH2 0x28F8 PUSH2 0x497C JUMP JUMPDEST SWAP1 PUSH1 0x0 MSTORE PUSH1 0x20 PUSH1 0x0 KECCAK256 SWAP1 PUSH1 0x9 MUL ADD PUSH1 0x6 ADD SLOAD SUB PUSH2 0x295B JUMPI CALLER PUSH1 0x0 SWAP1 DUP2 MSTORE PUSH1 0x20 DUP2 SWAP1 MSTORE PUSH1 0x40 SWAP1 KECCAK256 DUP1 SLOAD PUSH1 0x1 SWAP2 SWAP1 DUP4 SWAP1 DUP2 LT PUSH2 0x2934 JUMPI PUSH2 0x2934 PUSH2 0x497C JUMP JUMPDEST PUSH1 0x0 SWAP2 DUP3 MSTORE PUSH1 0x20 SWAP1 SWAP2 KECCAK256 PUSH1 0x9 SWAP1 SWAP2 MUL ADD PUSH1 0x5 ADD DUP1 SLOAD PUSH1 0xFF NOT AND SWAP2 ISZERO ISZERO SWAP2 SWAP1 SWAP2 OR SWAP1 SSTORE PUSH2 0x296D JUMP JUMPDEST DUP1 PUSH2 0x2965 DUP2 PUSH2 0x49C4 JUMP JUMPDEST SWAP2 POP POP PUSH2 0x28BD JUMP JUMPDEST POP PUSH1 0xA DUP1 SLOAD SWAP1 PUSH1 0x0 PUSH2 0x297E DUP4 PUSH2 0x49C4 JUMP JUMPDEST SWAP1 SWAP2 SSTORE POP POP PUSH1 0x40 MLOAD CALLER SWAP1 DUP4 SWAP1 DUP3 SWAP1 PUSH32 0xC0A6F40764EC21E713239085FB6B0CCEC165852AB7FDCA137BFB22B3DBB47C9C SWAP1 PUSH1 0x0 SWAP1 LOG4 POP POP JUMP JUMPDEST CALLER PUSH1 0x0 SWAP1 DUP2 MSTORE PUSH1 0x3 PUSH1 0x20 MSTORE PUSH1 0x40 DUP2 KECCAK256 SLOAD PUSH1 0xFF AND PUSH2 0x29E5 JUMPI PUSH1 0x40 MLOAD PUSH3 0x461BCD PUSH1 0xE5 SHL DUP2 MSTORE PUSH1 0x4 ADD PUSH2 0xBE5 SWAP1 PUSH2 0x4ACE JUMP JUMPDEST DUP6 PUSH1 0x1 PUSH1 0x1 PUSH1 0xA0 SHL SUB DUP2 AND PUSH2 0x2A0C JUMPI PUSH1 0x40 MLOAD PUSH3 0x461BCD PUSH1 0xE5 SHL DUP2 MSTORE PUSH1 0x4 ADD PUSH2 0xBE5 SWAP1 PUSH2 0x4AFD JUMP JUMPDEST CALLER PUSH1 0x1 PUSH1 0x1 PUSH1 0xA0 SHL SUB DUP3 AND SUB PUSH2 0x2A34 JUMPI PUSH1 0x40 MLOAD PUSH3 0x461BCD PUSH1 0xE5 SHL DUP2 MSTORE PUSH1 0x4 ADD PUSH2 0xBE5 SWAP1 PUSH2 0x4B26 JUMP JUMPDEST CALLER PUSH1 0x0 SWAP1 DUP2 MSTORE PUSH1 0x2 PUSH1 0x20 SWAP1 DUP2 MSTORE PUSH1 0x40 DUP1 DUP4 KECCAK256 PUSH1 0x1 PUSH1 0x1 PUSH1 0xA0 SHL SUB DUP12 AND DUP5 MSTORE SWAP1 SWAP2 MSTORE SWAP1 KECCAK256 SLOAD DUP8 SWAP1 PUSH1 0xFF AND PUSH2 0x2A79 JUMPI PUSH1 0x40 MLOAD PUSH3 0x461BCD PUSH1 0xE5 SHL DUP2 MSTORE PUSH1 0x4 ADD PUSH2 0xBE5 SWAP1 PUSH2 0x4B54 JUMP JUMPDEST DUP5 PUSH2 0x2A83 DUP2 PUSH2 0x1803 JUMP JUMPDEST PUSH2 0x2A9F JUMPI PUSH1 0x40 MLOAD PUSH3 0x461BCD PUSH1 0xE5 SHL DUP2 MSTORE PUSH1 0x4 ADD PUSH2 0xBE5 SWAP1 PUSH2 0x4B9D JUMP JUMPDEST PUSH1 0x0 DUP8 MLOAD GT PUSH2 0x2AE9 JUMPI PUSH1 0x40 MLOAD PUSH3 0x461BCD PUSH1 0xE5 SHL DUP2 MSTORE PUSH1 0x20 PUSH1 0x4 DUP3 ADD MSTORE PUSH1 0x16 PUSH1 0x24 DUP3 ADD MSTORE PUSH22 0x5265766965772063616E6E6F7420626520656D707479 PUSH1 0x50 SHL PUSH1 0x44 DUP3 ADD MSTORE PUSH1 0x64 ADD PUSH2 0xBE5 JUMP JUMPDEST PUSH1 0xC8 DUP8 MLOAD GT ISZERO PUSH2 0x2B2D JUMPI PUSH1 0x40 MLOAD PUSH3 0x461BCD PUSH1 0xE5 SHL DUP2 MSTORE PUSH1 0x20 PUSH1 0x4 DUP3 ADD MSTORE PUSH1 0xF PUSH1 0x24 DUP3 ADD MSTORE PUSH15 0x52657669657720746F6F206C6F6E67 PUSH1 0x88 SHL PUSH1 0x44 DUP3 ADD MSTORE PUSH1 0x64 ADD PUSH2 0xBE5 JUMP JUMPDEST DUP8 ISZERO PUSH2 0x2B6C JUMPI PUSH1 0x1 DUP6 PUSH1 0xFF AND LT ISZERO DUP1 ISZERO PUSH2 0x2B4B JUMPI POP PUSH1 0xA DUP6 PUSH1 0xFF AND GT ISZERO JUMPDEST PUSH2 0x2B67 JUMPI PUSH1 0x40 MLOAD PUSH3 0x461BCD PUSH1 0xE5 SHL DUP2 MSTORE PUSH1 0x4 ADD PUSH2 0xBE5 SWAP1 PUSH2 0x4BCC JUMP JUMPDEST PUSH2 0x2B71 JUMP JUMPDEST PUSH1 0x0 SWAP5 POP JUMPDEST PUSH1 0x0 CALLER DUP11 TIMESTAMP PUSH1 0x9 SLOAD PUSH2 0x2BAB PUSH1 0x20 PUSH1 0x40 MLOAD DUP1 PUSH1 0x40 ADD PUSH1 0x40 MSTORE DUP1 PUSH1 0xF DUP2 MSTORE PUSH1 0x20 ADD PUSH15 0x333630B3AFB3B2B732B930BA34B7B7 PUSH1 0x89 SHL DUP2 MSTORE POP PUSH2 0x35CD JUMP JUMPDEST PUSH1 0x40 MLOAD PUSH1 0x20 ADD PUSH2 0x2BBF SWAP6 SWAP5 SWAP4 SWAP3 SWAP2 SWAP1 PUSH2 0x4C12 JUMP JUMPDEST PUSH1 0x40 MLOAD PUSH1 0x20 DUP2 DUP4 SUB SUB DUP2 MSTORE SWAP1 PUSH1 0x40 MSTORE DUP1 MLOAD SWAP1 PUSH1 0x20 ADD KECCAK256 SWAP1 POP PUSH1 0x0 PUSH1 0x40 MLOAD DUP1 PUSH2 0x160 ADD PUSH1 0x40 MSTORE DUP1 CALLER PUSH1 0x1 PUSH1 0x1 PUSH1 0xA0 SHL SUB AND DUP2 MSTORE PUSH1 0x20 ADD DUP13 PUSH1 0x1 PUSH1 0x1 PUSH1 0xA0 SHL SUB AND DUP2 MSTORE PUSH1 0x20 ADD DUP12 ISZERO ISZERO DUP2 MSTORE PUSH1 0x20 ADD DUP11 DUP2 MSTORE PUSH1 0x20 ADD PUSH1 0x40 MLOAD DUP1 PUSH1 0x20 ADD PUSH1 0x40 MSTORE DUP1 PUSH1 0x0 DUP2 MSTORE POP DUP2 MSTORE PUSH1 0x20 ADD TIMESTAMP DUP2 MSTORE PUSH1 0x20 ADD PUSH1 0x0 ISZERO ISZERO DUP2 MSTORE PUSH1 0x20 ADD DUP4 DUP2 MSTORE PUSH1 0x20 ADD PUSH1 0x0 ISZERO ISZERO DUP2 MSTORE PUSH1 0x20 ADD DUP9 PUSH1 0xFF AND DUP2 MSTORE PUSH1 0x20 ADD DUP10 DUP2 MSTORE POP SWAP1 POP PUSH1 0x0 DUP1 DUP13 PUSH1 0x1 PUSH1 0x1 PUSH1 0xA0 SHL SUB AND PUSH1 0x1 PUSH1 0x1 PUSH1 0xA0 SHL SUB AND DUP2 MSTORE PUSH1 0x20 ADD SWAP1 DUP2 MSTORE PUSH1 0x20 ADD PUSH1 0x0 KECCAK256 DUP2 SWAP1 DUP1 PUSH1 0x1 DUP2 SLOAD ADD DUP1 DUP3 SSTORE DUP1 SWAP2 POP POP PUSH1 0x1 SWAP1 SUB SWAP1 PUSH1 0x0 MSTORE PUSH1 0x20 PUSH1 0x0 KECCAK256 SWAP1 PUSH1 0x9 MUL ADD PUSH1 0x0 SWAP1 SWAP2 SWAP1 SWAP2 SWAP1 SWAP2 POP PUSH1 0x0 DUP3 ADD MLOAD DUP2 PUSH1 0x0 ADD PUSH1 0x0 PUSH2 0x100 EXP DUP2 SLOAD DUP2 PUSH1 0x1 PUSH1 0x1 PUSH1 0xA0 SHL SUB MUL NOT AND SWAP1 DUP4 PUSH1 0x1 PUSH1 0x1 PUSH1 0xA0 SHL SUB AND MUL OR SWAP1 SSTORE POP PUSH1 0x20 DUP3 ADD MLOAD DUP2 PUSH1 0x1 ADD PUSH1 0x0 PUSH2 0x100 EXP DUP2 SLOAD DUP2 PUSH1 0x1 PUSH1 0x1 PUSH1 0xA0 SHL SUB MUL NOT AND SWAP1 DUP4 PUSH1 0x1 PUSH1 0x1 PUSH1 0xA0 SHL SUB AND MUL OR SWAP1 SSTORE POP PUSH1 0x40 DUP3 ADD MLOAD DUP2 PUSH1 0x1 ADD PUSH1 0x14 PUSH2 0x100 EXP DUP2 SLOAD DUP2 PUSH1 0xFF MUL NOT AND SWAP1 DUP4 ISZERO ISZERO MUL OR SWAP1 SSTORE POP PUSH1 0x60 DUP3 ADD MLOAD DUP2 PUSH1 0x2 ADD SWAP1 DUP2 PUSH2 0x2D30 SWAP2 SWAP1 PUSH2 0x4CB0 JUMP JUMPDEST POP PUSH1 0x80 DUP3 ADD MLOAD PUSH1 0x3 DUP3 ADD SWAP1 PUSH2 0x2D45 SWAP1 DUP3 PUSH2 0x4CB0 JUMP JUMPDEST POP PUSH1 0xA0 DUP3 ADD MLOAD PUSH1 0x4 DUP3 ADD SSTORE PUSH1 0xC0 DUP3 ADD MLOAD PUSH1 0x5 DUP3 ADD DUP1 SLOAD PUSH1 0xFF NOT AND SWAP2 ISZERO ISZERO SWAP2 SWAP1 SWAP2 OR SWAP1 SSTORE PUSH1 0xE0 DUP3 ADD MLOAD PUSH1 0x6 DUP3 ADD SSTORE PUSH2 0x100 DUP1 DUP4 ADD MLOAD PUSH1 0x7 DUP4 ADD DUP1 SLOAD PUSH2 0x120 DUP7 ADD MLOAD PUSH2 0xFFFF NOT SWAP1 SWAP2 AND SWAP3 ISZERO ISZERO PUSH2 0xFF00 NOT AND SWAP3 SWAP1 SWAP3 OR PUSH1 0xFF SWAP1 SWAP3 AND SWAP1 SWAP3 MUL OR SWAP1 SSTORE PUSH2 0x140 DUP3 ADD MLOAD PUSH1 0x8 DUP3 ADD SWAP1 PUSH2 0x2DB8 SWAP1 DUP3 PUSH2 0x4CB0 JUMP JUMPDEST POP POP POP PUSH1 0x0 DUP3 DUP2 MSTORE PUSH1 0x1 PUSH1 0x20 DUP2 DUP2 MSTORE PUSH1 0x40 SWAP3 DUP4 SWAP1 KECCAK256 DUP5 MLOAD DUP2 SLOAD PUSH1 0x1 PUSH1 0x1 PUSH1 0xA0 SHL SUB SWAP2 DUP3 AND PUSH1 0x1 PUSH1 0x1 PUSH1 0xA0 SHL SUB NOT SWAP1 SWAP2 AND OR DUP3 SSTORE SWAP2 DUP6 ADD MLOAD SWAP3 DUP2 ADD DUP1 SLOAD SWAP5 DUP7 ADD MLOAD ISZERO ISZERO PUSH1 0x1 PUSH1 0xA0 SHL MUL PUSH1 0x1 PUSH1 0x1 PUSH1 0xA8 SHL SUB NOT SWAP1 SWAP6 AND SWAP4 SWAP1 SWAP3 AND SWAP3 SWAP1 SWAP3 OR SWAP3 SWAP1 SWAP3 OR SWAP1 SWAP2 SSTORE PUSH1 0x60 DUP3 ADD MLOAD DUP3 SWAP2 SWAP1 PUSH1 0x2 DUP3 ADD SWAP1 PUSH2 0x2E32 SWAP1 DUP3 PUSH2 0x4CB0 JUMP JUMPDEST POP PUSH1 0x80 DUP3 ADD MLOAD PUSH1 0x3 DUP3 ADD SWAP1 PUSH2 0x2E47 SWAP1 DUP3 PUSH2 0x4CB0 JUMP JUMPDEST POP PUSH1 0xA0 DUP3 ADD MLOAD PUSH1 0x4 DUP3 ADD SSTORE PUSH1 0xC0 DUP3 ADD MLOAD PUSH1 0x5 DUP3 ADD DUP1 SLOAD PUSH1 0xFF NOT AND SWAP2 ISZERO ISZERO SWAP2 SWAP1 SWAP2 OR SWAP1 SSTORE PUSH1 0xE0 DUP3 ADD MLOAD PUSH1 0x6 DUP3 ADD SSTORE PUSH2 0x100 DUP1 DUP4 ADD MLOAD PUSH1 0x7 DUP4 ADD DUP1 SLOAD PUSH2 0x120 DUP7 ADD MLOAD PUSH2 0xFFFF NOT SWAP1 SWAP2 AND SWAP3 ISZERO ISZERO PUSH2 0xFF00 NOT AND SWAP3 SWAP1 SWAP3 OR PUSH1 0xFF SWAP1 SWAP3 AND SWAP1 SWAP3 MUL OR SWAP1 SSTORE PUSH2 0x140 DUP3 ADD MLOAD PUSH1 0x8 DUP3 ADD SWAP1 PUSH2 0x2EBA SWAP1 DUP3 PUSH2 0x4CB0 JUMP JUMPDEST POP POP PUSH1 0x9 DUP1 SLOAD SWAP2 POP PUSH1 0x0 PUSH2 0x2ECD DUP4 PUSH2 0x49C4 JUMP JUMPDEST SWAP2 SWAP1 POP SSTORE POP PUSH2 0x2EDD DUP12 DUP12 DUP10 PUSH2 0x36A0 JUMP JUMPDEST PUSH2 0x2EE9 DUP12 DUP10 DUP13 DUP11 PUSH2 0x37EC JUMP JUMPDEST PUSH2 0x2EF2 DUP12 PUSH2 0x39BD JUMP JUMPDEST DUP2 DUP12 PUSH1 0x1 PUSH1 0x1 PUSH1 0xA0 SHL SUB AND CALLER PUSH1 0x1 PUSH1 0x1 PUSH1 0xA0 SHL SUB AND PUSH32 0x6062D3C3926ECABD3CD4E6830DA87595C3B3031477ABFAECA18E0D24AAFB8652 DUP14 DUP13 PUSH1 0x40 MLOAD PUSH2 0x1E0D SWAP3 SWAP2 SWAP1 PUSH2 0x4DF0 JUMP JUMPDEST PUSH1 0x8 SLOAD PUSH1 0x1 PUSH1 0x1 PUSH1 0xA0 SHL SUB AND CALLER EQ PUSH2 0x2F62 JUMPI PUSH1 0x40 MLOAD PUSH3 0x461BCD PUSH1 0xE5 SHL DUP2 MSTORE PUSH1 0x4 ADD PUSH2 0xBE5 SWAP1 PUSH2 0x49DD JUMP JUMPDEST PUSH1 0x0 DUP2 MLOAD GT PUSH2 0x2FB3 JUMPI PUSH1 0x40 MLOAD PUSH3 0x461BCD PUSH1 0xE5 SHL DUP2 MSTORE PUSH1 0x20 PUSH1 0x4 DUP3 ADD MSTORE PUSH1 0x18 PUSH1 0x24 DUP3 ADD MSTORE PUSH32 0x43617465676F72792063616E6E6F7420626520656D7074790000000000000000 PUSH1 0x44 DUP3 ADD MSTORE PUSH1 0x64 ADD PUSH2 0xBE5 JUMP JUMPDEST PUSH2 0x2FBC DUP2 PUSH2 0x1803 JUMP JUMPDEST ISZERO PUSH2 0x3009 JUMPI PUSH1 0x40 MLOAD PUSH3 0x461BCD PUSH1 0xE5 SHL DUP2 MSTORE PUSH1 0x20 PUSH1 0x4 DUP3 ADD MSTORE PUSH1 0x17 PUSH1 0x24 DUP3 ADD MSTORE PUSH32 0x43617465676F727920616C726561647920657869737473000000000000000000 PUSH1 0x44 DUP3 ADD MSTORE PUSH1 0x64 ADD PUSH2 0xBE5 JUMP JUMPDEST PUSH1 0xB DUP1 SLOAD PUSH1 0x1 DUP2 ADD DUP3 SSTORE PUSH1 0x0 SWAP2 SWAP1 SWAP2 MSTORE PUSH32 0x175B7A638427703F0DBE7BB9BBF987A2551717B34E79F33B5B1008D1FA01DB9 ADD PUSH2 0x3045 DUP3 DUP3 PUSH2 0x4CB0 JUMP JUMPDEST POP POP JUMP JUMPDEST PUSH2 0x3051 PUSH2 0x4041 JUMP JUMPDEST PUSH1 0x0 DUP4 DUP2 MSTORE PUSH1 0x1 PUSH1 0x20 DUP2 DUP2 MSTORE PUSH1 0x40 DUP1 DUP5 KECCAK256 DUP2 MLOAD PUSH2 0x160 DUP2 ADD DUP4 MSTORE DUP2 SLOAD PUSH1 0x1 PUSH1 0x1 PUSH1 0xA0 SHL SUB SWAP1 DUP2 AND DUP3 MSTORE SWAP5 DUP3 ADD SLOAD SWAP5 DUP6 AND SWAP4 DUP2 ADD SWAP4 SWAP1 SWAP4 MSTORE PUSH1 0x1 PUSH1 0xA0 SHL SWAP1 SWAP4 DIV PUSH1 0xFF AND ISZERO ISZERO SWAP1 DUP3 ADD MSTORE PUSH1 0x2 DUP3 ADD DUP1 SLOAD SWAP2 SWAP3 SWAP2 PUSH1 0x60 DUP5 ADD SWAP2 SWAP1 PUSH2 0x30B1 SWAP1 PUSH2 0x4942 JUMP JUMPDEST DUP1 PUSH1 0x1F ADD PUSH1 0x20 DUP1 SWAP2 DIV MUL PUSH1 0x20 ADD PUSH1 0x40 MLOAD SWAP1 DUP2 ADD PUSH1 0x40 MSTORE DUP1 SWAP3 SWAP2 SWAP1 DUP2 DUP2 MSTORE PUSH1 0x20 ADD DUP3 DUP1 SLOAD PUSH2 0x30DD SWAP1 PUSH2 0x4942 JUMP JUMPDEST DUP1 ISZERO PUSH2 0x312A JUMPI DUP1 PUSH1 0x1F LT PUSH2 0x30FF JUMPI PUSH2 0x100 DUP1 DUP4 SLOAD DIV MUL DUP4 MSTORE SWAP2 PUSH1 0x20 ADD SWAP2 PUSH2 0x312A JUMP JUMPDEST DUP3 ADD SWAP2 SWAP1 PUSH1 0x0 MSTORE PUSH1 0x20 PUSH1 0x0 KECCAK256 SWAP1 JUMPDEST DUP2 SLOAD DUP2 MSTORE SWAP1 PUSH1 0x1 ADD SWAP1 PUSH1 0x20 ADD DUP1 DUP4 GT PUSH2 0x310D JUMPI DUP3 SWAP1 SUB PUSH1 0x1F AND DUP3 ADD SWAP2 JUMPDEST POP POP POP POP POP DUP2 MSTORE PUSH1 0x20 ADD PUSH1 0x3 DUP3 ADD DUP1 SLOAD PUSH2 0x3143 SWAP1 PUSH2 0x4942 JUMP JUMPDEST DUP1 PUSH1 0x1F ADD PUSH1 0x20 DUP1 SWAP2 DIV MUL PUSH1 0x20 ADD PUSH1 0x40 MLOAD SWAP1 DUP2 ADD PUSH1 0x40 MSTORE DUP1 SWAP3 SWAP2 SWAP1 DUP2 DUP2 MSTORE PUSH1 0x20 ADD DUP3 DUP1 SLOAD PUSH2 0x316F SWAP1 PUSH2 0x4942 JUMP JUMPDEST DUP1 ISZERO PUSH2 0x31BC JUMPI DUP1 PUSH1 0x1F LT PUSH2 0x3191 JUMPI PUSH2 0x100 DUP1 DUP4 SLOAD DIV MUL DUP4 MSTORE SWAP2 PUSH1 0x20 ADD SWAP2 PUSH2 0x31BC JUMP JUMPDEST DUP3 ADD SWAP2 SWAP1 PUSH1 0x0 MSTORE PUSH1 0x20 PUSH1 0x0 KECCAK256 SWAP1 JUMPDEST DUP2 SLOAD DUP2 MSTORE SWAP1 PUSH1 0x1 ADD SWAP1 PUSH1 0x20 ADD DUP1 DUP4 GT PUSH2 0x319F JUMPI DUP3 SWAP1 SUB PUSH1 0x1F AND DUP3 ADD SWAP2 JUMPDEST POP POP POP SWAP2 DUP4 MSTORE POP POP PUSH1 0x4 DUP3 ADD SLOAD PUSH1 0x20 DUP3 ADD MSTORE PUSH1 0x5 DUP3 ADD SLOAD PUSH1 0xFF SWAP1 DUP2 AND ISZERO ISZERO PUSH1 0x40 DUP4 ADD MSTORE PUSH1 0x6 DUP4 ADD SLOAD PUSH1 0x60 DUP4 ADD MSTORE PUSH1 0x7 DUP4 ADD SLOAD DUP1 DUP3 AND ISZERO ISZERO PUSH1 0x80 DUP5 ADD MSTORE PUSH2 0x100 SWAP1 DIV AND PUSH1 0xA0 DUP3 ADD MSTORE PUSH1 0x8 DUP3 ADD DUP1 SLOAD PUSH1 0xC0 SWAP1 SWAP3 ADD SWAP2 PUSH2 0x3218 SWAP1 PUSH2 0x4942 JUMP JUMPDEST DUP1 PUSH1 0x1F ADD PUSH1 0x20 DUP1 SWAP2 DIV MUL PUSH1 0x20 ADD PUSH1 0x40 MLOAD SWAP1 DUP2 ADD PUSH1 0x40 MSTORE DUP1 SWAP3 SWAP2 SWAP1 DUP2 DUP2 MSTORE PUSH1 0x20 ADD DUP3 DUP1 SLOAD PUSH2 0x3244 SWAP1 PUSH2 0x4942 JUMP JUMPDEST DUP1 ISZERO PUSH2 0x3291 JUMPI DUP1 PUSH1 0x1F LT PUSH2 0x3266 JUMPI PUSH2 0x100 DUP1 DUP4 SLOAD DIV MUL DUP4 MSTORE SWAP2 PUSH1 0x20 ADD SWAP2 PUSH2 0x3291 JUMP JUMPDEST DUP3 ADD SWAP2 SWAP1 PUSH1 0x0 MSTORE PUSH1 0x20 PUSH1 0x0 KECCAK256 SWAP1 JUMPDEST DUP2 SLOAD DUP2 MSTORE SWAP1 PUSH1 0x1 ADD SWAP1 PUSH1 0x20 ADD DUP1 DUP4 GT PUSH2 0x3274 JUMPI DUP3 SWAP1 SUB PUSH1 0x1F AND DUP3 ADD SWAP2 JUMPDEST POP POP POP SWAP2 SWAP1 SWAP3 MSTORE POP POP POP PUSH1 0xE0 DUP2 ADD MLOAD SWAP1 SWAP2 POP PUSH2 0x32E0 JUMPI PUSH1 0x40 MLOAD PUSH3 0x461BCD PUSH1 0xE5 SHL DUP2 MSTORE PUSH1 0x20 PUSH1 0x4 DUP3 ADD MSTORE PUSH1 0xE PUSH1 0x24 DUP3 ADD MSTORE PUSH14 0x119B1859C81B9BDD08199BDD5B99 PUSH1 0x92 SHL PUSH1 0x44 DUP3 ADD MSTORE PUSH1 0x64 ADD PUSH2 0xBE5 JUMP JUMPDEST DUP3 PUSH1 0x1 PUSH1 0x1 PUSH1 0xA0 SHL SUB AND DUP2 PUSH1 0x20 ADD MLOAD PUSH1 0x1 PUSH1 0x1 PUSH1 0xA0 SHL SUB AND EQ DUP1 PUSH2 0x3319 JUMPI POP DUP3 PUSH1 0x1 PUSH1 0x1 PUSH1 0xA0 SHL SUB AND DUP2 PUSH1 0x0 ADD MLOAD PUSH1 0x1 PUSH1 0x1 PUSH1 0xA0 SHL SUB AND EQ JUMPDEST PUSH2 0x3355 JUMPI PUSH1 0x40 MLOAD PUSH3 0x461BCD PUSH1 0xE5 SHL DUP2 MSTORE PUSH1 0x20 PUSH1 0x4 DUP3 ADD MSTORE PUSH1 0xD PUSH1 0x24 DUP3 ADD MSTORE PUSH13 0x1058D8D95CDCC819195B9A5959 PUSH1 0x9A SHL PUSH1 0x44 DUP3 ADD MSTORE PUSH1 0x64 ADD PUSH2 0xBE5 JUMP JUMPDEST SWAP4 SWAP3 POP POP POP JUMP JUMPDEST PUSH1 0x60 DUP3 DUP3 PUSH1 0x40 MLOAD PUSH1 0x20 ADD PUSH2 0x3371 SWAP3 SWAP2 SWAP1 PUSH2 0x4E0B JUMP JUMPDEST PUSH1 0x40 DUP1 MLOAD PUSH1 0x1F NOT DUP2 DUP5 SUB ADD DUP2 MSTORE DUP3 DUP3 MSTORE DUP1 MLOAD PUSH1 0x20 SWAP2 DUP3 ADD KECCAK256 SWAP1 DUP4 ADD MSTORE ADD PUSH1 0x40 MLOAD PUSH1 0x20 DUP2 DUP4 SUB SUB DUP2 MSTORE SWAP1 PUSH1 0x40 MSTORE SWAP1 POP SWAP3 SWAP2 POP POP JUMP JUMPDEST PUSH1 0xB DUP2 DUP2 SLOAD DUP2 LT PUSH2 0x33B5 JUMPI PUSH1 0x0 DUP1 REVERT JUMPDEST SWAP1 PUSH1 0x0 MSTORE PUSH1 0x20 PUSH1 0x0 KECCAK256 ADD PUSH1 0x0 SWAP2 POP SWAP1 POP DUP1 SLOAD PUSH2 0x33D0 SWAP1 PUSH2 0x4942 JUMP JUMPDEST DUP1 PUSH1 0x1F ADD PUSH1 0x20 DUP1 SWAP2 DIV MUL PUSH1 0x20 ADD PUSH1 0x40 MLOAD SWAP1 DUP2 ADD PUSH1 0x40 MSTORE DUP1 SWAP3 SWAP2 SWAP1 DUP2 DUP2 MSTORE PUSH1 0x20 ADD DUP3 DUP1 SLOAD PUSH2 0x33FC SWAP1 PUSH2 0x4942 JUMP JUMPDEST DUP1 ISZERO PUSH2 0x3449 JUMPI DUP1 PUSH1 0x1F LT PUSH2 0x341E JUMPI PUSH2 0x100 DUP1 DUP4 SLOAD DIV MUL DUP4 MSTORE SWAP2 PUSH1 0x20 ADD SWAP2 PUSH2 0x3449 JUMP JUMPDEST DUP3 ADD SWAP2 SWAP1 PUSH1 0x0 MSTORE PUSH1 0x20 PUSH1 0x0 KECCAK256 SWAP1 JUMPDEST DUP2 SLOAD DUP2 MSTORE SWAP1 PUSH1 0x1 ADD SWAP1 PUSH1 0x20 ADD DUP1 DUP4 GT PUSH2 0x342C JUMPI DUP3 SWAP1 SUB PUSH1 0x1F AND DUP3 ADD SWAP2 JUMPDEST POP POP POP POP POP DUP2 JUMP JUMPDEST PUSH1 0x0 JUMPDEST DUP2 MLOAD DUP2 LT ISZERO PUSH2 0x3045 JUMPI PUSH2 0x347F DUP3 DUP3 DUP2 MLOAD DUP2 LT PUSH2 0x3472 JUMPI PUSH2 0x3472 PUSH2 0x497C JUMP JUMPDEST PUSH1 0x20 MUL PUSH1 0x20 ADD ADD MLOAD PUSH2 0x27E4 JUMP JUMPDEST DUP1 PUSH2 0x3489 DUP2 PUSH2 0x49C4 JUMP JUMPDEST SWAP2 POP POP PUSH2 0x3454 JUMP JUMPDEST PUSH1 0x60 PUSH1 0x0 PUSH2 0x349E DUP4 PUSH2 0xF6C JUMP JUMPDEST SWAP1 POP PUSH1 0x0 DUP1 JUMPDEST DUP3 MLOAD DUP2 LT ISZERO PUSH2 0x34EF JUMPI DUP3 DUP2 DUP2 MLOAD DUP2 LT PUSH2 0x34BF JUMPI PUSH2 0x34BF PUSH2 0x497C JUMP JUMPDEST PUSH1 0x20 MUL PUSH1 0x20 ADD ADD MLOAD PUSH1 0x40 ADD MLOAD PUSH2 0x34DD JUMPI DUP2 PUSH2 0x34D9 DUP2 PUSH2 0x49C4 JUMP JUMPDEST SWAP3 POP POP JUMPDEST DUP1 PUSH2 0x34E7 DUP2 PUSH2 0x49C4 JUMP JUMPDEST SWAP2 POP POP PUSH2 0x34A4 JUMP JUMPDEST POP PUSH1 0x0 DUP2 PUSH1 0x1 PUSH1 0x1 PUSH1 0x40 SHL SUB DUP2 GT ISZERO PUSH2 0x350A JUMPI PUSH2 0x350A PUSH2 0x41DC JUMP JUMPDEST PUSH1 0x40 MLOAD SWAP1 DUP1 DUP3 MSTORE DUP1 PUSH1 0x20 MUL PUSH1 0x20 ADD DUP3 ADD PUSH1 0x40 MSTORE DUP1 ISZERO PUSH2 0x3543 JUMPI DUP2 PUSH1 0x20 ADD JUMPDEST PUSH2 0x3530 PUSH2 0x4041 JUMP JUMPDEST DUP2 MSTORE PUSH1 0x20 ADD SWAP1 PUSH1 0x1 SWAP1 SUB SWAP1 DUP2 PUSH2 0x3528 JUMPI SWAP1 POP JUMPDEST POP SWAP1 POP PUSH1 0x0 DUP1 JUMPDEST DUP5 MLOAD DUP2 LT ISZERO PUSH2 0xE9D JUMPI DUP5 DUP2 DUP2 MLOAD DUP2 LT PUSH2 0x3565 JUMPI PUSH2 0x3565 PUSH2 0x497C JUMP JUMPDEST PUSH1 0x20 MUL PUSH1 0x20 ADD ADD MLOAD PUSH1 0x40 ADD MLOAD PUSH2 0x35BB JUMPI DUP5 DUP2 DUP2 MLOAD DUP2 LT PUSH2 0x3587 JUMPI PUSH2 0x3587 PUSH2 0x497C JUMP JUMPDEST PUSH1 0x20 MUL PUSH1 0x20 ADD ADD MLOAD DUP4 DUP4 DUP2 MLOAD DUP2 LT PUSH2 0x35A1 JUMPI PUSH2 0x35A1 PUSH2 0x497C JUMP JUMPDEST PUSH1 0x20 MUL PUSH1 0x20 ADD ADD DUP2 SWAP1 MSTORE POP DUP2 DUP1 PUSH2 0x35B7 SWAP1 PUSH2 0x49C4 JUMP JUMPDEST SWAP3 POP POP JUMPDEST DUP1 PUSH2 0x35C5 DUP2 PUSH2 0x49C4 JUMP JUMPDEST SWAP2 POP POP PUSH2 0x354A JUMP JUMPDEST PUSH1 0x60 PUSH1 0x0 DUP1 PUSH1 0x1 PUSH1 0x1 PUSH1 0x98 SHL ADD PUSH1 0x1 PUSH1 0x1 PUSH1 0xA0 SHL SUB AND DUP6 DUP6 PUSH1 0x40 MLOAD PUSH1 0x20 ADD PUSH2 0x35F6 SWAP3 SWAP2 SWAP1 PUSH2 0x4E2D JUMP JUMPDEST PUSH1 0x40 DUP1 MLOAD PUSH1 0x1F NOT DUP2 DUP5 SUB ADD DUP2 MSTORE SWAP1 DUP3 SWAP1 MSTORE PUSH2 0x3610 SWAP2 PUSH2 0x4992 JUMP JUMPDEST PUSH1 0x0 PUSH1 0x40 MLOAD DUP1 DUP4 SUB DUP2 DUP6 GAS STATICCALL SWAP2 POP POP RETURNDATASIZE DUP1 PUSH1 0x0 DUP2 EQ PUSH2 0x364B JUMPI PUSH1 0x40 MLOAD SWAP2 POP PUSH1 0x1F NOT PUSH1 0x3F RETURNDATASIZE ADD AND DUP3 ADD PUSH1 0x40 MSTORE RETURNDATASIZE DUP3 MSTORE RETURNDATASIZE PUSH1 0x0 PUSH1 0x20 DUP5 ADD RETURNDATACOPY PUSH2 0x3650 JUMP JUMPDEST PUSH1 0x60 SWAP2 POP JUMPDEST POP SWAP2 POP SWAP2 POP DUP2 PUSH2 0x3698 JUMPI PUSH1 0x40 MLOAD PUSH3 0x461BCD PUSH1 0xE5 SHL DUP2 MSTORE PUSH1 0x20 PUSH1 0x4 DUP3 ADD MSTORE PUSH1 0x13 PUSH1 0x24 DUP3 ADD MSTORE PUSH19 0x1C985B991BDB509E5D195CCE8819985A5B1959 PUSH1 0x6A SHL PUSH1 0x44 DUP3 ADD MSTORE PUSH1 0x64 ADD PUSH2 0xBE5 JUMP JUMPDEST SWAP5 SWAP4 POP POP POP POP JUMP JUMPDEST DUP2 ISZERO PUSH2 0x372E JUMPI PUSH1 0x0 PUSH2 0x36B3 DUP3 PUSH1 0x2 PUSH2 0x4E46 JUMP JUMPDEST PUSH1 0x1 PUSH1 0x1 PUSH1 0xA0 SHL SUB DUP6 AND PUSH1 0x0 SWAP1 DUP2 MSTORE PUSH1 0x4 PUSH1 0x20 MSTORE PUSH1 0x40 SWAP1 KECCAK256 SLOAD PUSH1 0xFF SWAP2 SWAP1 SWAP2 AND SWAP2 POP DUP2 LT ISZERO PUSH2 0x370E JUMPI PUSH1 0x1 PUSH1 0x1 PUSH1 0xA0 SHL SUB DUP5 AND PUSH1 0x0 SWAP1 DUP2 MSTORE PUSH1 0x4 PUSH1 0x20 MSTORE PUSH1 0x40 DUP2 KECCAK256 DUP1 SLOAD DUP4 SWAP3 SWAP1 PUSH2 0x3703 SWAP1 DUP5 SWAP1 PUSH2 0x4E62 JUMP JUMPDEST SWAP1 SWAP2 SSTORE POP PUSH2 0x3728 SWAP1 POP JUMP JUMPDEST PUSH1 0x1 PUSH1 0x1 PUSH1 0xA0 SHL SUB DUP5 AND PUSH1 0x0 SWAP1 DUP2 MSTORE PUSH1 0x4 PUSH1 0x20 MSTORE PUSH1 0x40 DUP2 KECCAK256 SSTORE JUMPDEST POP PUSH2 0x379A JUMP JUMPDEST PUSH1 0x1 PUSH1 0x1 PUSH1 0xA0 SHL SUB DUP4 AND PUSH1 0x0 SWAP1 DUP2 MSTORE PUSH1 0x4 PUSH1 0x20 MSTORE PUSH1 0x40 DUP2 KECCAK256 DUP1 SLOAD PUSH1 0x5 SWAP3 SWAP1 PUSH2 0x3757 SWAP1 DUP5 SWAP1 PUSH2 0x4D88 JUMP JUMPDEST SWAP1 SWAP2 SSTORE POP POP PUSH1 0x1 PUSH1 0x1 PUSH1 0xA0 SHL SUB DUP4 AND PUSH1 0x0 SWAP1 DUP2 MSTORE PUSH1 0x4 PUSH1 0x20 MSTORE PUSH1 0x40 SWAP1 KECCAK256 SLOAD PUSH1 0x64 LT ISZERO PUSH2 0x379A JUMPI PUSH1 0x1 PUSH1 0x1 PUSH1 0xA0 SHL SUB DUP4 AND PUSH1 0x0 SWAP1 DUP2 MSTORE PUSH1 0x4 PUSH1 0x20 MSTORE PUSH1 0x40 SWAP1 KECCAK256 PUSH1 0x64 SWAP1 SSTORE JUMPDEST PUSH1 0x1 PUSH1 0x1 PUSH1 0xA0 SHL SUB DUP4 AND PUSH1 0x0 DUP2 DUP2 MSTORE PUSH1 0x4 PUSH1 0x20 SWAP1 DUP2 MSTORE PUSH1 0x40 SWAP2 DUP3 SWAP1 KECCAK256 SLOAD SWAP2 MLOAD SWAP2 DUP3 MSTORE PUSH32 0xFC577563F1B9A0461E24ABEF1E1FCC0D33D3D881F20B5DF6DDA59DE4AAE2C821 SWAP2 ADD PUSH1 0x40 MLOAD DUP1 SWAP2 SUB SWAP1 LOG2 POP POP POP JUMP JUMPDEST PUSH1 0x1 PUSH1 0x1 PUSH1 0xA0 SHL SUB DUP5 AND PUSH1 0x0 SWAP1 DUP2 MSTORE PUSH1 0x5 PUSH1 0x20 MSTORE PUSH1 0x40 DUP1 DUP3 KECCAK256 SWAP1 MLOAD PUSH2 0x3812 SWAP1 DUP7 SWAP1 PUSH2 0x4992 JUMP JUMPDEST SWAP1 DUP2 MSTORE PUSH1 0x40 MLOAD SWAP1 DUP2 SWAP1 SUB PUSH1 0x20 ADD SWAP1 KECCAK256 DUP1 SLOAD SWAP1 SWAP2 POP DUP2 PUSH1 0x0 PUSH2 0x3832 DUP4 PUSH2 0x49C4 JUMP JUMPDEST SWAP2 SWAP1 POP SSTORE POP DUP3 ISZERO PUSH2 0x38B1 JUMPI PUSH1 0x1 DUP2 ADD DUP1 SLOAD SWAP1 PUSH1 0x0 PUSH2 0x384F DUP4 PUSH2 0x49C4 JUMP JUMPDEST SWAP2 SWAP1 POP SSTORE POP DUP1 PUSH1 0x1 ADD SLOAD PUSH1 0x1 SUB PUSH2 0x386E JUMPI PUSH1 0xFF DUP3 AND PUSH1 0x3 DUP3 ADD SSTORE PUSH2 0x38C9 JUMP JUMPDEST PUSH1 0x1 DUP1 DUP3 ADD SLOAD SWAP1 PUSH1 0xFF DUP5 AND SWAP1 PUSH2 0x3884 SWAP1 DUP4 PUSH2 0x4E62 JUMP JUMPDEST DUP4 PUSH1 0x3 ADD SLOAD PUSH2 0x3893 SWAP2 SWAP1 PUSH2 0x4E75 JUMP JUMPDEST PUSH2 0x389D SWAP2 SWAP1 PUSH2 0x4D88 JUMP JUMPDEST PUSH2 0x38A7 SWAP2 SWAP1 PUSH2 0x4D9B JUMP JUMPDEST PUSH1 0x3 DUP3 ADD SSTORE PUSH2 0x38C9 JUMP JUMPDEST PUSH1 0x2 DUP2 ADD DUP1 SLOAD SWAP1 PUSH1 0x0 PUSH2 0x38C3 DUP4 PUSH2 0x49C4 JUMP JUMPDEST SWAP2 SWAP1 POP SSTORE POP JUMPDEST DUP1 SLOAD ISZERO PUSH2 0x396F JUMPI DUP1 SLOAD PUSH1 0x2 DUP3 ADD SLOAD PUSH1 0x0 SWAP2 SWAP1 PUSH2 0x38E6 SWAP1 PUSH1 0x64 PUSH2 0x4E75 JUMP JUMPDEST PUSH2 0x38F0 SWAP2 SWAP1 PUSH2 0x4D9B JUMP JUMPDEST SWAP1 POP PUSH1 0x0 DUP1 DUP4 PUSH1 0x1 ADD SLOAD GT PUSH2 0x3906 JUMPI PUSH1 0x0 PUSH2 0x3931 JUMP JUMPDEST DUP3 SLOAD PUSH1 0x1 DUP5 ADD SLOAD PUSH1 0x3 DUP6 ADD SLOAD PUSH2 0x391C SWAP2 SWAP1 PUSH2 0x4E75 JUMP JUMPDEST PUSH2 0x3927 SWAP1 PUSH1 0x5 PUSH2 0x4E75 JUMP JUMPDEST PUSH2 0x3931 SWAP2 SWAP1 PUSH2 0x4D9B JUMP JUMPDEST SWAP1 POP DUP1 DUP3 GT ISZERO PUSH2 0x394F JUMPI PUSH2 0x3945 DUP2 DUP4 PUSH2 0x4E62 JUMP JUMPDEST PUSH1 0x4 DUP5 ADD SSTORE PUSH2 0x3957 JUMP JUMPDEST PUSH1 0x0 PUSH1 0x4 DUP5 ADD SSTORE JUMPDEST PUSH1 0x64 DUP4 PUSH1 0x4 ADD SLOAD GT ISZERO PUSH2 0x396C JUMPI PUSH1 0x64 PUSH1 0x4 DUP5 ADD SSTORE JUMPDEST POP POP JUMPDEST DUP5 PUSH1 0x1 PUSH1 0x1 PUSH1 0xA0 SHL SUB AND PUSH32 0xF9A70084C1764C74B7DD4418C218186FC98002E2571FEDDBCAF24A229AE638F5 DUP6 DUP4 PUSH1 0x4 ADD SLOAD PUSH1 0x40 MLOAD PUSH2 0x39AE SWAP3 SWAP2 SWAP1 PUSH2 0x4E8C JUMP JUMPDEST PUSH1 0x40 MLOAD DUP1 SWAP2 SUB SWAP1 LOG2 POP POP POP POP POP JUMP JUMPDEST PUSH1 0x1 PUSH1 0x1 PUSH1 0xA0 SHL SUB DUP2 AND PUSH1 0x0 SWAP1 DUP2 MSTORE PUSH1 0x6 PUSH1 0x20 SWAP1 DUP2 MSTORE PUSH1 0x40 DUP1 DUP4 KECCAK256 SWAP2 DUP4 SWAP1 MSTORE DUP3 KECCAK256 SLOAD SWAP1 SWAP2 DUP2 SWAP1 SUB PUSH2 0x3A5A JUMPI PUSH1 0x32 DUP1 DUP4 SSTORE PUSH1 0x1 DUP4 ADD DUP2 SWAP1 SSTORE PUSH1 0x2 DUP4 ADD DUP2 SWAP1 SSTORE PUSH1 0x3 DUP4 ADD DUP2 SWAP1 SSTORE PUSH1 0x4 DUP4 ADD DUP2 SWAP1 SSTORE PUSH1 0x5 DUP4 ADD SSTORE PUSH1 0x40 DUP1 MLOAD DUP1 DUP3 ADD SWAP1 SWAP2 MSTORE PUSH1 0x8 DUP2 MSTORE PUSH8 0x2732BB902AB9B2B9 PUSH1 0xC1 SHL PUSH1 0x20 DUP3 ADD MSTORE PUSH1 0x6 DUP4 ADD SWAP1 PUSH2 0x3A3C SWAP1 DUP3 PUSH2 0x4CB0 JUMP JUMPDEST POP POP PUSH1 0x0 PUSH1 0x7 DUP3 ADD DUP2 SWAP1 SSTORE PUSH1 0x8 DUP3 ADD SSTORE PUSH1 0x9 ADD DUP1 SLOAD PUSH1 0xFF NOT AND SWAP1 SSTORE POP JUMP JUMPDEST PUSH1 0x0 DUP1 PUSH1 0x0 DUP1 PUSH1 0x0 JUMPDEST DUP6 DUP2 LT ISZERO PUSH2 0x3B94 JUMPI PUSH1 0x1 PUSH1 0x1 PUSH1 0xA0 SHL SUB DUP9 AND PUSH1 0x0 SWAP1 DUP2 MSTORE PUSH1 0x20 DUP2 SWAP1 MSTORE PUSH1 0x40 SWAP1 KECCAK256 DUP1 SLOAD DUP3 SWAP1 DUP2 LT PUSH2 0x3A95 JUMPI PUSH2 0x3A95 PUSH2 0x497C JUMP JUMPDEST PUSH1 0x0 SWAP2 DUP3 MSTORE PUSH1 0x20 SWAP1 SWAP2 KECCAK256 PUSH1 0x5 PUSH1 0x9 SWAP1 SWAP3 MUL ADD ADD SLOAD PUSH1 0xFF AND ISZERO PUSH2 0x3B82 JUMPI DUP5 PUSH2 0x3ABB DUP2 PUSH2 0x49C4 JUMP JUMPDEST PUSH1 0x1 PUSH1 0x1 PUSH1 0xA0 SHL SUB DUP11 AND PUSH1 0x0 SWAP1 DUP2 MSTORE PUSH1 0x20 DUP2 SWAP1 MSTORE PUSH1 0x40 SWAP1 KECCAK256 DUP1 SLOAD SWAP2 SWAP8 POP SWAP2 POP DUP3 SWAP1 DUP2 LT PUSH2 0x3AEA JUMPI PUSH2 0x3AEA PUSH2 0x497C JUMP JUMPDEST SWAP1 PUSH1 0x0 MSTORE PUSH1 0x20 PUSH1 0x0 KECCAK256 SWAP1 PUSH1 0x9 MUL ADD PUSH1 0x1 ADD PUSH1 0x14 SWAP1 SLOAD SWAP1 PUSH2 0x100 EXP SWAP1 DIV PUSH1 0xFF AND ISZERO PUSH2 0x3B74 JUMPI DUP3 PUSH2 0x3B18 DUP2 PUSH2 0x49C4 JUMP JUMPDEST PUSH1 0x1 PUSH1 0x1 PUSH1 0xA0 SHL SUB DUP11 AND PUSH1 0x0 SWAP1 DUP2 MSTORE PUSH1 0x20 DUP2 SWAP1 MSTORE PUSH1 0x40 SWAP1 KECCAK256 DUP1 SLOAD SWAP2 SWAP6 POP SWAP2 POP DUP3 SWAP1 DUP2 LT PUSH2 0x3B47 JUMPI PUSH2 0x3B47 PUSH2 0x497C JUMP JUMPDEST PUSH1 0x0 SWAP2 DUP3 MSTORE PUSH1 0x20 SWAP1 SWAP2 KECCAK256 PUSH1 0x9 SWAP1 SWAP2 MUL ADD PUSH1 0x7 ADD SLOAD PUSH2 0x3B6D SWAP1 PUSH2 0x100 SWAP1 DIV PUSH1 0xFF AND DUP4 PUSH2 0x4D88 JUMP JUMPDEST SWAP2 POP PUSH2 0x3B82 JUMP JUMPDEST DUP4 PUSH2 0x3B7E DUP2 PUSH2 0x49C4 JUMP JUMPDEST SWAP5 POP POP JUMPDEST DUP1 PUSH2 0x3B8C DUP2 PUSH2 0x49C4 JUMP JUMPDEST SWAP2 POP POP PUSH2 0x3A63 JUMP JUMPDEST POP DUP4 PUSH1 0x0 SUB PUSH2 0x3BF2 JUMPI PUSH1 0x7 DUP1 DUP8 ADD DUP7 SWAP1 SSTORE PUSH1 0x0 PUSH1 0x8 DUP9 ADD SSTORE PUSH1 0x32 DUP8 SSTORE PUSH1 0x40 DUP1 MLOAD DUP1 DUP3 ADD SWAP1 SWAP2 MSTORE SWAP1 DUP2 MSTORE PUSH7 0x155B9C985D1959 PUSH1 0xCA SHL PUSH1 0x20 DUP3 ADD MSTORE PUSH1 0x6 DUP8 ADD SWAP1 PUSH2 0x3BDC SWAP1 DUP3 PUSH2 0x4CB0 JUMP JUMPDEST POP POP POP PUSH1 0x9 SWAP1 SWAP4 ADD DUP1 SLOAD PUSH1 0xFF NOT AND SWAP1 SSTORE POP POP POP POP JUMP JUMPDEST PUSH1 0x1 PUSH1 0x1 PUSH1 0xA0 SHL SUB DUP8 AND PUSH1 0x0 SWAP1 DUP2 MSTORE PUSH1 0x5 PUSH1 0x20 MSTORE PUSH1 0x40 SWAP1 DUP2 SWAP1 KECCAK256 SWAP1 MLOAD PUSH6 0x736166657479 PUSH1 0xD0 SHL DUP2 MSTORE PUSH1 0x6 ADD SWAP1 DUP2 MSTORE PUSH1 0x40 DUP1 MLOAD PUSH1 0x20 SWAP3 DUP2 SWAP1 SUB DUP4 ADD DUP2 KECCAK256 PUSH1 0x4 ADD SLOAD PUSH1 0x1 DUP11 ADD SSTORE PUSH1 0x1 PUSH1 0x1 PUSH1 0xA0 SHL SUB DUP11 AND PUSH1 0x0 SWAP1 DUP2 MSTORE PUSH1 0x5 SWAP1 SWAP4 MSTORE SWAP2 KECCAK256 PUSH8 0x3132B430BB34B7B9 PUSH1 0xC1 SHL DUP3 MSTORE SWAP1 PUSH1 0x8 ADD SWAP1 DUP2 MSTORE PUSH1 0x40 DUP1 MLOAD PUSH1 0x20 SWAP3 DUP2 SWAP1 SUB DUP4 ADD DUP2 KECCAK256 PUSH1 0x4 ADD SLOAD PUSH1 0x2 DUP11 ADD SSTORE PUSH1 0x1 PUSH1 0x1 PUSH1 0xA0 SHL SUB DUP11 AND PUSH1 0x0 SWAP1 DUP2 MSTORE PUSH1 0x5 SWAP1 SWAP4 MSTORE SWAP2 KECCAK256 PUSH13 0x31B7B6B6BAB734B1B0BA34B7B7 PUSH1 0x99 SHL DUP3 MSTORE SWAP1 PUSH1 0xD ADD SWAP1 DUP2 MSTORE PUSH1 0x40 DUP1 MLOAD PUSH1 0x20 SWAP3 DUP2 SWAP1 SUB DUP4 ADD DUP2 KECCAK256 PUSH1 0x4 ADD SLOAD PUSH1 0x3 DUP11 ADD SSTORE PUSH1 0x1 PUSH1 0x1 PUSH1 0xA0 SHL SUB DUP11 AND PUSH1 0x0 SWAP1 DUP2 MSTORE PUSH1 0x5 SWAP1 SWAP4 MSTORE SWAP2 KECCAK256 PUSH8 0x6B696E646E657373 PUSH1 0xC0 SHL DUP3 MSTORE SWAP1 PUSH1 0x8 ADD SWAP1 DUP2 MSTORE PUSH1 0x40 DUP1 MLOAD PUSH1 0x20 SWAP3 DUP2 SWAP1 SUB DUP4 ADD DUP2 KECCAK256 PUSH1 0x4 SWAP1 DUP2 ADD SLOAD SWAP1 DUP11 ADD SSTORE PUSH1 0x1 PUSH1 0x1 PUSH1 0xA0 SHL SUB DUP11 AND PUSH1 0x0 SWAP1 DUP2 MSTORE PUSH1 0x5 SWAP1 SWAP4 MSTORE SWAP2 KECCAK256 PUSH11 0x72656C696162696C697479 PUSH1 0xA8 SHL DUP3 MSTORE SWAP1 PUSH1 0xB ADD SWAP1 DUP2 MSTORE PUSH1 0x40 MLOAD SWAP1 DUP2 SWAP1 SUB PUSH1 0x20 ADD SWAP1 KECCAK256 PUSH1 0x4 ADD SLOAD PUSH1 0x5 DUP8 ADD SSTORE PUSH1 0x7 DUP7 ADD DUP5 SWAP1 SSTORE DUP4 PUSH2 0x3D59 DUP5 PUSH1 0x64 PUSH2 0x4E75 JUMP JUMPDEST PUSH2 0x3D63 SWAP2 SWAP1 PUSH2 0x4D9B JUMP JUMPDEST DUP7 PUSH1 0x8 ADD DUP2 SWAP1 SSTORE POP PUSH1 0x0 PUSH1 0x5 DUP8 PUSH1 0x5 ADD SLOAD DUP9 PUSH1 0x4 ADD SLOAD DUP10 PUSH1 0x3 ADD SLOAD DUP11 PUSH1 0x2 ADD SLOAD DUP12 PUSH1 0x1 ADD SLOAD PUSH2 0x3D92 SWAP2 SWAP1 PUSH2 0x4D88 JUMP JUMPDEST PUSH2 0x3D9C SWAP2 SWAP1 PUSH2 0x4D88 JUMP JUMPDEST PUSH2 0x3DA6 SWAP2 SWAP1 PUSH2 0x4D88 JUMP JUMPDEST PUSH2 0x3DB0 SWAP2 SWAP1 PUSH2 0x4D88 JUMP JUMPDEST PUSH2 0x3DBA SWAP2 SWAP1 PUSH2 0x4D9B JUMP JUMPDEST PUSH1 0x8 DUP9 ADD SLOAD SWAP1 SWAP2 POP PUSH1 0x0 DUP5 ISZERO PUSH2 0x3DFC JUMPI PUSH1 0x0 PUSH2 0x3DD6 DUP7 DUP7 PUSH2 0x4D9B JUMP JUMPDEST SWAP1 POP DUP8 PUSH2 0x3DE3 DUP8 DUP4 PUSH2 0x4E75 JUMP JUMPDEST PUSH2 0x3DEE SWAP1 PUSH1 0x3 PUSH2 0x4E75 JUMP JUMPDEST PUSH2 0x3DF8 SWAP2 SWAP1 PUSH2 0x4D9B JUMP JUMPDEST SWAP2 POP POP JUMPDEST PUSH1 0x64 PUSH2 0x3E09 DUP4 PUSH1 0x28 PUSH2 0x4E75 JUMP JUMPDEST PUSH2 0x3E14 DUP6 PUSH1 0x3C PUSH2 0x4E75 JUMP JUMPDEST PUSH2 0x3E1E SWAP2 SWAP1 PUSH2 0x4D88 JUMP JUMPDEST PUSH2 0x3E28 SWAP2 SWAP1 PUSH2 0x4D9B JUMP JUMPDEST DUP1 DUP11 SSTORE DUP2 LT ISZERO PUSH2 0x3E51 JUMPI DUP1 DUP10 PUSH1 0x0 ADD PUSH1 0x0 DUP3 DUP3 SLOAD PUSH2 0x3E46 SWAP2 SWAP1 PUSH2 0x4E62 JUMP JUMPDEST SWAP1 SWAP2 SSTORE POP PUSH2 0x3E56 SWAP1 POP JUMP JUMPDEST PUSH1 0x0 DUP10 SSTORE JUMPDEST DUP9 SLOAD PUSH1 0x5A GT PUSH2 0x3EA3 JUMPI PUSH1 0x40 DUP1 MLOAD DUP1 DUP3 ADD SWAP1 SWAP2 MSTORE PUSH1 0x9 DUP2 MSTORE PUSH9 0x115E18D95B1B195B9D PUSH1 0xBA SHL PUSH1 0x20 DUP3 ADD MSTORE PUSH1 0x6 DUP11 ADD SWAP1 PUSH2 0x3E8E SWAP1 DUP3 PUSH2 0x4CB0 JUMP JUMPDEST POP PUSH1 0x9 DUP10 ADD DUP1 SLOAD PUSH1 0xFF NOT AND PUSH1 0x1 OR SWAP1 SSTORE PUSH2 0x3F8E JUMP JUMPDEST DUP9 SLOAD PUSH1 0x4B GT PUSH2 0x3ED6 JUMPI PUSH1 0x40 DUP1 MLOAD DUP1 DUP3 ADD SWAP1 SWAP2 MSTORE PUSH1 0x4 DUP2 MSTORE PUSH4 0x11DBDBD9 PUSH1 0xE2 SHL PUSH1 0x20 DUP3 ADD MSTORE PUSH1 0x6 DUP11 ADD SWAP1 PUSH2 0x3E8E SWAP1 DUP3 PUSH2 0x4CB0 JUMP JUMPDEST DUP9 SLOAD PUSH1 0x32 GT PUSH2 0x3F1E JUMPI PUSH1 0x40 DUP1 MLOAD DUP1 DUP3 ADD SWAP1 SWAP2 MSTORE PUSH1 0x7 DUP2 MSTORE PUSH7 0x41766572616765 PUSH1 0xC8 SHL PUSH1 0x20 DUP3 ADD MSTORE PUSH1 0x6 DUP11 ADD SWAP1 PUSH2 0x3F0C SWAP1 DUP3 PUSH2 0x4CB0 JUMP JUMPDEST POP PUSH1 0x9 DUP10 ADD DUP1 SLOAD PUSH1 0xFF NOT AND SWAP1 SSTORE PUSH2 0x3F8E JUMP JUMPDEST DUP9 SLOAD PUSH1 0x19 GT PUSH2 0x3F51 JUMPI PUSH1 0x40 DUP1 MLOAD DUP1 DUP3 ADD SWAP1 SWAP2 MSTORE PUSH1 0x4 DUP2 MSTORE PUSH4 0x2837B7B9 PUSH1 0xE1 SHL PUSH1 0x20 DUP3 ADD MSTORE PUSH1 0x6 DUP11 ADD SWAP1 PUSH2 0x3F0C SWAP1 DUP3 PUSH2 0x4CB0 JUMP JUMPDEST PUSH1 0x40 DUP1 MLOAD DUP1 DUP3 ADD SWAP1 SWAP2 MSTORE PUSH1 0x9 DUP2 MSTORE PUSH9 0x44616E6765726F7573 PUSH1 0xB8 SHL PUSH1 0x20 DUP3 ADD MSTORE PUSH1 0x6 DUP11 ADD SWAP1 PUSH2 0x3F80 SWAP1 DUP3 PUSH2 0x4CB0 JUMP JUMPDEST POP PUSH1 0x9 DUP10 ADD DUP1 SLOAD PUSH1 0xFF NOT AND SWAP1 SSTORE JUMPDEST PUSH1 0x1 PUSH1 0x1 PUSH1 0xA0 SHL SUB DUP11 AND PUSH1 0x0 DUP2 DUP2 MSTORE PUSH1 0x7 PUSH1 0x20 MSTORE PUSH1 0x40 SWAP1 DUP2 SWAP1 KECCAK256 TIMESTAMP SWAP1 SSTORE DUP11 SLOAD SWAP1 MLOAD PUSH32 0x7BC0F3EA2CDEC2195C97A22DA5171671C2A3AFF71521A9774349F6C3AA1F7FF5 SWAP2 PUSH2 0x3FDF SWAP2 PUSH1 0x6 DUP15 ADD SWAP1 PUSH2 0x4EAE JUMP JUMPDEST PUSH1 0x40 MLOAD DUP1 SWAP2 SUB SWAP1 LOG2 PUSH1 0x9 DUP10 ADD SLOAD PUSH1 0x40 MLOAD PUSH1 0x1 PUSH1 0x1 PUSH1 0xA0 SHL SUB DUP13 AND SWAP2 PUSH32 0x3FC9ECBDA08FFA096FFD11E1118A5022B57A3F746B93766FFDA6874541BDCC6C SWAP2 PUSH2 0x402D SWAP2 PUSH1 0xFF AND ISZERO ISZERO DUP2 MSTORE PUSH1 0x20 ADD SWAP1 JUMP JUMPDEST PUSH1 0x40 MLOAD DUP1 SWAP2 SUB SWAP1 LOG2 POP POP POP POP POP POP POP POP POP POP JUMP JUMPDEST PUSH1 0x40 DUP1 MLOAD PUSH2 0x160 DUP2 ADD DUP3 MSTORE PUSH1 0x0 DUP1 DUP3 MSTORE PUSH1 0x20 DUP3 ADD DUP2 SWAP1 MSTORE SWAP2 DUP2 ADD DUP3 SWAP1 MSTORE PUSH1 0x60 DUP1 DUP3 ADD DUP2 SWAP1 MSTORE PUSH1 0x80 DUP3 ADD DUP2 SWAP1 MSTORE PUSH1 0xA0 DUP3 ADD DUP4 SWAP1 MSTORE PUSH1 0xC0 DUP3 ADD DUP4 SWAP1 MSTORE PUSH1 0xE0 DUP3 ADD DUP4 SWAP1 MSTORE PUSH2 0x100 DUP3 ADD DUP4 SWAP1 MSTORE PUSH2 0x120 DUP3 ADD SWAP3 SWAP1 SWAP3 MSTORE PUSH2 0x140 DUP2 ADD SWAP2 SWAP1 SWAP2 MSTORE SWAP1 JUMP JUMPDEST DUP1 CALLDATALOAD PUSH1 0x1 PUSH1 0x1 PUSH1 0xA0 SHL SUB DUP2 AND DUP2 EQ PUSH2 0x40B6 JUMPI PUSH1 0x0 DUP1 REVERT JUMPDEST SWAP2 SWAP1 POP JUMP JUMPDEST PUSH1 0x0 PUSH1 0x20 DUP3 DUP5 SUB SLT ISZERO PUSH2 0x40CD JUMPI PUSH1 0x0 DUP1 REVERT JUMPDEST PUSH2 0x3355 DUP3 PUSH2 0x409F JUMP JUMPDEST PUSH1 0x0 PUSH1 0x20 DUP3 DUP5 SUB SLT ISZERO PUSH2 0x40E8 JUMPI PUSH1 0x0 DUP1 REVERT JUMPDEST POP CALLDATALOAD SWAP2 SWAP1 POP JUMP JUMPDEST PUSH1 0x0 JUMPDEST DUP4 DUP2 LT ISZERO PUSH2 0x410A JUMPI DUP2 DUP2 ADD MLOAD DUP4 DUP3 ADD MSTORE PUSH1 0x20 ADD PUSH2 0x40F2 JUMP JUMPDEST POP POP PUSH1 0x0 SWAP2 ADD MSTORE JUMP JUMPDEST PUSH1 0x0 DUP2 MLOAD DUP1 DUP5 MSTORE PUSH2 0x412B DUP2 PUSH1 0x20 DUP7 ADD PUSH1 0x20 DUP7 ADD PUSH2 0x40EF JUMP JUMPDEST PUSH1 0x1F ADD PUSH1 0x1F NOT AND SWAP3 SWAP1 SWAP3 ADD PUSH1 0x20 ADD SWAP3 SWAP2 POP POP JUMP JUMPDEST PUSH1 0x1 PUSH1 0x1 PUSH1 0xA0 SHL SUB DUP13 DUP2 AND DUP3 MSTORE DUP12 AND PUSH1 0x20 DUP3 ADD MSTORE DUP10 ISZERO ISZERO PUSH1 0x40 DUP3 ADD MSTORE PUSH2 0x160 PUSH1 0x60 DUP3 ADD DUP2 SWAP1 MSTORE PUSH1 0x0 SWAP1 PUSH2 0x4174 DUP4 DUP3 ADD DUP13 PUSH2 0x4113 JUMP JUMPDEST SWAP1 POP DUP3 DUP2 SUB PUSH1 0x80 DUP5 ADD MSTORE PUSH2 0x4188 DUP2 DUP12 PUSH2 0x4113 JUMP JUMPDEST SWAP1 POP DUP9 PUSH1 0xA0 DUP5 ADD MSTORE DUP8 ISZERO ISZERO PUSH1 0xC0 DUP5 ADD MSTORE DUP7 PUSH1 0xE0 DUP5 ADD MSTORE DUP6 ISZERO ISZERO PUSH2 0x100 DUP5 ADD MSTORE PUSH2 0x41B7 PUSH2 0x120 DUP5 ADD DUP7 PUSH1 0xFF AND SWAP1 MSTORE JUMP JUMPDEST DUP3 DUP2 SUB PUSH2 0x140 DUP5 ADD MSTORE PUSH2 0x41CA DUP2 DUP6 PUSH2 0x4113 JUMP JUMPDEST SWAP15 SWAP14 POP POP POP POP POP POP POP POP POP POP POP POP POP POP JUMP JUMPDEST PUSH4 0x4E487B71 PUSH1 0xE0 SHL PUSH1 0x0 MSTORE PUSH1 0x41 PUSH1 0x4 MSTORE PUSH1 0x24 PUSH1 0x0 REVERT JUMPDEST PUSH1 0x40 MLOAD PUSH1 0x1F DUP3 ADD PUSH1 0x1F NOT AND DUP2 ADD PUSH1 0x1 PUSH1 0x1 PUSH1 0x40 SHL SUB DUP2 GT DUP3 DUP3 LT OR ISZERO PUSH2 0x421A JUMPI PUSH2 0x421A PUSH2 0x41DC JUMP JUMPDEST PUSH1 0x40 MSTORE SWAP2 SWAP1 POP JUMP JUMPDEST PUSH1 0x0 PUSH1 0x1 PUSH1 0x1 PUSH1 0x40 SHL SUB DUP4 GT ISZERO PUSH2 0x423B JUMPI PUSH2 0x423B PUSH2 0x41DC JUMP JUMPDEST PUSH2 0x424E PUSH1 0x1F DUP5 ADD PUSH1 0x1F NOT AND PUSH1 0x20 ADD PUSH2 0x41F2 JUMP JUMPDEST SWAP1 POP DUP3 DUP2 MSTORE DUP4 DUP4 DUP4 ADD GT ISZERO PUSH2 0x4262 JUMPI PUSH1 0x0 DUP1 REVERT JUMPDEST DUP3 DUP3 PUSH1 0x20 DUP4 ADD CALLDATACOPY PUSH1 0x0 PUSH1 0x20 DUP5 DUP4 ADD ADD MSTORE SWAP4 SWAP3 POP POP POP JUMP JUMPDEST PUSH1 0x0 DUP3 PUSH1 0x1F DUP4 ADD SLT PUSH2 0x428A JUMPI PUSH1 0x0 DUP1 REVERT JUMPDEST PUSH2 0x3355 DUP4 DUP4 CALLDATALOAD PUSH1 0x20 DUP6 ADD PUSH2 0x4222 JUMP JUMPDEST PUSH1 0x0 PUSH1 0x20 DUP3 DUP5 SUB SLT ISZERO PUSH2 0x42AB JUMPI PUSH1 0x0 DUP1 REVERT JUMPDEST DUP2 CALLDATALOAD PUSH1 0x1 PUSH1 0x1 PUSH1 0x40 SHL SUB DUP2 GT ISZERO PUSH2 0x42C1 JUMPI PUSH1 0x0 DUP1 REVERT JUMPDEST PUSH2 0x3698 DUP5 DUP3 DUP6 ADD PUSH2 0x4279 JUMP JUMPDEST PUSH1 0x20 DUP1 DUP3 MSTORE DUP3 MLOAD DUP3 DUP3 ADD DUP2 SWAP1 MSTORE PUSH1 0x0 SWAP2 SWAP1 DUP5 DUP3 ADD SWAP1 PUSH1 0x40 DUP6 ADD SWAP1 DUP5 JUMPDEST DUP2 DUP2 LT ISZERO PUSH2 0x430E JUMPI DUP4 MLOAD PUSH1 0x1 PUSH1 0x1 PUSH1 0xA0 SHL SUB AND DUP4 MSTORE SWAP3 DUP5 ADD SWAP3 SWAP2 DUP5 ADD SWAP2 PUSH1 0x1 ADD PUSH2 0x42E9 JUMP JUMPDEST POP SWAP1 SWAP7 SWAP6 POP POP POP POP POP POP JUMP JUMPDEST PUSH1 0x0 DUP2 MLOAD DUP1 DUP5 MSTORE PUSH1 0x20 DUP1 DUP6 ADD DUP1 DUP2 SWAP7 POP DUP4 PUSH1 0x5 SHL DUP2 ADD SWAP2 POP DUP3 DUP7 ADD PUSH1 0x0 JUMPDEST DUP6 DUP2 LT ISZERO PUSH2 0x4362 JUMPI DUP3 DUP5 SUB DUP10 MSTORE PUSH2 0x4350 DUP5 DUP4 MLOAD PUSH2 0x4113 JUMP JUMPDEST SWAP9 DUP6 ADD SWAP9 SWAP4 POP SWAP1 DUP5 ADD SWAP1 PUSH1 0x1 ADD PUSH2 0x4338 JUMP JUMPDEST POP SWAP2 SWAP8 SWAP7 POP POP POP POP POP POP POP JUMP JUMPDEST PUSH1 0x0 DUP2 MLOAD DUP1 DUP5 MSTORE PUSH1 0x20 DUP1 DUP6 ADD SWAP5 POP DUP1 DUP5 ADD PUSH1 0x0 JUMPDEST DUP4 DUP2 LT ISZERO PUSH2 0x439F JUMPI DUP2 MLOAD DUP8 MSTORE SWAP6 DUP3 ADD SWAP6 SWAP1 DUP3 ADD SWAP1 PUSH1 0x1 ADD PUSH2 0x4383 JUMP JUMPDEST POP SWAP5 SWAP6 SWAP5 POP POP POP POP POP JUMP JUMPDEST PUSH1 0x80 DUP2 MSTORE PUSH1 0x0 PUSH2 0x43BD PUSH1 0x80 DUP4 ADD DUP8 PUSH2 0x431A JUMP JUMPDEST DUP3 DUP2 SUB PUSH1 0x20 DUP5 ADD MSTORE PUSH2 0x43CF DUP2 DUP8 PUSH2 0x436F JUMP JUMPDEST SWAP1 POP DUP3 DUP2 SUB PUSH1 0x40 DUP5 ADD MSTORE PUSH2 0x43E3 DUP2 DUP7 PUSH2 0x436F JUMP JUMPDEST SWAP1 POP DUP3 DUP2 SUB PUSH1 0x60 DUP5 ADD MSTORE PUSH2 0x43F7 DUP2 DUP6 PUSH2 0x436F JUMP JUMPDEST SWAP8 SWAP7 POP POP POP POP POP POP POP JUMP JUMPDEST PUSH1 0x0 DUP1 PUSH1 0x40 DUP4 DUP6 SUB SLT ISZERO PUSH2 0x4415 JUMPI PUSH1 0x0 DUP1 REVERT JUMPDEST PUSH2 0x441E DUP4 PUSH2 0x409F JUMP JUMPDEST SWAP2 POP PUSH2 0x442C PUSH1 0x20 DUP5 ADD PUSH2 0x409F JUMP JUMPDEST SWAP1 POP SWAP3 POP SWAP3 SWAP1 POP JUMP JUMPDEST DUP1 MLOAD PUSH1 0x1 PUSH1 0x1 PUSH1 0xA0 SHL SUB AND DUP3 MSTORE PUSH1 0x0 PUSH2 0x160 PUSH1 0x20 DUP4 ADD MLOAD PUSH2 0x4461 PUSH1 0x20 DUP7 ADD DUP3 PUSH1 0x1 PUSH1 0x1 PUSH1 0xA0 SHL SUB AND SWAP1 MSTORE JUMP JUMPDEST POP PUSH1 0x40 DUP4 ADD MLOAD PUSH2 0x4475 PUSH1 0x40 DUP7 ADD DUP3 ISZERO ISZERO SWAP1 MSTORE JUMP JUMPDEST POP PUSH1 0x60 DUP4 ADD MLOAD DUP2 PUSH1 0x60 DUP7 ADD MSTORE PUSH2 0x448D DUP3 DUP7 ADD DUP3 PUSH2 0x4113 JUMP JUMPDEST SWAP2 POP POP PUSH1 0x80 DUP4 ADD MLOAD DUP5 DUP3 SUB PUSH1 0x80 DUP7 ADD MSTORE PUSH2 0x44A7 DUP3 DUP3 PUSH2 0x4113 JUMP JUMPDEST SWAP2 POP POP PUSH1 0xA0 DUP4 ADD MLOAD PUSH1 0xA0 DUP6 ADD MSTORE PUSH1 0xC0 DUP4 ADD MLOAD PUSH2 0x44C7 PUSH1 0xC0 DUP7 ADD DUP3 ISZERO ISZERO SWAP1 MSTORE JUMP JUMPDEST POP PUSH1 0xE0 DUP4 ADD MLOAD PUSH1 0xE0 DUP6 ADD MSTORE PUSH2 0x100 DUP1 DUP5 ADD MLOAD PUSH2 0x44E6 DUP3 DUP8 ADD DUP3 ISZERO ISZERO SWAP1 MSTORE JUMP JUMPDEST POP POP PUSH2 0x120 DUP4 DUP2 ADD MLOAD PUSH1 0xFF AND SWAP1 DUP6 ADD MSTORE PUSH2 0x140 DUP1 DUP5 ADD MLOAD DUP6 DUP4 SUB DUP3 DUP8 ADD MSTORE PUSH2 0x450E DUP4 DUP3 PUSH2 0x4113 JUMP JUMPDEST SWAP7 SWAP6 POP POP POP POP POP POP JUMP JUMPDEST PUSH1 0x0 PUSH1 0x20 DUP1 DUP4 ADD DUP2 DUP5 MSTORE DUP1 DUP6 MLOAD DUP1 DUP4 MSTORE PUSH1 0x40 DUP7 ADD SWAP2 POP PUSH1 0x40 DUP2 PUSH1 0x5 SHL DUP8 ADD ADD SWAP3 POP DUP4 DUP8 ADD PUSH1 0x0 JUMPDEST DUP3 DUP2 LT ISZERO PUSH2 0x456D JUMPI PUSH1 0x3F NOT DUP9 DUP7 SUB ADD DUP5 MSTORE PUSH2 0x455B DUP6 DUP4 MLOAD PUSH2 0x4435 JUMP JUMPDEST SWAP5 POP SWAP3 DUP6 ADD SWAP3 SWAP1 DUP6 ADD SWAP1 PUSH1 0x1 ADD PUSH2 0x453F JUMP JUMPDEST POP SWAP3 SWAP8 SWAP7 POP POP POP POP POP POP POP JUMP JUMPDEST PUSH1 0x0 DUP1 PUSH1 0x40 DUP4 DUP6 SUB SLT ISZERO PUSH2 0x458D JUMPI PUSH1 0x0 DUP1 REVERT JUMPDEST PUSH2 0x4596 DUP4 PUSH2 0x409F JUMP JUMPDEST SWAP2 POP PUSH1 0x20 DUP4 ADD CALLDATALOAD PUSH1 0x1 PUSH1 0x1 PUSH1 0x40 SHL SUB DUP2 GT ISZERO PUSH2 0x45B1 JUMPI PUSH1 0x0 DUP1 REVERT JUMPDEST PUSH2 0x45BD DUP6 DUP3 DUP7 ADD PUSH2 0x4279 JUMP JUMPDEST SWAP2 POP POP SWAP3 POP SWAP3 SWAP1 POP JUMP JUMPDEST PUSH1 0x0 DUP1 PUSH1 0x40 DUP4 DUP6 SUB SLT ISZERO PUSH2 0x45DA JUMPI PUSH1 0x0 DUP1 REVERT JUMPDEST PUSH2 0x45E3 DUP4 PUSH2 0x409F JUMP JUMPDEST SWAP5 PUSH1 0x20 SWAP4 SWAP1 SWAP4 ADD CALLDATALOAD SWAP4 POP POP POP JUMP JUMPDEST PUSH1 0x20 DUP2 MSTORE DUP2 MLOAD PUSH1 0x20 DUP3 ADD MSTORE PUSH1 0x20 DUP3 ADD MLOAD PUSH1 0x40 DUP3 ADD MSTORE PUSH1 0x40 DUP3 ADD MLOAD PUSH1 0x60 DUP3 ADD MSTORE PUSH1 0x60 DUP3 ADD MLOAD PUSH1 0x80 DUP3 ADD MSTORE PUSH1 0x80 DUP3 ADD MLOAD PUSH1 0xA0 DUP3 ADD MSTORE PUSH1 0xA0 DUP3 ADD MLOAD PUSH1 0xC0 DUP3 ADD MSTORE PUSH1 0x0 PUSH1 0xC0 DUP4 ADD MLOAD PUSH2 0x140 DUP1 PUSH1 0xE0 DUP6 ADD MSTORE PUSH2 0x464C PUSH2 0x160 DUP6 ADD DUP4 PUSH2 0x4113 JUMP JUMPDEST PUSH1 0xE0 DUP7 ADD MLOAD PUSH2 0x100 DUP7 DUP2 ADD SWAP2 SWAP1 SWAP2 MSTORE DUP7 ADD MLOAD PUSH2 0x120 DUP1 DUP8 ADD SWAP2 SWAP1 SWAP2 MSTORE DUP7 ADD MLOAD DUP1 ISZERO ISZERO DUP4 DUP8 ADD MSTORE SWAP1 SWAP3 POP PUSH2 0x1370 JUMP JUMPDEST PUSH1 0x20 DUP2 MSTORE PUSH1 0x0 PUSH2 0x3355 PUSH1 0x20 DUP4 ADD DUP5 PUSH2 0x431A JUMP JUMPDEST PUSH1 0x0 PUSH2 0x140 DUP13 DUP4 MSTORE DUP12 PUSH1 0x20 DUP5 ADD MSTORE DUP11 PUSH1 0x40 DUP5 ADD MSTORE DUP10 PUSH1 0x60 DUP5 ADD MSTORE DUP9 PUSH1 0x80 DUP5 ADD MSTORE DUP8 PUSH1 0xA0 DUP5 ADD MSTORE DUP1 PUSH1 0xC0 DUP5 ADD MSTORE PUSH2 0x46C5 DUP2 DUP5 ADD DUP9 PUSH2 0x4113 JUMP JUMPDEST PUSH1 0xE0 DUP5 ADD SWAP7 SWAP1 SWAP7 MSTORE POP POP PUSH2 0x100 DUP2 ADD SWAP3 SWAP1 SWAP3 MSTORE ISZERO ISZERO PUSH2 0x120 SWAP1 SWAP2 ADD MSTORE SWAP8 SWAP7 POP POP POP POP POP POP POP JUMP JUMPDEST DUP1 CALLDATALOAD DUP1 ISZERO ISZERO DUP2 EQ PUSH2 0x40B6 JUMPI PUSH1 0x0 DUP1 REVERT JUMPDEST DUP1 CALLDATALOAD PUSH1 0xFF DUP2 AND DUP2 EQ PUSH2 0x40B6 JUMPI PUSH1 0x0 DUP1 REVERT JUMPDEST PUSH1 0x0 DUP1 PUSH1 0x0 DUP1 PUSH1 0x0 PUSH1 0xA0 DUP7 DUP9 SUB SLT ISZERO PUSH2 0x4725 JUMPI PUSH1 0x0 DUP1 REVERT JUMPDEST PUSH2 0x472E DUP7 PUSH2 0x409F JUMP JUMPDEST SWAP5 POP PUSH2 0x473C PUSH1 0x20 DUP8 ADD PUSH2 0x46EC JUMP JUMPDEST SWAP4 POP PUSH1 0x40 DUP7 ADD CALLDATALOAD PUSH1 0x1 PUSH1 0x1 PUSH1 0x40 SHL SUB DUP1 DUP3 GT ISZERO PUSH2 0x4758 JUMPI PUSH1 0x0 DUP1 REVERT JUMPDEST DUP2 DUP9 ADD SWAP2 POP DUP9 PUSH1 0x1F DUP4 ADD SLT PUSH2 0x476C JUMPI PUSH1 0x0 DUP1 REVERT JUMPDEST PUSH2 0x477B DUP10 DUP4 CALLDATALOAD PUSH1 0x20 DUP6 ADD PUSH2 0x4222 JUMP JUMPDEST SWAP5 POP PUSH1 0x60 DUP9 ADD CALLDATALOAD SWAP2 POP DUP1 DUP3 GT ISZERO PUSH2 0x4791 JUMPI PUSH1 0x0 DUP1 REVERT JUMPDEST POP PUSH2 0x479E DUP9 DUP3 DUP10 ADD PUSH2 0x4279 JUMP JUMPDEST SWAP3 POP POP PUSH2 0x47AD PUSH1 0x80 DUP8 ADD PUSH2 0x46FC JUMP JUMPDEST SWAP1 POP SWAP3 SWAP6 POP SWAP3 SWAP6 SWAP1 SWAP4 POP JUMP JUMPDEST PUSH1 0x0 DUP1 PUSH1 0x0 DUP1 PUSH1 0x0 PUSH1 0xA0 DUP7 DUP9 SUB SLT ISZERO PUSH2 0x47D1 JUMPI PUSH1 0x0 DUP1 REVERT JUMPDEST PUSH2 0x47DA DUP7 PUSH2 0x409F JUMP JUMPDEST SWAP5 POP PUSH2 0x47E8 PUSH1 0x20 DUP8 ADD PUSH2 0x46EC JUMP JUMPDEST SWAP4 POP PUSH1 0x40 DUP7 ADD CALLDATALOAD PUSH1 0x1 PUSH1 0x1 PUSH1 0x40 SHL SUB DUP1 DUP3 GT ISZERO PUSH2 0x4804 JUMPI PUSH1 0x0 DUP1 REVERT JUMPDEST PUSH2 0x477B DUP10 DUP4 DUP11 ADD PUSH2 0x4279 JUMP JUMPDEST PUSH1 0x0 DUP1 PUSH1 0x40 DUP4 DUP6 SUB SLT ISZERO PUSH2 0x4823 JUMPI PUSH1 0x0 DUP1 REVERT JUMPDEST DUP3 CALLDATALOAD SWAP2 POP PUSH2 0x442C PUSH1 0x20 DUP5 ADD PUSH2 0x409F JUMP JUMPDEST PUSH1 0x20 DUP2 MSTORE PUSH1 0x0 PUSH2 0x3355 PUSH1 0x20 DUP4 ADD DUP5 PUSH2 0x4435 JUMP JUMPDEST PUSH1 0x0 DUP1 PUSH1 0x40 DUP4 DUP6 SUB SLT ISZERO PUSH2 0x4859 JUMPI PUSH1 0x0 DUP1 REVERT JUMPDEST DUP3 CALLDATALOAD PUSH1 0x1 PUSH1 0x1 PUSH1 0x40 SHL SUB DUP2 GT ISZERO PUSH2 0x486F JUMPI PUSH1 0x0 DUP1 REVERT JUMPDEST PUSH2 0x487B DUP6 DUP3 DUP7 ADD PUSH2 0x4279 JUMP JUMPDEST SWAP6 PUSH1 0x20 SWAP5 SWAP1 SWAP5 ADD CALLDATALOAD SWAP5 POP POP POP POP JUMP JUMPDEST PUSH1 0x20 DUP2 MSTORE PUSH1 0x0 PUSH2 0x3355 PUSH1 0x20 DUP4 ADD DUP5 PUSH2 0x4113 JUMP JUMPDEST PUSH1 0x0 PUSH1 0x20 DUP1 DUP4 DUP6 SUB SLT ISZERO PUSH2 0x48B0 JUMPI PUSH1 0x0 DUP1 REVERT JUMPDEST DUP3 CALLDATALOAD PUSH1 0x1 PUSH1 0x1 PUSH1 0x40 SHL SUB DUP1 DUP3 GT ISZERO PUSH2 0x48C7 JUMPI PUSH1 0x0 DUP1 REVERT JUMPDEST DUP2 DUP6 ADD SWAP2 POP DUP6 PUSH1 0x1F DUP4 ADD SLT PUSH2 0x48DB JUMPI PUSH1 0x0 DUP1 REVERT JUMPDEST DUP2 CALLDATALOAD DUP2 DUP2 GT ISZERO PUSH2 0x48ED JUMPI PUSH2 0x48ED PUSH2 0x41DC JUMP JUMPDEST DUP1 PUSH1 0x5 SHL SWAP2 POP PUSH2 0x48FE DUP5 DUP4 ADD PUSH2 0x41F2 JUMP JUMPDEST DUP2 DUP2 MSTORE SWAP2 DUP4 ADD DUP5 ADD SWAP2 DUP5 DUP2 ADD SWAP1 DUP9 DUP5 GT ISZERO PUSH2 0x4918 JUMPI PUSH1 0x0 DUP1 REVERT JUMPDEST SWAP4 DUP6 ADD SWAP4 JUMPDEST DUP4 DUP6 LT ISZERO PUSH2 0x4936 JUMPI DUP5 CALLDATALOAD DUP3 MSTORE SWAP4 DUP6 ADD SWAP4 SWAP1 DUP6 ADD SWAP1 PUSH2 0x491D JUMP JUMPDEST SWAP9 SWAP8 POP POP POP POP POP POP POP POP JUMP JUMPDEST PUSH1 0x1 DUP2 DUP2 SHR SWAP1 DUP3 AND DUP1 PUSH2 0x4956 JUMPI PUSH1 0x7F DUP3 AND SWAP2 POP JUMPDEST PUSH1 0x20 DUP3 LT DUP2 SUB PUSH2 0x4976 JUMPI PUSH4 0x4E487B71 PUSH1 0xE0 SHL PUSH1 0x0 MSTORE PUSH1 0x22 PUSH1 0x4 MSTORE PUSH1 0x24 PUSH1 0x0 REVERT JUMPDEST POP SWAP2 SWAP1 POP JUMP JUMPDEST PUSH4 0x4E487B71 PUSH1 0xE0 SHL PUSH1 0x0 MSTORE PUSH1 0x32 PUSH1 0x4 MSTORE PUSH1 0x24 PUSH1 0x0 REVERT JUMPDEST PUSH1 0x0 DUP3 MLOAD PUSH2 0x49A4 DUP2 DUP5 PUSH1 0x20 DUP8 ADD PUSH2 0x40EF JUMP JUMPDEST SWAP2 SWAP1 SWAP2 ADD SWAP3 SWAP2 POP POP JUMP JUMPDEST PUSH4 0x4E487B71 PUSH1 0xE0 SHL PUSH1 0x0 MSTORE PUSH1 0x11 PUSH1 0x4 MSTORE PUSH1 0x24 PUSH1 0x0 REVERT JUMPDEST PUSH1 0x0 PUSH1 0x1 DUP3 ADD PUSH2 0x49D6 JUMPI PUSH2 0x49D6 PUSH2 0x49AE JUMP JUMPDEST POP PUSH1 0x1 ADD SWAP1 JUMP JUMPDEST PUSH1 0x20 DUP1 DUP3 MSTORE PUSH1 0x21 SWAP1 DUP3 ADD MSTORE PUSH32 0x4F6E6C79206F776E65722063616E2063616C6C20746869732066756E6374696F PUSH1 0x40 DUP3 ADD MSTORE PUSH1 0x37 PUSH1 0xF9 SHL PUSH1 0x60 DUP3 ADD MSTORE PUSH1 0x80 ADD SWAP1 JUMP JUMPDEST DUP4 DUP2 MSTORE PUSH1 0x1 PUSH1 0x1 PUSH1 0x60 SHL SUB NOT DUP4 PUSH1 0x60 SHL AND PUSH1 0x20 DUP3 ADD MSTORE PUSH1 0x0 DUP3 MLOAD PUSH2 0x4A49 DUP2 PUSH1 0x34 DUP6 ADD PUSH1 0x20 DUP8 ADD PUSH2 0x40EF JUMP JUMPDEST SWAP2 SWAP1 SWAP2 ADD PUSH1 0x34 ADD SWAP5 SWAP4 POP POP POP POP JUMP JUMPDEST PUSH1 0x0 DUP1 DUP4 SLOAD PUSH2 0x4A66 DUP2 PUSH2 0x4942 JUMP JUMPDEST PUSH1 0x1 DUP3 DUP2 AND DUP1 ISZERO PUSH2 0x4A7E JUMPI PUSH1 0x1 DUP2 EQ PUSH2 0x4A93 JUMPI PUSH2 0x4AC2 JUMP JUMPDEST PUSH1 0xFF NOT DUP5 AND DUP8 MSTORE DUP3 ISZERO ISZERO DUP4 MUL DUP8 ADD SWAP5 POP PUSH2 0x4AC2 JUMP JUMPDEST DUP8 PUSH1 0x0 MSTORE PUSH1 0x20 DUP1 PUSH1 0x0 KECCAK256 PUSH1 0x0 JUMPDEST DUP6 DUP2 LT ISZERO PUSH2 0x4AB9 JUMPI DUP2 SLOAD DUP11 DUP3 ADD MSTORE SWAP1 DUP5 ADD SWAP1 DUP3 ADD PUSH2 0x4AA0 JUMP JUMPDEST POP POP POP DUP3 DUP8 ADD SWAP5 POP JUMPDEST POP SWAP3 SWAP7 SWAP6 POP POP POP POP POP POP JUMP JUMPDEST PUSH1 0x20 DUP1 DUP3 MSTORE PUSH1 0x15 SWAP1 DUP3 ADD MSTORE PUSH21 0x155CD95C881B5D5CDD081899481D995C9A599A5959 PUSH1 0x5A SHL PUSH1 0x40 DUP3 ADD MSTORE PUSH1 0x60 ADD SWAP1 JUMP JUMPDEST PUSH1 0x20 DUP1 DUP3 MSTORE PUSH1 0xF SWAP1 DUP3 ADD MSTORE PUSH15 0x496E76616C69642061646472657373 PUSH1 0x88 SHL PUSH1 0x40 DUP3 ADD MSTORE PUSH1 0x60 ADD SWAP1 JUMP JUMPDEST PUSH1 0x20 DUP1 DUP3 MSTORE PUSH1 0x14 SWAP1 DUP3 ADD MSTORE PUSH20 0x21B0B73737BA10333630B3903CB7BAB939B2B633 PUSH1 0x61 SHL PUSH1 0x40 DUP3 ADD MSTORE PUSH1 0x60 ADD SWAP1 JUMP JUMPDEST PUSH1 0x20 DUP1 DUP3 MSTORE PUSH1 0x29 SWAP1 DUP3 ADD MSTORE PUSH32 0x43616E206F6E6C7920666C616720757365727320796F752068617665206D6174 PUSH1 0x40 DUP3 ADD MSTORE PUSH9 0xC6D0CAC840EED2E8D PUSH1 0xBB SHL PUSH1 0x60 DUP3 ADD MSTORE PUSH1 0x80 ADD SWAP1 JUMP JUMPDEST PUSH1 0x20 DUP1 DUP3 MSTORE PUSH1 0x15 SWAP1 DUP3 ADD MSTORE PUSH21 0x496E76616C696420666C61672063617465676F7279 PUSH1 0x58 SHL PUSH1 0x40 DUP3 ADD MSTORE PUSH1 0x60 ADD SWAP1 JUMP JUMPDEST PUSH1 0x20 DUP1 DUP3 MSTORE PUSH1 0x26 SWAP1 DUP3 ADD MSTORE PUSH32 0x52656420666C6167207365766572697479206D75737420626520626574776565 PUSH1 0x40 DUP3 ADD MSTORE PUSH6 0x6E20312D313 PUSH1 0xD4 SHL PUSH1 0x60 DUP3 ADD MSTORE PUSH1 0x80 ADD SWAP1 JUMP JUMPDEST PUSH1 0x0 PUSH1 0x1 PUSH1 0x1 PUSH1 0x60 SHL SUB NOT DUP1 DUP9 PUSH1 0x60 SHL AND DUP4 MSTORE DUP1 DUP8 PUSH1 0x60 SHL AND PUSH1 0x14 DUP5 ADD MSTORE POP DUP5 PUSH1 0x28 DUP4 ADD MSTORE DUP4 PUSH1 0x48 DUP4 ADD MSTORE DUP3 MLOAD PUSH2 0x4C50 DUP2 PUSH1 0x68 DUP6 ADD PUSH1 0x20 DUP8 ADD PUSH2 0x40EF JUMP JUMPDEST SWAP2 SWAP1 SWAP2 ADD PUSH1 0x68 ADD SWAP7 SWAP6 POP POP POP POP POP POP JUMP JUMPDEST PUSH1 0x1F DUP3 GT ISZERO PUSH2 0x4CAB JUMPI PUSH1 0x0 DUP2 DUP2 MSTORE PUSH1 0x20 DUP2 KECCAK256 PUSH1 0x1F DUP6 ADD PUSH1 0x5 SHR DUP2 ADD PUSH1 0x20 DUP7 LT ISZERO PUSH2 0x4C88 JUMPI POP DUP1 JUMPDEST PUSH1 0x1F DUP6 ADD PUSH1 0x5 SHR DUP3 ADD SWAP2 POP JUMPDEST DUP2 DUP2 LT ISZERO PUSH2 0x4CA7 JUMPI DUP3 DUP2 SSTORE PUSH1 0x1 ADD PUSH2 0x4C94 JUMP JUMPDEST POP POP POP JUMPDEST POP POP POP JUMP JUMPDEST DUP2 MLOAD PUSH1 0x1 PUSH1 0x1 PUSH1 0x40 SHL SUB DUP2 GT ISZERO PUSH2 0x4CC9 JUMPI PUSH2 0x4CC9 PUSH2 0x41DC JUMP JUMPDEST PUSH2 0x4CDD DUP2 PUSH2 0x4CD7 DUP5 SLOAD PUSH2 0x4942 JUMP JUMPDEST DUP5 PUSH2 0x4C61 JUMP JUMPDEST PUSH1 0x20 DUP1 PUSH1 0x1F DUP4 GT PUSH1 0x1 DUP2 EQ PUSH2 0x4D12 JUMPI PUSH1 0x0 DUP5 ISZERO PUSH2 0x4CFA JUMPI POP DUP6 DUP4 ADD MLOAD JUMPDEST PUSH1 0x0 NOT PUSH1 0x3 DUP7 SWAP1 SHL SHR NOT AND PUSH1 0x1 DUP6 SWAP1 SHL OR DUP6 SSTORE PUSH2 0x4CA7 JUMP JUMPDEST PUSH1 0x0 DUP6 DUP2 MSTORE PUSH1 0x20 DUP2 KECCAK256 PUSH1 0x1F NOT DUP7 AND SWAP2 JUMPDEST DUP3 DUP2 LT ISZERO PUSH2 0x4D41 JUMPI DUP9 DUP7 ADD MLOAD DUP3 SSTORE SWAP5 DUP5 ADD SWAP5 PUSH1 0x1 SWAP1 SWAP2 ADD SWAP1 DUP5 ADD PUSH2 0x4D22 JUMP JUMPDEST POP DUP6 DUP3 LT ISZERO PUSH2 0x4D5F JUMPI DUP8 DUP6 ADD MLOAD PUSH1 0x0 NOT PUSH1 0x3 DUP9 SWAP1 SHL PUSH1 0xF8 AND SHR NOT AND DUP2 SSTORE JUMPDEST POP POP POP POP POP PUSH1 0x1 SWAP1 DUP2 SHL ADD SWAP1 SSTORE POP JUMP JUMPDEST PUSH1 0xFF DUP3 DUP2 AND DUP3 DUP3 AND SUB SWAP1 DUP2 GT ISZERO PUSH2 0x1643 JUMPI PUSH2 0x1643 PUSH2 0x49AE JUMP JUMPDEST DUP1 DUP3 ADD DUP1 DUP3 GT ISZERO PUSH2 0x1643 JUMPI PUSH2 0x1643 PUSH2 0x49AE JUMP JUMPDEST PUSH1 0x0 DUP3 PUSH2 0x4DB8 JUMPI PUSH4 0x4E487B71 PUSH1 0xE0 SHL PUSH1 0x0 MSTORE PUSH1 0x12 PUSH1 0x4 MSTORE PUSH1 0x24 PUSH1 0x0 REVERT JUMPDEST POP DIV SWAP1 JUMP JUMPDEST PUSH1 0x1 PUSH1 0x1 PUSH1 0x60 SHL SUB NOT DUP4 PUSH1 0x60 SHL AND DUP2 MSTORE PUSH1 0x0 DUP3 MLOAD PUSH2 0x4DE2 DUP2 PUSH1 0x14 DUP6 ADD PUSH1 0x20 DUP8 ADD PUSH2 0x40EF JUMP JUMPDEST SWAP2 SWAP1 SWAP2 ADD PUSH1 0x14 ADD SWAP4 SWAP3 POP POP POP JUMP JUMPDEST DUP3 ISZERO ISZERO DUP2 MSTORE PUSH1 0x40 PUSH1 0x20 DUP3 ADD MSTORE PUSH1 0x0 PUSH2 0x3698 PUSH1 0x40 DUP4 ADD DUP5 PUSH2 0x4113 JUMP JUMPDEST PUSH1 0x0 DUP4 MLOAD PUSH2 0x4E1D DUP2 DUP5 PUSH1 0x20 DUP9 ADD PUSH2 0x40EF JUMP JUMPDEST SWAP2 SWAP1 SWAP2 ADD SWAP2 DUP3 MSTORE POP PUSH1 0x20 ADD SWAP2 SWAP1 POP JUMP JUMPDEST DUP3 DUP2 MSTORE PUSH1 0x40 PUSH1 0x20 DUP3 ADD MSTORE PUSH1 0x0 PUSH2 0x3698 PUSH1 0x40 DUP4 ADD DUP5 PUSH2 0x4113 JUMP JUMPDEST PUSH1 0xFF DUP2 DUP2 AND DUP4 DUP3 AND MUL SWAP1 DUP2 AND SWAP1 DUP2 DUP2 EQ PUSH2 0x1595 JUMPI PUSH2 0x1595 PUSH2 0x49AE JUMP JUMPDEST DUP2 DUP2 SUB DUP2 DUP2 GT ISZERO PUSH2 0x1643 JUMPI PUSH2 0x1643 PUSH2 0x49AE JUMP JUMPDEST DUP1 DUP3 MUL DUP2 ISZERO DUP3 DUP3 DIV DUP5 EQ OR PUSH2 0x1643 JUMPI PUSH2 0x1643 PUSH2 0x49AE JUMP JUMPDEST PUSH1 0x40 DUP2 MSTORE PUSH1 0x0 PUSH2 0x4E9F PUSH1 0x40 DUP4 ADD DUP6 PUSH2 0x4113 JUMP JUMPDEST SWAP1 POP DUP3 PUSH1 0x20 DUP4 ADD MSTORE SWAP4 SWAP3 POP POP POP JUMP JUMPDEST DUP3 DUP2 MSTORE PUSH1 0x0 PUSH1 0x20 PUSH1 0x40 DUP2 DUP5 ADD MSTORE PUSH1 0x0 DUP5 SLOAD PUSH2 0x4EC8 DUP2 PUSH2 0x4942 JUMP JUMPDEST DUP1 PUSH1 0x40 DUP8 ADD MSTORE PUSH1 0x60 PUSH1 0x1 DUP1 DUP5 AND PUSH1 0x0 DUP2 EQ PUSH2 0x4EEA JUMPI PUSH1 0x1 DUP2 EQ PUSH2 0x4F04 JUMPI PUSH2 0x4F32 JUMP JUMPDEST PUSH1 0xFF NOT DUP6 AND DUP10 DUP5 ADD MSTORE DUP4 ISZERO ISZERO PUSH1 0x5 SHL DUP10 ADD DUP4 ADD SWAP6 POP PUSH2 0x4F32 JUMP JUMPDEST DUP10 PUSH1 0x0 MSTORE DUP7 PUSH1 0x0 KECCAK256 PUSH1 0x0 JUMPDEST DUP6 DUP2 LT ISZERO PUSH2 0x4F2A JUMPI DUP2 SLOAD DUP12 DUP3 ADD DUP7 ADD MSTORE SWAP1 DUP4 ADD SWAP1 DUP9 ADD PUSH2 0x4F0F JUMP JUMPDEST DUP11 ADD DUP5 ADD SWAP7 POP POP JUMPDEST POP SWAP4 SWAP10 SWAP9 POP POP POP POP POP POP POP POP POP JUMP INVALID LOG2 PUSH5 0x6970667358 0x22 SLT KECCAK256 RETURNDATACOPY 0xBE BALANCE PUSH8 0xB19560ED8F1E7534 0xB6 PUSH20 0xEA37283417ADF11F6F06D5F6F07F171C556C6473 PUSH16 0x6C634300081300330000000000000000 "},"methodIdentifiers":{"addFlagCategory(string)":"dfd109fe","approveFlag(bytes32)":"c334fc25","batchApproveFlags(bytes32[])":"e8440dd5","createMatch(address,address)":"1e20530a","encryptFlagReview(string,bytes32)":"e5b01851","flagById(bytes32)":"12521f02","flagCategories(uint256)":"e7506435","generateEncryptionSeed()":"3665658b","getCategoryStats(address,string)":"5b9054f9","getContractStats()":"dfe6b5d6","getFlagById(bytes32,address)":"e262b23c","getFlagCategories()":"653ecec0","getFlagStatistics(address)":"b0d7f917","getFlagTypeDistribution(address)":"184ca2d8","getRecommendedUsers()":"5b07cc04","getUserRating(address)":"460168c3","getUsersByRatingTier(string)":"146b6888","getVisibleFlags(address)":"3e944bae","getVisibleGreenFlags(address)":"fbad3e7b","getVisibleRedFlags(address)":"1f419d70","hasMatched(address,address)":"c1645f42","isValidCategory(string)":"a8060a60","isVerifiedUser(address)":"3da1c0c3","lastRatingUpdate(address)":"00c7701e","owner()":"8da5cb5b","submitAnonymousFlag(address,bool,string,string,uint8)":"ba163bf7","submitEncryptedFlag(address,bool,bytes,string,uint8)":"af819dad","submitFlag(address,bool,string,string,uint8)":"c5cc3baf","totalFlagsApproved()":"1542324d","totalFlagsSubmitted()":"46601f2f","userCategoryStats(address,string)":"27ddec04","userFlags(address,uint256)":"2b787417","userRatings(address)":"900f58fc","userReputation(address)":"e503bb05","verifyUser(address)":"4d813120"}}}}}