{"contracts/UserProfile.sol":{"UserProfile":{"abi":[{"anonymous":false,"inputs":[{"indexed":true,"internalType":"address","name":"user","type":"address"},{"indexed":false,"internalType":"string","name":"name","type":"string"},{"indexed":false,"internalType":"uint256","name":"timestamp","type":"uint256"}],"name":"ProfileCreated","type":"event"},{"anonymous":false,"inputs":[{"indexed":true,"internalType":"address","name":"user","type":"address"},{"indexed":false,"internalType":"uint256","name":"timestamp","type":"uint256"}],"name":"ProfileUpdated","type":"event"},{"anonymous":false,"inputs":[{"indexed":true,"internalType":"address","name":"user","type":"address"},{"indexed":false,"internalType":"uint256","name":"timestamp","type":"uint256"}],"name":"ProfileVerified","type":"event"},{"inputs":[{"internalType":"address","name":"_user","type":"address"}],"name":"checkRegistration","outputs":[{"internalType":"bool","name":"","type":"bool"}],"stateMutability":"view","type":"function"},{"inputs":[{"internalType":"string","name":"_name","type":"string"},{"internalType":"uint256","name":"_age","type":"uint256"},{"internalType":"string","name":"_gender","type":"string"},{"internalType":"string","name":"_bio","type":"string"},{"internalType":"string[]","name":"_interests","type":"string[]"},{"internalType":"uint256","name":"_monthlySalary","type":"uint256"},{"internalType":"string","name":"_profileImageHash","type":"string"},{"internalType":"string","name":"_payslipHash","type":"string"}],"name":"createProfile","outputs":[],"stateMutability":"nonpayable","type":"function"},{"inputs":[],"name":"deactivateProfile","outputs":[],"stateMutability":"nonpayable","type":"function"},{"inputs":[{"internalType":"uint256","name":"_start","type":"uint256"},{"internalType":"uint256","name":"_limit","type":"uint256"}],"name":"getActiveUsers","outputs":[{"internalType":"address[]","name":"","type":"address[]"}],"stateMutability":"view","type":"function"},{"inputs":[],"name":"getMyProfile","outputs":[{"internalType":"string","name":"name","type":"string"},{"internalType":"uint256","name":"age","type":"uint256"},{"internalType":"string","name":"gender","type":"string"},{"internalType":"string","name":"bio","type":"string"},{"internalType":"string[]","name":"interests","type":"string[]"},{"internalType":"uint256","name":"monthlySalary","type":"uint256"},{"internalType":"string","name":"profileImageHash","type":"string"},{"internalType":"string","name":"payslipHash","type":"string"},{"internalType":"bool","name":"isVerified","type":"bool"},{"internalType":"bool","name":"isActive","type":"bool"},{"internalType":"uint256","name":"createdAt","type":"uint256"},{"internalType":"address","name":"userAddress","type":"address"}],"stateMutability":"view","type":"function"},{"inputs":[{"internalType":"address","name":"_user","type":"address"}],"name":"getProfile","outputs":[{"internalType":"string","name":"name","type":"string"},{"internalType":"uint256","name":"age","type":"uint256"},{"internalType":"string","name":"gender","type":"string"},{"internalType":"string","name":"bio","type":"string"},{"internalType":"string[]","name":"interests","type":"string[]"},{"internalType":"uint256","name":"monthlySalary","type":"uint256"},{"internalType":"string","name":"profileImageHash","type":"string"},{"internalType":"string","name":"payslipHash","type":"string"},{"internalType":"bool","name":"isVerified","type":"bool"},{"internalType":"bool","name":"isActive","type":"bool"},{"internalType":"uint256","name":"createdAt","type":"uint256"},{"internalType":"address","name":"userAddress","type":"address"}],"stateMutability":"view","type":"function"},{"inputs":[],"name":"getTotalUsers","outputs":[{"internalType":"uint256","name":"","type":"uint256"}],"stateMutability":"view","type":"function"},{"inputs":[{"internalType":"uint256","name":"_start","type":"uint256"},{"internalType":"uint256","name":"_limit","type":"uint256"}],"name":"getUsers","outputs":[{"internalType":"address[]","name":"","type":"address[]"}],"stateMutability":"view","type":"function"},{"inputs":[{"internalType":"address","name":"","type":"address"}],"name":"isRegistered","outputs":[{"internalType":"bool","name":"","type":"bool"}],"stateMutability":"view","type":"function"},{"inputs":[{"internalType":"address","name":"","type":"address"}],"name":"profiles","outputs":[{"internalType":"string","name":"name","type":"string"},{"internalType":"uint256","name":"age","type":"uint256"},{"internalType":"string","name":"gender","type":"string"},{"internalType":"string","name":"bio","type":"string"},{"internalType":"uint256","name":"monthlySalary","type":"uint256"},{"internalType":"string","name":"profileImageHash","type":"string"},{"internalType":"string","name":"payslipHash","type":"string"},{"internalType":"bool","name":"isVerified","type":"bool"},{"internalType":"bool","name":"isActive","type":"bool"},{"internalType":"uint256","name":"createdAt","type":"uint256"},{"internalType":"address","name":"userAddress","type":"address"}],"stateMutability":"view","type":"function"},{"inputs":[],"name":"reactivateProfile","outputs":[],"stateMutability":"nonpayable","type":"function"},{"inputs":[{"internalType":"uint256","name":"","type":"uint256"}],"name":"registeredUsers","outputs":[{"internalType":"address","name":"","type":"address"}],"stateMutability":"view","type":"function"},{"inputs":[{"internalType":"string","name":"_bio","type":"string"},{"internalType":"string[]","name":"_interests","type":"string[]"},{"internalType":"string","name":"_profileImageHash","type":"string"}],"name":"updateProfile","outputs":[],"stateMutability":"nonpayable","type":"function"},{"inputs":[{"internalType":"address","name":"_user","type":"address"}],"name":"verifyProfile","outputs":[],"stateMutability":"nonpayable","type":"function"}],"evm":{"bytecode":{"linkReferences":{},"object":"608060405234801561001057600080fd5b50611e11806100206000396000f3fe608060405234801561001057600080fd5b50600436106100ea5760003560e01c806387d3701a1161008c578063c3c5a54711610066578063c3c5a547146101e9578063dfaef6591461021c578063e2a412831461022f578063e91c3b9e1461025b57600080fd5b806387d3701a1461019b5780639be572f6146101ae578063bbe15627146101bf57600080fd5b806332c4227a116100c857806332c4227a1461013557806345982a66146101485780637259e0f81461016857806375db77211461019357600080fd5b80630f53a470146100ef57806320a17bca1461012357806321527e501461012d575b600080fd5b6101026100fd36600461161d565b61026e565b60405161011a9c9b9a999897969594939291906116eb565b60405180910390f35b61012b610789565b005b6101026107d5565b61012b61014336600461190d565b61084b565b61015b610156366004611a17565b610c62565b60405161011a9190611a39565b61017b610176366004611a86565b610da2565b6040516001600160a01b03909116815260200161011a565b61012b610dcc565b61012b6101a9366004611a9f565b610e1c565b60025460405190815260200161011a565b6101d26101cd36600461161d565b610fab565b60405161011a9b9a99989796959493929190611b27565b61020c6101f736600461161d565b60016020526000908152604090205460ff1681565b604051901515815260200161011a565b61012b61022a36600461161d565b6112b5565b61020c61023d36600461161d565b6001600160a01b031660009081526001602052604090205460ff1690565b61015b610269366004611a17565b611350565b6001600160a01b03811660009081526001602052604081205460609190829081908190849082908190839081908190819060ff166102c75760405162461bcd60e51b81526004016102be90611bd8565b60405180910390fd5b6001600160a01b038d16600090815260208190526040808220815161018081019092528054829082906102f990611c05565b80601f016020809104026020016040519081016040528092919081815260200182805461032590611c05565b80156103725780601f1061034757610100808354040283529160200191610372565b820191906000526020600020905b81548152906001019060200180831161035557829003601f168201915b505050505081526020016001820154815260200160028201805461039590611c05565b80601f01602080910402602001604051908101604052809291908181526020018280546103c190611c05565b801561040e5780601f106103e35761010080835404028352916020019161040e565b820191906000526020600020905b8154815290600101906020018083116103f157829003601f168201915b5050505050815260200160038201805461042790611c05565b80601f016020809104026020016040519081016040528092919081815260200182805461045390611c05565b80156104a05780601f10610475576101008083540402835291602001916104a0565b820191906000526020600020905b81548152906001019060200180831161048357829003601f168201915b5050505050815260200160048201805480602002602001604051908101604052809291908181526020016000905b8282101561057a5783829060005260206000200180546104ed90611c05565b80601f016020809104026020016040519081016040528092919081815260200182805461051990611c05565b80156105665780601f1061053b57610100808354040283529160200191610566565b820191906000526020600020905b81548152906001019060200180831161054957829003601f168201915b5050505050815260200190600101906104ce565b5050505081526020016005820154815260200160068201805461059c90611c05565b80601f01602080910402602001604051908101604052809291908181526020018280546105c890611c05565b80156106155780601f106105ea57610100808354040283529160200191610615565b820191906000526020600020905b8154815290600101906020018083116105f857829003601f168201915b5050505050815260200160078201805461062e90611c05565b80601f016020809104026020016040519081016040528092919081815260200182805461065a90611c05565b80156106a75780601f1061067c576101008083540402835291602001916106a7565b820191906000526020600020905b81548152906001019060200180831161068a57829003601f168201915b505050505081526020016008820160009054906101000a900460ff161515151581526020016008820160019054906101000a900460ff1615151515815260200160098201548152602001600a820160009054906101000a90046001600160a01b03166001600160a01b03166001600160a01b0316815250509050806000015181602001518260400151836060015184608001518560a001518660c001518760e001518861010001518961012001518a61014001518b61016001519c509c509c509c509c509c509c509c509c509c509c509c505091939597999b5091939597999b565b3360009081526001602052604090205460ff166107b85760405162461bcd60e51b81526004016102be90611bd8565b336000908152602081905260409020600801805461ff0019169055565b3360009081526001602052604081205460609190829081908190849082908190839081908190819060ff1661081c5760405162461bcd60e51b81526004016102be90611bd8565b6108253361026e565b9b509b509b509b509b509b509b509b509b509b509b509b50909192939495969798999a9b565b3360009081526001602052604090205460ff16156108ab5760405162461bcd60e51b815260206004820152601760248201527f5573657220616c7265616479207265676973746572656400000000000000000060448201526064016102be565b60008851116108f35760405162461bcd60e51b81526020600482015260146024820152734e616d652063616e6e6f7420626520656d70747960601b60448201526064016102be565b60128710158015610905575060648711155b6109515760405162461bcd60e51b815260206004820152601e60248201527f416765206d757374206265206265747765656e20313820616e6420313030000060448201526064016102be565b600086511161099b5760405162461bcd60e51b815260206004820152601660248201527547656e6465722063616e6e6f7420626520656d70747960501b60448201526064016102be565b60008551116109e25760405162461bcd60e51b815260206004820152601360248201527242696f2063616e6e6f7420626520656d70747960681b60448201526064016102be565b6000845111610a335760405162461bcd60e51b815260206004820152601e60248201527f4174206c65617374206f6e6520696e746572657374207265717569726564000060448201526064016102be565b60008311610a915760405162461bcd60e51b815260206004820152602560248201527f4d6f6e74686c792073616c617279206d75737420626520677265617465722074604482015264068616e20360dc1b60648201526084016102be565b6000825111610adb5760405162461bcd60e51b8152602060048201526016602482015275141c9bd99a5b19481a5b5859d9481c995c5d5a5c995960521b60448201526064016102be565b6000815111610b1f5760405162461bcd60e51b815260206004820152601060248201526f14185e5cdb1a5c081c995c5d5a5c995960821b60448201526064016102be565b33600090815260208190526040902080610b398a82611c8e565b506001810188905560028101610b4f8882611c8e565b5060038101610b5e8782611c8e565b508451610b749060048301906020880190611558565b506005810184905560068101610b8a8482611c8e565b5060078101610b998382611c8e565b5060088101805461ffff19166101001790554260098201819055600a820180546001600160a01b0319908116339081179092556000828152600160208190526040808320805460ff1916831790556002805492830181559092527f405787fa12a823e0f2b7631cc41b3ba8828b3321ca811111fa75cd3aa3bb5ace01805490921683179091555190917f25dbccf9f713a2b16ed5d635585b4778d0d7e66b7b631871e668a694131e5fad91610c4f918d91611d4e565b60405180910390a2505050505050505050565b6002546060908310610cb25760405162461bcd60e51b8152602060048201526019602482015278537461727420696e646578206f7574206f6620626f756e647360381b60448201526064016102be565b6000610cbe8385611d86565b600254909150811115610cd057506002545b6000610cdc8583611d99565b67ffffffffffffffff811115610cf457610cf46117b7565b604051908082528060200260200182016040528015610d1d578160200160208202803683370190505b509050845b82811015610d975760028181548110610d3d57610d3d611dac565b6000918252602090912001546001600160a01b031682610d5d8884611d99565b81518110610d6d57610d6d611dac565b6001600160a01b039092166020928302919091019091015280610d8f81611dc2565b915050610d22565b509150505b92915050565b60028181548110610db257600080fd5b6000918252602090912001546001600160a01b0316905081565b3360009081526001602052604090205460ff16610dfb5760405162461bcd60e51b81526004016102be90611bd8565b336000908152602081905260409020600801805461ff001916610100179055565b3360009081526001602052604090205460ff16610e4b5760405162461bcd60e51b81526004016102be90611bd8565b6000835111610e925760405162461bcd60e51b815260206004820152601360248201527242696f2063616e6e6f7420626520656d70747960681b60448201526064016102be565b6000825111610ee35760405162461bcd60e51b815260206004820152601e60248201527f4174206c65617374206f6e6520696e746572657374207265717569726564000060448201526064016102be565b6000815111610f2d5760405162461bcd60e51b8152602060048201526016602482015275141c9bd99a5b19481a5b5859d9481c995c5d5a5c995960521b60448201526064016102be565b33600090815260208190526040902060038101610f4a8582611c8e565b508251610f609060048301906020860190611558565b5060068101610f6f8382611c8e565b5060405142815233907f03754aecf8745159503d95ad9d4b5e5ec503371279ddc036d4ac93cd953f9de29060200160405180910390a250505050565b600060208190529081526040902080548190610fc690611c05565b80601f0160208091040260200160405190810160405280929190818152602001828054610ff290611c05565b801561103f5780601f106110145761010080835404028352916020019161103f565b820191906000526020600020905b81548152906001019060200180831161102257829003601f168201915b50505050509080600101549080600201805461105a90611c05565b80601f016020809104026020016040519081016040528092919081815260200182805461108690611c05565b80156110d35780601f106110a8576101008083540402835291602001916110d3565b820191906000526020600020905b8154815290600101906020018083116110b657829003601f168201915b5050505050908060030180546110e890611c05565b80601f016020809104026020016040519081016040528092919081815260200182805461111490611c05565b80156111615780601f1061113657610100808354040283529160200191611161565b820191906000526020600020905b81548152906001019060200180831161114457829003601f168201915b50505050509080600501549080600601805461117c90611c05565b80601f01602080910402602001604051908101604052809291908181526020018280546111a890611c05565b80156111f55780601f106111ca576101008083540402835291602001916111f5565b820191906000526020600020905b8154815290600101906020018083116111d857829003601f168201915b50505050509080600701805461120a90611c05565b80601f016020809104026020016040519081016040528092919081815260200182805461123690611c05565b80156112835780601f1061125857610100808354040283529160200191611283565b820191906000526020600020905b81548152906001019060200180831161126657829003601f168201915b50505060088401546009850154600a90950154939460ff8083169561010090930416935091506001600160a01b03168b565b6001600160a01b03811660009081526001602052604090205460ff166112ed5760405162461bcd60e51b81526004016102be90611bd8565b6001600160a01b03811660008181526020819052604090819020600801805460ff19166001179055517fc0717e006bb633cb129f18453a1dd090cb674eeb4e794327428cbc35919757d9906113459042815260200190565b60405180910390a250565b60025460609083106113a05760405162461bcd60e51b8152602060048201526019602482015278537461727420696e646578206f7574206f6620626f756e647360381b60448201526064016102be565b6000835b600254811080156113b457508382105b1561142557600080600283815481106113cf576113cf611dac565b60009182526020808320909101546001600160a01b0316835282019290925260400190206008015460ff6101009091041615611413578161140f81611dc2565b9250505b8061141d81611dc2565b9150506113a4565b5060008167ffffffffffffffff811115611441576114416117b7565b60405190808252806020026020018201604052801561146a578160200160208202803683370190505b5090506000855b6002548110801561148157508582105b1561154d576000806002838154811061149c5761149c611dac565b60009182526020808320909101546001600160a01b0316835282019290925260400190206008015460ff610100909104161561153b57600281815481106114e5576114e5611dac565b9060005260206000200160009054906101000a90046001600160a01b031683838151811061151557611515611dac565b6001600160a01b03909216602092830291909101909101528161153781611dc2565b9250505b8061154581611dc2565b915050611471565b509095945050505050565b82805482825590600052602060002090810192821561159e579160200282015b8281111561159e578251829061158e9082611c8e565b5091602001919060010190611578565b506115aa9291506115ae565b5090565b808211156115aa5760006115c282826115cb565b506001016115ae565b5080546115d790611c05565b6000825580601f106115e7575050565b601f0160209004906000526020600020908101906116059190611608565b50565b5b808211156115aa5760008155600101611609565b60006020828403121561162f57600080fd5b81356001600160a01b038116811461164657600080fd5b9392505050565b6000815180845260005b8181101561167357602081850181015186830182015201611657565b506000602082860101526020601f19601f83011685010191505092915050565b600082825180855260208086019550808260051b84010181860160005b848110156116de57601f198684030189526116cc83835161164d565b988401989250908301906001016116b0565b5090979650505050505050565b6101808152600061170061018083018f61164d565b8d60208401528281036040840152611718818e61164d565b9050828103606084015261172c818d61164d565b90508281036080840152611740818c611693565b90508960a084015282810360c084015261175a818a61164d565b905082810360e084015261176e818961164d565b91505061178061010083018715159052565b841515610120830152836101408301526117a66101608301846001600160a01b03169052565b9d9c50505050505050505050505050565b634e487b7160e01b600052604160045260246000fd5b604051601f8201601f1916810167ffffffffffffffff811182821017156117f6576117f66117b7565b604052919050565b600082601f83011261180f57600080fd5b813567ffffffffffffffff811115611829576118296117b7565b61183c601f8201601f19166020016117cd565b81815284602083860101111561185157600080fd5b816020850160208301376000918101602001919091529392505050565b600082601f83011261187f57600080fd5b8135602067ffffffffffffffff8083111561189c5761189c6117b7565b8260051b6118ab8382016117cd565b93845285810183019383810190888611156118c557600080fd5b84880192505b85831015611901578235848111156118e35760008081fd5b6118f18a87838c01016117fe565b83525091840191908401906118cb565b98975050505050505050565b600080600080600080600080610100898b03121561192a57600080fd5b883567ffffffffffffffff8082111561194257600080fd5b61194e8c838d016117fe565b995060208b0135985060408b013591508082111561196b57600080fd5b6119778c838d016117fe565b975060608b013591508082111561198d57600080fd5b6119998c838d016117fe565b965060808b01359150808211156119af57600080fd5b6119bb8c838d0161186e565b955060a08b0135945060c08b01359150808211156119d857600080fd5b6119e48c838d016117fe565b935060e08b01359150808211156119fa57600080fd5b50611a078b828c016117fe565b9150509295985092959890939650565b60008060408385031215611a2a57600080fd5b50508035926020909101359150565b6020808252825182820181905260009190848201906040850190845b81811015611a7a5783516001600160a01b031683529284019291840191600101611a55565b50909695505050505050565b600060208284031215611a9857600080fd5b5035919050565b600080600060608486031215611ab457600080fd5b833567ffffffffffffffff80821115611acc57600080fd5b611ad8878388016117fe565b94506020860135915080821115611aee57600080fd5b611afa8783880161186e565b93506040860135915080821115611b1057600080fd5b50611b1d868287016117fe565b9150509250925092565b6000610160808352611b3b8184018f61164d565b90508c60208401528281036040840152611b55818d61164d565b90508281036060840152611b69818c61164d565b905089608084015282810360a0840152611b83818a61164d565b905082810360c0840152611b97818961164d565b91505085151560e083015284151561010083015283610120830152611bc86101408301846001600160a01b03169052565b9c9b505050505050505050505050565b602080825260139082015272155cd95c881b9bdd081c9959da5cdd195c9959606a1b604082015260600190565b600181811c90821680611c1957607f821691505b602082108103611c3957634e487b7160e01b600052602260045260246000fd5b50919050565b601f821115611c8957600081815260208120601f850160051c81016020861015611c665750805b601f850160051c820191505b81811015611c8557828155600101611c72565b5050505b505050565b815167ffffffffffffffff811115611ca857611ca86117b7565b611cbc81611cb68454611c05565b84611c3f565b602080601f831160018114611cf15760008415611cd95750858301515b600019600386901b1c1916600185901b178555611c85565b600085815260208120601f198616915b82811015611d2057888601518255948401946001909101908401611d01565b5085821015611d3e5787850151600019600388901b60f8161c191681555b5050505050600190811b01905550565b604081526000611d61604083018561164d565b90508260208301529392505050565b634e487b7160e01b600052601160045260246000fd5b80820180821115610d9c57610d9c611d70565b81810381811115610d9c57610d9c611d70565b634e487b7160e01b600052603260045260246000fd5b600060018201611dd457611dd4611d70565b506001019056fea2646970667358221220c4ad538cacf97390406496fcbe950cffdeaa89ffc997bf601c59b861dbc0599664736f6c63430008130033","opcodes":"PUSH1 0x80 PUSH1 0x40 MSTORE CALLVALUE DUP1 ISZERO PUSH2 0x10 JUMPI PUSH1 0x0 DUP1 REVERT JUMPDEST POP PUSH2 0x1E11 DUP1 PUSH2 0x20 PUSH1 0x0 CODECOPY PUSH1 0x0 RETURN INVALID PUSH1 0x80 PUSH1 0x40 MSTORE CALLVALUE DUP1 ISZERO PUSH2 0x10 JUMPI PUSH1 0x0 DUP1 REVERT JUMPDEST POP PUSH1 0x4 CALLDATASIZE LT PUSH2 0xEA JUMPI PUSH1 0x0 CALLDATALOAD PUSH1 0xE0 SHR DUP1 PUSH4 0x87D3701A GT PUSH2 0x8C JUMPI DUP1 PUSH4 0xC3C5A547 GT PUSH2 0x66 JUMPI DUP1 PUSH4 0xC3C5A547 EQ PUSH2 0x1E9 JUMPI DUP1 PUSH4 0xDFAEF659 EQ PUSH2 0x21C JUMPI DUP1 PUSH4 0xE2A41283 EQ PUSH2 0x22F JUMPI DUP1 PUSH4 0xE91C3B9E EQ PUSH2 0x25B JUMPI PUSH1 0x0 DUP1 REVERT JUMPDEST DUP1 PUSH4 0x87D3701A EQ PUSH2 0x19B JUMPI DUP1 PUSH4 0x9BE572F6 EQ PUSH2 0x1AE JUMPI DUP1 PUSH4 0xBBE15627 EQ PUSH2 0x1BF JUMPI PUSH1 0x0 DUP1 REVERT JUMPDEST DUP1 PUSH4 0x32C4227A GT PUSH2 0xC8 JUMPI DUP1 PUSH4 0x32C4227A EQ PUSH2 0x135 JUMPI DUP1 PUSH4 0x45982A66 EQ PUSH2 0x148 JUMPI DUP1 PUSH4 0x7259E0F8 EQ PUSH2 0x168 JUMPI DUP1 PUSH4 0x75DB7721 EQ PUSH2 0x193 JUMPI PUSH1 0x0 DUP1 REVERT JUMPDEST DUP1 PUSH4 0xF53A470 EQ PUSH2 0xEF JUMPI DUP1 PUSH4 0x20A17BCA EQ PUSH2 0x123 JUMPI DUP1 PUSH4 0x21527E50 EQ PUSH2 0x12D JUMPI JUMPDEST PUSH1 0x0 DUP1 REVERT JUMPDEST PUSH2 0x102 PUSH2 0xFD CALLDATASIZE PUSH1 0x4 PUSH2 0x161D JUMP JUMPDEST PUSH2 0x26E JUMP JUMPDEST PUSH1 0x40 MLOAD PUSH2 0x11A SWAP13 SWAP12 SWAP11 SWAP10 SWAP9 SWAP8 SWAP7 SWAP6 SWAP5 SWAP4 SWAP3 SWAP2 SWAP1 PUSH2 0x16EB JUMP JUMPDEST PUSH1 0x40 MLOAD DUP1 SWAP2 SUB SWAP1 RETURN JUMPDEST PUSH2 0x12B PUSH2 0x789 JUMP JUMPDEST STOP JUMPDEST PUSH2 0x102 PUSH2 0x7D5 JUMP JUMPDEST PUSH2 0x12B PUSH2 0x143 CALLDATASIZE PUSH1 0x4 PUSH2 0x190D JUMP JUMPDEST PUSH2 0x84B JUMP JUMPDEST PUSH2 0x15B PUSH2 0x156 CALLDATASIZE PUSH1 0x4 PUSH2 0x1A17 JUMP JUMPDEST PUSH2 0xC62 JUMP JUMPDEST PUSH1 0x40 MLOAD PUSH2 0x11A SWAP2 SWAP1 PUSH2 0x1A39 JUMP JUMPDEST PUSH2 0x17B PUSH2 0x176 CALLDATASIZE PUSH1 0x4 PUSH2 0x1A86 JUMP JUMPDEST PUSH2 0xDA2 JUMP JUMPDEST PUSH1 0x40 MLOAD PUSH1 0x1 PUSH1 0x1 PUSH1 0xA0 SHL SUB SWAP1 SWAP2 AND DUP2 MSTORE PUSH1 0x20 ADD PUSH2 0x11A JUMP JUMPDEST PUSH2 0x12B PUSH2 0xDCC JUMP JUMPDEST PUSH2 0x12B PUSH2 0x1A9 CALLDATASIZE PUSH1 0x4 PUSH2 0x1A9F JUMP JUMPDEST PUSH2 0xE1C JUMP JUMPDEST PUSH1 0x2 SLOAD PUSH1 0x40 MLOAD SWAP1 DUP2 MSTORE PUSH1 0x20 ADD PUSH2 0x11A JUMP JUMPDEST PUSH2 0x1D2 PUSH2 0x1CD CALLDATASIZE PUSH1 0x4 PUSH2 0x161D JUMP JUMPDEST PUSH2 0xFAB JUMP JUMPDEST PUSH1 0x40 MLOAD PUSH2 0x11A SWAP12 SWAP11 SWAP10 SWAP9 SWAP8 SWAP7 SWAP6 SWAP5 SWAP4 SWAP3 SWAP2 SWAP1 PUSH2 0x1B27 JUMP JUMPDEST PUSH2 0x20C PUSH2 0x1F7 CALLDATASIZE PUSH1 0x4 PUSH2 0x161D JUMP JUMPDEST PUSH1 0x1 PUSH1 0x20 MSTORE PUSH1 0x0 SWAP1 DUP2 MSTORE PUSH1 0x40 SWAP1 KECCAK256 SLOAD PUSH1 0xFF AND DUP2 JUMP JUMPDEST PUSH1 0x40 MLOAD SWAP1 ISZERO ISZERO DUP2 MSTORE PUSH1 0x20 ADD PUSH2 0x11A JUMP JUMPDEST PUSH2 0x12B PUSH2 0x22A CALLDATASIZE PUSH1 0x4 PUSH2 0x161D JUMP JUMPDEST PUSH2 0x12B5 JUMP JUMPDEST PUSH2 0x20C PUSH2 0x23D CALLDATASIZE PUSH1 0x4 PUSH2 0x161D JUMP JUMPDEST PUSH1 0x1 PUSH1 0x1 PUSH1 0xA0 SHL SUB AND PUSH1 0x0 SWAP1 DUP2 MSTORE PUSH1 0x1 PUSH1 0x20 MSTORE PUSH1 0x40 SWAP1 KECCAK256 SLOAD PUSH1 0xFF AND SWAP1 JUMP JUMPDEST PUSH2 0x15B PUSH2 0x269 CALLDATASIZE PUSH1 0x4 PUSH2 0x1A17 JUMP JUMPDEST PUSH2 0x1350 JUMP JUMPDEST PUSH1 0x1 PUSH1 0x1 PUSH1 0xA0 SHL SUB DUP2 AND PUSH1 0x0 SWAP1 DUP2 MSTORE PUSH1 0x1 PUSH1 0x20 MSTORE PUSH1 0x40 DUP2 KECCAK256 SLOAD PUSH1 0x60 SWAP2 SWAP1 DUP3 SWAP1 DUP2 SWAP1 DUP2 SWAP1 DUP5 SWAP1 DUP3 SWAP1 DUP2 SWAP1 DUP4 SWAP1 DUP2 SWAP1 DUP2 SWAP1 DUP2 SWAP1 PUSH1 0xFF AND PUSH2 0x2C7 JUMPI PUSH1 0x40 MLOAD PUSH3 0x461BCD PUSH1 0xE5 SHL DUP2 MSTORE PUSH1 0x4 ADD PUSH2 0x2BE SWAP1 PUSH2 0x1BD8 JUMP JUMPDEST PUSH1 0x40 MLOAD DUP1 SWAP2 SUB SWAP1 REVERT JUMPDEST PUSH1 0x1 PUSH1 0x1 PUSH1 0xA0 SHL SUB DUP14 AND PUSH1 0x0 SWAP1 DUP2 MSTORE PUSH1 0x20 DUP2 SWAP1 MSTORE PUSH1 0x40 DUP1 DUP3 KECCAK256 DUP2 MLOAD PUSH2 0x180 DUP2 ADD SWAP1 SWAP3 MSTORE DUP1 SLOAD DUP3 SWAP1 DUP3 SWAP1 PUSH2 0x2F9 SWAP1 PUSH2 0x1C05 JUMP JUMPDEST DUP1 PUSH1 0x1F ADD PUSH1 0x20 DUP1 SWAP2 DIV MUL PUSH1 0x20 ADD PUSH1 0x40 MLOAD SWAP1 DUP2 ADD PUSH1 0x40 MSTORE DUP1 SWAP3 SWAP2 SWAP1 DUP2 DUP2 MSTORE PUSH1 0x20 ADD DUP3 DUP1 SLOAD PUSH2 0x325 SWAP1 PUSH2 0x1C05 JUMP JUMPDEST DUP1 ISZERO PUSH2 0x372 JUMPI DUP1 PUSH1 0x1F LT PUSH2 0x347 JUMPI PUSH2 0x100 DUP1 DUP4 SLOAD DIV MUL DUP4 MSTORE SWAP2 PUSH1 0x20 ADD SWAP2 PUSH2 0x372 JUMP JUMPDEST DUP3 ADD SWAP2 SWAP1 PUSH1 0x0 MSTORE PUSH1 0x20 PUSH1 0x0 KECCAK256 SWAP1 JUMPDEST DUP2 SLOAD DUP2 MSTORE SWAP1 PUSH1 0x1 ADD SWAP1 PUSH1 0x20 ADD DUP1 DUP4 GT PUSH2 0x355 JUMPI DUP3 SWAP1 SUB PUSH1 0x1F AND DUP3 ADD SWAP2 JUMPDEST POP POP POP POP POP DUP2 MSTORE PUSH1 0x20 ADD PUSH1 0x1 DUP3 ADD SLOAD DUP2 MSTORE PUSH1 0x20 ADD PUSH1 0x2 DUP3 ADD DUP1 SLOAD PUSH2 0x395 SWAP1 PUSH2 0x1C05 JUMP JUMPDEST DUP1 PUSH1 0x1F ADD PUSH1 0x20 DUP1 SWAP2 DIV MUL PUSH1 0x20 ADD PUSH1 0x40 MLOAD SWAP1 DUP2 ADD PUSH1 0x40 MSTORE DUP1 SWAP3 SWAP2 SWAP1 DUP2 DUP2 MSTORE PUSH1 0x20 ADD DUP3 DUP1 SLOAD PUSH2 0x3C1 SWAP1 PUSH2 0x1C05 JUMP JUMPDEST DUP1 ISZERO PUSH2 0x40E JUMPI DUP1 PUSH1 0x1F LT PUSH2 0x3E3 JUMPI PUSH2 0x100 DUP1 DUP4 SLOAD DIV MUL DUP4 MSTORE SWAP2 PUSH1 0x20 ADD SWAP2 PUSH2 0x40E JUMP JUMPDEST DUP3 ADD SWAP2 SWAP1 PUSH1 0x0 MSTORE PUSH1 0x20 PUSH1 0x0 KECCAK256 SWAP1 JUMPDEST DUP2 SLOAD DUP2 MSTORE SWAP1 PUSH1 0x1 ADD SWAP1 PUSH1 0x20 ADD DUP1 DUP4 GT PUSH2 0x3F1 JUMPI DUP3 SWAP1 SUB PUSH1 0x1F AND DUP3 ADD SWAP2 JUMPDEST POP POP POP POP POP DUP2 MSTORE PUSH1 0x20 ADD PUSH1 0x3 DUP3 ADD DUP1 SLOAD PUSH2 0x427 SWAP1 PUSH2 0x1C05 JUMP JUMPDEST DUP1 PUSH1 0x1F ADD PUSH1 0x20 DUP1 SWAP2 DIV MUL PUSH1 0x20 ADD PUSH1 0x40 MLOAD SWAP1 DUP2 ADD PUSH1 0x40 MSTORE DUP1 SWAP3 SWAP2 SWAP1 DUP2 DUP2 MSTORE PUSH1 0x20 ADD DUP3 DUP1 SLOAD PUSH2 0x453 SWAP1 PUSH2 0x1C05 JUMP JUMPDEST DUP1 ISZERO PUSH2 0x4A0 JUMPI DUP1 PUSH1 0x1F LT PUSH2 0x475 JUMPI PUSH2 0x100 DUP1 DUP4 SLOAD DIV MUL DUP4 MSTORE SWAP2 PUSH1 0x20 ADD SWAP2 PUSH2 0x4A0 JUMP JUMPDEST DUP3 ADD SWAP2 SWAP1 PUSH1 0x0 MSTORE PUSH1 0x20 PUSH1 0x0 KECCAK256 SWAP1 JUMPDEST DUP2 SLOAD DUP2 MSTORE SWAP1 PUSH1 0x1 ADD SWAP1 PUSH1 0x20 ADD DUP1 DUP4 GT PUSH2 0x483 JUMPI DUP3 SWAP1 SUB PUSH1 0x1F AND DUP3 ADD SWAP2 JUMPDEST POP POP POP POP POP DUP2 MSTORE PUSH1 0x20 ADD PUSH1 0x4 DUP3 ADD DUP1 SLOAD DUP1 PUSH1 0x20 MUL PUSH1 0x20 ADD PUSH1 0x40 MLOAD SWAP1 DUP2 ADD PUSH1 0x40 MSTORE DUP1 SWAP3 SWAP2 SWAP1 DUP2 DUP2 MSTORE PUSH1 0x20 ADD PUSH1 0x0 SWAP1 JUMPDEST DUP3 DUP3 LT ISZERO PUSH2 0x57A JUMPI DUP4 DUP3 SWAP1 PUSH1 0x0 MSTORE PUSH1 0x20 PUSH1 0x0 KECCAK256 ADD DUP1 SLOAD PUSH2 0x4ED SWAP1 PUSH2 0x1C05 JUMP JUMPDEST DUP1 PUSH1 0x1F ADD PUSH1 0x20 DUP1 SWAP2 DIV MUL PUSH1 0x20 ADD PUSH1 0x40 MLOAD SWAP1 DUP2 ADD PUSH1 0x40 MSTORE DUP1 SWAP3 SWAP2 SWAP1 DUP2 DUP2 MSTORE PUSH1 0x20 ADD DUP3 DUP1 SLOAD PUSH2 0x519 SWAP1 PUSH2 0x1C05 JUMP JUMPDEST DUP1 ISZERO PUSH2 0x566 JUMPI DUP1 PUSH1 0x1F LT PUSH2 0x53B JUMPI PUSH2 0x100 DUP1 DUP4 SLOAD DIV MUL DUP4 MSTORE SWAP2 PUSH1 0x20 ADD SWAP2 PUSH2 0x566 JUMP JUMPDEST DUP3 ADD SWAP2 SWAP1 PUSH1 0x0 MSTORE PUSH1 0x20 PUSH1 0x0 KECCAK256 SWAP1 JUMPDEST DUP2 SLOAD DUP2 MSTORE SWAP1 PUSH1 0x1 ADD SWAP1 PUSH1 0x20 ADD DUP1 DUP4 GT PUSH2 0x549 JUMPI DUP3 SWAP1 SUB PUSH1 0x1F AND DUP3 ADD SWAP2 JUMPDEST POP POP POP POP POP DUP2 MSTORE PUSH1 0x20 ADD SWAP1 PUSH1 0x1 ADD SWAP1 PUSH2 0x4CE JUMP JUMPDEST POP POP POP POP DUP2 MSTORE PUSH1 0x20 ADD PUSH1 0x5 DUP3 ADD SLOAD DUP2 MSTORE PUSH1 0x20 ADD PUSH1 0x6 DUP3 ADD DUP1 SLOAD PUSH2 0x59C SWAP1 PUSH2 0x1C05 JUMP JUMPDEST DUP1 PUSH1 0x1F ADD PUSH1 0x20 DUP1 SWAP2 DIV MUL PUSH1 0x20 ADD PUSH1 0x40 MLOAD SWAP1 DUP2 ADD PUSH1 0x40 MSTORE DUP1 SWAP3 SWAP2 SWAP1 DUP2 DUP2 MSTORE PUSH1 0x20 ADD DUP3 DUP1 SLOAD PUSH2 0x5C8 SWAP1 PUSH2 0x1C05 JUMP JUMPDEST DUP1 ISZERO PUSH2 0x615 JUMPI DUP1 PUSH1 0x1F LT PUSH2 0x5EA JUMPI PUSH2 0x100 DUP1 DUP4 SLOAD DIV MUL DUP4 MSTORE SWAP2 PUSH1 0x20 ADD SWAP2 PUSH2 0x615 JUMP JUMPDEST DUP3 ADD SWAP2 SWAP1 PUSH1 0x0 MSTORE PUSH1 0x20 PUSH1 0x0 KECCAK256 SWAP1 JUMPDEST DUP2 SLOAD DUP2 MSTORE SWAP1 PUSH1 0x1 ADD SWAP1 PUSH1 0x20 ADD DUP1 DUP4 GT PUSH2 0x5F8 JUMPI DUP3 SWAP1 SUB PUSH1 0x1F AND DUP3 ADD SWAP2 JUMPDEST POP POP POP POP POP DUP2 MSTORE PUSH1 0x20 ADD PUSH1 0x7 DUP3 ADD DUP1 SLOAD PUSH2 0x62E SWAP1 PUSH2 0x1C05 JUMP JUMPDEST DUP1 PUSH1 0x1F ADD PUSH1 0x20 DUP1 SWAP2 DIV MUL PUSH1 0x20 ADD PUSH1 0x40 MLOAD SWAP1 DUP2 ADD PUSH1 0x40 MSTORE DUP1 SWAP3 SWAP2 SWAP1 DUP2 DUP2 MSTORE PUSH1 0x20 ADD DUP3 DUP1 SLOAD PUSH2 0x65A SWAP1 PUSH2 0x1C05 JUMP JUMPDEST DUP1 ISZERO PUSH2 0x6A7 JUMPI DUP1 PUSH1 0x1F LT PUSH2 0x67C JUMPI PUSH2 0x100 DUP1 DUP4 SLOAD DIV MUL DUP4 MSTORE SWAP2 PUSH1 0x20 ADD SWAP2 PUSH2 0x6A7 JUMP JUMPDEST DUP3 ADD SWAP2 SWAP1 PUSH1 0x0 MSTORE PUSH1 0x20 PUSH1 0x0 KECCAK256 SWAP1 JUMPDEST DUP2 SLOAD DUP2 MSTORE SWAP1 PUSH1 0x1 ADD SWAP1 PUSH1 0x20 ADD DUP1 DUP4 GT PUSH2 0x68A JUMPI DUP3 SWAP1 SUB PUSH1 0x1F AND DUP3 ADD SWAP2 JUMPDEST POP POP POP POP POP DUP2 MSTORE PUSH1 0x20 ADD PUSH1 0x8 DUP3 ADD PUSH1 0x0 SWAP1 SLOAD SWAP1 PUSH2 0x100 EXP SWAP1 DIV PUSH1 0xFF AND ISZERO ISZERO ISZERO ISZERO DUP2 MSTORE PUSH1 0x20 ADD PUSH1 0x8 DUP3 ADD PUSH1 0x1 SWAP1 SLOAD SWAP1 PUSH2 0x100 EXP SWAP1 DIV PUSH1 0xFF AND ISZERO ISZERO ISZERO ISZERO DUP2 MSTORE PUSH1 0x20 ADD PUSH1 0x9 DUP3 ADD SLOAD DUP2 MSTORE PUSH1 0x20 ADD PUSH1 0xA DUP3 ADD PUSH1 0x0 SWAP1 SLOAD SWAP1 PUSH2 0x100 EXP SWAP1 DIV PUSH1 0x1 PUSH1 0x1 PUSH1 0xA0 SHL SUB AND PUSH1 0x1 PUSH1 0x1 PUSH1 0xA0 SHL SUB AND PUSH1 0x1 PUSH1 0x1 PUSH1 0xA0 SHL SUB AND DUP2 MSTORE POP POP SWAP1 POP DUP1 PUSH1 0x0 ADD MLOAD DUP2 PUSH1 0x20 ADD MLOAD DUP3 PUSH1 0x40 ADD MLOAD DUP4 PUSH1 0x60 ADD MLOAD DUP5 PUSH1 0x80 ADD MLOAD DUP6 PUSH1 0xA0 ADD MLOAD DUP7 PUSH1 0xC0 ADD MLOAD DUP8 PUSH1 0xE0 ADD MLOAD DUP9 PUSH2 0x100 ADD MLOAD DUP10 PUSH2 0x120 ADD MLOAD DUP11 PUSH2 0x140 ADD MLOAD DUP12 PUSH2 0x160 ADD MLOAD SWAP13 POP SWAP13 POP SWAP13 POP SWAP13 POP SWAP13 POP SWAP13 POP SWAP13 POP SWAP13 POP SWAP13 POP SWAP13 POP SWAP13 POP SWAP13 POP POP SWAP2 SWAP4 SWAP6 SWAP8 SWAP10 SWAP12 POP SWAP2 SWAP4 SWAP6 SWAP8 SWAP10 SWAP12 JUMP JUMPDEST CALLER PUSH1 0x0 SWAP1 DUP2 MSTORE PUSH1 0x1 PUSH1 0x20 MSTORE PUSH1 0x40 SWAP1 KECCAK256 SLOAD PUSH1 0xFF AND PUSH2 0x7B8 JUMPI PUSH1 0x40 MLOAD PUSH3 0x461BCD PUSH1 0xE5 SHL DUP2 MSTORE PUSH1 0x4 ADD PUSH2 0x2BE SWAP1 PUSH2 0x1BD8 JUMP JUMPDEST CALLER PUSH1 0x0 SWAP1 DUP2 MSTORE PUSH1 0x20 DUP2 SWAP1 MSTORE PUSH1 0x40 SWAP1 KECCAK256 PUSH1 0x8 ADD DUP1 SLOAD PUSH2 0xFF00 NOT AND SWAP1 SSTORE JUMP JUMPDEST CALLER PUSH1 0x0 SWAP1 DUP2 MSTORE PUSH1 0x1 PUSH1 0x20 MSTORE PUSH1 0x40 DUP2 KECCAK256 SLOAD PUSH1 0x60 SWAP2 SWAP1 DUP3 SWAP1 DUP2 SWAP1 DUP2 SWAP1 DUP5 SWAP1 DUP3 SWAP1 DUP2 SWAP1 DUP4 SWAP1 DUP2 SWAP1 DUP2 SWAP1 DUP2 SWAP1 PUSH1 0xFF AND PUSH2 0x81C JUMPI PUSH1 0x40 MLOAD PUSH3 0x461BCD PUSH1 0xE5 SHL DUP2 MSTORE PUSH1 0x4 ADD PUSH2 0x2BE SWAP1 PUSH2 0x1BD8 JUMP JUMPDEST PUSH2 0x825 CALLER PUSH2 0x26E JUMP JUMPDEST SWAP12 POP SWAP12 POP SWAP12 POP SWAP12 POP SWAP12 POP SWAP12 POP SWAP12 POP SWAP12 POP SWAP12 POP SWAP12 POP SWAP12 POP SWAP12 POP SWAP1 SWAP2 SWAP3 SWAP4 SWAP5 SWAP6 SWAP7 SWAP8 SWAP9 SWAP10 SWAP11 SWAP12 JUMP JUMPDEST CALLER PUSH1 0x0 SWAP1 DUP2 MSTORE PUSH1 0x1 PUSH1 0x20 MSTORE PUSH1 0x40 SWAP1 KECCAK256 SLOAD PUSH1 0xFF AND ISZERO PUSH2 0x8AB JUMPI PUSH1 0x40 MLOAD PUSH3 0x461BCD PUSH1 0xE5 SHL DUP2 MSTORE PUSH1 0x20 PUSH1 0x4 DUP3 ADD MSTORE PUSH1 0x17 PUSH1 0x24 DUP3 ADD MSTORE PUSH32 0x5573657220616C72656164792072656769737465726564000000000000000000 PUSH1 0x44 DUP3 ADD MSTORE PUSH1 0x64 ADD PUSH2 0x2BE JUMP JUMPDEST PUSH1 0x0 DUP9 MLOAD GT PUSH2 0x8F3 JUMPI PUSH1 0x40 MLOAD PUSH3 0x461BCD PUSH1 0xE5 SHL DUP2 MSTORE PUSH1 0x20 PUSH1 0x4 DUP3 ADD MSTORE PUSH1 0x14 PUSH1 0x24 DUP3 ADD MSTORE PUSH20 0x4E616D652063616E6E6F7420626520656D707479 PUSH1 0x60 SHL PUSH1 0x44 DUP3 ADD MSTORE PUSH1 0x64 ADD PUSH2 0x2BE JUMP JUMPDEST PUSH1 0x12 DUP8 LT ISZERO DUP1 ISZERO PUSH2 0x905 JUMPI POP PUSH1 0x64 DUP8 GT ISZERO JUMPDEST PUSH2 0x951 JUMPI PUSH1 0x40 MLOAD PUSH3 0x461BCD PUSH1 0xE5 SHL DUP2 MSTORE PUSH1 0x20 PUSH1 0x4 DUP3 ADD MSTORE PUSH1 0x1E PUSH1 0x24 DUP3 ADD MSTORE PUSH32 0x416765206D757374206265206265747765656E20313820616E64203130300000 PUSH1 0x44 DUP3 ADD MSTORE PUSH1 0x64 ADD PUSH2 0x2BE JUMP JUMPDEST PUSH1 0x0 DUP7 MLOAD GT PUSH2 0x99B JUMPI PUSH1 0x40 MLOAD PUSH3 0x461BCD PUSH1 0xE5 SHL DUP2 MSTORE PUSH1 0x20 PUSH1 0x4 DUP3 ADD MSTORE PUSH1 0x16 PUSH1 0x24 DUP3 ADD MSTORE PUSH22 0x47656E6465722063616E6E6F7420626520656D707479 PUSH1 0x50 SHL PUSH1 0x44 DUP3 ADD MSTORE PUSH1 0x64 ADD PUSH2 0x2BE JUMP JUMPDEST PUSH1 0x0 DUP6 MLOAD GT PUSH2 0x9E2 JUMPI PUSH1 0x40 MLOAD PUSH3 0x461BCD PUSH1 0xE5 SHL DUP2 MSTORE PUSH1 0x20 PUSH1 0x4 DUP3 ADD MSTORE PUSH1 0x13 PUSH1 0x24 DUP3 ADD MSTORE PUSH19 0x42696F2063616E6E6F7420626520656D707479 PUSH1 0x68 SHL PUSH1 0x44 DUP3 ADD MSTORE PUSH1 0x64 ADD PUSH2 0x2BE JUMP JUMPDEST PUSH1 0x0 DUP5 MLOAD GT PUSH2 0xA33 JUMPI PUSH1 0x40 MLOAD PUSH3 0x461BCD PUSH1 0xE5 SHL DUP2 MSTORE PUSH1 0x20 PUSH1 0x4 DUP3 ADD MSTORE PUSH1 0x1E PUSH1 0x24 DUP3 ADD MSTORE PUSH32 0x4174206C65617374206F6E6520696E7465726573742072657175697265640000 PUSH1 0x44 DUP3 ADD MSTORE PUSH1 0x64 ADD PUSH2 0x2BE JUMP JUMPDEST PUSH1 0x0 DUP4 GT PUSH2 0xA91 JUMPI PUSH1 0x40 MLOAD PUSH3 0x461BCD PUSH1 0xE5 SHL DUP2 MSTORE PUSH1 0x20 PUSH1 0x4 DUP3 ADD MSTORE PUSH1 0x25 PUSH1 0x24 DUP3 ADD MSTORE PUSH32 0x4D6F6E74686C792073616C617279206D75737420626520677265617465722074 PUSH1 0x44 DUP3 ADD MSTORE PUSH5 0x68616E203 PUSH1 0xDC SHL PUSH1 0x64 DUP3 ADD MSTORE PUSH1 0x84 ADD PUSH2 0x2BE JUMP JUMPDEST PUSH1 0x0 DUP3 MLOAD GT PUSH2 0xADB JUMPI PUSH1 0x40 MLOAD PUSH3 0x461BCD PUSH1 0xE5 SHL DUP2 MSTORE PUSH1 0x20 PUSH1 0x4 DUP3 ADD MSTORE PUSH1 0x16 PUSH1 0x24 DUP3 ADD MSTORE PUSH22 0x141C9BD99A5B19481A5B5859D9481C995C5D5A5C9959 PUSH1 0x52 SHL PUSH1 0x44 DUP3 ADD MSTORE PUSH1 0x64 ADD PUSH2 0x2BE JUMP JUMPDEST PUSH1 0x0 DUP2 MLOAD GT PUSH2 0xB1F JUMPI PUSH1 0x40 MLOAD PUSH3 0x461BCD PUSH1 0xE5 SHL DUP2 MSTORE PUSH1 0x20 PUSH1 0x4 DUP3 ADD MSTORE PUSH1 0x10 PUSH1 0x24 DUP3 ADD MSTORE PUSH16 0x14185E5CDB1A5C081C995C5D5A5C9959 PUSH1 0x82 SHL PUSH1 0x44 DUP3 ADD MSTORE PUSH1 0x64 ADD PUSH2 0x2BE JUMP JUMPDEST CALLER PUSH1 0x0 SWAP1 DUP2 MSTORE PUSH1 0x20 DUP2 SWAP1 MSTORE PUSH1 0x40 SWAP1 KECCAK256 DUP1 PUSH2 0xB39 DUP11 DUP3 PUSH2 0x1C8E JUMP JUMPDEST POP PUSH1 0x1 DUP2 ADD DUP9 SWAP1 SSTORE PUSH1 0x2 DUP2 ADD PUSH2 0xB4F DUP9 DUP3 PUSH2 0x1C8E JUMP JUMPDEST POP PUSH1 0x3 DUP2 ADD PUSH2 0xB5E DUP8 DUP3 PUSH2 0x1C8E JUMP JUMPDEST POP DUP5 MLOAD PUSH2 0xB74 SWAP1 PUSH1 0x4 DUP4 ADD SWAP1 PUSH1 0x20 DUP9 ADD SWAP1 PUSH2 0x1558 JUMP JUMPDEST POP PUSH1 0x5 DUP2 ADD DUP5 SWAP1 SSTORE PUSH1 0x6 DUP2 ADD PUSH2 0xB8A DUP5 DUP3 PUSH2 0x1C8E JUMP JUMPDEST POP PUSH1 0x7 DUP2 ADD PUSH2 0xB99 DUP4 DUP3 PUSH2 0x1C8E JUMP JUMPDEST POP PUSH1 0x8 DUP2 ADD DUP1 SLOAD PUSH2 0xFFFF NOT AND PUSH2 0x100 OR SWAP1 SSTORE TIMESTAMP PUSH1 0x9 DUP3 ADD DUP2 SWAP1 SSTORE PUSH1 0xA DUP3 ADD DUP1 SLOAD PUSH1 0x1 PUSH1 0x1 PUSH1 0xA0 SHL SUB NOT SWAP1 DUP2 AND CALLER SWAP1 DUP2 OR SWAP1 SWAP3 SSTORE PUSH1 0x0 DUP3 DUP2 MSTORE PUSH1 0x1 PUSH1 0x20 DUP2 SWAP1 MSTORE PUSH1 0x40 DUP1 DUP4 KECCAK256 DUP1 SLOAD PUSH1 0xFF NOT AND DUP4 OR SWAP1 SSTORE PUSH1 0x2 DUP1 SLOAD SWAP3 DUP4 ADD DUP2 SSTORE SWAP1 SWAP3 MSTORE PUSH32 0x405787FA12A823E0F2B7631CC41B3BA8828B3321CA811111FA75CD3AA3BB5ACE ADD DUP1 SLOAD SWAP1 SWAP3 AND DUP4 OR SWAP1 SWAP2 SSTORE MLOAD SWAP1 SWAP2 PUSH32 0x25DBCCF9F713A2B16ED5D635585B4778D0D7E66B7B631871E668A694131E5FAD SWAP2 PUSH2 0xC4F SWAP2 DUP14 SWAP2 PUSH2 0x1D4E JUMP JUMPDEST PUSH1 0x40 MLOAD DUP1 SWAP2 SUB SWAP1 LOG2 POP POP POP POP POP POP POP POP POP JUMP JUMPDEST PUSH1 0x2 SLOAD PUSH1 0x60 SWAP1 DUP4 LT PUSH2 0xCB2 JUMPI PUSH1 0x40 MLOAD PUSH3 0x461BCD PUSH1 0xE5 SHL DUP2 MSTORE PUSH1 0x20 PUSH1 0x4 DUP3 ADD MSTORE PUSH1 0x19 PUSH1 0x24 DUP3 ADD MSTORE PUSH25 0x537461727420696E646578206F7574206F6620626F756E6473 PUSH1 0x38 SHL PUSH1 0x44 DUP3 ADD MSTORE PUSH1 0x64 ADD PUSH2 0x2BE JUMP JUMPDEST PUSH1 0x0 PUSH2 0xCBE DUP4 DUP6 PUSH2 0x1D86 JUMP JUMPDEST PUSH1 0x2 SLOAD SWAP1 SWAP2 POP DUP2 GT ISZERO PUSH2 0xCD0 JUMPI POP PUSH1 0x2 SLOAD JUMPDEST PUSH1 0x0 PUSH2 0xCDC DUP6 DUP4 PUSH2 0x1D99 JUMP JUMPDEST PUSH8 0xFFFFFFFFFFFFFFFF DUP2 GT ISZERO PUSH2 0xCF4 JUMPI PUSH2 0xCF4 PUSH2 0x17B7 JUMP JUMPDEST PUSH1 0x40 MLOAD SWAP1 DUP1 DUP3 MSTORE DUP1 PUSH1 0x20 MUL PUSH1 0x20 ADD DUP3 ADD PUSH1 0x40 MSTORE DUP1 ISZERO PUSH2 0xD1D JUMPI DUP2 PUSH1 0x20 ADD PUSH1 0x20 DUP3 MUL DUP1 CALLDATASIZE DUP4 CALLDATACOPY ADD SWAP1 POP JUMPDEST POP SWAP1 POP DUP5 JUMPDEST DUP3 DUP2 LT ISZERO PUSH2 0xD97 JUMPI PUSH1 0x2 DUP2 DUP2 SLOAD DUP2 LT PUSH2 0xD3D JUMPI PUSH2 0xD3D PUSH2 0x1DAC JUMP JUMPDEST PUSH1 0x0 SWAP2 DUP3 MSTORE PUSH1 0x20 SWAP1 SWAP2 KECCAK256 ADD SLOAD PUSH1 0x1 PUSH1 0x1 PUSH1 0xA0 SHL SUB AND DUP3 PUSH2 0xD5D DUP9 DUP5 PUSH2 0x1D99 JUMP JUMPDEST DUP2 MLOAD DUP2 LT PUSH2 0xD6D JUMPI PUSH2 0xD6D PUSH2 0x1DAC JUMP JUMPDEST PUSH1 0x1 PUSH1 0x1 PUSH1 0xA0 SHL SUB SWAP1 SWAP3 AND PUSH1 0x20 SWAP3 DUP4 MUL SWAP2 SWAP1 SWAP2 ADD SWAP1 SWAP2 ADD MSTORE DUP1 PUSH2 0xD8F DUP2 PUSH2 0x1DC2 JUMP JUMPDEST SWAP2 POP POP PUSH2 0xD22 JUMP JUMPDEST POP SWAP2 POP POP JUMPDEST SWAP3 SWAP2 POP POP JUMP JUMPDEST PUSH1 0x2 DUP2 DUP2 SLOAD DUP2 LT PUSH2 0xDB2 JUMPI PUSH1 0x0 DUP1 REVERT JUMPDEST PUSH1 0x0 SWAP2 DUP3 MSTORE PUSH1 0x20 SWAP1 SWAP2 KECCAK256 ADD SLOAD PUSH1 0x1 PUSH1 0x1 PUSH1 0xA0 SHL SUB AND SWAP1 POP DUP2 JUMP JUMPDEST CALLER PUSH1 0x0 SWAP1 DUP2 MSTORE PUSH1 0x1 PUSH1 0x20 MSTORE PUSH1 0x40 SWAP1 KECCAK256 SLOAD PUSH1 0xFF AND PUSH2 0xDFB JUMPI PUSH1 0x40 MLOAD PUSH3 0x461BCD PUSH1 0xE5 SHL DUP2 MSTORE PUSH1 0x4 ADD PUSH2 0x2BE SWAP1 PUSH2 0x1BD8 JUMP JUMPDEST CALLER PUSH1 0x0 SWAP1 DUP2 MSTORE PUSH1 0x20 DUP2 SWAP1 MSTORE PUSH1 0x40 SWAP1 KECCAK256 PUSH1 0x8 ADD DUP1 SLOAD PUSH2 0xFF00 NOT AND PUSH2 0x100 OR SWAP1 SSTORE JUMP JUMPDEST CALLER PUSH1 0x0 SWAP1 DUP2 MSTORE PUSH1 0x1 PUSH1 0x20 MSTORE PUSH1 0x40 SWAP1 KECCAK256 SLOAD PUSH1 0xFF AND PUSH2 0xE4B JUMPI PUSH1 0x40 MLOAD PUSH3 0x461BCD PUSH1 0xE5 SHL DUP2 MSTORE PUSH1 0x4 ADD PUSH2 0x2BE SWAP1 PUSH2 0x1BD8 JUMP JUMPDEST PUSH1 0x0 DUP4 MLOAD GT PUSH2 0xE92 JUMPI PUSH1 0x40 MLOAD PUSH3 0x461BCD PUSH1 0xE5 SHL DUP2 MSTORE PUSH1 0x20 PUSH1 0x4 DUP3 ADD MSTORE PUSH1 0x13 PUSH1 0x24 DUP3 ADD MSTORE PUSH19 0x42696F2063616E6E6F7420626520656D707479 PUSH1 0x68 SHL PUSH1 0x44 DUP3 ADD MSTORE PUSH1 0x64 ADD PUSH2 0x2BE JUMP JUMPDEST PUSH1 0x0 DUP3 MLOAD GT PUSH2 0xEE3 JUMPI PUSH1 0x40 MLOAD PUSH3 0x461BCD PUSH1 0xE5 SHL DUP2 MSTORE PUSH1 0x20 PUSH1 0x4 DUP3 ADD MSTORE PUSH1 0x1E PUSH1 0x24 DUP3 ADD MSTORE PUSH32 0x4174206C65617374206F6E6520696E7465726573742072657175697265640000 PUSH1 0x44 DUP3 ADD MSTORE PUSH1 0x64 ADD PUSH2 0x2BE JUMP JUMPDEST PUSH1 0x0 DUP2 MLOAD GT PUSH2 0xF2D JUMPI PUSH1 0x40 MLOAD PUSH3 0x461BCD PUSH1 0xE5 SHL DUP2 MSTORE PUSH1 0x20 PUSH1 0x4 DUP3 ADD MSTORE PUSH1 0x16 PUSH1 0x24 DUP3 ADD MSTORE PUSH22 0x141C9BD99A5B19481A5B5859D9481C995C5D5A5C9959 PUSH1 0x52 SHL PUSH1 0x44 DUP3 ADD MSTORE PUSH1 0x64 ADD PUSH2 0x2BE JUMP JUMPDEST CALLER PUSH1 0x0 SWAP1 DUP2 MSTORE PUSH1 0x20 DUP2 SWAP1 MSTORE PUSH1 0x40 SWAP1 KECCAK256 PUSH1 0x3 DUP2 ADD PUSH2 0xF4A DUP6 DUP3 PUSH2 0x1C8E JUMP JUMPDEST POP DUP3 MLOAD PUSH2 0xF60 SWAP1 PUSH1 0x4 DUP4 ADD SWAP1 PUSH1 0x20 DUP7 ADD SWAP1 PUSH2 0x1558 JUMP JUMPDEST POP PUSH1 0x6 DUP2 ADD PUSH2 0xF6F DUP4 DUP3 PUSH2 0x1C8E JUMP JUMPDEST POP PUSH1 0x40 MLOAD TIMESTAMP DUP2 MSTORE CALLER SWAP1 PUSH32 0x3754AECF8745159503D95AD9D4B5E5EC503371279DDC036D4AC93CD953F9DE2 SWAP1 PUSH1 0x20 ADD PUSH1 0x40 MLOAD DUP1 SWAP2 SUB SWAP1 LOG2 POP POP POP POP JUMP JUMPDEST PUSH1 0x0 PUSH1 0x20 DUP2 SWAP1 MSTORE SWAP1 DUP2 MSTORE PUSH1 0x40 SWAP1 KECCAK256 DUP1 SLOAD DUP2 SWAP1 PUSH2 0xFC6 SWAP1 PUSH2 0x1C05 JUMP JUMPDEST DUP1 PUSH1 0x1F ADD PUSH1 0x20 DUP1 SWAP2 DIV MUL PUSH1 0x20 ADD PUSH1 0x40 MLOAD SWAP1 DUP2 ADD PUSH1 0x40 MSTORE DUP1 SWAP3 SWAP2 SWAP1 DUP2 DUP2 MSTORE PUSH1 0x20 ADD DUP3 DUP1 SLOAD PUSH2 0xFF2 SWAP1 PUSH2 0x1C05 JUMP JUMPDEST DUP1 ISZERO PUSH2 0x103F JUMPI DUP1 PUSH1 0x1F LT PUSH2 0x1014 JUMPI PUSH2 0x100 DUP1 DUP4 SLOAD DIV MUL DUP4 MSTORE SWAP2 PUSH1 0x20 ADD SWAP2 PUSH2 0x103F JUMP JUMPDEST DUP3 ADD SWAP2 SWAP1 PUSH1 0x0 MSTORE PUSH1 0x20 PUSH1 0x0 KECCAK256 SWAP1 JUMPDEST DUP2 SLOAD DUP2 MSTORE SWAP1 PUSH1 0x1 ADD SWAP1 PUSH1 0x20 ADD DUP1 DUP4 GT PUSH2 0x1022 JUMPI DUP3 SWAP1 SUB PUSH1 0x1F AND DUP3 ADD SWAP2 JUMPDEST POP POP POP POP POP SWAP1 DUP1 PUSH1 0x1 ADD SLOAD SWAP1 DUP1 PUSH1 0x2 ADD DUP1 SLOAD PUSH2 0x105A SWAP1 PUSH2 0x1C05 JUMP JUMPDEST DUP1 PUSH1 0x1F ADD PUSH1 0x20 DUP1 SWAP2 DIV MUL PUSH1 0x20 ADD PUSH1 0x40 MLOAD SWAP1 DUP2 ADD PUSH1 0x40 MSTORE DUP1 SWAP3 SWAP2 SWAP1 DUP2 DUP2 MSTORE PUSH1 0x20 ADD DUP3 DUP1 SLOAD PUSH2 0x1086 SWAP1 PUSH2 0x1C05 JUMP JUMPDEST DUP1 ISZERO PUSH2 0x10D3 JUMPI DUP1 PUSH1 0x1F LT PUSH2 0x10A8 JUMPI PUSH2 0x100 DUP1 DUP4 SLOAD DIV MUL DUP4 MSTORE SWAP2 PUSH1 0x20 ADD SWAP2 PUSH2 0x10D3 JUMP JUMPDEST DUP3 ADD SWAP2 SWAP1 PUSH1 0x0 MSTORE PUSH1 0x20 PUSH1 0x0 KECCAK256 SWAP1 JUMPDEST DUP2 SLOAD DUP2 MSTORE SWAP1 PUSH1 0x1 ADD SWAP1 PUSH1 0x20 ADD DUP1 DUP4 GT PUSH2 0x10B6 JUMPI DUP3 SWAP1 SUB PUSH1 0x1F AND DUP3 ADD SWAP2 JUMPDEST POP POP POP POP POP SWAP1 DUP1 PUSH1 0x3 ADD DUP1 SLOAD PUSH2 0x10E8 SWAP1 PUSH2 0x1C05 JUMP JUMPDEST DUP1 PUSH1 0x1F ADD PUSH1 0x20 DUP1 SWAP2 DIV MUL PUSH1 0x20 ADD PUSH1 0x40 MLOAD SWAP1 DUP2 ADD PUSH1 0x40 MSTORE DUP1 SWAP3 SWAP2 SWAP1 DUP2 DUP2 MSTORE PUSH1 0x20 ADD DUP3 DUP1 SLOAD PUSH2 0x1114 SWAP1 PUSH2 0x1C05 JUMP JUMPDEST DUP1 ISZERO PUSH2 0x1161 JUMPI DUP1 PUSH1 0x1F LT PUSH2 0x1136 JUMPI PUSH2 0x100 DUP1 DUP4 SLOAD DIV MUL DUP4 MSTORE SWAP2 PUSH1 0x20 ADD SWAP2 PUSH2 0x1161 JUMP JUMPDEST DUP3 ADD SWAP2 SWAP1 PUSH1 0x0 MSTORE PUSH1 0x20 PUSH1 0x0 KECCAK256 SWAP1 JUMPDEST DUP2 SLOAD DUP2 MSTORE SWAP1 PUSH1 0x1 ADD SWAP1 PUSH1 0x20 ADD DUP1 DUP4 GT PUSH2 0x1144 JUMPI DUP3 SWAP1 SUB PUSH1 0x1F AND DUP3 ADD SWAP2 JUMPDEST POP POP POP POP POP SWAP1 DUP1 PUSH1 0x5 ADD SLOAD SWAP1 DUP1 PUSH1 0x6 ADD DUP1 SLOAD PUSH2 0x117C SWAP1 PUSH2 0x1C05 JUMP JUMPDEST DUP1 PUSH1 0x1F ADD PUSH1 0x20 DUP1 SWAP2 DIV MUL PUSH1 0x20 ADD PUSH1 0x40 MLOAD SWAP1 DUP2 ADD PUSH1 0x40 MSTORE DUP1 SWAP3 SWAP2 SWAP1 DUP2 DUP2 MSTORE PUSH1 0x20 ADD DUP3 DUP1 SLOAD PUSH2 0x11A8 SWAP1 PUSH2 0x1C05 JUMP JUMPDEST DUP1 ISZERO PUSH2 0x11F5 JUMPI DUP1 PUSH1 0x1F LT PUSH2 0x11CA JUMPI PUSH2 0x100 DUP1 DUP4 SLOAD DIV MUL DUP4 MSTORE SWAP2 PUSH1 0x20 ADD SWAP2 PUSH2 0x11F5 JUMP JUMPDEST DUP3 ADD SWAP2 SWAP1 PUSH1 0x0 MSTORE PUSH1 0x20 PUSH1 0x0 KECCAK256 SWAP1 JUMPDEST DUP2 SLOAD DUP2 MSTORE SWAP1 PUSH1 0x1 ADD SWAP1 PUSH1 0x20 ADD DUP1 DUP4 GT PUSH2 0x11D8 JUMPI DUP3 SWAP1 SUB PUSH1 0x1F AND DUP3 ADD SWAP2 JUMPDEST POP POP POP POP POP SWAP1 DUP1 PUSH1 0x7 ADD DUP1 SLOAD PUSH2 0x120A SWAP1 PUSH2 0x1C05 JUMP JUMPDEST DUP1 PUSH1 0x1F ADD PUSH1 0x20 DUP1 SWAP2 DIV MUL PUSH1 0x20 ADD PUSH1 0x40 MLOAD SWAP1 DUP2 ADD PUSH1 0x40 MSTORE DUP1 SWAP3 SWAP2 SWAP1 DUP2 DUP2 MSTORE PUSH1 0x20 ADD DUP3 DUP1 SLOAD PUSH2 0x1236 SWAP1 PUSH2 0x1C05 JUMP JUMPDEST DUP1 ISZERO PUSH2 0x1283 JUMPI DUP1 PUSH1 0x1F LT PUSH2 0x1258 JUMPI PUSH2 0x100 DUP1 DUP4 SLOAD DIV MUL DUP4 MSTORE SWAP2 PUSH1 0x20 ADD SWAP2 PUSH2 0x1283 JUMP JUMPDEST DUP3 ADD SWAP2 SWAP1 PUSH1 0x0 MSTORE PUSH1 0x20 PUSH1 0x0 KECCAK256 SWAP1 JUMPDEST DUP2 SLOAD DUP2 MSTORE SWAP1 PUSH1 0x1 ADD SWAP1 PUSH1 0x20 ADD DUP1 DUP4 GT PUSH2 0x1266 JUMPI DUP3 SWAP1 SUB PUSH1 0x1F AND DUP3 ADD SWAP2 JUMPDEST POP POP POP PUSH1 0x8 DUP5 ADD SLOAD PUSH1 0x9 DUP6 ADD SLOAD PUSH1 0xA SWAP1 SWAP6 ADD SLOAD SWAP4 SWAP5 PUSH1 0xFF DUP1 DUP4 AND SWAP6 PUSH2 0x100 SWAP1 SWAP4 DIV AND SWAP4 POP SWAP2 POP PUSH1 0x1 PUSH1 0x1 PUSH1 0xA0 SHL SUB AND DUP12 JUMP JUMPDEST PUSH1 0x1 PUSH1 0x1 PUSH1 0xA0 SHL SUB DUP2 AND PUSH1 0x0 SWAP1 DUP2 MSTORE PUSH1 0x1 PUSH1 0x20 MSTORE PUSH1 0x40 SWAP1 KECCAK256 SLOAD PUSH1 0xFF AND PUSH2 0x12ED JUMPI PUSH1 0x40 MLOAD PUSH3 0x461BCD PUSH1 0xE5 SHL DUP2 MSTORE PUSH1 0x4 ADD PUSH2 0x2BE SWAP1 PUSH2 0x1BD8 JUMP JUMPDEST PUSH1 0x1 PUSH1 0x1 PUSH1 0xA0 SHL SUB DUP2 AND PUSH1 0x0 DUP2 DUP2 MSTORE PUSH1 0x20 DUP2 SWAP1 MSTORE PUSH1 0x40 SWAP1 DUP2 SWAP1 KECCAK256 PUSH1 0x8 ADD DUP1 SLOAD PUSH1 0xFF NOT AND PUSH1 0x1 OR SWAP1 SSTORE MLOAD PUSH32 0xC0717E006BB633CB129F18453A1DD090CB674EEB4E794327428CBC35919757D9 SWAP1 PUSH2 0x1345 SWAP1 TIMESTAMP DUP2 MSTORE PUSH1 0x20 ADD SWAP1 JUMP JUMPDEST PUSH1 0x40 MLOAD DUP1 SWAP2 SUB SWAP1 LOG2 POP JUMP JUMPDEST PUSH1 0x2 SLOAD PUSH1 0x60 SWAP1 DUP4 LT PUSH2 0x13A0 JUMPI PUSH1 0x40 MLOAD PUSH3 0x461BCD PUSH1 0xE5 SHL DUP2 MSTORE PUSH1 0x20 PUSH1 0x4 DUP3 ADD MSTORE PUSH1 0x19 PUSH1 0x24 DUP3 ADD MSTORE PUSH25 0x537461727420696E646578206F7574206F6620626F756E6473 PUSH1 0x38 SHL PUSH1 0x44 DUP3 ADD MSTORE PUSH1 0x64 ADD PUSH2 0x2BE JUMP JUMPDEST PUSH1 0x0 DUP4 JUMPDEST PUSH1 0x2 SLOAD DUP2 LT DUP1 ISZERO PUSH2 0x13B4 JUMPI POP DUP4 DUP3 LT JUMPDEST ISZERO PUSH2 0x1425 JUMPI PUSH1 0x0 DUP1 PUSH1 0x2 DUP4 DUP2 SLOAD DUP2 LT PUSH2 0x13CF JUMPI PUSH2 0x13CF PUSH2 0x1DAC JUMP JUMPDEST PUSH1 0x0 SWAP2 DUP3 MSTORE PUSH1 0x20 DUP1 DUP4 KECCAK256 SWAP1 SWAP2 ADD SLOAD PUSH1 0x1 PUSH1 0x1 PUSH1 0xA0 SHL SUB AND DUP4 MSTORE DUP3 ADD SWAP3 SWAP1 SWAP3 MSTORE PUSH1 0x40 ADD SWAP1 KECCAK256 PUSH1 0x8 ADD SLOAD PUSH1 0xFF PUSH2 0x100 SWAP1 SWAP2 DIV AND ISZERO PUSH2 0x1413 JUMPI DUP2 PUSH2 0x140F DUP2 PUSH2 0x1DC2 JUMP JUMPDEST SWAP3 POP POP JUMPDEST DUP1 PUSH2 0x141D DUP2 PUSH2 0x1DC2 JUMP JUMPDEST SWAP2 POP POP PUSH2 0x13A4 JUMP JUMPDEST POP PUSH1 0x0 DUP2 PUSH8 0xFFFFFFFFFFFFFFFF DUP2 GT ISZERO PUSH2 0x1441 JUMPI PUSH2 0x1441 PUSH2 0x17B7 JUMP JUMPDEST PUSH1 0x40 MLOAD SWAP1 DUP1 DUP3 MSTORE DUP1 PUSH1 0x20 MUL PUSH1 0x20 ADD DUP3 ADD PUSH1 0x40 MSTORE DUP1 ISZERO PUSH2 0x146A JUMPI DUP2 PUSH1 0x20 ADD PUSH1 0x20 DUP3 MUL DUP1 CALLDATASIZE DUP4 CALLDATACOPY ADD SWAP1 POP JUMPDEST POP SWAP1 POP PUSH1 0x0 DUP6 JUMPDEST PUSH1 0x2 SLOAD DUP2 LT DUP1 ISZERO PUSH2 0x1481 JUMPI POP DUP6 DUP3 LT JUMPDEST ISZERO PUSH2 0x154D JUMPI PUSH1 0x0 DUP1 PUSH1 0x2 DUP4 DUP2 SLOAD DUP2 LT PUSH2 0x149C JUMPI PUSH2 0x149C PUSH2 0x1DAC JUMP JUMPDEST PUSH1 0x0 SWAP2 DUP3 MSTORE PUSH1 0x20 DUP1 DUP4 KECCAK256 SWAP1 SWAP2 ADD SLOAD PUSH1 0x1 PUSH1 0x1 PUSH1 0xA0 SHL SUB AND DUP4 MSTORE DUP3 ADD SWAP3 SWAP1 SWAP3 MSTORE PUSH1 0x40 ADD SWAP1 KECCAK256 PUSH1 0x8 ADD SLOAD PUSH1 0xFF PUSH2 0x100 SWAP1 SWAP2 DIV AND ISZERO PUSH2 0x153B JUMPI PUSH1 0x2 DUP2 DUP2 SLOAD DUP2 LT PUSH2 0x14E5 JUMPI PUSH2 0x14E5 PUSH2 0x1DAC JUMP JUMPDEST SWAP1 PUSH1 0x0 MSTORE PUSH1 0x20 PUSH1 0x0 KECCAK256 ADD PUSH1 0x0 SWAP1 SLOAD SWAP1 PUSH2 0x100 EXP SWAP1 DIV PUSH1 0x1 PUSH1 0x1 PUSH1 0xA0 SHL SUB AND DUP4 DUP4 DUP2 MLOAD DUP2 LT PUSH2 0x1515 JUMPI PUSH2 0x1515 PUSH2 0x1DAC JUMP JUMPDEST PUSH1 0x1 PUSH1 0x1 PUSH1 0xA0 SHL SUB SWAP1 SWAP3 AND PUSH1 0x20 SWAP3 DUP4 MUL SWAP2 SWAP1 SWAP2 ADD SWAP1 SWAP2 ADD MSTORE DUP2 PUSH2 0x1537 DUP2 PUSH2 0x1DC2 JUMP JUMPDEST SWAP3 POP POP JUMPDEST DUP1 PUSH2 0x1545 DUP2 PUSH2 0x1DC2 JUMP JUMPDEST SWAP2 POP POP PUSH2 0x1471 JUMP JUMPDEST POP SWAP1 SWAP6 SWAP5 POP POP POP POP POP JUMP JUMPDEST DUP3 DUP1 SLOAD DUP3 DUP3 SSTORE SWAP1 PUSH1 0x0 MSTORE PUSH1 0x20 PUSH1 0x0 KECCAK256 SWAP1 DUP2 ADD SWAP3 DUP3 ISZERO PUSH2 0x159E JUMPI SWAP2 PUSH1 0x20 MUL DUP3 ADD JUMPDEST DUP3 DUP2 GT ISZERO PUSH2 0x159E JUMPI DUP3 MLOAD DUP3 SWAP1 PUSH2 0x158E SWAP1 DUP3 PUSH2 0x1C8E JUMP JUMPDEST POP SWAP2 PUSH1 0x20 ADD SWAP2 SWAP1 PUSH1 0x1 ADD SWAP1 PUSH2 0x1578 JUMP JUMPDEST POP PUSH2 0x15AA SWAP3 SWAP2 POP PUSH2 0x15AE JUMP JUMPDEST POP SWAP1 JUMP JUMPDEST DUP1 DUP3 GT ISZERO PUSH2 0x15AA JUMPI PUSH1 0x0 PUSH2 0x15C2 DUP3 DUP3 PUSH2 0x15CB JUMP JUMPDEST POP PUSH1 0x1 ADD PUSH2 0x15AE JUMP JUMPDEST POP DUP1 SLOAD PUSH2 0x15D7 SWAP1 PUSH2 0x1C05 JUMP JUMPDEST PUSH1 0x0 DUP3 SSTORE DUP1 PUSH1 0x1F LT PUSH2 0x15E7 JUMPI POP POP JUMP JUMPDEST PUSH1 0x1F ADD PUSH1 0x20 SWAP1 DIV SWAP1 PUSH1 0x0 MSTORE PUSH1 0x20 PUSH1 0x0 KECCAK256 SWAP1 DUP2 ADD SWAP1 PUSH2 0x1605 SWAP2 SWAP1 PUSH2 0x1608 JUMP JUMPDEST POP JUMP JUMPDEST JUMPDEST DUP1 DUP3 GT ISZERO PUSH2 0x15AA JUMPI PUSH1 0x0 DUP2 SSTORE PUSH1 0x1 ADD PUSH2 0x1609 JUMP JUMPDEST PUSH1 0x0 PUSH1 0x20 DUP3 DUP5 SUB SLT ISZERO PUSH2 0x162F JUMPI PUSH1 0x0 DUP1 REVERT JUMPDEST DUP2 CALLDATALOAD PUSH1 0x1 PUSH1 0x1 PUSH1 0xA0 SHL SUB DUP2 AND DUP2 EQ PUSH2 0x1646 JUMPI PUSH1 0x0 DUP1 REVERT JUMPDEST SWAP4 SWAP3 POP POP POP JUMP JUMPDEST PUSH1 0x0 DUP2 MLOAD DUP1 DUP5 MSTORE PUSH1 0x0 JUMPDEST DUP2 DUP2 LT ISZERO PUSH2 0x1673 JUMPI PUSH1 0x20 DUP2 DUP6 ADD DUP2 ADD MLOAD DUP7 DUP4 ADD DUP3 ADD MSTORE ADD PUSH2 0x1657 JUMP JUMPDEST POP PUSH1 0x0 PUSH1 0x20 DUP3 DUP7 ADD ADD MSTORE PUSH1 0x20 PUSH1 0x1F NOT PUSH1 0x1F DUP4 ADD AND DUP6 ADD ADD SWAP2 POP POP SWAP3 SWAP2 POP POP JUMP JUMPDEST PUSH1 0x0 DUP3 DUP3 MLOAD DUP1 DUP6 MSTORE PUSH1 0x20 DUP1 DUP7 ADD SWAP6 POP DUP1 DUP3 PUSH1 0x5 SHL DUP5 ADD ADD DUP2 DUP7 ADD PUSH1 0x0 JUMPDEST DUP5 DUP2 LT ISZERO PUSH2 0x16DE JUMPI PUSH1 0x1F NOT DUP7 DUP5 SUB ADD DUP10 MSTORE PUSH2 0x16CC DUP4 DUP4 MLOAD PUSH2 0x164D JUMP JUMPDEST SWAP9 DUP5 ADD SWAP9 SWAP3 POP SWAP1 DUP4 ADD SWAP1 PUSH1 0x1 ADD PUSH2 0x16B0 JUMP JUMPDEST POP SWAP1 SWAP8 SWAP7 POP POP POP POP POP POP POP JUMP JUMPDEST PUSH2 0x180 DUP2 MSTORE PUSH1 0x0 PUSH2 0x1700 PUSH2 0x180 DUP4 ADD DUP16 PUSH2 0x164D JUMP JUMPDEST DUP14 PUSH1 0x20 DUP5 ADD MSTORE DUP3 DUP2 SUB PUSH1 0x40 DUP5 ADD MSTORE PUSH2 0x1718 DUP2 DUP15 PUSH2 0x164D JUMP JUMPDEST SWAP1 POP DUP3 DUP2 SUB PUSH1 0x60 DUP5 ADD MSTORE PUSH2 0x172C DUP2 DUP14 PUSH2 0x164D JUMP JUMPDEST SWAP1 POP DUP3 DUP2 SUB PUSH1 0x80 DUP5 ADD MSTORE PUSH2 0x1740 DUP2 DUP13 PUSH2 0x1693 JUMP JUMPDEST SWAP1 POP DUP10 PUSH1 0xA0 DUP5 ADD MSTORE DUP3 DUP2 SUB PUSH1 0xC0 DUP5 ADD MSTORE PUSH2 0x175A DUP2 DUP11 PUSH2 0x164D JUMP JUMPDEST SWAP1 POP DUP3 DUP2 SUB PUSH1 0xE0 DUP5 ADD MSTORE PUSH2 0x176E DUP2 DUP10 PUSH2 0x164D JUMP JUMPDEST SWAP2 POP POP PUSH2 0x1780 PUSH2 0x100 DUP4 ADD DUP8 ISZERO ISZERO SWAP1 MSTORE JUMP JUMPDEST DUP5 ISZERO ISZERO PUSH2 0x120 DUP4 ADD MSTORE DUP4 PUSH2 0x140 DUP4 ADD MSTORE PUSH2 0x17A6 PUSH2 0x160 DUP4 ADD DUP5 PUSH1 0x1 PUSH1 0x1 PUSH1 0xA0 SHL SUB AND SWAP1 MSTORE JUMP JUMPDEST SWAP14 SWAP13 POP POP POP POP POP POP POP POP POP POP POP POP POP JUMP JUMPDEST PUSH4 0x4E487B71 PUSH1 0xE0 SHL PUSH1 0x0 MSTORE PUSH1 0x41 PUSH1 0x4 MSTORE PUSH1 0x24 PUSH1 0x0 REVERT JUMPDEST PUSH1 0x40 MLOAD PUSH1 0x1F DUP3 ADD PUSH1 0x1F NOT AND DUP2 ADD PUSH8 0xFFFFFFFFFFFFFFFF DUP2 GT DUP3 DUP3 LT OR ISZERO PUSH2 0x17F6 JUMPI PUSH2 0x17F6 PUSH2 0x17B7 JUMP JUMPDEST PUSH1 0x40 MSTORE SWAP2 SWAP1 POP JUMP JUMPDEST PUSH1 0x0 DUP3 PUSH1 0x1F DUP4 ADD SLT PUSH2 0x180F JUMPI PUSH1 0x0 DUP1 REVERT JUMPDEST DUP2 CALLDATALOAD PUSH8 0xFFFFFFFFFFFFFFFF DUP2 GT ISZERO PUSH2 0x1829 JUMPI PUSH2 0x1829 PUSH2 0x17B7 JUMP JUMPDEST PUSH2 0x183C PUSH1 0x1F DUP3 ADD PUSH1 0x1F NOT AND PUSH1 0x20 ADD PUSH2 0x17CD JUMP JUMPDEST DUP2 DUP2 MSTORE DUP5 PUSH1 0x20 DUP4 DUP7 ADD ADD GT ISZERO PUSH2 0x1851 JUMPI PUSH1 0x0 DUP1 REVERT JUMPDEST DUP2 PUSH1 0x20 DUP6 ADD PUSH1 0x20 DUP4 ADD CALLDATACOPY PUSH1 0x0 SWAP2 DUP2 ADD PUSH1 0x20 ADD SWAP2 SWAP1 SWAP2 MSTORE SWAP4 SWAP3 POP POP POP JUMP JUMPDEST PUSH1 0x0 DUP3 PUSH1 0x1F DUP4 ADD SLT PUSH2 0x187F JUMPI PUSH1 0x0 DUP1 REVERT JUMPDEST DUP2 CALLDATALOAD PUSH1 0x20 PUSH8 0xFFFFFFFFFFFFFFFF DUP1 DUP4 GT ISZERO PUSH2 0x189C JUMPI PUSH2 0x189C PUSH2 0x17B7 JUMP JUMPDEST DUP3 PUSH1 0x5 SHL PUSH2 0x18AB DUP4 DUP3 ADD PUSH2 0x17CD JUMP JUMPDEST SWAP4 DUP5 MSTORE DUP6 DUP2 ADD DUP4 ADD SWAP4 DUP4 DUP2 ADD SWAP1 DUP9 DUP7 GT ISZERO PUSH2 0x18C5 JUMPI PUSH1 0x0 DUP1 REVERT JUMPDEST DUP5 DUP9 ADD SWAP3 POP JUMPDEST DUP6 DUP4 LT ISZERO PUSH2 0x1901 JUMPI DUP3 CALLDATALOAD DUP5 DUP2 GT ISZERO PUSH2 0x18E3 JUMPI PUSH1 0x0 DUP1 DUP2 REVERT JUMPDEST PUSH2 0x18F1 DUP11 DUP8 DUP4 DUP13 ADD ADD PUSH2 0x17FE JUMP JUMPDEST DUP4 MSTORE POP SWAP2 DUP5 ADD SWAP2 SWAP1 DUP5 ADD SWAP1 PUSH2 0x18CB JUMP JUMPDEST SWAP9 SWAP8 POP POP POP POP POP POP POP POP JUMP JUMPDEST PUSH1 0x0 DUP1 PUSH1 0x0 DUP1 PUSH1 0x0 DUP1 PUSH1 0x0 DUP1 PUSH2 0x100 DUP10 DUP12 SUB SLT ISZERO PUSH2 0x192A JUMPI PUSH1 0x0 DUP1 REVERT JUMPDEST DUP9 CALLDATALOAD PUSH8 0xFFFFFFFFFFFFFFFF DUP1 DUP3 GT ISZERO PUSH2 0x1942 JUMPI PUSH1 0x0 DUP1 REVERT JUMPDEST PUSH2 0x194E DUP13 DUP4 DUP14 ADD PUSH2 0x17FE JUMP JUMPDEST SWAP10 POP PUSH1 0x20 DUP12 ADD CALLDATALOAD SWAP9 POP PUSH1 0x40 DUP12 ADD CALLDATALOAD SWAP2 POP DUP1 DUP3 GT ISZERO PUSH2 0x196B JUMPI PUSH1 0x0 DUP1 REVERT JUMPDEST PUSH2 0x1977 DUP13 DUP4 DUP14 ADD PUSH2 0x17FE JUMP JUMPDEST SWAP8 POP PUSH1 0x60 DUP12 ADD CALLDATALOAD SWAP2 POP DUP1 DUP3 GT ISZERO PUSH2 0x198D JUMPI PUSH1 0x0 DUP1 REVERT JUMPDEST PUSH2 0x1999 DUP13 DUP4 DUP14 ADD PUSH2 0x17FE JUMP JUMPDEST SWAP7 POP PUSH1 0x80 DUP12 ADD CALLDATALOAD SWAP2 POP DUP1 DUP3 GT ISZERO PUSH2 0x19AF JUMPI PUSH1 0x0 DUP1 REVERT JUMPDEST PUSH2 0x19BB DUP13 DUP4 DUP14 ADD PUSH2 0x186E JUMP JUMPDEST SWAP6 POP PUSH1 0xA0 DUP12 ADD CALLDATALOAD SWAP5 POP PUSH1 0xC0 DUP12 ADD CALLDATALOAD SWAP2 POP DUP1 DUP3 GT ISZERO PUSH2 0x19D8 JUMPI PUSH1 0x0 DUP1 REVERT JUMPDEST PUSH2 0x19E4 DUP13 DUP4 DUP14 ADD PUSH2 0x17FE JUMP JUMPDEST SWAP4 POP PUSH1 0xE0 DUP12 ADD CALLDATALOAD SWAP2 POP DUP1 DUP3 GT ISZERO PUSH2 0x19FA JUMPI PUSH1 0x0 DUP1 REVERT JUMPDEST POP PUSH2 0x1A07 DUP12 DUP3 DUP13 ADD PUSH2 0x17FE JUMP JUMPDEST SWAP2 POP POP SWAP3 SWAP6 SWAP9 POP SWAP3 SWAP6 SWAP9 SWAP1 SWAP4 SWAP7 POP JUMP JUMPDEST PUSH1 0x0 DUP1 PUSH1 0x40 DUP4 DUP6 SUB SLT ISZERO PUSH2 0x1A2A JUMPI PUSH1 0x0 DUP1 REVERT JUMPDEST POP POP DUP1 CALLDATALOAD SWAP3 PUSH1 0x20 SWAP1 SWAP2 ADD CALLDATALOAD SWAP2 POP JUMP JUMPDEST PUSH1 0x20 DUP1 DUP3 MSTORE DUP3 MLOAD DUP3 DUP3 ADD DUP2 SWAP1 MSTORE PUSH1 0x0 SWAP2 SWAP1 DUP5 DUP3 ADD SWAP1 PUSH1 0x40 DUP6 ADD SWAP1 DUP5 JUMPDEST DUP2 DUP2 LT ISZERO PUSH2 0x1A7A JUMPI DUP4 MLOAD PUSH1 0x1 PUSH1 0x1 PUSH1 0xA0 SHL SUB AND DUP4 MSTORE SWAP3 DUP5 ADD SWAP3 SWAP2 DUP5 ADD SWAP2 PUSH1 0x1 ADD PUSH2 0x1A55 JUMP JUMPDEST POP SWAP1 SWAP7 SWAP6 POP POP POP POP POP POP JUMP JUMPDEST PUSH1 0x0 PUSH1 0x20 DUP3 DUP5 SUB SLT ISZERO PUSH2 0x1A98 JUMPI PUSH1 0x0 DUP1 REVERT JUMPDEST POP CALLDATALOAD SWAP2 SWAP1 POP JUMP JUMPDEST PUSH1 0x0 DUP1 PUSH1 0x0 PUSH1 0x60 DUP5 DUP7 SUB SLT ISZERO PUSH2 0x1AB4 JUMPI PUSH1 0x0 DUP1 REVERT JUMPDEST DUP4 CALLDATALOAD PUSH8 0xFFFFFFFFFFFFFFFF DUP1 DUP3 GT ISZERO PUSH2 0x1ACC JUMPI PUSH1 0x0 DUP1 REVERT JUMPDEST PUSH2 0x1AD8 DUP8 DUP4 DUP9 ADD PUSH2 0x17FE JUMP JUMPDEST SWAP5 POP PUSH1 0x20 DUP7 ADD CALLDATALOAD SWAP2 POP DUP1 DUP3 GT ISZERO PUSH2 0x1AEE JUMPI PUSH1 0x0 DUP1 REVERT JUMPDEST PUSH2 0x1AFA DUP8 DUP4 DUP9 ADD PUSH2 0x186E JUMP JUMPDEST SWAP4 POP PUSH1 0x40 DUP7 ADD CALLDATALOAD SWAP2 POP DUP1 DUP3 GT ISZERO PUSH2 0x1B10 JUMPI PUSH1 0x0 DUP1 REVERT JUMPDEST POP PUSH2 0x1B1D DUP7 DUP3 DUP8 ADD PUSH2 0x17FE JUMP JUMPDEST SWAP2 POP POP SWAP3 POP SWAP3 POP SWAP3 JUMP JUMPDEST PUSH1 0x0 PUSH2 0x160 DUP1 DUP4 MSTORE PUSH2 0x1B3B DUP2 DUP5 ADD DUP16 PUSH2 0x164D JUMP JUMPDEST SWAP1 POP DUP13 PUSH1 0x20 DUP5 ADD MSTORE DUP3 DUP2 SUB PUSH1 0x40 DUP5 ADD MSTORE PUSH2 0x1B55 DUP2 DUP14 PUSH2 0x164D JUMP JUMPDEST SWAP1 POP DUP3 DUP2 SUB PUSH1 0x60 DUP5 ADD MSTORE PUSH2 0x1B69 DUP2 DUP13 PUSH2 0x164D JUMP JUMPDEST SWAP1 POP DUP10 PUSH1 0x80 DUP5 ADD MSTORE DUP3 DUP2 SUB PUSH1 0xA0 DUP5 ADD MSTORE PUSH2 0x1B83 DUP2 DUP11 PUSH2 0x164D JUMP JUMPDEST SWAP1 POP DUP3 DUP2 SUB PUSH1 0xC0 DUP5 ADD MSTORE PUSH2 0x1B97 DUP2 DUP10 PUSH2 0x164D JUMP JUMPDEST SWAP2 POP POP DUP6 ISZERO ISZERO PUSH1 0xE0 DUP4 ADD MSTORE DUP5 ISZERO ISZERO PUSH2 0x100 DUP4 ADD MSTORE DUP4 PUSH2 0x120 DUP4 ADD MSTORE PUSH2 0x1BC8 PUSH2 0x140 DUP4 ADD DUP5 PUSH1 0x1 PUSH1 0x1 PUSH1 0xA0 SHL SUB AND SWAP1 MSTORE JUMP JUMPDEST SWAP13 SWAP12 POP POP POP POP POP POP POP POP POP POP POP POP JUMP JUMPDEST PUSH1 0x20 DUP1 DUP3 MSTORE PUSH1 0x13 SWAP1 DUP3 ADD MSTORE PUSH19 0x155CD95C881B9BDD081C9959DA5CDD195C9959 PUSH1 0x6A SHL PUSH1 0x40 DUP3 ADD MSTORE PUSH1 0x60 ADD SWAP1 JUMP JUMPDEST PUSH1 0x1 DUP2 DUP2 SHR SWAP1 DUP3 AND DUP1 PUSH2 0x1C19 JUMPI PUSH1 0x7F DUP3 AND SWAP2 POP JUMPDEST PUSH1 0x20 DUP3 LT DUP2 SUB PUSH2 0x1C39 JUMPI PUSH4 0x4E487B71 PUSH1 0xE0 SHL PUSH1 0x0 MSTORE PUSH1 0x22 PUSH1 0x4 MSTORE PUSH1 0x24 PUSH1 0x0 REVERT JUMPDEST POP SWAP2 SWAP1 POP JUMP JUMPDEST PUSH1 0x1F DUP3 GT ISZERO PUSH2 0x1C89 JUMPI PUSH1 0x0 DUP2 DUP2 MSTORE PUSH1 0x20 DUP2 KECCAK256 PUSH1 0x1F DUP6 ADD PUSH1 0x5 SHR DUP2 ADD PUSH1 0x20 DUP7 LT ISZERO PUSH2 0x1C66 JUMPI POP DUP1 JUMPDEST PUSH1 0x1F DUP6 ADD PUSH1 0x5 SHR DUP3 ADD SWAP2 POP JUMPDEST DUP2 DUP2 LT ISZERO PUSH2 0x1C85 JUMPI DUP3 DUP2 SSTORE PUSH1 0x1 ADD PUSH2 0x1C72 JUMP JUMPDEST POP POP POP JUMPDEST POP POP POP JUMP JUMPDEST DUP2 MLOAD PUSH8 0xFFFFFFFFFFFFFFFF DUP2 GT ISZERO PUSH2 0x1CA8 JUMPI PUSH2 0x1CA8 PUSH2 0x17B7 JUMP JUMPDEST PUSH2 0x1CBC DUP2 PUSH2 0x1CB6 DUP5 SLOAD PUSH2 0x1C05 JUMP JUMPDEST DUP5 PUSH2 0x1C3F JUMP JUMPDEST PUSH1 0x20 DUP1 PUSH1 0x1F DUP4 GT PUSH1 0x1 DUP2 EQ PUSH2 0x1CF1 JUMPI PUSH1 0x0 DUP5 ISZERO PUSH2 0x1CD9 JUMPI POP DUP6 DUP4 ADD MLOAD JUMPDEST PUSH1 0x0 NOT PUSH1 0x3 DUP7 SWAP1 SHL SHR NOT AND PUSH1 0x1 DUP6 SWAP1 SHL OR DUP6 SSTORE PUSH2 0x1C85 JUMP JUMPDEST PUSH1 0x0 DUP6 DUP2 MSTORE PUSH1 0x20 DUP2 KECCAK256 PUSH1 0x1F NOT DUP7 AND SWAP2 JUMPDEST DUP3 DUP2 LT ISZERO PUSH2 0x1D20 JUMPI DUP9 DUP7 ADD MLOAD DUP3 SSTORE SWAP5 DUP5 ADD SWAP5 PUSH1 0x1 SWAP1 SWAP2 ADD SWAP1 DUP5 ADD PUSH2 0x1D01 JUMP JUMPDEST POP DUP6 DUP3 LT ISZERO PUSH2 0x1D3E JUMPI DUP8 DUP6 ADD MLOAD PUSH1 0x0 NOT PUSH1 0x3 DUP9 SWAP1 SHL PUSH1 0xF8 AND SHR NOT AND DUP2 SSTORE JUMPDEST POP POP POP POP POP PUSH1 0x1 SWAP1 DUP2 SHL ADD SWAP1 SSTORE POP JUMP JUMPDEST PUSH1 0x40 DUP2 MSTORE PUSH1 0x0 PUSH2 0x1D61 PUSH1 0x40 DUP4 ADD DUP6 PUSH2 0x164D JUMP JUMPDEST SWAP1 POP DUP3 PUSH1 0x20 DUP4 ADD MSTORE SWAP4 SWAP3 POP POP POP JUMP JUMPDEST PUSH4 0x4E487B71 PUSH1 0xE0 SHL PUSH1 0x0 MSTORE PUSH1 0x11 PUSH1 0x4 MSTORE PUSH1 0x24 PUSH1 0x0 REVERT JUMPDEST DUP1 DUP3 ADD DUP1 DUP3 GT ISZERO PUSH2 0xD9C JUMPI PUSH2 0xD9C PUSH2 0x1D70 JUMP JUMPDEST DUP2 DUP2 SUB DUP2 DUP2 GT ISZERO PUSH2 0xD9C JUMPI PUSH2 0xD9C PUSH2 0x1D70 JUMP JUMPDEST PUSH4 0x4E487B71 PUSH1 0xE0 SHL PUSH1 0x0 MSTORE PUSH1 0x32 PUSH1 0x4 MSTORE PUSH1 0x24 PUSH1 0x0 REVERT JUMPDEST PUSH1 0x0 PUSH1 0x1 DUP3 ADD PUSH2 0x1DD4 JUMPI PUSH2 0x1DD4 PUSH2 0x1D70 JUMP JUMPDEST POP PUSH1 0x1 ADD SWAP1 JUMP INVALID LOG2 PUSH5 0x6970667358 0x22 SLT KECCAK256 0xC4 0xAD MSTORE8 DUP13 0xAC 0xF9 PUSH20 0x90406496FCBE950CFFDEAA89FFC997BF601C59B8 PUSH2 0xDBC0 MSIZE SWAP7 PUSH5 0x736F6C6343 STOP ADDMOD SGT STOP CALLER "},"methodIdentifiers":{"checkRegistration(address)":"e2a41283","createProfile(string,uint256,string,string,string[],uint256,string,string)":"32c4227a","deactivateProfile()":"20a17bca","getActiveUsers(uint256,uint256)":"e91c3b9e","getMyProfile()":"21527e50","getProfile(address)":"0f53a470","getTotalUsers()":"9be572f6","getUsers(uint256,uint256)":"45982a66","isRegistered(address)":"c3c5a547","profiles(address)":"bbe15627","reactivateProfile()":"75db7721","registeredUsers(uint256)":"7259e0f8","updateProfile(string,string[],string)":"87d3701a","verifyProfile(address)":"dfaef659"}}}}}