{
  "_format": "hh-sol-artifact-1",
  "contractName": "DatingApp",
  "sourceName": "contracts/DatingApp.sol",
  "abi": [
    {
      "inputs": [],
      "stateMutability": "nonpayable",
      "type": "constructor"
    },
    {
      "anonymous": false,
      "inputs": [
        {
          "indexed": true,
          "internalType": "address",
          "name": "user",
          "type": "address"
        }
      ],
      "name": "FlagApproved",
      "type": "event"
    },
    {
      "anonymous": false,
      "inputs": [
        {
          "indexed": true,
          "internalType": "address",
          "name": "from",
          "type": "address"
        },
        {
          "indexed": true,
          "internalType": "address",
          "name": "to",
          "type": "address"
        },
        {
          "indexed": false,
          "internalType": "bool",
          "name": "isRedFlag",
          "type": "bool"
        },
        {
          "indexed": false,
          "internalType": "string",
          "name": "review",
          "type": "string"
        }
      ],
      "name": "FlagSubmitted",
      "type": "event"
    },
    {
      "anonymous": false,
      "inputs": [
        {
          "indexed": true,
          "internalType": "address",
          "name": "user1",
          "type": "address"
        },
        {
          "indexed": true,
          "internalType": "address",
          "name": "user2",
          "type": "address"
        },
        {
          "indexed": false,
          "internalType": "bytes32",
          "name": "matchId",
          "type": "bytes32"
        }
      ],
      "name": "MatchCreated",
      "type": "event"
    },
    {
      "anonymous": false,
      "inputs": [
        {
          "indexed": true,
          "internalType": "address",
          "name": "user",
          "type": "address"
        },
        {
          "indexed": false,
          "internalType": "string",
          "name": "name",
          "type": "string"
        }
      ],
      "name": "UserRegistered",
      "type": "event"
    },
    {
      "anonymous": false,
      "inputs": [
        {
          "indexed": true,
          "internalType": "address",
          "name": "user",
          "type": "address"
        }
      ],
      "name": "UserVerified",
      "type": "event"
    },
    {
      "inputs": [
        {
          "internalType": "address",
          "name": "_from",
          "type": "address"
        }
      ],
      "name": "approveFlag",
      "outputs": [],
      "stateMutability": "nonpayable",
      "type": "function"
    },
    {
      "inputs": [
        {
          "internalType": "address",
          "name": "_user1",
          "type": "address"
        },
        {
          "internalType": "address",
          "name": "_user2",
          "type": "address"
        }
      ],
      "name": "createMatch",
      "outputs": [],
      "stateMutability": "nonpayable",
      "type": "function"
    },
    {
      "inputs": [],
      "name": "deactivateUser",
      "outputs": [],
      "stateMutability": "nonpayable",
      "type": "function"
    },
    {
      "inputs": [
        {
          "internalType": "string",
          "name": "_review",
          "type": "string"
        },
        {
          "internalType": "bytes32",
          "name": "_key",
          "type": "bytes32"
        }
      ],
      "name": "encryptFlagReview",
      "outputs": [
        {
          "internalType": "bytes",
          "name": "",
          "type": "bytes"
        }
      ],
      "stateMutability": "pure",
      "type": "function"
    },
    {
      "inputs": [],
      "name": "generateEncryptionSeed",
      "outputs": [
        {
          "internalType": "bytes32",
          "name": "",
          "type": "bytes32"
        }
      ],
      "stateMutability": "view",
      "type": "function"
    },
    {
      "inputs": [],
      "name": "getAllUsers",
      "outputs": [
        {
          "internalType": "address[]",
          "name": "",
          "type": "address[]"
        }
      ],
      "stateMutability": "view",
      "type": "function"
    },
    {
      "inputs": [
        {
          "internalType": "bytes32",
          "name": "_flagId",
          "type": "bytes32"
        },
        {
          "internalType": "address",
          "name": "_requester",
          "type": "address"
        }
      ],
      "name": "getFlagById",
      "outputs": [
        {
          "components": [
            {
              "internalType": "address",
              "name": "from",
              "type": "address"
            },
            {
              "internalType": "address",
              "name": "to",
              "type": "address"
            },
            {
              "internalType": "bool",
              "name": "isRedFlag",
              "type": "bool"
            },
            {
              "internalType": "string",
              "name": "review",
              "type": "string"
            },
            {
              "internalType": "bytes",
              "name": "encryptedReview",
              "type": "bytes"
            },
            {
              "internalType": "uint256",
              "name": "timestamp",
              "type": "uint256"
            },
            {
              "internalType": "bool",
              "name": "isVisible",
              "type": "bool"
            },
            {
              "internalType": "bytes32",
              "name": "flagId",
              "type": "bytes32"
            },
            {
              "internalType": "bool",
              "name": "isEncrypted",
              "type": "bool"
            }
          ],
          "internalType": "struct DatingApp.Flag",
          "name": "",
          "type": "tuple"
        }
      ],
      "stateMutability": "view",
      "type": "function"
    },
    {
      "inputs": [
        {
          "internalType": "address",
          "name": "_user",
          "type": "address"
        }
      ],
      "name": "getFlagStatistics",
      "outputs": [
        {
          "internalType": "uint256",
          "name": "totalFlags",
          "type": "uint256"
        },
        {
          "internalType": "uint256",
          "name": "redFlags",
          "type": "uint256"
        },
        {
          "internalType": "uint256",
          "name": "greenFlags",
          "type": "uint256"
        },
        {
          "internalType": "uint256",
          "name": "visibleFlags",
          "type": "uint256"
        }
      ],
      "stateMutability": "view",
      "type": "function"
    },
    {
      "inputs": [
        {
          "internalType": "address",
          "name": "_user",
          "type": "address"
        }
      ],
      "name": "getUserFlags",
      "outputs": [
        {
          "components": [
            {
              "internalType": "address",
              "name": "from",
              "type": "address"
            },
            {
              "internalType": "address",
              "name": "to",
              "type": "address"
            },
            {
              "internalType": "bool",
              "name": "isRedFlag",
              "type": "bool"
            },
            {
              "internalType": "string",
              "name": "review",
              "type": "string"
            },
            {
              "internalType": "bytes",
              "name": "encryptedReview",
              "type": "bytes"
            },
            {
              "internalType": "uint256",
              "name": "timestamp",
              "type": "uint256"
            },
            {
              "internalType": "bool",
              "name": "isVisible",
              "type": "bool"
            },
            {
              "internalType": "bytes32",
              "name": "flagId",
              "type": "bytes32"
            },
            {
              "internalType": "bool",
              "name": "isEncrypted",
              "type": "bool"
            }
          ],
          "internalType": "struct DatingApp.Flag[]",
          "name": "",
          "type": "tuple[]"
        }
      ],
      "stateMutability": "view",
      "type": "function"
    },
    {
      "inputs": [
        {
          "internalType": "address",
          "name": "_user",
          "type": "address"
        }
      ],
      "name": "getUserMatches",
      "outputs": [
        {
          "internalType": "address[]",
          "name": "",
          "type": "address[]"
        }
      ],
      "stateMutability": "view",
      "type": "function"
    },
    {
      "inputs": [
        {
          "internalType": "address",
          "name": "_user",
          "type": "address"
        }
      ],
      "name": "getUserProfile",
      "outputs": [
        {
          "components": [
            {
              "internalType": "string",
              "name": "name",
              "type": "string"
            },
            {
              "internalType": "uint256",
              "name": "age",
              "type": "uint256"
            },
            {
              "internalType": "string",
              "name": "bio",
              "type": "string"
            },
            {
              "internalType": "string[]",
              "name": "interests",
              "type": "string[]"
            },
            {
              "internalType": "uint256",
              "name": "monthlySalary",
              "type": "uint256"
            },
            {
              "internalType": "bool",
              "name": "isVerified",
              "type": "bool"
            },
            {
              "internalType": "bool",
              "name": "isActive",
              "type": "bool"
            },
            {
              "internalType": "uint256",
              "name": "createdAt",
              "type": "uint256"
            }
          ],
          "internalType": "struct DatingApp.User",
          "name": "",
          "type": "tuple"
        }
      ],
      "stateMutability": "view",
      "type": "function"
    },
    {
      "inputs": [
        {
          "internalType": "address",
          "name": "_user",
          "type": "address"
        }
      ],
      "name": "getVisibleFlags",
      "outputs": [
        {
          "components": [
            {
              "internalType": "address",
              "name": "from",
              "type": "address"
            },
            {
              "internalType": "address",
              "name": "to",
              "type": "address"
            },
            {
              "internalType": "bool",
              "name": "isRedFlag",
              "type": "bool"
            },
            {
              "internalType": "string",
              "name": "review",
              "type": "string"
            },
            {
              "internalType": "bytes",
              "name": "encryptedReview",
              "type": "bytes"
            },
            {
              "internalType": "uint256",
              "name": "timestamp",
              "type": "uint256"
            },
            {
              "internalType": "bool",
              "name": "isVisible",
              "type": "bool"
            },
            {
              "internalType": "bytes32",
              "name": "flagId",
              "type": "bytes32"
            },
            {
              "internalType": "bool",
              "name": "isEncrypted",
              "type": "bool"
            }
          ],
          "internalType": "struct DatingApp.Flag[]",
          "name": "",
          "type": "tuple[]"
        }
      ],
      "stateMutability": "view",
      "type": "function"
    },
    {
      "inputs": [
        {
          "internalType": "address",
          "name": "_user",
          "type": "address"
        }
      ],
      "name": "getVisibleGreenFlags",
      "outputs": [
        {
          "components": [
            {
              "internalType": "address",
              "name": "from",
              "type": "address"
            },
            {
              "internalType": "address",
              "name": "to",
              "type": "address"
            },
            {
              "internalType": "bool",
              "name": "isRedFlag",
              "type": "bool"
            },
            {
              "internalType": "string",
              "name": "review",
              "type": "string"
            },
            {
              "internalType": "bytes",
              "name": "encryptedReview",
              "type": "bytes"
            },
            {
              "internalType": "uint256",
              "name": "timestamp",
              "type": "uint256"
            },
            {
              "internalType": "bool",
              "name": "isVisible",
              "type": "bool"
            },
            {
              "internalType": "bytes32",
              "name": "flagId",
              "type": "bytes32"
            },
            {
              "internalType": "bool",
              "name": "isEncrypted",
              "type": "bool"
            }
          ],
          "internalType": "struct DatingApp.Flag[]",
          "name": "",
          "type": "tuple[]"
        }
      ],
      "stateMutability": "view",
      "type": "function"
    },
    {
      "inputs": [
        {
          "internalType": "address",
          "name": "_user",
          "type": "address"
        }
      ],
      "name": "getVisibleRedFlags",
      "outputs": [
        {
          "components": [
            {
              "internalType": "address",
              "name": "from",
              "type": "address"
            },
            {
              "internalType": "address",
              "name": "to",
              "type": "address"
            },
            {
              "internalType": "bool",
              "name": "isRedFlag",
              "type": "bool"
            },
            {
              "internalType": "string",
              "name": "review",
              "type": "string"
            },
            {
              "internalType": "bytes",
              "name": "encryptedReview",
              "type": "bytes"
            },
            {
              "internalType": "uint256",
              "name": "timestamp",
              "type": "uint256"
            },
            {
              "internalType": "bool",
              "name": "isVisible",
              "type": "bool"
            },
            {
              "internalType": "bytes32",
              "name": "flagId",
              "type": "bytes32"
            },
            {
              "internalType": "bool",
              "name": "isEncrypted",
              "type": "bool"
            }
          ],
          "internalType": "struct DatingApp.Flag[]",
          "name": "",
          "type": "tuple[]"
        }
      ],
      "stateMutability": "view",
      "type": "function"
    },
    {
      "inputs": [
        {
          "internalType": "address",
          "name": "",
          "type": "address"
        }
      ],
      "name": "isRegistered",
      "outputs": [
        {
          "internalType": "bool",
          "name": "",
          "type": "bool"
        }
      ],
      "stateMutability": "view",
      "type": "function"
    },
    {
      "inputs": [
        {
          "internalType": "bytes32",
          "name": "",
          "type": "bytes32"
        }
      ],
      "name": "matches",
      "outputs": [
        {
          "internalType": "address",
          "name": "user1",
          "type": "address"
        },
        {
          "internalType": "address",
          "name": "user2",
          "type": "address"
        },
        {
          "internalType": "uint256",
          "name": "matchTime",
          "type": "uint256"
        },
        {
          "internalType": "bool",
          "name": "isActive",
          "type": "bool"
        },
        {
          "internalType": "bool",
          "name": "user1Flagged",
          "type": "bool"
        },
        {
          "internalType": "bool",
          "name": "user2Flagged",
          "type": "bool"
        },
        {
          "internalType": "string",
          "name": "user1Flag",
          "type": "string"
        },
        {
          "internalType": "string",
          "name": "user2Flag",
          "type": "string"
        },
        {
          "internalType": "bool",
          "name": "bothApproved",
          "type": "bool"
        }
      ],
      "stateMutability": "view",
      "type": "function"
    },
    {
      "inputs": [],
      "name": "owner",
      "outputs": [
        {
          "internalType": "address",
          "name": "",
          "type": "address"
        }
      ],
      "stateMutability": "view",
      "type": "function"
    },
    {
      "inputs": [],
      "name": "reactivateUser",
      "outputs": [],
      "stateMutability": "nonpayable",
      "type": "function"
    },
    {
      "inputs": [
        {
          "internalType": "string",
          "name": "_name",
          "type": "string"
        },
        {
          "internalType": "uint256",
          "name": "_age",
          "type": "uint256"
        },
        {
          "internalType": "string",
          "name": "_bio",
          "type": "string"
        },
        {
          "internalType": "string[]",
          "name": "_interests",
          "type": "string[]"
        },
        {
          "internalType": "uint256",
          "name": "_monthlySalary",
          "type": "uint256"
        }
      ],
      "name": "registerUser",
      "outputs": [],
      "stateMutability": "nonpayable",
      "type": "function"
    },
    {
      "inputs": [
        {
          "internalType": "address",
          "name": "_to",
          "type": "address"
        },
        {
          "internalType": "bool",
          "name": "_isRedFlag",
          "type": "bool"
        },
        {
          "internalType": "string",
          "name": "_review",
          "type": "string"
        }
      ],
      "name": "submitAnonymousFlag",
      "outputs": [
        {
          "internalType": "bytes32",
          "name": "",
          "type": "bytes32"
        }
      ],
      "stateMutability": "nonpayable",
      "type": "function"
    },
    {
      "inputs": [
        {
          "internalType": "address",
          "name": "_to",
          "type": "address"
        },
        {
          "internalType": "bool",
          "name": "_isRedFlag",
          "type": "bool"
        },
        {
          "internalType": "bytes",
          "name": "_encryptedReview",
          "type": "bytes"
        }
      ],
      "name": "submitEncryptedFlag",
      "outputs": [],
      "stateMutability": "nonpayable",
      "type": "function"
    },
    {
      "inputs": [
        {
          "internalType": "address",
          "name": "_to",
          "type": "address"
        },
        {
          "internalType": "bool",
          "name": "_isRedFlag",
          "type": "bool"
        },
        {
          "internalType": "string",
          "name": "_review",
          "type": "string"
        }
      ],
      "name": "submitFlag",
      "outputs": [],
      "stateMutability": "nonpayable",
      "type": "function"
    },
    {
      "inputs": [],
      "name": "totalMatches",
      "outputs": [
        {
          "internalType": "uint256",
          "name": "",
          "type": "uint256"
        }
      ],
      "stateMutability": "view",
      "type": "function"
    },
    {
      "inputs": [],
      "name": "totalUsers",
      "outputs": [
        {
          "internalType": "uint256",
          "name": "",
          "type": "uint256"
        }
      ],
      "stateMutability": "view",
      "type": "function"
    },
    {
      "inputs": [
        {
          "internalType": "string",
          "name": "_bio",
          "type": "string"
        },
        {
          "internalType": "string[]",
          "name": "_interests",
          "type": "string[]"
        }
      ],
      "name": "updateProfile",
      "outputs": [],
      "stateMutability": "nonpayable",
      "type": "function"
    },
    {
      "inputs": [
        {
          "internalType": "address",
          "name": "",
          "type": "address"
        },
        {
          "internalType": "uint256",
          "name": "",
          "type": "uint256"
        }
      ],
      "name": "userFlags",
      "outputs": [
        {
          "internalType": "address",
          "name": "from",
          "type": "address"
        },
        {
          "internalType": "address",
          "name": "to",
          "type": "address"
        },
        {
          "internalType": "bool",
          "name": "isRedFlag",
          "type": "bool"
        },
        {
          "internalType": "string",
          "name": "review",
          "type": "string"
        },
        {
          "internalType": "bytes",
          "name": "encryptedReview",
          "type": "bytes"
        },
        {
          "internalType": "uint256",
          "name": "timestamp",
          "type": "uint256"
        },
        {
          "internalType": "bool",
          "name": "isVisible",
          "type": "bool"
        },
        {
          "internalType": "bytes32",
          "name": "flagId",
          "type": "bytes32"
        },
        {
          "internalType": "bool",
          "name": "isEncrypted",
          "type": "bool"
        }
      ],
      "stateMutability": "view",
      "type": "function"
    },
    {
      "inputs": [
        {
          "internalType": "address",
          "name": "",
          "type": "address"
        },
        {
          "internalType": "uint256",
          "name": "",
          "type": "uint256"
        }
      ],
      "name": "userMatches",
      "outputs": [
        {
          "internalType": "address",
          "name": "",
          "type": "address"
        }
      ],
      "stateMutability": "view",
      "type": "function"
    },
    {
      "inputs": [
        {
          "internalType": "address",
          "name": "",
          "type": "address"
        }
      ],
      "name": "users",
      "outputs": [
        {
          "internalType": "string",
          "name": "name",
          "type": "string"
        },
        {
          "internalType": "uint256",
          "name": "age",
          "type": "uint256"
        },
        {
          "internalType": "string",
          "name": "bio",
          "type": "string"
        },
        {
          "internalType": "uint256",
          "name": "monthlySalary",
          "type": "uint256"
        },
        {
          "internalType": "bool",
          "name": "isVerified",
          "type": "bool"
        },
        {
          "internalType": "bool",
          "name": "isActive",
          "type": "bool"
        },
        {
          "internalType": "uint256",
          "name": "createdAt",
          "type": "uint256"
        }
      ],
      "stateMutability": "view",
      "type": "function"
    },
    {
      "inputs": [
        {
          "internalType": "address",
          "name": "_user",
          "type": "address"
        }
      ],
      "name": "verifyUser",
      "outputs": [],
      "stateMutability": "nonpayable",
      "type": "function"
    }
  ],
  "bytecode": "0x608060405234801561001057600080fd5b50600580546001600160a01b03191633179055614612806100326000396000f3fe608060405234801561001057600080fd5b50600436106101cf5760003560e01c8063987ee15611610104578063c3c5a547116100a2578063e2842d7911610071578063e2842d791461045c578063e5b0185114610464578063fbad3e7b14610484578063fd7fef9c1461049757600080fd5b8063c3c5a547146103d6578063ccbd649014610409578063d78611b814610429578063e262b23c1461043c57600080fd5b80639fe9ada3116100de5780639fe9ada31461034c578063a87430ba14610374578063b0d7f9171461039a578063bff1f9e1146103cd57600080fd5b8063987ee156146103065780639d258910146103265780639e1224d91461033957600080fd5b806347d4acc311610171578063752ab23f1161014b578063752ab23f146102ad5780637cb464eb146102c05780638da5cb5b146102d35780638e67e7c0146102fe57600080fd5b806347d4acc31461027f5780634d8131201461029257806355ea2000146102a557600080fd5b80632a5b1451116101ad5780632a5b1451146102335780632b7874171461023c5780633665658b146102645780633e944bae1461026c57600080fd5b80631e20530a146101d45780631f419d70146101e95780632a1bc1e814610212575b600080fd5b6101e76101e23660046139b4565b6104aa565b005b6101fc6101f73660046139e7565b610881565b6040516102099190613b0a565b60405180910390f35b610225610220366004613c39565b610c93565b604051908152602001610209565b61022560075481565b61024f61024a366004613c96565b6110ac565b60405161020999989796959493929190613cc0565b61022561123c565b6101fc61027a3660046139e7565b6112a1565b6101e761028d366004613d35565b611607565b6101e76102a03660046139e7565b6119be565b6101e7611a6f565b6101e76102bb3660046139e7565b611abb565b6101fc6102ce3660046139e7565b611c1f565b6005546102e6906001600160a01b031681565b6040516001600160a01b039091168152602001610209565b6101e7611e2b565b6103196103143660046139e7565b611e7b565b6040516102099190613df1565b6101e7610334366004613c39565b61212b565b6101e7610347366004613f36565b612499565b61035f61035a366004613fcf565b6127c1565b60405161020999989796959493929190613fe8565b6103876103823660046139e7565b612937565b6040516102099796959493929190614062565b6103ad6103a83660046139e7565b612a8b565b604080519485526020850193909352918301526060820152608001610209565b61022560065481565b6103f96103e43660046139e7565b60046020526000908152604090205460ff1681565b6040519015158152602001610209565b61041c6104173660046139e7565b612ba6565b60405161020991906140b4565b6101e7610437366004614101565b612c1c565b61044f61044a366004614164565b612d1a565b6040516102099190614187565b61041c6132dc565b61047761047236600461419a565b61332a565b60405161020991906141de565b6101fc6104923660046139e7565b613373565b6102e66104a5366004613c96565b61377d565b6005546001600160a01b031633146104dd5760405162461bcd60e51b81526004016104d4906141f1565b60405180910390fd5b6001600160a01b03821660009081526004602052604090205460ff16801561051d57506001600160a01b03811660009081526004602052604090205460ff165b6105605760405162461bcd60e51b8152602060048201526014602482015273155cd95c9cc81b9bdd081c9959da5cdd195c995960621b60448201526064016104d4565b6001600160a01b03821660009081526020819052604090206005015460ff1680156105a657506001600160a01b03811660009081526020819052604090206005015460ff165b6105e75760405162461bcd60e51b8152602060048201526012602482015271155cd95c9cc81b9bdd081d995c9a599a595960721b60448201526064016104d4565b806001600160a01b0316826001600160a01b0316036106485760405162461bcd60e51b815260206004820152601a60248201527f43616e6e6f74206d61746368207769746820796f757273656c6600000000000060448201526064016104d4565b6040516bffffffffffffffffffffffff19606084811b8216602084015283901b16603482015242604882015260009060680160408051601f198184030181528282528051602091820120610120840183526001600160a01b03808816855286811685840190815242868601908152600160608801818152600060808a0181815260a08b018281528a51808b018c5283815260c08d019081528b51808c018d5284815260e08e0152610100808e018590528a855260029b8c90529b9093208c518154908a166001600160a01b0319918216178255975195810180549690991695909716949094179096559251968401969096559451600383018054945196511515620100000262ff00001997151590980261ff00199215159290921661ffff199095169490941717949094169490941790559051909350600482019061078d90826142ba565b5060e082015160058201906107a290826142ba565b5061010091909101516006909101805491151560ff199092169190911790556001600160a01b038084166000818152600160208181526040808420805480850182559085528285200180549689166001600160a01b03199788168117909155845283208054928301815583528220018054909316909117909155600780549161082a8361438f565b9190505550816001600160a01b0316836001600160a01b03167f7feccad6838fcc5f7729c6494d6993dda844aa3c4422758de9d67689a017213b8360405161087491815260200190565b60405180910390a3505050565b60606000805b6001600160a01b03841660009081526003602052604090205481101561095e576001600160a01b03841660009081526003602052604090208054829081106108d1576108d16143a8565b600091825260209091206005600890920201015460ff16801561093957506001600160a01b0384166000908152600360205260409020805482908110610919576109196143a8565b906000526020600020906008020160010160149054906101000a900460ff165b1561094c57816109488161438f565b9250505b806109568161438f565b915050610887565b506000816001600160401b0381111561097957610979613b7c565b6040519080825280602002602001820160405280156109b257816020015b61099f613888565b8152602001906001900390816109975790505b5090506000805b6001600160a01b038616600090815260036020526040902054811015610c89576001600160a01b0386166000908152600360205260409020805482908110610a0357610a036143a8565b600091825260209091206005600890920201015460ff168015610a6b57506001600160a01b0386166000908152600360205260409020805482908110610a4b57610a4b6143a8565b906000526020600020906008020160010160149054906101000a900460ff165b15610c77576001600160a01b0386166000908152600360205260409020805482908110610a9a57610a9a6143a8565b6000918252602091829020604080516101208101825260089390930290910180546001600160a01b039081168452600182015490811694840194909452600160a01b90930460ff16151590820152600282018054919291606084019190610b0090614232565b80601f0160208091040260200160405190810160405280929190818152602001828054610b2c90614232565b8015610b795780601f10610b4e57610100808354040283529160200191610b79565b820191906000526020600020905b815481529060010190602001808311610b5c57829003601f168201915b50505050508152602001600382018054610b9290614232565b80601f0160208091040260200160405190810160405280929190818152602001828054610bbe90614232565b8015610c0b5780601f10610be057610100808354040283529160200191610c0b565b820191906000526020600020905b815481529060010190602001808311610bee57829003601f168201915b505050918352505060048201546020820152600582015460ff908116151560408301526006830154606083015260079092015490911615156080909101528351849084908110610c5d57610c5d6143a8565b60200260200101819052508180610c739061438f565b9250505b80610c818161438f565b9150506109b9565b5090949350505050565b3360009081526020819052604081206005015460ff16610cc55760405162461bcd60e51b81526004016104d4906143be565b6001600160a01b03841660009081526004602052604090205460ff16610cfd5760405162461bcd60e51b81526004016104d4906143e9565b6001600160a01b0384163303610d255760405162461bcd60e51b81526004016104d490614420565b606482511115610d695760405162461bcd60e51b815260206004820152600f60248201526e52657669657720746f6f206c6f6e6760881b60448201526064016104d4565b6000825111610db35760405162461bcd60e51b81526020600482015260166024820152755265766965772063616e6e6f7420626520656d70747960501b60448201526064016104d4565b6000805b33600090815260016020526040902054811015610e305733600090815260016020526040902080546001600160a01b038816919083908110610dfb57610dfb6143a8565b6000918252602090912001546001600160a01b031603610e1e5760019150610e30565b80610e288161438f565b915050610db7565b5080610e4e5760405162461bcd60e51b81526004016104d49061444e565b6000338642610e8460206040518060400160405280600e81526020016d616e6f6e796d6f75735f666c616760901b8152506137b5565b604051602001610e979493929190614497565b6040516020818303038152906040528051906020012090506000610eb961123c565b6040516bffffffffffffffffffffffff193360601b1660208201526034810182905290915060009060540160408051601f198184030181528282528051602091820120908301520160408051808303601f190181526101208301825260008084526001600160a01b038c811660208087018281528e1515888801908152606089018f815260808a018890524260a08b015260c08a0187905260e08a018d905260016101008b01819052948752600384529786208054808601825590875292909520885160089093020180546001600160a01b0319169285169290921782555191810180549451929093166001600160a81b031990941693909317600160a01b9115159190910217905591519093508291906002820190610fd990826142ba565b5060808201516003820190610fee90826142ba565b5060a0820151600482015560c082015160058201805491151560ff1992831617905560e083015160068301556101009092015160079091018054911515919092161790556040516001600160a01b038a16906000907f9ba88d306a37fd98818ac121dcedf7652e9b4c3c0057043f8e51738279116d6290611097908c15158152604060208201819052600b908201526a5b414e4f4e594d4f55535d60a81b606082015260800190565b60405180910390a35091979650505050505050565b600360205281600052604060002081815481106110c857600080fd5b60009182526020909120600890910201805460018201546002830180546001600160a01b0393841696509282169450600160a01b90910460ff16929161110d90614232565b80601f016020809104026020016040519081016040528092919081815260200182805461113990614232565b80156111865780601f1061115b57610100808354040283529160200191611186565b820191906000526020600020905b81548152906001019060200180831161116957829003601f168201915b50505050509080600301805461119b90614232565b80601f01602080910402602001604051908101604052809291908181526020018280546111c790614232565b80156112145780601f106111e957610100808354040283529160200191611214565b820191906000526020600020905b8154815290600101906020018083116111f757829003601f168201915b505050506004830154600584015460068501546007909501549394919360ff91821693501689565b600042443361127360206040518060400160405280600f81526020016e333630b3afb2b731b93cb83a34b7b760891b8152506137b5565b60405160200161128694939291906144e4565b60405160208183030381529060405280519060200120905090565b60606000805b6001600160a01b03841660009081526003602052604090205481101561132d576001600160a01b03841660009081526003602052604090208054829081106112f1576112f16143a8565b600091825260209091206005600890920201015460ff161561131b57816113178161438f565b9250505b806113258161438f565b9150506112a7565b506000816001600160401b0381111561134857611348613b7c565b60405190808252806020026020018201604052801561138157816020015b61136e613888565b8152602001906001900390816113665790505b5090506000805b6001600160a01b038616600090815260036020526040902054811015610c89576001600160a01b03861660009081526003602052604090208054829081106113d2576113d26143a8565b600091825260209091206005600890920201015460ff16156115f5576001600160a01b0386166000908152600360205260409020805482908110611418576114186143a8565b6000918252602091829020604080516101208101825260089390930290910180546001600160a01b039081168452600182015490811694840194909452600160a01b90930460ff1615159082015260028201805491929160608401919061147e90614232565b80601f01602080910402602001604051908101604052809291908181526020018280546114aa90614232565b80156114f75780601f106114cc576101008083540402835291602001916114f7565b820191906000526020600020905b8154815290600101906020018083116114da57829003601f168201915b5050505050815260200160038201805461151090614232565b80601f016020809104026020016040519081016040528092919081815260200182805461153c90614232565b80156115895780601f1061155e57610100808354040283529160200191611589565b820191906000526020600020905b81548152906001019060200180831161156c57829003601f168201915b505050918352505060048201546020820152600582015460ff9081161515604083015260068301546060830152600790920154909116151560809091015283518490849081106115db576115db6143a8565b602002602001018190525081806115f19061438f565b9250505b806115ff8161438f565b915050611388565b3360009081526020819052604090206005015460ff166116395760405162461bcd60e51b81526004016104d4906143be565b6001600160a01b03831660009081526004602052604090205460ff166116715760405162461bcd60e51b81526004016104d4906143e9565b6001600160a01b03831633036116995760405162461bcd60e51b81526004016104d490614420565b60008151116116ea5760405162461bcd60e51b815260206004820181905260248201527f456e63727970746564207265766965772063616e6e6f7420626520656d70747960448201526064016104d4565b60c88151111561173c5760405162461bcd60e51b815260206004820152601960248201527f456e637279707465642072657669657720746f6f206c6f6e670000000000000060448201526064016104d4565b6000805b336000908152600160205260409020548110156117b95733600090815260016020526040902080546001600160a01b038716919083908110611784576117846143a8565b6000918252602090912001546001600160a01b0316036117a757600191506117b9565b806117b18161438f565b915050611740565b50806117d75760405162461bcd60e51b81526004016104d49061444e565b60003385426117f66020604051806020016040528060008152506137b5565b6040516020016118099493929190614497565b60408051808303601f190181528282528051602091820120610120840183523384526001600160a01b038981168386018181528a151587870190815286518087018852600080825260608a0191825260808a018d90524260a08b015260c08a0181905260e08a0187905260016101008b01819052948152600388529788208054808601825590895296909720885160089097020180546001600160a01b031916968516969096178655905191850180549151929093166001600160a81b031990911617600160a01b911515919091021790559151919350829160028201906118f190826142ba565b506080820151600382019061190690826142ba565b5060a0820151600482015560c082015160058201805491151560ff1992831617905560e083015160068301556101009092015160079091018054911515919092161790556040516001600160a01b0387169033907f9ba88d306a37fd98818ac121dcedf7652e9b4c3c0057043f8e51738279116d62906119ae908915158152604060208201819052600b908201526a5b454e435259505445445d60a81b606082015260800190565b60405180910390a3505050505050565b6005546001600160a01b031633146119e85760405162461bcd60e51b81526004016104d4906141f1565b6001600160a01b03811660009081526004602052604090205460ff16611a205760405162461bcd60e51b81526004016104d49061452a565b6001600160a01b038116600081815260208190526040808220600501805460ff19166001179055517fa6625d2d26e786e2f473111bea4b2fcdbbf1863d883a2359989ce3a103d2972a9190a250565b3360009081526004602052604090205460ff16611a9e5760405162461bcd60e51b81526004016104d49061452a565b336000908152602081905260409020600501805461ff0019169055565b3360009081526020819052604090206005015460ff16611aed5760405162461bcd60e51b81526004016104d4906143be565b60005b33600090815260036020526040902054811015611c1b5733600090815260036020526040902080546001600160a01b038416919083908110611b3457611b346143a8565b60009182526020909120600890910201546001600160a01b0316148015611b905750336000908152600360205260409020805482908110611b7757611b776143a8565b600091825260209091206005600890920201015460ff16155b15611c095733600090815260036020526040902080546001919083908110611bba57611bba6143a8565b60009182526020822060089190910201600501805460ff19169215159290921790915560405133917fccfd09644bb5b86167ce304fefafdf42f21e35b9057f6fc7cb6a6149eb4dc58791a25050565b80611c138161438f565b915050611af0565b5050565b6001600160a01b0381166000908152600360209081526040808320805482518185028101850190935280835260609492939192909184015b82821015611e2057600084815260209081902060408051610120810182526008860290920180546001600160a01b039081168452600182015490811694840194909452600160a01b90930460ff16151590820152600282018054919291606084019190611cc390614232565b80601f0160208091040260200160405190810160405280929190818152602001828054611cef90614232565b8015611d3c5780601f10611d1157610100808354040283529160200191611d3c565b820191906000526020600020905b815481529060010190602001808311611d1f57829003601f168201915b50505050508152602001600382018054611d5590614232565b80601f0160208091040260200160405190810160405280929190818152602001828054611d8190614232565b8015611dce5780601f10611da357610100808354040283529160200191611dce565b820191906000526020600020905b815481529060010190602001808311611db157829003601f168201915b50505091835250506004820154602080830191909152600583015460ff908116151560408401526006840154606084015260079093015490921615156080909101529082526001929092019101611c57565b505050509050919050565b3360009081526004602052604090205460ff16611e5a5760405162461bcd60e51b81526004016104d49061452a565b336000908152602081905260409020600501805461ff001916610100179055565b611ec76040518061010001604052806060815260200160008152602001606081526020016060815260200160008152602001600015158152602001600015158152602001600081525090565b6001600160a01b0382166000908152602081905260409081902081516101008101909252805482908290611efa90614232565b80601f0160208091040260200160405190810160405280929190818152602001828054611f2690614232565b8015611f735780601f10611f4857610100808354040283529160200191611f73565b820191906000526020600020905b815481529060010190602001808311611f5657829003601f168201915b5050505050815260200160018201548152602001600282018054611f9690614232565b80601f0160208091040260200160405190810160405280929190818152602001828054611fc290614232565b801561200f5780601f10611fe45761010080835404028352916020019161200f565b820191906000526020600020905b815481529060010190602001808311611ff257829003601f168201915b5050505050815260200160038201805480602002602001604051908101604052809291908181526020016000905b828210156120e957838290600052602060002001805461205c90614232565b80601f016020809104026020016040519081016040528092919081815260200182805461208890614232565b80156120d55780601f106120aa576101008083540402835291602001916120d5565b820191906000526020600020905b8154815290600101906020018083116120b857829003601f168201915b50505050508152602001906001019061203d565b5050509082525060048201546020820152600582015460ff80821615156040840152610100909104161515606082015260069091015460809091015292915050565b3360009081526020819052604090206005015460ff1661215d5760405162461bcd60e51b81526004016104d4906143be565b6001600160a01b03831660009081526004602052604090205460ff166121955760405162461bcd60e51b81526004016104d4906143e9565b6001600160a01b03831633036121bd5760405162461bcd60e51b81526004016104d490614420565b6064815111156122015760405162461bcd60e51b815260206004820152600f60248201526e52657669657720746f6f206c6f6e6760881b60448201526064016104d4565b600081511161224b5760405162461bcd60e51b81526020600482015260166024820152755265766965772063616e6e6f7420626520656d70747960501b60448201526064016104d4565b6000805b336000908152600160205260409020548110156122c85733600090815260016020526040902080546001600160a01b038716919083908110612293576122936143a8565b6000918252602090912001546001600160a01b0316036122b657600191506122c8565b806122c08161438f565b91505061224f565b50806122e65760405162461bcd60e51b81526004016104d49061444e565b60003385426123056020604051806020016040528060008152506137b5565b6040516020016123189493929190614497565b60408051808303601f190181528282528051602091820120610120840183523384526001600160a01b038981168386018181528a1515878701908152606088018b815287518088018952600080825260808b01919091524260a08b015260c08a0181905260e08a018790526101008a018190529384526003875296832080546001808201835591855296909320885160089097020180546001600160a01b031916968516969096178655905191850180549151929093166001600160a81b031990911617600160a01b9115159190910217905591519193508291600282019061240190826142ba565b506080820151600382019061241690826142ba565b5060a0820151600482015560c082015160058201805491151560ff1992831617905560e083015160068301556101009092015160079091018054911515919092161790556040516001600160a01b0387169033907f9ba88d306a37fd98818ac121dcedf7652e9b4c3c0057043f8e51738279116d62906119ae9089908990614557565b3360009081526004602052604090205460ff16156124f95760405162461bcd60e51b815260206004820152601760248201527f5573657220616c7265616479207265676973746572656400000000000000000060448201526064016104d4565b60128410156125405760405162461bcd60e51b815260206004820152601360248201527226bab9ba10313290189c1037b91037b63232b960691b60448201526064016104d4565b60008551116125885760405162461bcd60e51b81526020600482015260146024820152734e616d652063616e6e6f7420626520656d70747960601b60448201526064016104d4565b6101f4835111156125ca5760405162461bcd60e51b815260206004820152600c60248201526b42696f20746f6f206c6f6e6760a01b60448201526064016104d4565b600a825111156126115760405162461bcd60e51b8152602060048201526012602482015271546f6f206d616e7920696e7465726573747360701b60448201526064016104d4565b6000811161266f5760405162461bcd60e51b815260206004820152602560248201527f4d6f6e74686c792073616c617279206d75737420626520677265617465722074604482015264068616e20360dc1b60648201526084016104d4565b604080516101008101825286815260208082018790528183018690526060820185905260808201849052600060a08301819052600160c08401524260e08401523381529081905291909120815181906126c890826142ba565b5060208201516001820155604082015160028201906126e790826142ba565b50606082015180516127039160038401916020909101906138d3565b50608082015160048083019190915560a083015160058301805460c086015115156101000261ff00199315159390931661ffff199091161791909117905560e09092015160069182015533600090815260209290925260408220805460ff191660011790558054916127748361438f565b9190505550336001600160a01b03167f48cac28ad4dc618e15f4c2dd5e97751182f166de97b25618318b2112aa951a2f866040516127b291906141de565b60405180910390a25050505050565b6002602081905260009182526040909120805460018201549282015460038301546004840180546001600160a01b039485169690941694929360ff80841694610100850482169462010000900490911692909161281d90614232565b80601f016020809104026020016040519081016040528092919081815260200182805461284990614232565b80156128965780601f1061286b57610100808354040283529160200191612896565b820191906000526020600020905b81548152906001019060200180831161287957829003601f168201915b5050505050908060050180546128ab90614232565b80601f01602080910402602001604051908101604052809291908181526020018280546128d790614232565b80156129245780601f106128f957610100808354040283529160200191612924565b820191906000526020600020905b81548152906001019060200180831161290757829003601f168201915b5050506006909301549192505060ff1689565b60006020819052908152604090208054819061295290614232565b80601f016020809104026020016040519081016040528092919081815260200182805461297e90614232565b80156129cb5780601f106129a0576101008083540402835291602001916129cb565b820191906000526020600020905b8154815290600101906020018083116129ae57829003601f168201915b5050505050908060010154908060020180546129e690614232565b80601f0160208091040260200160405190810160405280929190818152602001828054612a1290614232565b8015612a5f5780601f10612a3457610100808354040283529160200191612a5f565b820191906000526020600020905b815481529060010190602001808311612a4257829003601f168201915b505050600484015460058501546006909501549394909360ff8083169450610100909204909116915087565b6001600160a01b038116600090815260036020526040812054908080805b6001600160a01b038616600090815260036020526040902054811015612b9e576001600160a01b0386166000908152600360205260409020805482908110612af357612af36143a8565b600091825260209091206005600890920201015460ff1615612b8c5781612b198161438f565b6001600160a01b03881660009081526003602052604090208054919450915082908110612b4857612b486143a8565b906000526020600020906008020160010160149054906101000a900460ff1615612b7e5783612b768161438f565b945050612b8c565b82612b888161438f565b9350505b80612b968161438f565b915050612aa9565b509193509193565b6001600160a01b038116600090815260016020908152604091829020805483518184028101840190945280845260609392830182828015612c1057602002820191906000526020600020905b81546001600160a01b03168152600190910190602001808311612bf2575b50505050509050919050565b3360009081526004602052604090205460ff16612c4b5760405162461bcd60e51b81526004016104d49061452a565b6101f482511115612c8d5760405162461bcd60e51b815260206004820152600c60248201526b42696f20746f6f206c6f6e6760a01b60448201526064016104d4565b600a81511115612cd45760405162461bcd60e51b8152602060048201526012602482015271546f6f206d616e7920696e7465726573747360701b60448201526064016104d4565b336000908152602081905260409020600201612cf083826142ba565b50336000908152602081815260409091208251612d15926003909201918401906138d3565b505050565b612d22613888565b60005b6001600160a01b038316600090815260036020526040902054811015612f7e576001600160a01b0383166000908152600360205260409020805485919083908110612d7257612d726143a8565b90600052602060002090600802016006015403612f6c576001600160a01b0383166000908152600360205260408120805483908110612db357612db36143a8565b6000918252602091829020604080516101208101825260089390930290910180546001600160a01b039081168452600182015490811694840194909452600160a01b90930460ff16151590820152600282018054919291606084019190612e1990614232565b80601f0160208091040260200160405190810160405280929190818152602001828054612e4590614232565b8015612e925780601f10612e6757610100808354040283529160200191612e92565b820191906000526020600020905b815481529060010190602001808311612e7557829003601f168201915b50505050508152602001600382018054612eab90614232565b80601f0160208091040260200160405190810160405280929190818152602001828054612ed790614232565b8015612f245780601f10612ef957610100808354040283529160200191612f24565b820191906000526020600020905b815481529060010190602001808311612f0757829003601f168201915b505050918352505060048201546020820152600582015460ff9081161515604083015260068301546060830152600790920154909116151560809091015292506132d6915050565b80612f768161438f565b915050612d25565b5060005b600654612f9090600a614572565b81101561328d576000612fa4826001614572565b6001600160a01b03811660009081526004602052604090205490915060ff161561327a5760005b6001600160a01b038216600090815260036020526040902054811015613278576001600160a01b0382166000908152600360205260409020805487919083908110613018576130186143a8565b90600052602060002090600802016006015414801561307d57506001600160a01b03828116600090815260036020526040902080549187169183908110613061576130616143a8565b60009182526020909120600890910201546001600160a01b0316145b15613266576001600160a01b03821660009081526003602052604090208054829081106130ac576130ac6143a8565b6000918252602091829020604080516101208101825260089390930290910180546001600160a01b039081168452600182015490811694840194909452600160a01b90930460ff1615159082015260028201805491929160608401919061311290614232565b80601f016020809104026020016040519081016040528092919081815260200182805461313e90614232565b801561318b5780601f106131605761010080835404028352916020019161318b565b820191906000526020600020905b81548152906001019060200180831161316e57829003601f168201915b505050505081526020016003820180546131a490614232565b80601f01602080910402602001604051908101604052809291908181526020018280546131d090614232565b801561321d5780601f106131f25761010080835404028352916020019161321d565b820191906000526020600020905b81548152906001019060200180831161320057829003601f168201915b505050918352505060048201546020820152600582015460ff9081161515604083015260068301546060830152600790920154909116151560809091015293506132d692505050565b806132708161438f565b915050612fcb565b505b50806132858161438f565b915050612f82565b5060405162461bcd60e51b815260206004820152601f60248201527f466c6167206e6f7420666f756e64206f72206163636573732064656e6965640060448201526064016104d4565b92915050565b606060006006546001600160401b038111156132fa576132fa613b7c565b604051908082528060200260200182016040528015613323578160200160208202803683370190505b5092915050565b6060828260405160200161333f929190614585565b60408051601f1981840301815282825280516020918201209083015201604051602081830303815290604052905092915050565b60606000805b6001600160a01b038416600090815260036020526040902054811015613451576001600160a01b03841660009081526003602052604090208054829081106133c3576133c36143a8565b600091825260209091206005600890920201015460ff16801561342c57506001600160a01b038416600090815260036020526040902080548290811061340b5761340b6143a8565b906000526020600020906008020160010160149054906101000a900460ff16155b1561343f578161343b8161438f565b9250505b806134498161438f565b915050613379565b506000816001600160401b0381111561346c5761346c613b7c565b6040519080825280602002602001820160405280156134a557816020015b613492613888565b81526020019060019003908161348a5790505b5090506000805b6001600160a01b038616600090815260036020526040902054811015610c89576001600160a01b03861660009081526003602052604090208054829081106134f6576134f66143a8565b600091825260209091206005600890920201015460ff16801561355f57506001600160a01b038616600090815260036020526040902080548290811061353e5761353e6143a8565b906000526020600020906008020160010160149054906101000a900460ff16155b1561376b576001600160a01b038616600090815260036020526040902080548290811061358e5761358e6143a8565b6000918252602091829020604080516101208101825260089390930290910180546001600160a01b039081168452600182015490811694840194909452600160a01b90930460ff161515908201526002820180549192916060840191906135f490614232565b80601f016020809104026020016040519081016040528092919081815260200182805461362090614232565b801561366d5780601f106136425761010080835404028352916020019161366d565b820191906000526020600020905b81548152906001019060200180831161365057829003601f168201915b5050505050815260200160038201805461368690614232565b80601f01602080910402602001604051908101604052809291908181526020018280546136b290614232565b80156136ff5780601f106136d4576101008083540402835291602001916136ff565b820191906000526020600020905b8154815290600101906020018083116136e257829003601f168201915b505050918352505060048201546020820152600582015460ff908116151560408301526006830154606083015260079092015490911615156080909101528351849084908110613751576137516143a8565b602002602001018190525081806137679061438f565b9250505b806137758161438f565b9150506134ac565b6001602052816000526040600020818154811061379957600080fd5b6000918252602090912001546001600160a01b03169150829050565b60606000806001600160981b016001600160a01b031685856040516020016137de9291906145a7565b60408051601f19818403018152908290526137f8916145c0565b600060405180830381855afa9150503d8060008114613833576040519150601f19603f3d011682016040523d82523d6000602084013e613838565b606091505b5091509150816138805760405162461bcd60e51b81526020600482015260136024820152721c985b991bdb509e5d195cce8819985a5b1959606a1b60448201526064016104d4565b949350505050565b60408051610120810182526000808252602082018190529181018290526060808201819052608082015260a0810182905260c0810182905260e0810182905261010081019190915290565b828054828255906000526020600020908101928215613919579160200282015b82811115613919578251829061390990826142ba565b50916020019190600101906138f3565b50613925929150613929565b5090565b8082111561392557600061393d8282613946565b50600101613929565b50805461395290614232565b6000825580601f10613962575050565b601f0160209004906000526020600020908101906139809190613983565b50565b5b808211156139255760008155600101613984565b80356001600160a01b03811681146139af57600080fd5b919050565b600080604083850312156139c757600080fd5b6139d083613998565b91506139de60208401613998565b90509250929050565b6000602082840312156139f957600080fd5b613a0282613998565b9392505050565b60005b83811015613a24578181015183820152602001613a0c565b50506000910152565b60008151808452613a45816020860160208601613a09565b601f01601f19169290920160200192915050565b80516001600160a01b0316825260006101206020830151613a8560208601826001600160a01b03169052565b506040830151613a99604086018215159052565b506060830151816060860152613ab182860182613a2d565b91505060808301518482036080860152613acb8282613a2d565b91505060a083015160a085015260c0830151613aeb60c086018215159052565b5060e083015160e085015261010080840151610c898287018215159052565b6000602080830181845280855180835260408601915060408160051b870101925083870160005b82811015613b5f57603f19888603018452613b4d858351613a59565b94509285019290850190600101613b31565b5092979650505050505050565b803580151581146139af57600080fd5b634e487b7160e01b600052604160045260246000fd5b604051601f8201601f191681016001600160401b0381118282101715613bba57613bba613b7c565b604052919050565b60006001600160401b03831115613bdb57613bdb613b7c565b613bee601f8401601f1916602001613b92565b9050828152838383011115613c0257600080fd5b828260208301376000602084830101529392505050565b600082601f830112613c2a57600080fd5b613a0283833560208501613bc2565b600080600060608486031215613c4e57600080fd5b613c5784613998565b9250613c6560208501613b6c565b915060408401356001600160401b03811115613c8057600080fd5b613c8c86828701613c19565b9150509250925092565b60008060408385031215613ca957600080fd5b613cb283613998565b946020939093013593505050565b6001600160a01b038a8116825289166020820152871515604082015261012060608201819052600090613cf58382018a613a2d565b90508281036080840152613d098189613a2d565b60a0840197909752505092151560c084015260e083019190915215156101009091015295945050505050565b600080600060608486031215613d4a57600080fd5b613d5384613998565b9250613d6160208501613b6c565b915060408401356001600160401b03811115613d7c57600080fd5b8401601f81018613613d8d57600080fd5b613c8c86823560208401613bc2565b600081518084526020808501808196508360051b8101915082860160005b85811015613de4578284038952613dd2848351613a2d565b98850198935090840190600101613dba565b5091979650505050505050565b6020815260008251610100806020850152613e10610120850183613a2d565b9150602085015160408501526040850151601f1980868503016060870152613e388483613a2d565b9350606087015191508086850301608087015250613e568382613d9c565b925050608085015160a085015260a0850151613e7660c086018215159052565b5060c085015180151560e08601525060e0949094015192909301919091525090565b600082601f830112613ea957600080fd5b813560206001600160401b0380831115613ec557613ec5613b7c565b8260051b613ed4838201613b92565b9384528581018301938381019088861115613eee57600080fd5b84880192505b85831015613f2a57823584811115613f0c5760008081fd5b613f1a8a87838c0101613c19565b8352509184019190840190613ef4565b98975050505050505050565b600080600080600060a08688031215613f4e57600080fd5b85356001600160401b0380821115613f6557600080fd5b613f7189838a01613c19565b9650602088013595506040880135915080821115613f8e57600080fd5b613f9a89838a01613c19565b94506060880135915080821115613fb057600080fd5b50613fbd88828901613e98565b95989497509295608001359392505050565b600060208284031215613fe157600080fd5b5035919050565b6001600160a01b038a8116825289166020820152604081018890528615156060820152851515608082015284151560a082015261012060c0820181905260009061403483820187613a2d565b905082810360e08401526140488186613a2d565b9150508215156101008301529a9950505050505050505050565b60e08152600061407560e083018a613a2d565b886020840152828103604084015261408d8189613a2d565b60608401979097525050921515608084015290151560a083015260c0909101529392505050565b6020808252825182820181905260009190848201906040850190845b818110156140f55783516001600160a01b0316835292840192918401916001016140d0565b50909695505050505050565b6000806040838503121561411457600080fd5b82356001600160401b038082111561412b57600080fd5b61413786838701613c19565b9350602085013591508082111561414d57600080fd5b5061415a85828601613e98565b9150509250929050565b6000806040838503121561417757600080fd5b823591506139de60208401613998565b602081526000613a026020830184613a59565b600080604083850312156141ad57600080fd5b82356001600160401b038111156141c357600080fd5b6141cf85828601613c19565b95602094909401359450505050565b602081526000613a026020830184613a2d565b60208082526021908201527f4f6e6c79206f776e65722063616e2063616c6c20746869732066756e6374696f6040820152603760f91b606082015260800190565b600181811c9082168061424657607f821691505b60208210810361426657634e487b7160e01b600052602260045260246000fd5b50919050565b601f821115612d1557600081815260208120601f850160051c810160208610156142935750805b601f850160051c820191505b818110156142b25782815560010161429f565b505050505050565b81516001600160401b038111156142d3576142d3613b7c565b6142e7816142e18454614232565b8461426c565b602080601f83116001811461431c57600084156143045750858301515b600019600386901b1c1916600185901b1785556142b2565b600085815260208120601f198616915b8281101561434b5788860151825594840194600190910190840161432c565b50858210156143695787850151600019600388901b60f8161c191681555b5050505050600190811b01905550565b634e487b7160e01b600052601160045260246000fd5b6000600182016143a1576143a1614379565b5060010190565b634e487b7160e01b600052603260045260246000fd5b602080825260119082015270155cd95c881b9bdd081d995c9a599a5959607a1b604082015260600190565b6020808252601a908201527f5461726765742075736572206e6f742072656769737465726564000000000000604082015260600190565b60208082526014908201527321b0b73737ba10333630b3903cb7bab939b2b63360611b604082015260600190565b60208082526029908201527f43616e206f6e6c7920666c616720757365727320796f752068617665206d61746040820152680c6d0cac840eed2e8d60bb1b606082015260800190565b60006bffffffffffffffffffffffff19808760601b168352808660601b1660148401525083602883015282516144d4816048850160208701613a09565b9190910160480195945050505050565b8481528360208201526bffffffffffffffffffffffff198360601b1660408201526000825161451a816054850160208701613a09565b9190910160540195945050505050565b602080825260139082015272155cd95c881b9bdd081c9959da5cdd195c9959606a1b604082015260600190565b82151581526040602082015260006138806040830184613a2d565b808201808211156132d6576132d6614379565b60008351614597818460208801613a09565b9190910191825250602001919050565b8281526040602082015260006138806040830184613a2d565b600082516145d2818460208701613a09565b919091019291505056fea2646970667358221220c7899332d8b0ff1a20bdd5aaab03b323481ffe8e66334059fd4b7cd061899ac764736f6c63430008130033",
  "linkReferences": {},
  "deployedLinkReferences": {}
}