{
  "_format": "hh-sol-artifact-1",
  "contractName": "KYCProfileSelfService",
  "sourceName": "contracts/KYCProfileSelfService.sol",
  "abi": [
    {
      "inputs": [],
      "stateMutability": "nonpayable",
      "type": "constructor"
    },
    {
      "anonymous": false,
      "inputs": [
        {
          "indexed": true,
          "internalType": "address",
          "name": "user",
          "type": "address"
        },
        {
          "indexed": true,
          "internalType": "address",
          "name": "verifier",
          "type": "address"
        },
        {
          "indexed": false,
          "internalType": "uint256",
          "name": "timestamp",
          "type": "uint256"
        }
      ],
      "name": "KYCVerified",
      "type": "event"
    },
    {
      "anonymous": false,
      "inputs": [
        {
          "indexed": true,
          "internalType": "address",
          "name": "user",
          "type": "address"
        },
        {
          "indexed": false,
          "internalType": "string",
          "name": "username",
          "type": "string"
        },
        {
          "indexed": false,
          "internalType": "uint256",
          "name": "timestamp",
          "type": "uint256"
        }
      ],
      "name": "ProfileCreated",
      "type": "event"
    },
    {
      "anonymous": false,
      "inputs": [
        {
          "indexed": true,
          "internalType": "address",
          "name": "user",
          "type": "address"
        },
        {
          "indexed": false,
          "internalType": "uint256",
          "name": "timestamp",
          "type": "uint256"
        }
      ],
      "name": "ProfileUpdated",
      "type": "event"
    },
    {
      "anonymous": false,
      "inputs": [
        {
          "indexed": true,
          "internalType": "address",
          "name": "user",
          "type": "address"
        },
        {
          "indexed": true,
          "internalType": "address",
          "name": "viewer",
          "type": "address"
        },
        {
          "indexed": false,
          "internalType": "uint256",
          "name": "timestamp",
          "type": "uint256"
        }
      ],
      "name": "ViewerAuthorized",
      "type": "event"
    },
    {
      "anonymous": false,
      "inputs": [
        {
          "indexed": true,
          "internalType": "address",
          "name": "user",
          "type": "address"
        },
        {
          "indexed": true,
          "internalType": "address",
          "name": "viewer",
          "type": "address"
        },
        {
          "indexed": false,
          "internalType": "uint256",
          "name": "timestamp",
          "type": "uint256"
        }
      ],
      "name": "ViewerRevoked",
      "type": "event"
    },
    {
      "inputs": [
        {
          "internalType": "address",
          "name": "_verifier",
          "type": "address"
        }
      ],
      "name": "addAuthorizedVerifier",
      "outputs": [],
      "stateMutability": "nonpayable",
      "type": "function"
    },
    {
      "inputs": [
        {
          "internalType": "address",
          "name": "_viewer",
          "type": "address"
        }
      ],
      "name": "authorizeViewer",
      "outputs": [],
      "stateMutability": "nonpayable",
      "type": "function"
    },
    {
      "inputs": [
        {
          "internalType": "address",
          "name": "",
          "type": "address"
        }
      ],
      "name": "authorizedVerifiers",
      "outputs": [
        {
          "internalType": "bool",
          "name": "",
          "type": "bool"
        }
      ],
      "stateMutability": "view",
      "type": "function"
    },
    {
      "inputs": [
        {
          "internalType": "string",
          "name": "_username",
          "type": "string"
        },
        {
          "internalType": "uint256",
          "name": "_age",
          "type": "uint256"
        },
        {
          "internalType": "string",
          "name": "_gender",
          "type": "string"
        },
        {
          "internalType": "string",
          "name": "_fullName",
          "type": "string"
        },
        {
          "internalType": "string",
          "name": "_bio",
          "type": "string"
        },
        {
          "internalType": "string[]",
          "name": "_interests",
          "type": "string[]"
        },
        {
          "internalType": "uint256",
          "name": "_monthlySalary",
          "type": "uint256"
        },
        {
          "internalType": "string",
          "name": "_profileImageHash",
          "type": "string"
        }
      ],
      "name": "createProfile",
      "outputs": [],
      "stateMutability": "nonpayable",
      "type": "function"
    },
    {
      "inputs": [],
      "name": "deactivateProfile",
      "outputs": [],
      "stateMutability": "nonpayable",
      "type": "function"
    },
    {
      "inputs": [
        {
          "internalType": "address",
          "name": "_user",
          "type": "address"
        }
      ],
      "name": "emergencyDeactivateUser",
      "outputs": [],
      "stateMutability": "nonpayable",
      "type": "function"
    },
    {
      "inputs": [
        {
          "internalType": "address",
          "name": "_user",
          "type": "address"
        }
      ],
      "name": "getKYCData",
      "outputs": [
        {
          "internalType": "string",
          "name": "documentType",
          "type": "string"
        },
        {
          "internalType": "string",
          "name": "verificationProvider",
          "type": "string"
        },
        {
          "internalType": "uint256",
          "name": "verificationTimestamp",
          "type": "uint256"
        },
        {
          "internalType": "bool",
          "name": "isVerified",
          "type": "bool"
        }
      ],
      "stateMutability": "view",
      "type": "function"
    },
    {
      "inputs": [
        {
          "internalType": "address",
          "name": "_user",
          "type": "address"
        }
      ],
      "name": "getPrivateProfile",
      "outputs": [
        {
          "internalType": "string",
          "name": "fullName",
          "type": "string"
        },
        {
          "internalType": "string",
          "name": "bio",
          "type": "string"
        },
        {
          "internalType": "string[]",
          "name": "interests",
          "type": "string[]"
        },
        {
          "internalType": "uint256",
          "name": "monthlySalary",
          "type": "uint256"
        },
        {
          "internalType": "string",
          "name": "profileImageHash",
          "type": "string"
        }
      ],
      "stateMutability": "view",
      "type": "function"
    },
    {
      "inputs": [
        {
          "internalType": "address",
          "name": "_user",
          "type": "address"
        }
      ],
      "name": "getPublicProfile",
      "outputs": [
        {
          "internalType": "string",
          "name": "username",
          "type": "string"
        },
        {
          "internalType": "uint256",
          "name": "age",
          "type": "uint256"
        },
        {
          "internalType": "string",
          "name": "gender",
          "type": "string"
        },
        {
          "internalType": "bool",
          "name": "isKYCVerified",
          "type": "bool"
        },
        {
          "internalType": "bool",
          "name": "isActive",
          "type": "bool"
        },
        {
          "internalType": "uint256",
          "name": "createdAt",
          "type": "uint256"
        }
      ],
      "stateMutability": "view",
      "type": "function"
    },
    {
      "inputs": [],
      "name": "getTotalUsers",
      "outputs": [
        {
          "internalType": "uint256",
          "name": "",
          "type": "uint256"
        }
      ],
      "stateMutability": "view",
      "type": "function"
    },
    {
      "inputs": [
        {
          "internalType": "uint256",
          "name": "_start",
          "type": "uint256"
        },
        {
          "internalType": "uint256",
          "name": "_limit",
          "type": "uint256"
        }
      ],
      "name": "getUsers",
      "outputs": [
        {
          "internalType": "address[]",
          "name": "addresses",
          "type": "address[]"
        },
        {
          "internalType": "string[]",
          "name": "usernames",
          "type": "string[]"
        },
        {
          "internalType": "bool[]",
          "name": "kycStatuses",
          "type": "bool[]"
        },
        {
          "internalType": "bool[]",
          "name": "activeStatuses",
          "type": "bool[]"
        }
      ],
      "stateMutability": "view",
      "type": "function"
    },
    {
      "inputs": [
        {
          "internalType": "address",
          "name": "_user",
          "type": "address"
        },
        {
          "internalType": "address",
          "name": "_viewer",
          "type": "address"
        }
      ],
      "name": "isAuthorizedViewer",
      "outputs": [
        {
          "internalType": "bool",
          "name": "",
          "type": "bool"
        }
      ],
      "stateMutability": "view",
      "type": "function"
    },
    {
      "inputs": [
        {
          "internalType": "address",
          "name": "",
          "type": "address"
        }
      ],
      "name": "isRegistered",
      "outputs": [
        {
          "internalType": "bool",
          "name": "",
          "type": "bool"
        }
      ],
      "stateMutability": "view",
      "type": "function"
    },
    {
      "inputs": [
        {
          "internalType": "address",
          "name": "_user",
          "type": "address"
        }
      ],
      "name": "isUserActiveAndVerified",
      "outputs": [
        {
          "internalType": "bool",
          "name": "",
          "type": "bool"
        }
      ],
      "stateMutability": "view",
      "type": "function"
    },
    {
      "inputs": [],
      "name": "owner",
      "outputs": [
        {
          "internalType": "address",
          "name": "",
          "type": "address"
        }
      ],
      "stateMutability": "view",
      "type": "function"
    },
    {
      "inputs": [
        {
          "internalType": "address",
          "name": "",
          "type": "address"
        }
      ],
      "name": "publicProfiles",
      "outputs": [
        {
          "internalType": "string",
          "name": "username",
          "type": "string"
        },
        {
          "internalType": "uint256",
          "name": "age",
          "type": "uint256"
        },
        {
          "internalType": "string",
          "name": "gender",
          "type": "string"
        },
        {
          "internalType": "bool",
          "name": "isKYCVerified",
          "type": "bool"
        },
        {
          "internalType": "bool",
          "name": "isActive",
          "type": "bool"
        },
        {
          "internalType": "uint256",
          "name": "createdAt",
          "type": "uint256"
        }
      ],
      "stateMutability": "view",
      "type": "function"
    },
    {
      "inputs": [],
      "name": "reactivateProfile",
      "outputs": [],
      "stateMutability": "nonpayable",
      "type": "function"
    },
    {
      "inputs": [
        {
          "internalType": "uint256",
          "name": "",
          "type": "uint256"
        }
      ],
      "name": "registeredUsers",
      "outputs": [
        {
          "internalType": "address",
          "name": "",
          "type": "address"
        }
      ],
      "stateMutability": "view",
      "type": "function"
    },
    {
      "inputs": [
        {
          "internalType": "address",
          "name": "_verifier",
          "type": "address"
        }
      ],
      "name": "removeAuthorizedVerifier",
      "outputs": [],
      "stateMutability": "nonpayable",
      "type": "function"
    },
    {
      "inputs": [
        {
          "internalType": "address",
          "name": "_viewer",
          "type": "address"
        }
      ],
      "name": "revokeViewer",
      "outputs": [],
      "stateMutability": "nonpayable",
      "type": "function"
    },
    {
      "inputs": [
        {
          "internalType": "string",
          "name": "_documentType",
          "type": "string"
        },
        {
          "internalType": "string",
          "name": "_encryptedDocumentNumber",
          "type": "string"
        },
        {
          "internalType": "string",
          "name": "_kycDocumentHash",
          "type": "string"
        }
      ],
      "name": "submitKYCDocuments",
      "outputs": [],
      "stateMutability": "nonpayable",
      "type": "function"
    },
    {
      "inputs": [
        {
          "internalType": "string",
          "name": "_bio",
          "type": "string"
        },
        {
          "internalType": "string[]",
          "name": "_interests",
          "type": "string[]"
        },
        {
          "internalType": "string",
          "name": "_profileImageHash",
          "type": "string"
        }
      ],
      "name": "updateProfile",
      "outputs": [],
      "stateMutability": "nonpayable",
      "type": "function"
    },
    {
      "inputs": [
        {
          "internalType": "address",
          "name": "_user",
          "type": "address"
        }
      ],
      "name": "verifyKYC",
      "outputs": [],
      "stateMutability": "nonpayable",
      "type": "function"
    }
  ],
  "bytecode": "0x608060405234801561001057600080fd5b50600780546001600160a01b031916339081179091556000908152600660205260409020805460ff19166001179055612a2b8061004e6000396000f3fe608060405234801561001057600080fd5b506004361061014d5760003560e01c806375db7721116100c3578063a65a2c3e1161007c578063a65a2c3e146102de578063ab47a2f9146102f1578063ac0c087a14610314578063c3c5a54714610327578063c77304ce1461034a578063dc893a301461036e57600080fd5b806375db7721146102695780638701cc271461027157806387d3701a146102845780638da5cb5b146102975780639a891716146102aa5780639be572f6146102cd57600080fd5b806342e647fa1161011557806342e647fa146101bd57806345982a66146101d057806357a1c5e9146101f35780636e607fa714610206578063700d23b8146102195780637259e0f81461023e57600080fd5b806320a17bca146101525780632102fc5e1461015c5780633363f5a81461016f578063388edb2c1461018257806338d16011146101aa575b600080fd5b61015a610381565b005b61015a61016a36600461215e565b6103d6565b61015a61017d3660046122d6565b61045d565b6101956101903660046123e0565b6107e6565b60405190151581526020015b60405180910390f35b61015a6101b836600461215e565b610816565b61015a6101cb366004612413565b610a6c565b6101e36101de36600461249b565b610ccb565b6040516101a19493929190612595565b61019561020136600461215e565b61104b565b61015a61021436600461215e565b6110bc565b61022c61022736600461215e565b61110a565b6040516101a19695949392919061261f565b61025161024c366004612669565b6112ff565b6040516001600160a01b0390911681526020016101a1565b61015a611329565b61015a61027f36600461215e565b611379565b61015a610292366004612682565b6114af565b600754610251906001600160a01b031681565b6101956102b836600461215e565b60066020526000908152604090205460ff1681565b6005546040519081526020016101a1565b61015a6102ec36600461215e565b6115c9565b6103046102ff36600461215e565b611672565b6040516101a194939291906126dd565b61015a61032236600461215e565b61192f565b61019561033536600461215e565b60036020526000908152604090205460ff1681565b61035d61035836600461215e565b6119bb565b6040516101a195949392919061271b565b61022c61037c36600461215e565b611e70565b3360009081526003602052604090205460ff166103b95760405162461bcd60e51b81526004016103b09061276e565b60405180910390fd5b336000908152602081905260409020600301805461ff0019169055565b6007546001600160a01b031633146104005760405162461bcd60e51b81526004016103b09061279b565b6001600160a01b03811660009081526003602052604090205460ff166104385760405162461bcd60e51b81526004016103b09061276e565b6001600160a01b03166000908152602081905260409020600301805461ff0019169055565b3360009081526003602052604090205460ff16156104bd5760405162461bcd60e51b815260206004820152601760248201527f5573657220616c7265616479207265676973746572656400000000000000000060448201526064016103b0565b600088511161050e5760405162461bcd60e51b815260206004820152601860248201527f557365726e616d652063616e6e6f7420626520656d707479000000000000000060448201526064016103b0565b60128710158015610520575060648711155b61056c5760405162461bcd60e51b815260206004820152601e60248201527f416765206d757374206265206265747765656e20313820616e6420313030000060448201526064016103b0565b60008551116105bd5760405162461bcd60e51b815260206004820152601960248201527f46756c6c206e616d652063616e6e6f7420626520656d7074790000000000000060448201526064016103b0565b6040805160c08101825289815260208082018a9052818301899052600060608301819052600160808401524260a08401523381529081905291909120815181906106079082612865565b5060208201516001820155604082015160028201906106269082612865565b5060608281015160038301805460808087015161ffff1990921693151561ff001916939093176101009115159190910217905560a0938401516004909301929092556040805160e08101825289815260208082018a9052818301899052928101879052928301859052805180830182526000808252948401528051808301825284815260c08401523384526001909152909120815181906106c79082612865565b50602082015160018201906106dc9082612865565b50604082015180516106f891600284019160209091019061207d565b5060608201516003820155608082015160048201906107179082612865565b5060a0820151600582019061072c9082612865565b5060c082015160068201906107419082612865565b505033600081815260036020526040808220805460ff191660019081179091556005805491820181559092527f036b6384b5eca791c62761152d0c79bb0604c104a5fb6f4eb0703f3154bb3db090910180546001600160a01b03191683179055519091507f25dbccf9f713a2b16ed5d635585b4778d0d7e66b7b631871e668a694131e5fad906107d4908b904290612925565b60405180910390a25050505050505050565b6001600160a01b0380831660009081526004602090815260408083209385168352929052205460ff165b92915050565b3360009081526006602052604090205460ff168061083e57506007546001600160a01b031633145b61088a5760405162461bcd60e51b815260206004820152601c60248201527f4e6f7420617574686f72697a656420746f20766572696679204b59430000000060448201526064016103b0565b6001600160a01b03811660009081526003602052604090205460ff166108c25760405162461bcd60e51b81526004016103b09061276e565b6001600160a01b03811660009081526020819052604090206003015460ff16156109255760405162461bcd60e51b815260206004820152601460248201527312d650c8185b1c9958591e481d995c9a599a595960621b60448201526064016103b0565b6001600160a01b03811660009081526002602052604081208054610948906127dd565b9050116109975760405162461bcd60e51b815260206004820152601a60248201527f4e6f204b594320646f63756d656e7473207375626d697474656400000000000060448201526064016103b0565b6001600160a01b038116600081815260026020818152604080842060048101805460ff191660011790558151808301909252601382527236b0b73ab0b62fbb32b934b334b1b0ba34b7b760691b828401529490935281905291909101906109fe9082612865565b506001600160a01b03811660008181526002602090815260408083204260039182018190558484529382902001805460ff19166001179055519182523392917fd8b879062b804f0a2bd0b75ba02d6dbd9999fc9971ece871c8d1aedb447c5f9391015b60405180910390a350565b3360009081526003602052604090205460ff16610a9b5760405162461bcd60e51b81526004016103b09061276e565b3360009081526020819052604090206003015460ff1615610af55760405162461bcd60e51b815260206004820152601460248201527312d650c8185b1c9958591e481d995c9a599a595960621b60448201526064016103b0565b6000835111610b465760405162461bcd60e51b815260206004820152601d60248201527f446f63756d656e7420747970652063616e6e6f7420626520656d70747900000060448201526064016103b0565b6000825111610b975760405162461bcd60e51b815260206004820152601f60248201527f446f63756d656e74206e756d6265722063616e6e6f7420626520656d7074790060448201526064016103b0565b6000815111610be85760405162461bcd60e51b815260206004820152601d60248201527f446f63756d656e7420686173682063616e6e6f7420626520656d70747900000060448201526064016103b0565b6040805160a081018252848152602080820185905282518084018452601481527373656c665f736572766963655f70656e64696e6760601b818301528284015242606083015260006080830181905233815260029091529190912081518190610c519082612865565b5060208201516001820190610c669082612865565b5060408201516002820190610c7b9082612865565b50606082015160038201556080909101516004909101805460ff1916911515919091179055336000908152600160205260409020600501610cbc8282612865565b50610cc633611fbb565b505050565b6060806060806005805490508610610d255760405162461bcd60e51b815260206004820152601960248201527f537461727420696e646578206f7574206f6620626f756e64730000000000000060448201526064016103b0565b6000610d31868861295d565b600554909150811115610d4357506005545b6000610d4f8883612970565b90508067ffffffffffffffff811115610d6a57610d6a612180565b604051908082528060200260200182016040528015610d93578160200160208202803683370190505b5095508067ffffffffffffffff811115610daf57610daf612180565b604051908082528060200260200182016040528015610de257816020015b6060815260200190600190039081610dcd5790505b5094508067ffffffffffffffff811115610dfe57610dfe612180565b604051908082528060200260200182016040528015610e27578160200160208202803683370190505b5093508067ffffffffffffffff811115610e4357610e43612180565b604051908082528060200260200182016040528015610e6c578160200160208202803683370190505b50925060005b8181101561103f5760006005610e88838c61295d565b81548110610e9857610e98612983565b9060005260206000200160009054906101000a90046001600160a01b0316905080888381518110610ecb57610ecb612983565b6001600160a01b03928316602091820292909201810191909152908216600090815290819052604090208054610f00906127dd565b80601f0160208091040260200160405190810160405280929190818152602001828054610f2c906127dd565b8015610f795780601f10610f4e57610100808354040283529160200191610f79565b820191906000526020600020905b815481529060010190602001808311610f5c57829003601f168201915b5050505050878381518110610f9057610f90612983565b6020908102919091018101919091526001600160a01b0382166000908152908190526040902060030154865160ff90911690879084908110610fd457610fd4612983565b9115156020928302919091018201526001600160a01b0382166000908152908190526040902060030154855161010090910460ff169086908490811061101c5761101c612983565b91151560209283029190910190910152508061103781612999565b915050610e72565b50505092959194509250565b6001600160a01b03811660009081526003602052604081205460ff16801561109357506001600160a01b038216600090815260208190526040902060030154610100900460ff165b80156108105750506001600160a01b031660009081526020819052604090206003015460ff1690565b6007546001600160a01b031633146110e65760405162461bcd60e51b81526004016103b09061279b565b6001600160a01b03166000908152600660205260409020805460ff19166001179055565b6001600160a01b03811660009081526003602052604081205460609190829082908190819060ff1661114e5760405162461bcd60e51b81526004016103b09061276e565b6001600160a01b038716600090815260208190526040808220815160c0810190925280548290829061117f906127dd565b80601f01602080910402602001604051908101604052809291908181526020018280546111ab906127dd565b80156111f85780601f106111cd576101008083540402835291602001916111f8565b820191906000526020600020905b8154815290600101906020018083116111db57829003601f168201915b505050505081526020016001820154815260200160028201805461121b906127dd565b80601f0160208091040260200160405190810160405280929190818152602001828054611247906127dd565b80156112945780601f1061126957610100808354040283529160200191611294565b820191906000526020600020905b81548152906001019060200180831161127757829003601f168201915b5050509183525050600382015460ff80821615156020808501919091526101009092041615156040808401919091526004909301546060928301528351908401519284015191840151608085015160a090950151919d939c50919a5090985091965090945092505050565b6005818154811061130f57600080fd5b6000918252602090912001546001600160a01b0316905081565b3360009081526003602052604090205460ff166113585760405162461bcd60e51b81526004016103b09061276e565b336000908152602081905260409020600301805461ff001916610100179055565b3360009081526003602052604090205460ff166113a85760405162461bcd60e51b81526004016103b09061276e565b6001600160a01b0381166113f75760405162461bcd60e51b8152602060048201526016602482015275496e76616c696420766965776572206164647265737360501b60448201526064016103b0565b336001600160a01b0382160361144f5760405162461bcd60e51b815260206004820152601960248201527f43616e6e6f7420617574686f72697a6520796f757273656c660000000000000060448201526064016103b0565b3360008181526004602090815260408083206001600160a01b03861680855290835292819020805460ff19166001179055514281529192917f331bc3d8f61b6cac03fc47a1f28bccd22a1808d9a5422772d0d0c9a29f08a4c49101610a61565b3360009081526003602052604090205460ff166114de5760405162461bcd60e51b81526004016103b09061276e565b60008351116115255760405162461bcd60e51b815260206004820152601360248201527242696f2063616e6e6f7420626520656d70747960681b60448201526064016103b0565b336000908152600160208190526040909120016115428482612865565b5033600090815260016020908152604090912083516115699260029092019185019061207d565b5080511561158f5733600090815260016020526040902060040161158d8282612865565b505b60405142815233907f03754aecf8745159503d95ad9d4b5e5ec503371279ddc036d4ac93cd953f9de29060200160405180910390a2505050565b6007546001600160a01b031633146115f35760405162461bcd60e51b81526004016103b09061279b565b6007546001600160a01b03908116908216036116515760405162461bcd60e51b815260206004820152601f60248201527f43616e6e6f742072656d6f7665206f776e65722061732076657269666965720060448201526064016103b0565b6001600160a01b03166000908152600660205260409020805460ff19169055565b60608060008084336001600160a01b03821614806116b357506001600160a01b038116600090815260046020908152604080832033845290915290205460ff165b806116c857506007546001600160a01b031633145b6116e45760405162461bcd60e51b81526004016103b0906129b2565b6001600160a01b03861660009081526003602052604090205460ff1661171c5760405162461bcd60e51b81526004016103b09061276e565b6001600160a01b038616600090815260026020526040808220815160a0810190925280548290829061174d906127dd565b80601f0160208091040260200160405190810160405280929190818152602001828054611779906127dd565b80156117c65780601f1061179b576101008083540402835291602001916117c6565b820191906000526020600020905b8154815290600101906020018083116117a957829003601f168201915b505050505081526020016001820180546117df906127dd565b80601f016020809104026020016040519081016040528092919081815260200182805461180b906127dd565b80156118585780601f1061182d57610100808354040283529160200191611858565b820191906000526020600020905b81548152906001019060200180831161183b57829003601f168201915b50505050508152602001600282018054611871906127dd565b80601f016020809104026020016040519081016040528092919081815260200182805461189d906127dd565b80156118ea5780601f106118bf576101008083540402835291602001916118ea565b820191906000526020600020905b8154815290600101906020018083116118cd57829003601f168201915b50505091835250506003820154602082015260049091015460ff1615156040918201528151908201516060830151608090930151919a90995091975095509350505050565b3360009081526003602052604090205460ff1661195e5760405162461bcd60e51b81526004016103b09061276e565b3360008181526004602090815260408083206001600160a01b03861680855290835292819020805460ff19169055514281529192917f1f70f37d7ec806c5f86129460b2deb4d70e494a10182d4c929a8427f2f67dac59101610a61565b6060808060008185336001600160a01b03821614806119fd57506001600160a01b038116600090815260046020908152604080832033845290915290205460ff165b80611a1257506007546001600160a01b031633145b611a2e5760405162461bcd60e51b81526004016103b0906129b2565b6001600160a01b03871660009081526003602052604090205460ff16611a665760405162461bcd60e51b81526004016103b09061276e565b6001600160a01b038716600090815260016020526040808220815160e08101909252805482908290611a97906127dd565b80601f0160208091040260200160405190810160405280929190818152602001828054611ac3906127dd565b8015611b105780601f10611ae557610100808354040283529160200191611b10565b820191906000526020600020905b815481529060010190602001808311611af357829003601f168201915b50505050508152602001600182018054611b29906127dd565b80601f0160208091040260200160405190810160405280929190818152602001828054611b55906127dd565b8015611ba25780601f10611b7757610100808354040283529160200191611ba2565b820191906000526020600020905b815481529060010190602001808311611b8557829003601f168201915b5050505050815260200160028201805480602002602001604051908101604052809291908181526020016000905b82821015611c7c578382906000526020600020018054611bef906127dd565b80601f0160208091040260200160405190810160405280929190818152602001828054611c1b906127dd565b8015611c685780601f10611c3d57610100808354040283529160200191611c68565b820191906000526020600020905b815481529060010190602001808311611c4b57829003601f168201915b505050505081526020019060010190611bd0565b50505050815260200160038201548152602001600482018054611c9e906127dd565b80601f0160208091040260200160405190810160405280929190818152602001828054611cca906127dd565b8015611d175780601f10611cec57610100808354040283529160200191611d17565b820191906000526020600020905b815481529060010190602001808311611cfa57829003601f168201915b50505050508152602001600582018054611d30906127dd565b80601f0160208091040260200160405190810160405280929190818152602001828054611d5c906127dd565b8015611da95780601f10611d7e57610100808354040283529160200191611da9565b820191906000526020600020905b815481529060010190602001808311611d8c57829003601f168201915b50505050508152602001600682018054611dc2906127dd565b80601f0160208091040260200160405190810160405280929190818152602001828054611dee906127dd565b8015611e3b5780601f10611e1057610100808354040283529160200191611e3b565b820191906000526020600020905b815481529060010190602001808311611e1e57829003601f168201915b5050509190925250508151602083015160408401516060850151608090950151929d919c509a50929850965090945050505050565b600060208190529081526040902080548190611e8b906127dd565b80601f0160208091040260200160405190810160405280929190818152602001828054611eb7906127dd565b8015611f045780601f10611ed957610100808354040283529160200191611f04565b820191906000526020600020905b815481529060010190602001808311611ee757829003601f168201915b505050505090806001015490806002018054611f1f906127dd565b80601f0160208091040260200160405190810160405280929190818152602001828054611f4b906127dd565b8015611f985780601f10611f6d57610100808354040283529160200191611f98565b820191906000526020600020905b815481529060010190602001808311611f7b57829003601f168201915b505050506003830154600490930154919260ff8082169361010090920416915086565b6001600160a01b038116600081815260026020818152604080842060048101805460ff19166001179055815180830190925260128252716175746f5f76657269666965645f64656d6f60701b828401529490935281905291909101906120219082612865565b506001600160a01b03811660008181526020819052604090819020600301805460ff19166001179055513091907fd8b879062b804f0a2bd0b75ba02d6dbd9999fc9971ece871c8d1aedb447c5f9390610a619042815260200190565b8280548282559060005260206000209081019282156120c3579160200282015b828111156120c357825182906120b39082612865565b509160200191906001019061209d565b506120cf9291506120d3565b5090565b808211156120cf5760006120e782826120f0565b506001016120d3565b5080546120fc906127dd565b6000825580601f1061210c575050565b601f01602090049060005260206000209081019061212a919061212d565b50565b5b808211156120cf576000815560010161212e565b80356001600160a01b038116811461215957600080fd5b919050565b60006020828403121561217057600080fd5b61217982612142565b9392505050565b634e487b7160e01b600052604160045260246000fd5b604051601f8201601f1916810167ffffffffffffffff811182821017156121bf576121bf612180565b604052919050565b600082601f8301126121d857600080fd5b813567ffffffffffffffff8111156121f2576121f2612180565b612205601f8201601f1916602001612196565b81815284602083860101111561221a57600080fd5b816020850160208301376000918101602001919091529392505050565b600082601f83011261224857600080fd5b8135602067ffffffffffffffff8083111561226557612265612180565b8260051b612274838201612196565b938452858101830193838101908886111561228e57600080fd5b84880192505b858310156122ca578235848111156122ac5760008081fd5b6122ba8a87838c01016121c7565b8352509184019190840190612294565b98975050505050505050565b600080600080600080600080610100898b0312156122f357600080fd5b883567ffffffffffffffff8082111561230b57600080fd5b6123178c838d016121c7565b995060208b0135985060408b013591508082111561233457600080fd5b6123408c838d016121c7565b975060608b013591508082111561235657600080fd5b6123628c838d016121c7565b965060808b013591508082111561237857600080fd5b6123848c838d016121c7565b955060a08b013591508082111561239a57600080fd5b6123a68c838d01612237565b945060c08b0135935060e08b01359150808211156123c357600080fd5b506123d08b828c016121c7565b9150509295985092959890939650565b600080604083850312156123f357600080fd5b6123fc83612142565b915061240a60208401612142565b90509250929050565b60008060006060848603121561242857600080fd5b833567ffffffffffffffff8082111561244057600080fd5b61244c878388016121c7565b9450602086013591508082111561246257600080fd5b61246e878388016121c7565b9350604086013591508082111561248457600080fd5b50612491868287016121c7565b9150509250925092565b600080604083850312156124ae57600080fd5b50508035926020909101359150565b6000815180845260005b818110156124e3576020818501810151868301820152016124c7565b506000602082860101526020601f19601f83011685010191505092915050565b600081518084526020808501808196508360051b8101915082860160005b8581101561254b5782840389526125398483516124bd565b98850198935090840190600101612521565b5091979650505050505050565b600081518084526020808501945080840160005b8381101561258a57815115158752958201959082019060010161256c565b509495945050505050565b6080808252855190820181905260009060209060a0840190828901845b828110156125d75781516001600160a01b0316845292840192908401906001016125b2565b505050838103828501526125eb8188612503565b91505082810360408401526126008186612558565b905082810360608401526126148185612558565b979650505050505050565b60c08152600061263260c08301896124bd565b876020840152828103604084015261264a81886124bd565b95151560608401525050911515608083015260a0909101529392505050565b60006020828403121561267b57600080fd5b5035919050565b60008060006060848603121561269757600080fd5b833567ffffffffffffffff808211156126af57600080fd5b6126bb878388016121c7565b945060208601359150808211156126d157600080fd5b61246e87838801612237565b6080815260006126f060808301876124bd565b828103602084015261270281876124bd565b6040840195909552505090151560609091015292915050565b60a08152600061272e60a08301886124bd565b828103602084015261274081886124bd565b905082810360408401526127548187612503565b905084606084015282810360808401526122ca81856124bd565b602080825260139082015272155cd95c881b9bdd081c9959da5cdd195c9959606a1b604082015260600190565b60208082526022908201527f4f6e6c79206f776e65722063616e20706572666f726d2074686973206163746960408201526137b760f11b606082015260800190565b600181811c908216806127f157607f821691505b60208210810361281157634e487b7160e01b600052602260045260246000fd5b50919050565b601f821115610cc657600081815260208120601f850160051c8101602086101561283e5750805b601f850160051c820191505b8181101561285d5782815560010161284a565b505050505050565b815167ffffffffffffffff81111561287f5761287f612180565b6128938161288d84546127dd565b84612817565b602080601f8311600181146128c857600084156128b05750858301515b600019600386901b1c1916600185901b17855561285d565b600085815260208120601f198616915b828110156128f7578886015182559484019460019091019084016128d8565b50858210156129155787850151600019600388901b60f8161c191681555b5050505050600190811b01905550565b60408152600061293860408301856124bd565b90508260208301529392505050565b634e487b7160e01b600052601160045260246000fd5b8082018082111561081057610810612947565b8181038181111561081057610810612947565b634e487b7160e01b600052603260045260246000fd5b6000600182016129ab576129ab612947565b5060010190565b60208082526023908201527f4e6f7420617574686f72697a656420746f20766965772070726976617465206460408201526261746160e81b60608201526080019056fea2646970667358221220ee14f8a516ad5f1bb9000047f13a4455d310f4b5d0be783b91837f210d8d918364736f6c63430008130033",
  "linkReferences": {},
  "deployedLinkReferences": {}
}